{"contracts/HavenRouterV2.sol":{"HavenRouterV2":{"abi":[{"inputs":[{"internalType":"address","name":"_pancakeRouter","type":"address"},{"internalType":"address","name":"_havenToken","type":"address"},{"internalType":"address","name":"_wbnb","type":"address"}],"stateMutability":"nonpayable","type":"constructor"},{"inputs":[],"name":"ApproveFailed","type":"error"},{"inputs":[],"name":"InsufficientOutput","type":"error"},{"inputs":[],"name":"InvalidAddress","type":"error"},{"inputs":[],"name":"InvalidAmount","type":"error"},{"inputs":[],"name":"InvalidSlippage","type":"error"},{"inputs":[],"name":"Paused","type":"error"},{"inputs":[],"name":"SlippageExceeded","type":"error"},{"inputs":[],"name":"TransferFailed","type":"error"},{"inputs":[],"name":"Unauthorized","type":"error"},{"anonymous":false,"inputs":[{"indexed":true,"internalType":"address","name":"updater","type":"address"},{"indexed":false,"internalType":"string","name":"parameter","type":"string"},{"indexed":false,"internalType":"address","name":"oldAddress","type":"address"},{"indexed":false,"internalType":"address","name":"newAddress","type":"address"}],"name":"AddressUpdated","type":"event"},{"anonymous":false,"inputs":[{"indexed":true,"internalType":"address","name":"user","type":"address"},{"indexed":false,"internalType":"uint256","name":"tradesCount","type":"uint256"}],"name":"BatchTradeExecuted","type":"event"},{"anonymous":false,"inputs":[{"indexed":true,"internalType":"address","name":"user","type":"address"},{"indexed":true,"internalType":"address","name":"token","type":"address"},{"indexed":false,"internalType":"uint256","name":"inputAmount","type":"uint256"},{"indexed":false,"internalType":"uint256","name":"tokensOut","type":"uint256"},{"indexed":false,"internalType":"string","name":"inputCurrency","type":"string"}],"name":"BuyExecuted","type":"event"},{"anonymous":false,"inputs":[{"indexed":true,"internalType":"address","name":"updater","type":"address"},{"indexed":false,"internalType":"string","name":"parameter","type":"string"},{"indexed":false,"internalType":"uint256","name":"oldValue","type":"uint256"},{"indexed":false,"internalType":"uint256","name":"newValue","type":"uint256"}],"name":"ConfigUpdated","type":"event"},{"anonymous":false,"inputs":[{"indexed":true,"internalType":"address","name":"token","type":"address"},{"indexed":true,"internalType":"address","name":"to","type":"address"},{"indexed":false,"internalType":"uint256","name":"amount","type":"uint256"}],"name":"EmergencyWithdraw","type":"event"},{"anonymous":false,"inputs":[{"indexed":true,"internalType":"address","name":"user","type":"address"},{"indexed":true,"internalType":"address","name":"token","type":"address"},{"indexed":false,"internalType":"uint256","name":"tokensIn","type":"uint256"},{"indexed":false,"internalType":"uint256","name":"outputAmount","type":"uint256"},{"indexed":false,"internalType":"string","name":"outputCurrency","type":"string"}],"name":"SellExecuted","type":"event"},{"inputs":[{"internalType":"address","name":"bondingCurveToken","type":"address"},{"internalType":"uint256","name":"minTokensOut","type":"uint256"}],"name":"batchBuyBondingCurveWithBNB","outputs":[{"internalType":"uint256","name":"tokensOut","type":"uint256"}],"stateMutability":"payable","type":"function"},{"inputs":[{"internalType":"address","name":"bondingCurveToken","type":"address"},{"internalType":"uint256","name":"havenAmount","type":"uint256"},{"internalType":"uint256","name":"minTokensOut","type":"uint256"}],"name":"batchBuyBondingCurveWithHAVEN","outputs":[{"internalType":"uint256","name":"tokensOut","type":"uint256"}],"stateMutability":"nonpayable","type":"function"},{"inputs":[{"internalType":"address","name":"token","type":"address"},{"internalType":"uint256","name":"minTokensOut","type":"uint256"}],"name":"batchBuyGraduatedWithBNB","outputs":[{"internalType":"uint256","name":"tokensOut","type":"uint256"}],"stateMutability":"payable","type":"function"},{"inputs":[{"internalType":"address","name":"token","type":"address"},{"internalType":"uint256","name":"havenAmount","type":"uint256"},{"internalType":"uint256","name":"minTokensOut","type":"uint256"}],"name":"batchBuyGraduatedWithHAVEN","outputs":[{"internalType":"uint256","name":"tokensOut","type":"uint256"}],"stateMutability":"nonpayable","type":"function"},{"inputs":[{"internalType":"address","name":"bondingCurveToken","type":"address"},{"internalType":"uint256","name":"tokenAmount","type":"uint256"},{"internalType":"uint256","name":"minBNBOut","type":"uint256"}],"name":"batchSellBondingCurveForBNB","outputs":[{"internalType":"uint256","name":"bnbOut","type":"uint256"}],"stateMutability":"nonpayable","type":"function"},{"inputs":[{"internalType":"address","name":"bondingCurveToken","type":"address"},{"internalType":"uint256","name":"tokenAmount","type":"uint256"},{"internalType":"uint256","name":"minHavenOut","type":"uint256"}],"name":"batchSellBondingCurveForHAVEN","outputs":[{"internalType":"uint256","name":"havenOut","type":"uint256"}],"stateMutability":"nonpayable","type":"function"},{"inputs":[{"internalType":"address","name":"token","type":"address"},{"internalType":"uint256","name":"tokenAmount","type":"uint256"},{"internalType":"uint256","name":"minBNBOut","type":"uint256"}],"name":"batchSellGraduatedForBNB","outputs":[{"internalType":"uint256","name":"bnbOut","type":"uint256"}],"stateMutability":"nonpayable","type":"function"},{"inputs":[{"internalType":"address","name":"token","type":"address"},{"internalType":"uint256","name":"tokenAmount","type":"uint256"},{"internalType":"uint256","name":"minHavenOut","type":"uint256"}],"name":"batchSellGraduatedForHAVEN","outputs":[{"internalType":"uint256","name":"havenOut","type":"uint256"}],"stateMutability":"nonpayable","type":"function"},{"inputs":[],"name":"defaultDeadlineOffset","outputs":[{"internalType":"uint256","name":"","type":"uint256"}],"stateMutability":"view","type":"function"},{"inputs":[{"internalType":"address","name":"token","type":"address"},{"internalType":"address","name":"to","type":"address"},{"internalType":"uint256","name":"amount","type":"uint256"}],"name":"emergencyWithdraw","outputs":[],"stateMutability":"nonpayable","type":"function"},{"inputs":[],"name":"havenToken","outputs":[{"internalType":"address","name":"","type":"address"}],"stateMutability":"view","type":"function"},{"inputs":[],"name":"maxSlippageBps","outputs":[{"internalType":"uint256","name":"","type":"uint256"}],"stateMutability":"view","type":"function"},{"inputs":[],"name":"owner","outputs":[{"internalType":"address","name":"","type":"address"}],"stateMutability":"view","type":"function"},{"inputs":[],"name":"pancakeRouter","outputs":[{"internalType":"address","name":"","type":"address"}],"stateMutability":"view","type":"function"},{"inputs":[],"name":"paused","outputs":[{"internalType":"bool","name":"","type":"bool"}],"stateMutability":"view","type":"function"},{"inputs":[{"internalType":"address","name":"bondingCurveToken","type":"address"},{"internalType":"uint256","name":"bnbAmount","type":"uint256"}],"name":"previewBuyBondingCurveWithBNB","outputs":[{"internalType":"uint256","name":"tokensOut","type":"uint256"},{"internalType":"uint256","name":"havenAmount","type":"uint256"}],"stateMutability":"view","type":"function"},{"inputs":[{"internalType":"address","name":"bondingCurveToken","type":"address"},{"internalType":"uint256","name":"havenAmount","type":"uint256"}],"name":"previewBuyBondingCurveWithHAVEN","outputs":[{"internalType":"uint256","name":"tokensOut","type":"uint256"}],"stateMutability":"view","type":"function"},{"inputs":[{"internalType":"address","name":"token","type":"address"},{"internalType":"uint256","name":"bnbAmount","type":"uint256"}],"name":"previewBuyGraduatedWithBNB","outputs":[{"internalType":"uint256","name":"tokensOut","type":"uint256"}],"stateMutability":"view","type":"function"},{"inputs":[{"internalType":"address","name":"token","type":"address"},{"internalType":"uint256","name":"havenAmount","type":"uint256"}],"name":"previewBuyGraduatedWithHAVEN","outputs":[{"internalType":"uint256","name":"tokensOut","type":"uint256"}],"stateMutability":"view","type":"function"},{"inputs":[{"internalType":"address","name":"bondingCurveToken","type":"address"},{"internalType":"uint256","name":"tokenAmount","type":"uint256"}],"name":"previewSellBondingCurveForBNB","outputs":[{"internalType":"uint256","name":"bnbOut","type":"uint256"},{"internalType":"uint256","name":"havenAmount","type":"uint256"}],"stateMutability":"view","type":"function"},{"inputs":[{"internalType":"address","name":"bondingCurveToken","type":"address"},{"internalType":"uint256","name":"tokenAmount","type":"uint256"}],"name":"previewSellBondingCurveForHAVEN","outputs":[{"internalType":"uint256","name":"havenOut","type":"uint256"}],"stateMutability":"view","type":"function"},{"inputs":[{"internalType":"address","name":"token","type":"address"},{"internalType":"uint256","name":"tokenAmount","type":"uint256"}],"name":"previewSellGraduatedForBNB","outputs":[{"internalType":"uint256","name":"bnbOut","type":"uint256"}],"stateMutability":"view","type":"function"},{"inputs":[{"internalType":"address","name":"token","type":"address"},{"internalType":"uint256","name":"tokenAmount","type":"uint256"}],"name":"previewSellGraduatedForHAVEN","outputs":[{"internalType":"uint256","name":"havenOut","type":"uint256"}],"stateMutability":"view","type":"function"},{"inputs":[{"internalType":"uint256","name":"_offset","type":"uint256"}],"name":"setDefaultDeadlineOffset","outputs":[],"stateMutability":"nonpayable","type":"function"},{"inputs":[{"internalType":"address","name":"_havenToken","type":"address"}],"name":"setHavenToken","outputs":[],"stateMutability":"nonpayable","type":"function"},{"inputs":[{"internalType":"uint256","name":"_maxSlippageBps","type":"uint256"}],"name":"setMaxSlippage","outputs":[],"stateMutability":"nonpayable","type":"function"},{"inputs":[{"internalType":"address","name":"_pancakeRouter","type":"address"}],"name":"setPancakeRouter","outputs":[],"stateMutability":"nonpayable","type":"function"},{"inputs":[{"internalType":"bool","name":"_paused","type":"bool"}],"name":"setPaused","outputs":[],"stateMutability":"nonpayable","type":"function"},{"inputs":[{"internalType":"address","name":"_wbnb","type":"address"}],"name":"setWBNB","outputs":[],"stateMutability":"nonpayable","type":"function"},{"inputs":[{"internalType":"address","name":"newOwner","type":"address"}],"name":"transferOwnership","outputs":[],"stateMutability":"nonpayable","type":"function"},{"inputs":[],"name":"wbnb","outputs":[{"internalType":"address","name":"","type":"address"}],"stateMutability":"view","type":"function"},{"stateMutability":"payable","type":"receive"}],"evm":{"bytecode":{"linkReferences":{},"object":"608034620000ff57601f620026e738819003918201601f191683019291906001600160401b0384118385101762000104578160609284926040968752833981010312620000ff5762000051816200011a565b6200006c8362000064602085016200011a565b93016200011a565b61012c6004556113886005556001600160a01b03918216929091908315620000ee578116918215620000ee5716908115620000dd5760018060a01b03199283600054161760005582600154161760015581600254161760025533906003541617600355516125b79081620001308239f35b835163e6c4247b60e01b8152600490fd5b845163e6c4247b60e01b8152600490fd5b600080fd5b634e487b7160e01b600052604160045260246000fd5b51906001600160a01b0382168203620000ff5756fe6080604081815260049081361015610022575b505050361561002057600080fd5b005b600092833560e01c90816316c38b3c146122235750806317421db4146120fe57806322e988a4146120a757806329fe726914611eb0578063324fc30c14611e455780633e598cb914611b8e57806343f68a4914611afa578063584b5a3814611a545780635af39811146119bd5780635c975abb146119995780636231af911461191057806364f5113d1461188e578063653028e814611800578063781380c0146114c85780637bcafc821461149f5780638661a02a1461137b5780638d72647e146113525780638da5cb5b14611329578063b1998e101461111f578063c21ebd07146110f7578063c4aa7395146110d8578063cab27a6414611035578063ccb6303e14610d95578063e63ea40814610bee578063e8feca3014610bd0578063e9ea09b314610aed578063eeb346271461085d578063f018ad9a146105d5578063f2fde38b14610532578063f8316c90146104875763fa7c313f0361001257346104835761018e3661228a565b9360ff60065416610475576001600160a01b039283169283156104665782156104575784516370a0823160e01b80825230848301526020989189816024818a5afa9081156103b557839161042a575b5087516323b872dd60e01b815233868201908152306020820152604081018890528b90829081906060010381878c5af1801561042057610403575b508751918252308583015289826024818a5afa80156103b55783906103cf575b610242925061242c565b80156103bf578154875163095ea7b360e01b81529084166001600160a01b0316858201908152602081018390528a90829081906040010381868b5af180156103b557610388575b50865190610296826122fa565b600382526060368b840137866102ab83612350565b5283600154166102ba83612373565b5283600254166102c983612383565b52333193835416906102dc865442612393565b823b1561038457918a8588959361030a82968e519889978896879563791ac94760e01b8752339387016123f3565b03925af1801561037a57610363575b505061032690333161242c565b948510610355575060008051602061256283398151915283518061034c87339583612465565b0390a351908152f35b8351638199f5f360e01b8152fd5b61036d82916122b4565b6103775780610319565b80fd5b87513d84823e3d90fd5b8480fd5b6103a7908a3d8c116103ae575b61039f8183612316565b810190612338565b5038610289565b503d610395565b88513d85823e3d90fd5b865163162908e360e11b81528490fd5b508982813d83116103fc575b6103e58183612316565b810103126103f7576102429151610238565b600080fd5b503d6103db565b610419908b3d8d116103ae5761039f8183612316565b5038610218565b89513d86823e3d90fd5b90508981813d8311610450575b6104418183612316565b810103126103f75751386101dd565b503d610437565b50835163162908e360e11b8152fd5b50835163e6c4247b60e01b8152fd5b83516313d0ff5960e31b8152fd5b8280fd5b5034610483576020366003190112610483576104a1612274565b6003546001600160a01b0391908216330361052457811692831561051657508284549280519260608452600d60608501526c3830b731b0b5b2a937baba32b960991b60808501528416602084015282015260008051602061254283398151915260a03392a26001600160a01b03191617815580f35b825163e6c4247b60e01b8152fd5b5050516282b42960e81b8152fd5b50346104835760203660031901126104835761054c612274565b600354916001600160a01b0380841692338490036105c657169384156105b85750808491519260608452600560608501526437bbb732b960d91b6080850152602084015282015260008051602061254283398151915260a03392a26001600160a01b0319161760035580f35b905163e6c4247b60e01b8152fd5b82516282b42960e81b81528690fd5b50346104835781926105e63661228a565b60ff600694929394541661084d576001600160a01b038481169490851561083d57841561082d5760015487516323b872dd60e01b8152339a81019a8b523060208c81019190915260408c018890529a90918b91839185169082908990829060600103925af1801561082357928a92879261069695610806575b506001541690868b8b519687958694859363095ea7b360e01b8552840160209093929193604081019460018060a01b031681520152565b03925af180156107fc576107df575b50833b156107db57845190631adfd7bd60e31b825283878301526024820152818160448183885af180156107bd579082916107c7575b505083516370a0823160e01b81523086820152948686602481875afa9586156107bd579087918397610788575b50855163a9059cbb60e01b81523391810191825260208201889052929190839081906040015b038184885af190811561077d5750610760575b5060008051602061252283398151915283518061034c87339583612439565b61077690863d88116103ae5761039f8183612316565b5038610741565b8551903d90823e3d90fd5b828194939298503d83116107b6575b6107a18183612316565b810103126103f757905194869061072e610708565b503d610797565b85513d84823e3d90fd5b6107d0906122b4565b6103775780386106db565b5080fd5b6107f590883d8a116103ae5761039f8183612316565b50386106a5565b86513d85823e3d90fd5b61081c90853d87116103ae5761039f8183612316565b503861065f565b88513d87823e3d90fd5b865163162908e360e11b81528890fd5b865163e6c4247b60e01b81528890fd5b84516313d0ff5960e31b81528690fd5b50346104835761086c3661228a565b9360ff60065416610475576001600160a01b039283169283156104665782156104575760015485516323b872dd60e01b815233848201908152306020828101919091526040820187905299928a91839186169082908690829060600103925af1801561037a57610ad0575b506001548154875163095ea7b360e01b81529084166001600160a01b03168582019081526020810187905290918a91839186169082908690829060400103925af1801561037a57610ab3575b50855190610930826122de565b6002825286368a840137826001541661094883612350565b528561095383612373565b528651916370a0823160e01b9384845233868501528a846024818b5afa938415610aa9578394610a7a575b5082541661098d865442612393565b813b15610a76579183918b838a6109bb8b978f5198899788968795635c11d79560e01b8752339387016123f3565b03925af18015610a6c57908291610a58575b5050865192835233848401528883602481895afa908115610a4d5790610a1e575b6109f8925061242c565b948510610355575060008051602061252283398151915283518061034c87339583612439565b508782813d8311610a46575b610a348183612316565b810103126103f7576109f891516109ee565b503d610a2a565b8751903d90823e3d90fd5b610a61906122b4565b6103775780386109cd565b88513d84823e3d90fd5b8380fd5b9093508a81813d8311610aa2575b610a928183612316565b810103126103f75751923861097e565b503d610a88565b89513d85823e3d90fd5b610ac990893d8b116103ae5761039f8183612316565b5038610923565b610ae690893d8b116103ae5761039f8183612316565b50386108d7565b50903461048357828260031936011261037757610b7891610b0c612274565b90845191610b19836122de565b60028352853660208501376001546001600160a01b0391908216610b3c85612350565b5281610b4785612373565b9116905283541690855180958194829363d06ca61f60e01b84526024359084015288602484015260448301906123b6565b03915afa908115610bc45790610b99918460209592610ba1575b5050612373565b519051908152f35b610bbd92503d8091833e610bb58183612316565b81019061248f565b3880610b92565b505051903d90823e3d90fd5b50903461048357826003193601126104835760209250549051908152f35b503461048357606036600319011261048357610c08612274565b6001600160a01b03602435818116949093918585036103f7576044359381600354163303610d86578615610d76571693839085610cd957508680808093895af13d15610cd4573d67ffffffffffffffff8111610cc157835190610c75601f8201601f191660200183612316565b81528760203d92013e5b15610cb357507ff24ef89f38eadc1bde50701ad6e4d6d11a2dc24f7cf834a486991f3883328504916020915b51908152a380f35b90516312171d8360e31b8152fd5b634e487b7160e01b885260418352602488fd5b610c7f565b835163a9059cbb60e01b81526001600160a01b039091168382019081526020818101939093529091908290819060400103818a895af1908115610d6c578791610d4e575b5015610cb357507ff24ef89f38eadc1bde50701ad6e4d6d11a2dc24f7cf834a486991f388332850491602091610cab565b610d66915060203d81116103ae5761039f8183612316565b38610d1d565b83513d89823e3d90fd5b835163e6c4247b60e01b81528390fd5b83516282b42960e81b81528390fd5b508290346107db57610da63661228a565b93919460ff60065416610475576001600160a01b039586169283156104665782156104575784516323b872dd60e01b81523383820190815230602082810191909152604082018690529891908990829081906060010381868a5af1801561100e57611018575b50843b156107db57855163d79875eb60e01b815284848201528260248201528281604481838a5af1801561100e57908391610ffa575b505060015486516370a0823160e01b81523085820152919081168983602481845afa928315610fb1578493610fcb575b508215610fbb578354885163095ea7b360e01b81529083166001600160a01b03168682019081526020810185905290918b9183919082908890829060400103925af18015610fb15792898580948d948997610f94575b508b805195610ed6876122de565b6002875236908701378060015416610eed86612350565b528060025416610efc86612373565b5281541692610f2b610f0f885442612393565b8d516318cbafe560e01b815298899788968795339387016123f3565b03925af1918215610f89579081610f4793610f6e575050612373565b51948510610355575060008051602061256283398151915283518061034c87339583612465565b610f8292503d8091833e610bb58183612316565b8880610b92565b8651903d90823e3d90fd5b610faa90863d88116103ae5761039f8183612316565b508e610ec8565b88513d86823e3d90fd5b875163bb2875c360e01b81528590fd5b9092508981813d8311610ff3575b610fe38183612316565b810103126103f75751918a610e72565b503d610fd9565b611003906122b4565b6107db578189610e42565b87513d85823e3d90fd5b61102e90893d8b116103ae5761039f8183612316565b5088610e0c565b50903461048357602036600319011261048357611050612274565b6003546001600160a01b03929190831633036110ca5782169283156110bd57839060025493815193606085526060850152633bb1373160e11b60808501528416602084015282015260008051602061254283398151915260a03392a26001600160a01b0319161760025580f35b5163e6c4247b60e01b8152fd5b5082516282b42960e81b8152fd5b8382346107db57816003193601126107db576020906005549051908152f35b8382346107db57816003193601126107db57905490516001600160a01b039091168152602090f35b508060031936011261048357611133612274565b6024359260ff6006541661131b576001600160a01b0391821691821561130c5734156112fd578351611164816122fa565b6003815260209660603689840137826002541661118083612350565b52826001541661118f83612373565b528461119a83612383565b528551916370a0823160e01b93848452338685015289846024818a5afa9384156103b55783946112ce575b508254166111d4865442612393565b91813b15610a7657839161120b918b8b519586948593849363b6f9de9560e01b85528d8501526080602485015260848401906123b6565b903360448401526064830152039134905af1801561037a579082916112ba575b5050855192835233848401528783602481885afa908115610f89579061128b575b611256925061242c565b93841061127d5750815160008051602061252283398151915233918061034c873483612465565b8251638199f5f360e01b8152fd5b508682813d83116112b3575b6112a18183612316565b810103126103f757611256915161124c565b503d611297565b6112c3906122b4565b61037757803861122b565b9093508981813d83116112f6575b6112e68183612316565b810103126103f7575192386111c5565b503d6112dc565b50825163162908e360e11b8152fd5b50825163e6c4247b60e01b8152fd5b82516313d0ff5960e31b8152fd5b8382346107db57816003193601126107db5760035490516001600160a01b039091168152602090f35b8382346107db57816003193601126107db5760025490516001600160a01b039091168152602090f35b509034610483578160031936011261048357611395612274565b825163fb3dd95f60e01b81526024803584830152909185916001600160a01b039186918591829085165afa9283156107bd57829361146d575b508293611434938651926113e1846122de565b600284528736602086013780600154166113fa85612350565b52806002541661140985612373565b528454169187519586948593849363d06ca61f60e01b855284015289602484015260448301906123b6565b03915afa908115611460578461145293949592610ba1575050612373565b519082519182526020820152f35b50505051903d90823e3d90fd5b611434935061149190863d8811611498575b6114898183612316565b81019061250b565b50926113ce565b503d61147f565b8382346107db57816003193601126107db5760015490516001600160a01b039091168152602090f35b5034610483576114d73661228a565b9360ff60065416610475576001600160a01b03928316928315610466578215610457578451966370a0823160e01b9182895230848a015260209889816024818a5afa9081156103b55783916117d3575b5087516323b872dd60e01b815233868201908152306020820152604081018890528b90829081906060010381878c5af18015610420576117b6575b5087519084825230868301528a826024818b5afa8015610420578490611787575b61158d925061242c565b8015611777578254885163095ea7b360e01b81529083166001600160a01b0316868201908152602081018390528b90829081906040010381878c5af18015610420579060249493929161175a575b508851906115e8826122de565b6002825289368d840137886115fc83612350565b528b83600154168061160d85612373565b528b51968780928a8252338c8301525afa948515611750578495611721575b50828454169061163d885442612393565b823b1561171d57918c868a959361166c8f9683975198899788968795635c11d79560e01b8752339387016123f3565b03925af18015610aa9578b92918491611704575b505060015416936024895180968193825233898301525afa908115610a4d57906116d5575b6116af925061242c565b948510610355575060008051602061256283398151915283518061034c87339583612439565b508782813d83116116fd575b6116eb8183612316565b810103126103f7576116af91516116a5565b503d6116e1565b611710919293506122b4565b6107db5789908238611680565b8580fd5b9094508b81813d8311611749575b6117398183612316565b810103126103f75751933861162c565b503d61172f565b8a513d86823e3d90fd5b611770908c8d3d106103ae5761039f8183612316565b50386115db565b875163162908e360e11b81528590fd5b508a82813d83116117af575b61179d8183612316565b810103126103f75761158d9151611583565b503d611793565b6117cc908b3d8d116103ae5761039f8183612316565b5038611562565b90508981813d83116117f9575b6117ea8183612316565b810103126103f7575138611527565b503d6117e0565b50346104835760203660031901126104835761181a612274565b6003546001600160a01b039190821633036105245781169283156105165750826001549280519260608452600a6060850152693430bb32b72a37b5b2b760b11b60808501528416602084015282015260008051602061254283398151915260a03392a26001600160a01b0319161760015580f35b5034610483578060031936011261048357806118a8612274565b815163fb3dd95f60e01b8152602480359582019590955293849182906001600160a01b03165afa91821561190657602093926118e6575b5051908152f35b816118fe9293503d8411611498576114898183612316565b5090386118df565b81513d85823e3d90fd5b50903461048357828260031936011261037757610b789161192f612274565b9084519161193c836122de565b600283528536602085013761195083612350565b6001600160a01b039182169052600154811661196b84612373565b5283541690855180958194829363d06ca61f60e01b84526024359084015288602484015260448301906123b6565b8382346107db57816003193601126107db5760209060ff6006541690519015158152f35b50903461048357602036600319011261048357600354813592906001600160a01b03163303611a485782825491805192606084526015606085015274191959985d5b1d111958591b1a5b9953d9999cd95d605a1b608085015260208401528201527fc8004015853107e4cb5efa9fdfc530f3530f5f5d8a833a9d67e2efe39717d7f660a03392a25580f35b516282b42960e81b8152fd5b50903461048357828260031936011261037757611abe91611a73612274565b90845191611a80836122fa565b6003835260603660208501376002546001600160a01b0391908216611aa485612350565b528160015416611ab385612373565b5281610b4785612383565b03915afa908115610bc45790610b99918460209592611adf575b5050612383565b611af392503d8091833e610bb58183612316565b3880611ad8565b503461048357602036600319011261048357600354823592906001600160a01b03163303611b815750816005549180519260608452600e60608501526d6d6178536c69707061676542707360901b608085015260208401528201527fc8004015853107e4cb5efa9fdfc530f3530f5f5d8a833a9d67e2efe39717d7f660a03392a260055580f35b90516282b42960e81b8152fd5b508083916003193601126107db57611ba4612274565b6024359260ff60065416611e35576001600160a01b039482861692831561046657341561045757845196611bd7886122de565b6002885260209786368a8301378160025416611bf282612350565b528160015416611c0182612373565b5284611c3e83825416611c15875442612393565b938a51809581948293637ff36ab560e01b8452878c8501526080602485015260848401906123b6565b903060448401526064830152039134905af1908115611e2b5791611c6e8a92611ca7948891611e11575b50612373565b519384916001541690878a5180968195829463095ea7b360e01b84528b840160209093929193604081019460018060a01b031681520152565b03925af18015611e0757611dea575b50833b1561048357845190631adfd7bd60e31b825282820152856024820152828160448183885af18015611dcc57908391611dd6575b505083516370a0823160e01b81523082820152948686602481875afa958615611dcc578396611d9d575b50851061035557835163a9059cbb60e01b815233918101918252602082018690529190869083908190604001038184875af1908115611d925750611d75575b50815160008051602061252283398151915233918061034c873483612465565b611d8b90853d87116103ae5761039f8183612316565b5084611d55565b8451903d90823e3d90fd5b9095508681813d8311611dc5575b611db58183612316565b810103126103f757519487611d16565b503d611dab565b85513d85823e3d90fd5b611ddf906122b4565b6107db578187611cec565b611e0090883d8a116103ae5761039f8183612316565b5087611cb6565b86513d86823e3d90fd5b611e2591503d808a833e610bb58183612316565b8c611c68565b87513d87823e3d90fd5b82516313d0ff5960e31b81528590fd5b50903461048357828260031936011261037757611abe91611e64612274565b90845191611e71836122fa565b600383526060366020850137611e8683612350565b6001600160a01b0391821690526001548116611ea184612373565b52806002541661196b84612383565b503461048357611ebf3661228a565b93919460ff60065416612097576001600160a01b0395861692831561208957821561207b5784516323b872dd60e01b81523382820190815230602082810191909152604082018690529891908990829081906060010381878a5af180156120415761205e575b50843b1561048357855163d79875eb60e01b815284838201528760248201528381604481838a5af180156120415761204b575b5060015416908551966370a0823160e01b885230828901528888602481865afa978815612041578498612012575b50871061200457855163a9059cbb60e01b815233918101918252602082018890529291889184919082908590829060400103925af190811561077d5750611fe7575b5060008051602061256283398151915283518061034c87339583612439565b611ffd90863d88116103ae5761039f8183612316565b5038611fc8565b8551638199f5f360e01b8152fd5b9097508881813d831161203a575b61202a8183612316565b810103126103f757519638611f86565b503d612020565b87513d86823e3d90fd5b612057909391936122b4565b9138611f58565b61207490893d8b116103ae5761039f8183612316565b5038611f25565b845163162908e360e11b8152fd5b845163e6c4247b60e01b8152fd5b83516313d0ff5960e31b81528390fd5b5034610483578060031936011261048357806120c1612274565b8151634815327960e01b8152602480359582019590955293849182906001600160a01b03165afa91821561190657602093926118e6575051908152f35b509190346107db57826003193601126107db57612119612274565b8351612124816122de565b60028152843660208301376002546001600160a01b039161218991869190841661214d82612350565b52836001541661215c82612373565b52838254168851808095819463d06ca61f60e01b83526024358b8401528c602484015260448301906123b6565b03915afa908115612219576121a987939260249288916121ff5750612373565b518351634815327960e01b8152958601819052949384928391165afa928315611d9257926121df575b5082519182526020820152f35b6121f7919250833d8511611498576114898183612316565b5090386121d2565b61221391503d808a833e610bb58183612316565b38611c68565b86513d87823e3d90fd5b8490843461048357602036600319011261048357803591821515809303610a76576003546001600160a01b0316330361226957505060ff80196006541691161760065580f35b6282b42960e81b8152fd5b600435906001600160a01b03821682036103f757565b60609060031901126103f7576004356001600160a01b03811681036103f757906024359060443590565b67ffffffffffffffff81116122c857604052565b634e487b7160e01b600052604160045260246000fd5b6060810190811067ffffffffffffffff8211176122c857604052565b6080810190811067ffffffffffffffff8211176122c857604052565b90601f8019910116810190811067ffffffffffffffff8211176122c857604052565b908160209103126103f7575180151581036103f75790565b80511561235d5760200190565b634e487b7160e01b600052603260045260246000fd5b80516001101561235d5760400190565b80516002101561235d5760600190565b919082018092116123a057565b634e487b7160e01b600052601160045260246000fd5b90815180825260208080930193019160005b8281106123d6575050505090565b83516001600160a01b0316855293810193928101926001016123c8565b919260809361241892979695978452602084015260a0604084015260a08301906123b6565b6001600160a01b0390951660608201520152565b919082039182116123a057565b909160a092825260208201526060604082015260056060820152642420ab22a760d91b60808201520190565b909160a0928252602082015260606040820152600360608201526221272160e91b60808201520190565b9060209081838203126103f757825167ffffffffffffffff938482116103f7570181601f820112156103f75780519384116122c8578360051b90604051946124d985840187612316565b855283808601928201019283116103f7578301905b8282106124fc575050505090565b815181529083019083016124ee565b91908260409103126103f757602082519201519056fedbf644d856b00690afba8d4cd3fb1c6afa1f453860c0e83555bcb0cb733adf7244573a89df583c0b1e16e6c22d41b4e39de1ca341d0a234b7117ccc2bf727dc4a995d58d3ff5874a6dddaea0cef425f86801752ff3be4102724cc656769e3724a2646970667358221220d554e73a380df48ad7791b4f08adfe3e37104034da5819b00ff9462468710fd664736f6c63430008140033","opcodes":"PUSH1 0x80 CALLVALUE PUSH3 0xFF JUMPI PUSH1 0x1F PUSH3 0x26E7 CODESIZE DUP2 SWAP1 SUB SWAP2 DUP3 ADD PUSH1 0x1F NOT AND DUP4 ADD SWAP3 SWAP2 SWAP1 PUSH1 0x1 PUSH1 0x1 PUSH1 0x40 SHL SUB DUP5 GT DUP4 DUP6 LT OR PUSH3 0x104 JUMPI DUP2 PUSH1 0x60 SWAP3 DUP5 SWAP3 PUSH1 0x40 SWAP7 DUP8 MSTORE DUP4 CODECOPY DUP2 ADD SUB SLT PUSH3 0xFF JUMPI PUSH3 0x51 DUP2 PUSH3 0x11A JUMP JUMPDEST PUSH3 0x6C DUP4 PUSH3 0x64 PUSH1 0x20 DUP6 ADD PUSH3 0x11A JUMP JUMPDEST SWAP4 ADD PUSH3 0x11A JUMP JUMPDEST PUSH2 0x12C PUSH1 0x4 SSTORE PUSH2 0x1388 PUSH1 0x5 SSTORE PUSH1 0x1 PUSH1 0x1 PUSH1 0xA0 SHL SUB SWAP2 DUP3 AND SWAP3 SWAP1 SWAP2 SWAP1 DUP4 ISZERO PUSH3 0xEE JUMPI DUP2 AND SWAP2 DUP3 ISZERO PUSH3 0xEE JUMPI AND SWAP1 DUP2 ISZERO PUSH3 0xDD JUMPI PUSH1 0x1 DUP1 PUSH1 0xA0 SHL SUB NOT SWAP3 DUP4 PUSH1 0x0 SLOAD AND OR PUSH1 0x0 SSTORE DUP3 PUSH1 0x1 SLOAD AND OR PUSH1 0x1 SSTORE DUP2 PUSH1 0x2 SLOAD AND OR PUSH1 0x2 SSTORE CALLER SWAP1 PUSH1 0x3 SLOAD AND OR PUSH1 0x3 SSTORE MLOAD PUSH2 0x25B7 SWAP1 DUP2 PUSH3 0x130 DUP3 CODECOPY RETURN JUMPDEST DUP4 MLOAD PUSH4 0xE6C4247B PUSH1 0xE0 SHL DUP2 MSTORE PUSH1 0x4 SWAP1 REVERT JUMPDEST DUP5 MLOAD PUSH4 0xE6C4247B PUSH1 0xE0 SHL DUP2 MSTORE PUSH1 0x4 SWAP1 REVERT JUMPDEST PUSH1 0x0 DUP1 REVERT JUMPDEST PUSH4 0x4E487B71 PUSH1 0xE0 SHL PUSH1 0x0 MSTORE PUSH1 0x41 PUSH1 0x4 MSTORE PUSH1 0x24 PUSH1 0x0 REVERT JUMPDEST MLOAD SWAP1 PUSH1 0x1 PUSH1 0x1 PUSH1 0xA0 SHL SUB DUP3 AND DUP3 SUB PUSH3 0xFF JUMPI JUMP INVALID PUSH1 0x80 PUSH1 0x40 DUP2 DUP2 MSTORE PUSH1 0x4 SWAP1 DUP2 CALLDATASIZE LT ISZERO PUSH2 0x22 JUMPI JUMPDEST POP POP POP CALLDATASIZE ISZERO PUSH2 0x20 JUMPI PUSH1 0x0 DUP1 REVERT JUMPDEST STOP JUMPDEST PUSH1 0x0 SWAP3 DUP4 CALLDATALOAD PUSH1 0xE0 SHR SWAP1 DUP2 PUSH4 0x16C38B3C EQ PUSH2 0x2223 JUMPI POP DUP1 PUSH4 0x17421DB4 EQ PUSH2 0x20FE JUMPI DUP1 PUSH4 0x22E988A4 EQ PUSH2 0x20A7 JUMPI DUP1 PUSH4 0x29FE7269 EQ PUSH2 0x1EB0 JUMPI DUP1 PUSH4 0x324FC30C EQ PUSH2 0x1E45 JUMPI DUP1 PUSH4 0x3E598CB9 EQ PUSH2 0x1B8E JUMPI DUP1 PUSH4 0x43F68A49 EQ PUSH2 0x1AFA JUMPI DUP1 PUSH4 0x584B5A38 EQ PUSH2 0x1A54 JUMPI DUP1 PUSH4 0x5AF39811 EQ PUSH2 0x19BD JUMPI DUP1 PUSH4 0x5C975ABB EQ PUSH2 0x1999 JUMPI DUP1 PUSH4 0x6231AF91 EQ PUSH2 0x1910 JUMPI DUP1 PUSH4 0x64F5113D EQ PUSH2 0x188E JUMPI DUP1 PUSH4 0x653028E8 EQ PUSH2 0x1800 JUMPI DUP1 PUSH4 0x781380C0 EQ PUSH2 0x14C8 JUMPI DUP1 PUSH4 0x7BCAFC82 EQ PUSH2 0x149F JUMPI DUP1 PUSH4 0x8661A02A EQ PUSH2 0x137B JUMPI DUP1 PUSH4 0x8D72647E EQ PUSH2 0x1352 JUMPI DUP1 PUSH4 0x8DA5CB5B EQ PUSH2 0x1329 JUMPI DUP1 PUSH4 0xB1998E10 EQ PUSH2 0x111F JUMPI DUP1 PUSH4 0xC21EBD07 EQ PUSH2 0x10F7 JUMPI DUP1 PUSH4 0xC4AA7395 EQ PUSH2 0x10D8 JUMPI DUP1 PUSH4 0xCAB27A64 EQ PUSH2 0x1035 JUMPI DUP1 PUSH4 0xCCB6303E EQ PUSH2 0xD95 JUMPI DUP1 PUSH4 0xE63EA408 EQ PUSH2 0xBEE JUMPI DUP1 PUSH4 0xE8FECA30 EQ PUSH2 0xBD0 JUMPI DUP1 PUSH4 0xE9EA09B3 EQ PUSH2 0xAED JUMPI DUP1 PUSH4 0xEEB34627 EQ PUSH2 0x85D JUMPI DUP1 PUSH4 0xF018AD9A EQ PUSH2 0x5D5 JUMPI DUP1 PUSH4 0xF2FDE38B EQ PUSH2 0x532 JUMPI DUP1 PUSH4 0xF8316C90 EQ PUSH2 0x487 JUMPI PUSH4 0xFA7C313F SUB PUSH2 0x12 JUMPI CALLVALUE PUSH2 0x483 JUMPI PUSH2 0x18E CALLDATASIZE PUSH2 0x228A JUMP JUMPDEST SWAP4 PUSH1 0xFF PUSH1 0x6 SLOAD AND PUSH2 0x475 JUMPI PUSH1 0x1 PUSH1 0x1 PUSH1 0xA0 SHL SUB SWAP3 DUP4 AND SWAP3 DUP4 ISZERO PUSH2 0x466 JUMPI DUP3 ISZERO PUSH2 0x457 JUMPI DUP5 MLOAD PUSH4 0x70A08231 PUSH1 0xE0 SHL DUP1 DUP3 MSTORE ADDRESS DUP5 DUP4 ADD MSTORE PUSH1 0x20 SWAP9 SWAP2 DUP10 DUP2 PUSH1 0x24 DUP2 DUP11 GAS STATICCALL SWAP1 DUP2 ISZERO PUSH2 0x3B5 JUMPI DUP4 SWAP2 PUSH2 0x42A JUMPI JUMPDEST POP DUP8 MLOAD PUSH4 0x23B872DD PUSH1 0xE0 SHL DUP2 MSTORE CALLER DUP7 DUP3 ADD SWAP1 DUP2 MSTORE ADDRESS PUSH1 0x20 DUP3 ADD MSTORE PUSH1 0x40 DUP2 ADD DUP9 SWAP1 MSTORE DUP12 SWAP1 DUP3 SWAP1 DUP2 SWAP1 PUSH1 0x60 ADD SUB DUP2 DUP8 DUP13 GAS CALL DUP1 ISZERO PUSH2 0x420 JUMPI PUSH2 0x403 JUMPI JUMPDEST POP DUP8 MLOAD SWAP2 DUP3 MSTORE ADDRESS DUP6 DUP4 ADD MSTORE DUP10 DUP3 PUSH1 0x24 DUP2 DUP11 GAS STATICCALL DUP1 ISZERO PUSH2 0x3B5 JUMPI DUP4 SWAP1 PUSH2 0x3CF JUMPI JUMPDEST PUSH2 0x242 SWAP3 POP PUSH2 0x242C JUMP JUMPDEST DUP1 ISZERO PUSH2 0x3BF JUMPI DUP2 SLOAD DUP8 MLOAD PUSH4 0x95EA7B3 PUSH1 0xE0 SHL DUP2 MSTORE SWAP1 DUP5 AND PUSH1 0x1 PUSH1 0x1 PUSH1 0xA0 SHL SUB AND DUP6 DUP3 ADD SWAP1 DUP2 MSTORE PUSH1 0x20 DUP2 ADD DUP4 SWAP1 MSTORE DUP11 SWAP1 DUP3 SWAP1 DUP2 SWAP1 PUSH1 0x40 ADD SUB DUP2 DUP7 DUP12 GAS CALL DUP1 ISZERO PUSH2 0x3B5 JUMPI PUSH2 0x388 JUMPI JUMPDEST POP DUP7 MLOAD SWAP1 PUSH2 0x296 DUP3 PUSH2 0x22FA JUMP JUMPDEST PUSH1 0x3 DUP3 MSTORE PUSH1 0x60 CALLDATASIZE DUP12 DUP5 ADD CALLDATACOPY DUP7 PUSH2 0x2AB DUP4 PUSH2 0x2350 JUMP JUMPDEST MSTORE DUP4 PUSH1 0x1 SLOAD AND PUSH2 0x2BA DUP4 PUSH2 0x2373 JUMP JUMPDEST MSTORE DUP4 PUSH1 0x2 SLOAD AND PUSH2 0x2C9 DUP4 PUSH2 0x2383 JUMP JUMPDEST MSTORE CALLER BALANCE SWAP4 DUP4 SLOAD AND SWAP1 PUSH2 0x2DC DUP7 SLOAD TIMESTAMP PUSH2 0x2393 JUMP JUMPDEST DUP3 EXTCODESIZE ISZERO PUSH2 0x384 JUMPI SWAP2 DUP11 DUP6 DUP9 SWAP6 SWAP4 PUSH2 0x30A DUP3 SWAP7 DUP15 MLOAD SWAP9 DUP10 SWAP8 DUP9 SWAP7 DUP8 SWAP6 PUSH4 0x791AC947 PUSH1 0xE0 SHL DUP8 MSTORE CALLER SWAP4 DUP8 ADD PUSH2 0x23F3 JUMP JUMPDEST SUB SWAP3 GAS CALL DUP1 ISZERO PUSH2 0x37A JUMPI PUSH2 0x363 JUMPI JUMPDEST POP POP PUSH2 0x326 SWAP1 CALLER BALANCE PUSH2 0x242C JUMP JUMPDEST SWAP5 DUP6 LT PUSH2 0x355 JUMPI POP PUSH1 0x0 DUP1 MLOAD PUSH1 0x20 PUSH2 0x2562 DUP4 CODECOPY DUP2 MLOAD SWAP2 MSTORE DUP4 MLOAD DUP1 PUSH2 0x34C DUP8 CALLER SWAP6 DUP4 PUSH2 0x2465 JUMP JUMPDEST SUB SWAP1 LOG3 MLOAD SWAP1 DUP2 MSTORE RETURN JUMPDEST DUP4 MLOAD PUSH4 0x8199F5F3 PUSH1 0xE0 SHL DUP2 MSTORE REVERT JUMPDEST PUSH2 0x36D DUP3 SWAP2 PUSH2 0x22B4 JUMP JUMPDEST PUSH2 0x377 JUMPI DUP1 PUSH2 0x319 JUMP JUMPDEST DUP1 REVERT JUMPDEST DUP8 MLOAD RETURNDATASIZE DUP5 DUP3 RETURNDATACOPY RETURNDATASIZE SWAP1 REVERT JUMPDEST DUP5 DUP1 REVERT JUMPDEST PUSH2 0x3A7 SWAP1 DUP11 RETURNDATASIZE DUP13 GT PUSH2 0x3AE JUMPI JUMPDEST PUSH2 0x39F DUP2 DUP4 PUSH2 0x2316 JUMP JUMPDEST DUP2 ADD SWAP1 PUSH2 0x2338 JUMP JUMPDEST POP CODESIZE PUSH2 0x289 JUMP JUMPDEST POP RETURNDATASIZE PUSH2 0x395 JUMP JUMPDEST DUP9 MLOAD RETURNDATASIZE DUP6 DUP3 RETURNDATACOPY RETURNDATASIZE SWAP1 REVERT JUMPDEST DUP7 MLOAD PUSH4 0x162908E3 PUSH1 0xE1 SHL DUP2 MSTORE DUP5 SWAP1 REVERT JUMPDEST POP DUP10 DUP3 DUP2 RETURNDATASIZE DUP4 GT PUSH2 0x3FC JUMPI JUMPDEST PUSH2 0x3E5 DUP2 DUP4 PUSH2 0x2316 JUMP JUMPDEST DUP2 ADD SUB SLT PUSH2 0x3F7 JUMPI PUSH2 0x242 SWAP2 MLOAD PUSH2 0x238 JUMP JUMPDEST PUSH1 0x0 DUP1 REVERT JUMPDEST POP RETURNDATASIZE PUSH2 0x3DB JUMP JUMPDEST PUSH2 0x419 SWAP1 DUP12 RETURNDATASIZE DUP14 GT PUSH2 0x3AE JUMPI PUSH2 0x39F DUP2 DUP4 PUSH2 0x2316 JUMP JUMPDEST POP CODESIZE PUSH2 0x218 JUMP JUMPDEST DUP10 MLOAD RETURNDATASIZE DUP7 DUP3 RETURNDATACOPY RETURNDATASIZE SWAP1 REVERT JUMPDEST SWAP1 POP DUP10 DUP2 DUP2 RETURNDATASIZE DUP4 GT PUSH2 0x450 JUMPI JUMPDEST PUSH2 0x441 DUP2 DUP4 PUSH2 0x2316 JUMP JUMPDEST DUP2 ADD SUB SLT PUSH2 0x3F7 JUMPI MLOAD CODESIZE PUSH2 0x1DD JUMP JUMPDEST POP RETURNDATASIZE PUSH2 0x437 JUMP JUMPDEST POP DUP4 MLOAD PUSH4 0x162908E3 PUSH1 0xE1 SHL DUP2 MSTORE REVERT JUMPDEST POP DUP4 MLOAD PUSH4 0xE6C4247B PUSH1 0xE0 SHL DUP2 MSTORE REVERT JUMPDEST DUP4 MLOAD PUSH4 0x13D0FF59 PUSH1 0xE3 SHL DUP2 MSTORE REVERT JUMPDEST DUP3 DUP1 REVERT JUMPDEST POP CALLVALUE PUSH2 0x483 JUMPI PUSH1 0x20 CALLDATASIZE PUSH1 0x3 NOT ADD SLT PUSH2 0x483 JUMPI PUSH2 0x4A1 PUSH2 0x2274 JUMP JUMPDEST PUSH1 0x3 SLOAD PUSH1 0x1 PUSH1 0x1 PUSH1 0xA0 SHL SUB SWAP2 SWAP1 DUP3 AND CALLER SUB PUSH2 0x524 JUMPI DUP2 AND SWAP3 DUP4 ISZERO PUSH2 0x516 JUMPI POP DUP3 DUP5 SLOAD SWAP3 DUP1 MLOAD SWAP3 PUSH1 0x60 DUP5 MSTORE PUSH1 0xD PUSH1 0x60 DUP6 ADD MSTORE PUSH13 0x3830B731B0B5B2A937BABA32B9 PUSH1 0x99 SHL PUSH1 0x80 DUP6 ADD MSTORE DUP5 AND PUSH1 0x20 DUP5 ADD MSTORE DUP3 ADD MSTORE PUSH1 0x0 DUP1 MLOAD PUSH1 0x20 PUSH2 0x2542 DUP4 CODECOPY DUP2 MLOAD SWAP2 MSTORE PUSH1 0xA0 CALLER SWAP3 LOG2 PUSH1 0x1 PUSH1 0x1 PUSH1 0xA0 SHL SUB NOT AND OR DUP2 SSTORE DUP1 RETURN JUMPDEST DUP3 MLOAD PUSH4 0xE6C4247B PUSH1 0xE0 SHL DUP2 MSTORE REVERT JUMPDEST POP POP MLOAD PUSH3 0x82B429 PUSH1 0xE8 SHL DUP2 MSTORE REVERT JUMPDEST POP CALLVALUE PUSH2 0x483 JUMPI PUSH1 0x20 CALLDATASIZE PUSH1 0x3 NOT ADD SLT PUSH2 0x483 JUMPI PUSH2 0x54C PUSH2 0x2274 JUMP JUMPDEST PUSH1 0x3 SLOAD SWAP2 PUSH1 0x1 PUSH1 0x1 PUSH1 0xA0 SHL SUB DUP1 DUP5 AND SWAP3 CALLER DUP5 SWAP1 SUB PUSH2 0x5C6 JUMPI AND SWAP4 DUP5 ISZERO PUSH2 0x5B8 JUMPI POP DUP1 DUP5 SWAP2 MLOAD SWAP3 PUSH1 0x60 DUP5 MSTORE PUSH1 0x5 PUSH1 0x60 DUP6 ADD MSTORE PUSH5 0x37BBB732B9 PUSH1 0xD9 SHL PUSH1 0x80 DUP6 ADD MSTORE PUSH1 0x20 DUP5 ADD MSTORE DUP3 ADD MSTORE PUSH1 0x0 DUP1 MLOAD PUSH1 0x20 PUSH2 0x2542 DUP4 CODECOPY DUP2 MLOAD SWAP2 MSTORE PUSH1 0xA0 CALLER SWAP3 LOG2 PUSH1 0x1 PUSH1 0x1 PUSH1 0xA0 SHL SUB NOT AND OR PUSH1 0x3 SSTORE DUP1 RETURN JUMPDEST SWAP1 MLOAD PUSH4 0xE6C4247B PUSH1 0xE0 SHL DUP2 MSTORE REVERT JUMPDEST DUP3 MLOAD PUSH3 0x82B429 PUSH1 0xE8 SHL DUP2 MSTORE DUP7 SWAP1 REVERT JUMPDEST POP CALLVALUE PUSH2 0x483 JUMPI DUP2 SWAP3 PUSH2 0x5E6 CALLDATASIZE PUSH2 0x228A JUMP JUMPDEST PUSH1 0xFF PUSH1 0x6 SWAP5 SWAP3 SWAP4 SWAP5 SLOAD AND PUSH2 0x84D JUMPI PUSH1 0x1 PUSH1 0x1 PUSH1 0xA0 SHL SUB DUP5 DUP2 AND SWAP5 SWAP1 DUP6 ISZERO PUSH2 0x83D JUMPI DUP5 ISZERO PUSH2 0x82D JUMPI PUSH1 0x1 SLOAD DUP8 MLOAD PUSH4 0x23B872DD PUSH1 0xE0 SHL DUP2 MSTORE CALLER SWAP11 DUP2 ADD SWAP11 DUP12 MSTORE ADDRESS PUSH1 0x20 DUP13 DUP2 ADD SWAP2 SWAP1 SWAP2 MSTORE PUSH1 0x40 DUP13 ADD DUP9 SWAP1 MSTORE SWAP11 SWAP1 SWAP2 DUP12 SWAP2 DUP4 SWAP2 DUP6 AND SWAP1 DUP3 SWAP1 DUP10 SWAP1 DUP3 SWAP1 PUSH1 0x60 ADD SUB SWAP3 GAS CALL DUP1 ISZERO PUSH2 0x823 JUMPI SWAP3 DUP11 SWAP3 DUP8 SWAP3 PUSH2 0x696 SWAP6 PUSH2 0x806 JUMPI JUMPDEST POP PUSH1 0x1 SLOAD AND SWAP1 DUP7 DUP12 DUP12 MLOAD SWAP7 DUP8 SWAP6 DUP7 SWAP5 DUP6 SWAP4 PUSH4 0x95EA7B3 PUSH1 0xE0 SHL DUP6 MSTORE DUP5 ADD PUSH1 0x20 SWAP1 SWAP4 SWAP3 SWAP2 SWAP4 PUSH1 0x40 DUP2 ADD SWAP5 PUSH1 0x1 DUP1 PUSH1 0xA0 SHL SUB AND DUP2 MSTORE ADD MSTORE JUMP JUMPDEST SUB SWAP3 GAS CALL DUP1 ISZERO PUSH2 0x7FC JUMPI PUSH2 0x7DF JUMPI JUMPDEST POP DUP4 EXTCODESIZE ISZERO PUSH2 0x7DB JUMPI DUP5 MLOAD SWAP1 PUSH4 0x1ADFD7BD PUSH1 0xE3 SHL DUP3 MSTORE DUP4 DUP8 DUP4 ADD MSTORE PUSH1 0x24 DUP3 ADD MSTORE DUP2 DUP2 PUSH1 0x44 DUP2 DUP4 DUP9 GAS CALL DUP1 ISZERO PUSH2 0x7BD JUMPI SWAP1 DUP3 SWAP2 PUSH2 0x7C7 JUMPI JUMPDEST POP POP DUP4 MLOAD PUSH4 0x70A08231 PUSH1 0xE0 SHL DUP2 MSTORE ADDRESS DUP7 DUP3 ADD MSTORE SWAP5 DUP7 DUP7 PUSH1 0x24 DUP2 DUP8 GAS STATICCALL SWAP6 DUP7 ISZERO PUSH2 0x7BD JUMPI SWAP1 DUP8 SWAP2 DUP4 SWAP8 PUSH2 0x788 JUMPI JUMPDEST POP DUP6 MLOAD PUSH4 0xA9059CBB PUSH1 0xE0 SHL DUP2 MSTORE CALLER SWAP2 DUP2 ADD SWAP2 DUP3 MSTORE PUSH1 0x20 DUP3 ADD DUP9 SWAP1 MSTORE SWAP3 SWAP2 SWAP1 DUP4 SWAP1 DUP2 SWAP1 PUSH1 0x40 ADD JUMPDEST SUB DUP2 DUP5 DUP9 GAS CALL SWAP1 DUP2 ISZERO PUSH2 0x77D JUMPI POP PUSH2 0x760 JUMPI JUMPDEST POP PUSH1 0x0 DUP1 MLOAD PUSH1 0x20 PUSH2 0x2522 DUP4 CODECOPY DUP2 MLOAD SWAP2 MSTORE DUP4 MLOAD DUP1 PUSH2 0x34C DUP8 CALLER SWAP6 DUP4 PUSH2 0x2439 JUMP JUMPDEST PUSH2 0x776 SWAP1 DUP7 RETURNDATASIZE DUP9 GT PUSH2 0x3AE JUMPI PUSH2 0x39F DUP2 DUP4 PUSH2 0x2316 JUMP JUMPDEST POP CODESIZE PUSH2 0x741 JUMP JUMPDEST DUP6 MLOAD SWAP1 RETURNDATASIZE SWAP1 DUP3 RETURNDATACOPY RETURNDATASIZE SWAP1 REVERT JUMPDEST DUP3 DUP2 SWAP5 SWAP4 SWAP3 SWAP9 POP RETURNDATASIZE DUP4 GT PUSH2 0x7B6 JUMPI JUMPDEST PUSH2 0x7A1 DUP2 DUP4 PUSH2 0x2316 JUMP JUMPDEST DUP2 ADD SUB SLT PUSH2 0x3F7 JUMPI SWAP1 MLOAD SWAP5 DUP7 SWAP1 PUSH2 0x72E PUSH2 0x708 JUMP JUMPDEST POP RETURNDATASIZE PUSH2 0x797 JUMP JUMPDEST DUP6 MLOAD RETURNDATASIZE DUP5 DUP3 RETURNDATACOPY RETURNDATASIZE SWAP1 REVERT JUMPDEST PUSH2 0x7D0 SWAP1 PUSH2 0x22B4 JUMP JUMPDEST PUSH2 0x377 JUMPI DUP1 CODESIZE PUSH2 0x6DB JUMP JUMPDEST POP DUP1 REVERT JUMPDEST PUSH2 0x7F5 SWAP1 DUP9 RETURNDATASIZE DUP11 GT PUSH2 0x3AE JUMPI PUSH2 0x39F DUP2 DUP4 PUSH2 0x2316 JUMP JUMPDEST POP CODESIZE PUSH2 0x6A5 JUMP JUMPDEST DUP7 MLOAD RETURNDATASIZE DUP6 DUP3 RETURNDATACOPY RETURNDATASIZE SWAP1 REVERT JUMPDEST PUSH2 0x81C SWAP1 DUP6 RETURNDATASIZE DUP8 GT PUSH2 0x3AE JUMPI PUSH2 0x39F DUP2 DUP4 PUSH2 0x2316 JUMP JUMPDEST POP CODESIZE PUSH2 0x65F JUMP JUMPDEST DUP9 MLOAD RETURNDATASIZE DUP8 DUP3 RETURNDATACOPY RETURNDATASIZE SWAP1 REVERT JUMPDEST DUP7 MLOAD PUSH4 0x162908E3 PUSH1 0xE1 SHL DUP2 MSTORE DUP9 SWAP1 REVERT JUMPDEST DUP7 MLOAD PUSH4 0xE6C4247B PUSH1 0xE0 SHL DUP2 MSTORE DUP9 SWAP1 REVERT JUMPDEST DUP5 MLOAD PUSH4 0x13D0FF59 PUSH1 0xE3 SHL DUP2 MSTORE DUP7 SWAP1 REVERT JUMPDEST POP CALLVALUE PUSH2 0x483 JUMPI PUSH2 0x86C CALLDATASIZE PUSH2 0x228A JUMP JUMPDEST SWAP4 PUSH1 0xFF PUSH1 0x6 SLOAD AND PUSH2 0x475 JUMPI PUSH1 0x1 PUSH1 0x1 PUSH1 0xA0 SHL SUB SWAP3 DUP4 AND SWAP3 DUP4 ISZERO PUSH2 0x466 JUMPI DUP3 ISZERO PUSH2 0x457 JUMPI PUSH1 0x1 SLOAD DUP6 MLOAD PUSH4 0x23B872DD PUSH1 0xE0 SHL DUP2 MSTORE CALLER DUP5 DUP3 ADD SWAP1 DUP2 MSTORE ADDRESS PUSH1 0x20 DUP3 DUP2 ADD SWAP2 SWAP1 SWAP2 MSTORE PUSH1 0x40 DUP3 ADD DUP8 SWAP1 MSTORE SWAP10 SWAP3 DUP11 SWAP2 DUP4 SWAP2 DUP7 AND SWAP1 DUP3 SWAP1 DUP7 SWAP1 DUP3 SWAP1 PUSH1 0x60 ADD SUB SWAP3 GAS CALL DUP1 ISZERO PUSH2 0x37A JUMPI PUSH2 0xAD0 JUMPI JUMPDEST POP PUSH1 0x1 SLOAD DUP2 SLOAD DUP8 MLOAD PUSH4 0x95EA7B3 PUSH1 0xE0 SHL DUP2 MSTORE SWAP1 DUP5 AND PUSH1 0x1 PUSH1 0x1 PUSH1 0xA0 SHL SUB AND DUP6 DUP3 ADD SWAP1 DUP2 MSTORE PUSH1 0x20 DUP2 ADD DUP8 SWAP1 MSTORE SWAP1 SWAP2 DUP11 SWAP2 DUP4 SWAP2 DUP7 AND SWAP1 DUP3 SWAP1 DUP7 SWAP1 DUP3 SWAP1 PUSH1 0x40 ADD SUB SWAP3 GAS CALL DUP1 ISZERO PUSH2 0x37A JUMPI PUSH2 0xAB3 JUMPI JUMPDEST POP DUP6 MLOAD SWAP1 PUSH2 0x930 DUP3 PUSH2 0x22DE JUMP JUMPDEST PUSH1 0x2 DUP3 MSTORE DUP7 CALLDATASIZE DUP11 DUP5 ADD CALLDATACOPY DUP3 PUSH1 0x1 SLOAD AND PUSH2 0x948 DUP4 PUSH2 0x2350 JUMP JUMPDEST MSTORE DUP6 PUSH2 0x953 DUP4 PUSH2 0x2373 JUMP JUMPDEST MSTORE DUP7 MLOAD SWAP2 PUSH4 0x70A08231 PUSH1 0xE0 SHL SWAP4 DUP5 DUP5 MSTORE CALLER DUP7 DUP6 ADD MSTORE DUP11 DUP5 PUSH1 0x24 DUP2 DUP12 GAS STATICCALL SWAP4 DUP5 ISZERO PUSH2 0xAA9 JUMPI DUP4 SWAP5 PUSH2 0xA7A JUMPI JUMPDEST POP DUP3 SLOAD AND PUSH2 0x98D DUP7 SLOAD TIMESTAMP PUSH2 0x2393 JUMP JUMPDEST DUP2 EXTCODESIZE ISZERO PUSH2 0xA76 JUMPI SWAP2 DUP4 SWAP2 DUP12 DUP4 DUP11 PUSH2 0x9BB DUP12 SWAP8 DUP16 MLOAD SWAP9 DUP10 SWAP8 DUP9 SWAP7 DUP8 SWAP6 PUSH4 0x5C11D795 PUSH1 0xE0 SHL DUP8 MSTORE CALLER SWAP4 DUP8 ADD PUSH2 0x23F3 JUMP JUMPDEST SUB SWAP3 GAS CALL DUP1 ISZERO PUSH2 0xA6C JUMPI SWAP1 DUP3 SWAP2 PUSH2 0xA58 JUMPI JUMPDEST POP POP DUP7 MLOAD SWAP3 DUP4 MSTORE CALLER DUP5 DUP5 ADD MSTORE DUP9 DUP4 PUSH1 0x24 DUP2 DUP10 GAS STATICCALL SWAP1 DUP2 ISZERO PUSH2 0xA4D JUMPI SWAP1 PUSH2 0xA1E JUMPI JUMPDEST PUSH2 0x9F8 SWAP3 POP PUSH2 0x242C JUMP JUMPDEST SWAP5 DUP6 LT PUSH2 0x355 JUMPI POP PUSH1 0x0 DUP1 MLOAD PUSH1 0x20 PUSH2 0x2522 DUP4 CODECOPY DUP2 MLOAD SWAP2 MSTORE DUP4 MLOAD DUP1 PUSH2 0x34C DUP8 CALLER SWAP6 DUP4 PUSH2 0x2439 JUMP JUMPDEST POP DUP8 DUP3 DUP2 RETURNDATASIZE DUP4 GT PUSH2 0xA46 JUMPI JUMPDEST PUSH2 0xA34 DUP2 DUP4 PUSH2 0x2316 JUMP JUMPDEST DUP2 ADD SUB SLT PUSH2 0x3F7 JUMPI PUSH2 0x9F8 SWAP2 MLOAD PUSH2 0x9EE JUMP JUMPDEST POP RETURNDATASIZE PUSH2 0xA2A JUMP JUMPDEST DUP8 MLOAD SWAP1 RETURNDATASIZE SWAP1 DUP3 RETURNDATACOPY RETURNDATASIZE SWAP1 REVERT JUMPDEST PUSH2 0xA61 SWAP1 PUSH2 0x22B4 JUMP JUMPDEST PUSH2 0x377 JUMPI DUP1 CODESIZE PUSH2 0x9CD JUMP JUMPDEST DUP9 MLOAD RETURNDATASIZE DUP5 DUP3 RETURNDATACOPY RETURNDATASIZE SWAP1 REVERT JUMPDEST DUP4 DUP1 REVERT JUMPDEST SWAP1 SWAP4 POP DUP11 DUP2 DUP2 RETURNDATASIZE DUP4 GT PUSH2 0xAA2 JUMPI JUMPDEST PUSH2 0xA92 DUP2 DUP4 PUSH2 0x2316 JUMP JUMPDEST DUP2 ADD SUB SLT PUSH2 0x3F7 JUMPI MLOAD SWAP3 CODESIZE PUSH2 0x97E JUMP JUMPDEST POP RETURNDATASIZE PUSH2 0xA88 JUMP JUMPDEST DUP10 MLOAD RETURNDATASIZE DUP6 DUP3 RETURNDATACOPY RETURNDATASIZE SWAP1 REVERT JUMPDEST PUSH2 0xAC9 SWAP1 DUP10 RETURNDATASIZE DUP12 GT PUSH2 0x3AE JUMPI PUSH2 0x39F DUP2 DUP4 PUSH2 0x2316 JUMP JUMPDEST POP CODESIZE PUSH2 0x923 JUMP JUMPDEST PUSH2 0xAE6 SWAP1 DUP10 RETURNDATASIZE DUP12 GT PUSH2 0x3AE JUMPI PUSH2 0x39F DUP2 DUP4 PUSH2 0x2316 JUMP JUMPDEST POP CODESIZE PUSH2 0x8D7 JUMP JUMPDEST POP SWAP1 CALLVALUE PUSH2 0x483 JUMPI DUP3 DUP3 PUSH1 0x3 NOT CALLDATASIZE ADD SLT PUSH2 0x377 JUMPI PUSH2 0xB78 SWAP2 PUSH2 0xB0C PUSH2 0x2274 JUMP JUMPDEST SWAP1 DUP5 MLOAD SWAP2 PUSH2 0xB19 DUP4 PUSH2 0x22DE JUMP JUMPDEST PUSH1 0x2 DUP4 MSTORE DUP6 CALLDATASIZE PUSH1 0x20 DUP6 ADD CALLDATACOPY PUSH1 0x1 SLOAD PUSH1 0x1 PUSH1 0x1 PUSH1 0xA0 SHL SUB SWAP2 SWAP1 DUP3 AND PUSH2 0xB3C DUP6 PUSH2 0x2350 JUMP JUMPDEST MSTORE DUP2 PUSH2 0xB47 DUP6 PUSH2 0x2373 JUMP JUMPDEST SWAP2 AND SWAP1 MSTORE DUP4 SLOAD AND SWAP1 DUP6 MLOAD DUP1 SWAP6 DUP2 SWAP5 DUP3 SWAP4 PUSH4 0xD06CA61F PUSH1 0xE0 SHL DUP5 MSTORE PUSH1 0x24 CALLDATALOAD SWAP1 DUP5 ADD MSTORE DUP9 PUSH1 0x24 DUP5 ADD MSTORE PUSH1 0x44 DUP4 ADD SWAP1 PUSH2 0x23B6 JUMP JUMPDEST SUB SWAP2 GAS STATICCALL SWAP1 DUP2 ISZERO PUSH2 0xBC4 JUMPI SWAP1 PUSH2 0xB99 SWAP2 DUP5 PUSH1 0x20 SWAP6 SWAP3 PUSH2 0xBA1 JUMPI JUMPDEST POP POP PUSH2 0x2373 JUMP JUMPDEST MLOAD SWAP1 MLOAD SWAP1 DUP2 MSTORE RETURN JUMPDEST PUSH2 0xBBD SWAP3 POP RETURNDATASIZE DUP1 SWAP2 DUP4 RETURNDATACOPY PUSH2 0xBB5 DUP2 DUP4 PUSH2 0x2316 JUMP JUMPDEST DUP2 ADD SWAP1 PUSH2 0x248F JUMP JUMPDEST CODESIZE DUP1 PUSH2 0xB92 JUMP JUMPDEST POP POP MLOAD SWAP1 RETURNDATASIZE SWAP1 DUP3 RETURNDATACOPY RETURNDATASIZE SWAP1 REVERT JUMPDEST POP SWAP1 CALLVALUE PUSH2 0x483 JUMPI DUP3 PUSH1 0x3 NOT CALLDATASIZE ADD SLT PUSH2 0x483 JUMPI PUSH1 0x20 SWAP3 POP SLOAD SWAP1 MLOAD SWAP1 DUP2 MSTORE RETURN JUMPDEST POP CALLVALUE PUSH2 0x483 JUMPI PUSH1 0x60 CALLDATASIZE PUSH1 0x3 NOT ADD SLT PUSH2 0x483 JUMPI PUSH2 0xC08 PUSH2 0x2274 JUMP JUMPDEST PUSH1 0x1 PUSH1 0x1 PUSH1 0xA0 SHL SUB PUSH1 0x24 CALLDATALOAD DUP2 DUP2 AND SWAP5 SWAP1 SWAP4 SWAP2 DUP6 DUP6 SUB PUSH2 0x3F7 JUMPI PUSH1 0x44 CALLDATALOAD SWAP4 DUP2 PUSH1 0x3 SLOAD AND CALLER SUB PUSH2 0xD86 JUMPI DUP7 ISZERO PUSH2 0xD76 JUMPI AND SWAP4 DUP4 SWAP1 DUP6 PUSH2 0xCD9 JUMPI POP DUP7 DUP1 DUP1 DUP1 SWAP4 DUP10 GAS CALL RETURNDATASIZE ISZERO PUSH2 0xCD4 JUMPI RETURNDATASIZE PUSH8 0xFFFFFFFFFFFFFFFF DUP2 GT PUSH2 0xCC1 JUMPI DUP4 MLOAD SWAP1 PUSH2 0xC75 PUSH1 0x1F DUP3 ADD PUSH1 0x1F NOT AND PUSH1 0x20 ADD DUP4 PUSH2 0x2316 JUMP JUMPDEST DUP2 MSTORE DUP8 PUSH1 0x20 RETURNDATASIZE SWAP3 ADD RETURNDATACOPY JUMPDEST ISZERO PUSH2 0xCB3 JUMPI POP PUSH32 0xF24EF89F38EADC1BDE50701AD6E4D6D11A2DC24F7CF834A486991F3883328504 SWAP2 PUSH1 0x20 SWAP2 JUMPDEST MLOAD SWAP1 DUP2 MSTORE LOG3 DUP1 RETURN JUMPDEST SWAP1 MLOAD PUSH4 0x12171D83 PUSH1 0xE3 SHL DUP2 MSTORE REVERT JUMPDEST PUSH4 0x4E487B71 PUSH1 0xE0 SHL DUP9 MSTORE PUSH1 0x41 DUP4 MSTORE PUSH1 0x24 DUP9 REVERT JUMPDEST PUSH2 0xC7F JUMP JUMPDEST DUP4 MLOAD PUSH4 0xA9059CBB PUSH1 0xE0 SHL DUP2 MSTORE PUSH1 0x1 PUSH1 0x1 PUSH1 0xA0 SHL SUB SWAP1 SWAP2 AND DUP4 DUP3 ADD SWAP1 DUP2 MSTORE PUSH1 0x20 DUP2 DUP2 ADD SWAP4 SWAP1 SWAP4 MSTORE SWAP1 SWAP2 SWAP1 DUP3 SWAP1 DUP2 SWAP1 PUSH1 0x40 ADD SUB DUP2 DUP11 DUP10 GAS CALL SWAP1 DUP2 ISZERO PUSH2 0xD6C JUMPI DUP8 SWAP2 PUSH2 0xD4E JUMPI JUMPDEST POP ISZERO PUSH2 0xCB3 JUMPI POP PUSH32 0xF24EF89F38EADC1BDE50701AD6E4D6D11A2DC24F7CF834A486991F3883328504 SWAP2 PUSH1 0x20 SWAP2 PUSH2 0xCAB JUMP JUMPDEST PUSH2 0xD66 SWAP2 POP PUSH1 0x20 RETURNDATASIZE DUP2 GT PUSH2 0x3AE JUMPI PUSH2 0x39F DUP2 DUP4 PUSH2 0x2316 JUMP JUMPDEST CODESIZE PUSH2 0xD1D JUMP JUMPDEST DUP4 MLOAD RETURNDATASIZE DUP10 DUP3 RETURNDATACOPY RETURNDATASIZE SWAP1 REVERT JUMPDEST DUP4 MLOAD PUSH4 0xE6C4247B PUSH1 0xE0 SHL DUP2 MSTORE DUP4 SWAP1 REVERT JUMPDEST DUP4 MLOAD PUSH3 0x82B429 PUSH1 0xE8 SHL DUP2 MSTORE DUP4 SWAP1 REVERT JUMPDEST POP DUP3 SWAP1 CALLVALUE PUSH2 0x7DB JUMPI PUSH2 0xDA6 CALLDATASIZE PUSH2 0x228A JUMP JUMPDEST SWAP4 SWAP2 SWAP5 PUSH1 0xFF PUSH1 0x6 SLOAD AND PUSH2 0x475 JUMPI PUSH1 0x1 PUSH1 0x1 PUSH1 0xA0 SHL SUB SWAP6 DUP7 AND SWAP3 DUP4 ISZERO PUSH2 0x466 JUMPI DUP3 ISZERO PUSH2 0x457 JUMPI DUP5 MLOAD PUSH4 0x23B872DD PUSH1 0xE0 SHL DUP2 MSTORE CALLER DUP4 DUP3 ADD SWAP1 DUP2 MSTORE ADDRESS PUSH1 0x20 DUP3 DUP2 ADD SWAP2 SWAP1 SWAP2 MSTORE PUSH1 0x40 DUP3 ADD DUP7 SWAP1 MSTORE SWAP9 SWAP2 SWAP1 DUP10 SWAP1 DUP3 SWAP1 DUP2 SWAP1 PUSH1 0x60 ADD SUB DUP2 DUP7 DUP11 GAS CALL DUP1 ISZERO PUSH2 0x100E JUMPI PUSH2 0x1018 JUMPI JUMPDEST POP DUP5 EXTCODESIZE ISZERO PUSH2 0x7DB JUMPI DUP6 MLOAD PUSH4 0xD79875EB PUSH1 0xE0 SHL DUP2 MSTORE DUP5 DUP5 DUP3 ADD MSTORE DUP3 PUSH1 0x24 DUP3 ADD MSTORE DUP3 DUP2 PUSH1 0x44 DUP2 DUP4 DUP11 GAS CALL DUP1 ISZERO PUSH2 0x100E JUMPI SWAP1 DUP4 SWAP2 PUSH2 0xFFA JUMPI JUMPDEST POP POP PUSH1 0x1 SLOAD DUP7 MLOAD PUSH4 0x70A08231 PUSH1 0xE0 SHL DUP2 MSTORE ADDRESS DUP6 DUP3 ADD MSTORE SWAP2 SWAP1 DUP2 AND DUP10 DUP4 PUSH1 0x24 DUP2 DUP5 GAS STATICCALL SWAP3 DUP4 ISZERO PUSH2 0xFB1 JUMPI DUP5 SWAP4 PUSH2 0xFCB JUMPI JUMPDEST POP DUP3 ISZERO PUSH2 0xFBB JUMPI DUP4 SLOAD DUP9 MLOAD PUSH4 0x95EA7B3 PUSH1 0xE0 SHL DUP2 MSTORE SWAP1 DUP4 AND PUSH1 0x1 PUSH1 0x1 PUSH1 0xA0 SHL SUB AND DUP7 DUP3 ADD SWAP1 DUP2 MSTORE PUSH1 0x20 DUP2 ADD DUP6 SWAP1 MSTORE SWAP1 SWAP2 DUP12 SWAP2 DUP4 SWAP2 SWAP1 DUP3 SWAP1 DUP9 SWAP1 DUP3 SWAP1 PUSH1 0x40 ADD SUB SWAP3 GAS CALL DUP1 ISZERO PUSH2 0xFB1 JUMPI SWAP3 DUP10 DUP6 DUP1 SWAP5 DUP14 SWAP5 DUP10 SWAP8 PUSH2 0xF94 JUMPI JUMPDEST POP DUP12 DUP1 MLOAD SWAP6 PUSH2 0xED6 DUP8 PUSH2 0x22DE JUMP JUMPDEST PUSH1 0x2 DUP8 MSTORE CALLDATASIZE SWAP1 DUP8 ADD CALLDATACOPY DUP1 PUSH1 0x1 SLOAD AND PUSH2 0xEED DUP7 PUSH2 0x2350 JUMP JUMPDEST MSTORE DUP1 PUSH1 0x2 SLOAD AND PUSH2 0xEFC DUP7 PUSH2 0x2373 JUMP JUMPDEST MSTORE DUP2 SLOAD AND SWAP3 PUSH2 0xF2B PUSH2 0xF0F DUP9 SLOAD TIMESTAMP PUSH2 0x2393 JUMP JUMPDEST DUP14 MLOAD PUSH4 0x18CBAFE5 PUSH1 0xE0 SHL DUP2 MSTORE SWAP9 DUP10 SWAP8 DUP9 SWAP7 DUP8 SWAP6 CALLER SWAP4 DUP8 ADD PUSH2 0x23F3 JUMP JUMPDEST SUB SWAP3 GAS CALL SWAP2 DUP3 ISZERO PUSH2 0xF89 JUMPI SWAP1 DUP2 PUSH2 0xF47 SWAP4 PUSH2 0xF6E JUMPI POP POP PUSH2 0x2373 JUMP JUMPDEST MLOAD SWAP5 DUP6 LT PUSH2 0x355 JUMPI POP PUSH1 0x0 DUP1 MLOAD PUSH1 0x20 PUSH2 0x2562 DUP4 CODECOPY DUP2 MLOAD SWAP2 MSTORE DUP4 MLOAD DUP1 PUSH2 0x34C DUP8 CALLER SWAP6 DUP4 PUSH2 0x2465 JUMP JUMPDEST PUSH2 0xF82 SWAP3 POP RETURNDATASIZE DUP1 SWAP2 DUP4 RETURNDATACOPY PUSH2 0xBB5 DUP2 DUP4 PUSH2 0x2316 JUMP JUMPDEST DUP9 DUP1 PUSH2 0xB92 JUMP JUMPDEST DUP7 MLOAD SWAP1 RETURNDATASIZE SWAP1 DUP3 RETURNDATACOPY RETURNDATASIZE SWAP1 REVERT JUMPDEST PUSH2 0xFAA SWAP1 DUP7 RETURNDATASIZE DUP9 GT PUSH2 0x3AE JUMPI PUSH2 0x39F DUP2 DUP4 PUSH2 0x2316 JUMP JUMPDEST POP DUP15 PUSH2 0xEC8 JUMP JUMPDEST DUP9 MLOAD RETURNDATASIZE DUP7 DUP3 RETURNDATACOPY RETURNDATASIZE SWAP1 REVERT JUMPDEST DUP8 MLOAD PUSH4 0xBB2875C3 PUSH1 0xE0 SHL DUP2 MSTORE DUP6 SWAP1 REVERT JUMPDEST SWAP1 SWAP3 POP DUP10 DUP2 DUP2 RETURNDATASIZE DUP4 GT PUSH2 0xFF3 JUMPI JUMPDEST PUSH2 0xFE3 DUP2 DUP4 PUSH2 0x2316 JUMP JUMPDEST DUP2 ADD SUB SLT PUSH2 0x3F7 JUMPI MLOAD SWAP2 DUP11 PUSH2 0xE72 JUMP JUMPDEST POP RETURNDATASIZE PUSH2 0xFD9 JUMP JUMPDEST PUSH2 0x1003 SWAP1 PUSH2 0x22B4 JUMP JUMPDEST PUSH2 0x7DB JUMPI DUP2 DUP10 PUSH2 0xE42 JUMP JUMPDEST DUP8 MLOAD RETURNDATASIZE DUP6 DUP3 RETURNDATACOPY RETURNDATASIZE SWAP1 REVERT JUMPDEST PUSH2 0x102E SWAP1 DUP10 RETURNDATASIZE DUP12 GT PUSH2 0x3AE JUMPI PUSH2 0x39F DUP2 DUP4 PUSH2 0x2316 JUMP JUMPDEST POP DUP9 PUSH2 0xE0C JUMP JUMPDEST POP SWAP1 CALLVALUE PUSH2 0x483 JUMPI PUSH1 0x20 CALLDATASIZE PUSH1 0x3 NOT ADD SLT PUSH2 0x483 JUMPI PUSH2 0x1050 PUSH2 0x2274 JUMP JUMPDEST PUSH1 0x3 SLOAD PUSH1 0x1 PUSH1 0x1 PUSH1 0xA0 SHL SUB SWAP3 SWAP2 SWAP1 DUP4 AND CALLER SUB PUSH2 0x10CA JUMPI DUP3 AND SWAP3 DUP4 ISZERO PUSH2 0x10BD JUMPI DUP4 SWAP1 PUSH1 0x2 SLOAD SWAP4 DUP2 MLOAD SWAP4 PUSH1 0x60 DUP6 MSTORE PUSH1 0x60 DUP6 ADD MSTORE PUSH4 0x3BB13731 PUSH1 0xE1 SHL PUSH1 0x80 DUP6 ADD MSTORE DUP5 AND PUSH1 0x20 DUP5 ADD MSTORE DUP3 ADD MSTORE PUSH1 0x0 DUP1 MLOAD PUSH1 0x20 PUSH2 0x2542 DUP4 CODECOPY DUP2 MLOAD SWAP2 MSTORE PUSH1 0xA0 CALLER SWAP3 LOG2 PUSH1 0x1 PUSH1 0x1 PUSH1 0xA0 SHL SUB NOT AND OR PUSH1 0x2 SSTORE DUP1 RETURN JUMPDEST MLOAD PUSH4 0xE6C4247B PUSH1 0xE0 SHL DUP2 MSTORE REVERT JUMPDEST POP DUP3 MLOAD PUSH3 0x82B429 PUSH1 0xE8 SHL DUP2 MSTORE REVERT JUMPDEST DUP4 DUP3 CALLVALUE PUSH2 0x7DB JUMPI DUP2 PUSH1 0x3 NOT CALLDATASIZE ADD SLT PUSH2 0x7DB JUMPI PUSH1 0x20 SWAP1 PUSH1 0x5 SLOAD SWAP1 MLOAD SWAP1 DUP2 MSTORE RETURN JUMPDEST DUP4 DUP3 CALLVALUE PUSH2 0x7DB JUMPI DUP2 PUSH1 0x3 NOT CALLDATASIZE ADD SLT PUSH2 0x7DB JUMPI SWAP1 SLOAD SWAP1 MLOAD PUSH1 0x1 PUSH1 0x1 PUSH1 0xA0 SHL SUB SWAP1 SWAP2 AND DUP2 MSTORE PUSH1 0x20 SWAP1 RETURN JUMPDEST POP DUP1 PUSH1 0x3 NOT CALLDATASIZE ADD SLT PUSH2 0x483 JUMPI PUSH2 0x1133 PUSH2 0x2274 JUMP JUMPDEST PUSH1 0x24 CALLDATALOAD SWAP3 PUSH1 0xFF PUSH1 0x6 SLOAD AND PUSH2 0x131B JUMPI PUSH1 0x1 PUSH1 0x1 PUSH1 0xA0 SHL SUB SWAP2 DUP3 AND SWAP2 DUP3 ISZERO PUSH2 0x130C JUMPI CALLVALUE ISZERO PUSH2 0x12FD JUMPI DUP4 MLOAD PUSH2 0x1164 DUP2 PUSH2 0x22FA JUMP JUMPDEST PUSH1 0x3 DUP2 MSTORE PUSH1 0x20 SWAP7 PUSH1 0x60 CALLDATASIZE DUP10 DUP5 ADD CALLDATACOPY DUP3 PUSH1 0x2 SLOAD AND PUSH2 0x1180 DUP4 PUSH2 0x2350 JUMP JUMPDEST MSTORE DUP3 PUSH1 0x1 SLOAD AND PUSH2 0x118F DUP4 PUSH2 0x2373 JUMP JUMPDEST MSTORE DUP5 PUSH2 0x119A DUP4 PUSH2 0x2383 JUMP JUMPDEST MSTORE DUP6 MLOAD SWAP2 PUSH4 0x70A08231 PUSH1 0xE0 SHL SWAP4 DUP5 DUP5 MSTORE CALLER DUP7 DUP6 ADD MSTORE DUP10 DUP5 PUSH1 0x24 DUP2 DUP11 GAS STATICCALL SWAP4 DUP5 ISZERO PUSH2 0x3B5 JUMPI DUP4 SWAP5 PUSH2 0x12CE JUMPI JUMPDEST POP DUP3 SLOAD AND PUSH2 0x11D4 DUP7 SLOAD TIMESTAMP PUSH2 0x2393 JUMP JUMPDEST SWAP2 DUP2 EXTCODESIZE ISZERO PUSH2 0xA76 JUMPI DUP4 SWAP2 PUSH2 0x120B SWAP2 DUP12 DUP12 MLOAD SWAP6 DUP7 SWAP5 DUP6 SWAP4 DUP5 SWAP4 PUSH4 0xB6F9DE95 PUSH1 0xE0 SHL DUP6 MSTORE DUP14 DUP6 ADD MSTORE PUSH1 0x80 PUSH1 0x24 DUP6 ADD MSTORE PUSH1 0x84 DUP5 ADD SWAP1 PUSH2 0x23B6 JUMP JUMPDEST SWAP1 CALLER PUSH1 0x44 DUP5 ADD MSTORE PUSH1 0x64 DUP4 ADD MSTORE SUB SWAP2 CALLVALUE SWAP1 GAS CALL DUP1 ISZERO PUSH2 0x37A JUMPI SWAP1 DUP3 SWAP2 PUSH2 0x12BA JUMPI JUMPDEST POP POP DUP6 MLOAD SWAP3 DUP4 MSTORE CALLER DUP5 DUP5 ADD MSTORE DUP8 DUP4 PUSH1 0x24 DUP2 DUP9 GAS STATICCALL SWAP1 DUP2 ISZERO PUSH2 0xF89 JUMPI SWAP1 PUSH2 0x128B JUMPI JUMPDEST PUSH2 0x1256 SWAP3 POP PUSH2 0x242C JUMP JUMPDEST SWAP4 DUP5 LT PUSH2 0x127D JUMPI POP DUP2 MLOAD PUSH1 0x0 DUP1 MLOAD PUSH1 0x20 PUSH2 0x2522 DUP4 CODECOPY DUP2 MLOAD SWAP2 MSTORE CALLER SWAP2 DUP1 PUSH2 0x34C DUP8 CALLVALUE DUP4 PUSH2 0x2465 JUMP JUMPDEST DUP3 MLOAD PUSH4 0x8199F5F3 PUSH1 0xE0 SHL DUP2 MSTORE REVERT JUMPDEST POP DUP7 DUP3 DUP2 RETURNDATASIZE DUP4 GT PUSH2 0x12B3 JUMPI JUMPDEST PUSH2 0x12A1 DUP2 DUP4 PUSH2 0x2316 JUMP JUMPDEST DUP2 ADD SUB SLT PUSH2 0x3F7 JUMPI PUSH2 0x1256 SWAP2 MLOAD PUSH2 0x124C JUMP JUMPDEST POP RETURNDATASIZE PUSH2 0x1297 JUMP JUMPDEST PUSH2 0x12C3 SWAP1 PUSH2 0x22B4 JUMP JUMPDEST PUSH2 0x377 JUMPI DUP1 CODESIZE PUSH2 0x122B JUMP JUMPDEST SWAP1 SWAP4 POP DUP10 DUP2 DUP2 RETURNDATASIZE DUP4 GT PUSH2 0x12F6 JUMPI JUMPDEST PUSH2 0x12E6 DUP2 DUP4 PUSH2 0x2316 JUMP JUMPDEST DUP2 ADD SUB SLT PUSH2 0x3F7 JUMPI MLOAD SWAP3 CODESIZE PUSH2 0x11C5 JUMP JUMPDEST POP RETURNDATASIZE PUSH2 0x12DC JUMP JUMPDEST POP DUP3 MLOAD PUSH4 0x162908E3 PUSH1 0xE1 SHL DUP2 MSTORE REVERT JUMPDEST POP DUP3 MLOAD PUSH4 0xE6C4247B PUSH1 0xE0 SHL DUP2 MSTORE REVERT JUMPDEST DUP3 MLOAD PUSH4 0x13D0FF59 PUSH1 0xE3 SHL DUP2 MSTORE REVERT JUMPDEST DUP4 DUP3 CALLVALUE PUSH2 0x7DB JUMPI DUP2 PUSH1 0x3 NOT CALLDATASIZE ADD SLT PUSH2 0x7DB JUMPI PUSH1 0x3 SLOAD SWAP1 MLOAD PUSH1 0x1 PUSH1 0x1 PUSH1 0xA0 SHL SUB SWAP1 SWAP2 AND DUP2 MSTORE PUSH1 0x20 SWAP1 RETURN JUMPDEST DUP4 DUP3 CALLVALUE PUSH2 0x7DB JUMPI DUP2 PUSH1 0x3 NOT CALLDATASIZE ADD SLT PUSH2 0x7DB JUMPI PUSH1 0x2 SLOAD SWAP1 MLOAD PUSH1 0x1 PUSH1 0x1 PUSH1 0xA0 SHL SUB SWAP1 SWAP2 AND DUP2 MSTORE PUSH1 0x20 SWAP1 RETURN JUMPDEST POP SWAP1 CALLVALUE PUSH2 0x483 JUMPI DUP2 PUSH1 0x3 NOT CALLDATASIZE ADD SLT PUSH2 0x483 JUMPI PUSH2 0x1395 PUSH2 0x2274 JUMP JUMPDEST DUP3 MLOAD PUSH4 0xFB3DD95F PUSH1 0xE0 SHL DUP2 MSTORE PUSH1 0x24 DUP1 CALLDATALOAD DUP5 DUP4 ADD MSTORE SWAP1 SWAP2 DUP6 SWAP2 PUSH1 0x1 PUSH1 0x1 PUSH1 0xA0 SHL SUB SWAP2 DUP7 SWAP2 DUP6 SWAP2 DUP3 SWAP1 DUP6 AND GAS STATICCALL SWAP3 DUP4 ISZERO PUSH2 0x7BD JUMPI DUP3 SWAP4 PUSH2 0x146D JUMPI JUMPDEST POP DUP3 SWAP4 PUSH2 0x1434 SWAP4 DUP7 MLOAD SWAP3 PUSH2 0x13E1 DUP5 PUSH2 0x22DE JUMP JUMPDEST PUSH1 0x2 DUP5 MSTORE DUP8 CALLDATASIZE PUSH1 0x20 DUP7 ADD CALLDATACOPY DUP1 PUSH1 0x1 SLOAD AND PUSH2 0x13FA DUP6 PUSH2 0x2350 JUMP JUMPDEST MSTORE DUP1 PUSH1 0x2 SLOAD AND PUSH2 0x1409 DUP6 PUSH2 0x2373 JUMP JUMPDEST MSTORE DUP5 SLOAD AND SWAP2 DUP8 MLOAD SWAP6 DUP7 SWAP5 DUP6 SWAP4 DUP5 SWAP4 PUSH4 0xD06CA61F PUSH1 0xE0 SHL DUP6 MSTORE DUP5 ADD MSTORE DUP10 PUSH1 0x24 DUP5 ADD MSTORE PUSH1 0x44 DUP4 ADD SWAP1 PUSH2 0x23B6 JUMP JUMPDEST SUB SWAP2 GAS STATICCALL SWAP1 DUP2 ISZERO PUSH2 0x1460 JUMPI DUP5 PUSH2 0x1452 SWAP4 SWAP5 SWAP6 SWAP3 PUSH2 0xBA1 JUMPI POP POP PUSH2 0x2373 JUMP JUMPDEST MLOAD SWAP1 DUP3 MLOAD SWAP2 DUP3 MSTORE PUSH1 0x20 DUP3 ADD MSTORE RETURN JUMPDEST POP POP POP MLOAD SWAP1 RETURNDATASIZE SWAP1 DUP3 RETURNDATACOPY RETURNDATASIZE SWAP1 REVERT JUMPDEST PUSH2 0x1434 SWAP4 POP PUSH2 0x1491 SWAP1 DUP7 RETURNDATASIZE DUP9 GT PUSH2 0x1498 JUMPI JUMPDEST PUSH2 0x1489 DUP2 DUP4 PUSH2 0x2316 JUMP JUMPDEST DUP2 ADD SWAP1 PUSH2 0x250B JUMP JUMPDEST POP SWAP3 PUSH2 0x13CE JUMP JUMPDEST POP RETURNDATASIZE PUSH2 0x147F JUMP JUMPDEST DUP4 DUP3 CALLVALUE PUSH2 0x7DB JUMPI DUP2 PUSH1 0x3 NOT CALLDATASIZE ADD SLT PUSH2 0x7DB JUMPI PUSH1 0x1 SLOAD SWAP1 MLOAD PUSH1 0x1 PUSH1 0x1 PUSH1 0xA0 SHL SUB SWAP1 SWAP2 AND DUP2 MSTORE PUSH1 0x20 SWAP1 RETURN JUMPDEST POP CALLVALUE PUSH2 0x483 JUMPI PUSH2 0x14D7 CALLDATASIZE PUSH2 0x228A JUMP JUMPDEST SWAP4 PUSH1 0xFF PUSH1 0x6 SLOAD AND PUSH2 0x475 JUMPI PUSH1 0x1 PUSH1 0x1 PUSH1 0xA0 SHL SUB SWAP3 DUP4 AND SWAP3 DUP4 ISZERO PUSH2 0x466 JUMPI DUP3 ISZERO PUSH2 0x457 JUMPI DUP5 MLOAD SWAP7 PUSH4 0x70A08231 PUSH1 0xE0 SHL SWAP2 DUP3 DUP10 MSTORE ADDRESS DUP5 DUP11 ADD MSTORE PUSH1 0x20 SWAP9 DUP10 DUP2 PUSH1 0x24 DUP2 DUP11 GAS STATICCALL SWAP1 DUP2 ISZERO PUSH2 0x3B5 JUMPI DUP4 SWAP2 PUSH2 0x17D3 JUMPI JUMPDEST POP DUP8 MLOAD PUSH4 0x23B872DD PUSH1 0xE0 SHL DUP2 MSTORE CALLER DUP7 DUP3 ADD SWAP1 DUP2 MSTORE ADDRESS PUSH1 0x20 DUP3 ADD MSTORE PUSH1 0x40 DUP2 ADD DUP9 SWAP1 MSTORE DUP12 SWAP1 DUP3 SWAP1 DUP2 SWAP1 PUSH1 0x60 ADD SUB DUP2 DUP8 DUP13 GAS CALL DUP1 ISZERO PUSH2 0x420 JUMPI PUSH2 0x17B6 JUMPI JUMPDEST POP DUP8 MLOAD SWAP1 DUP5 DUP3 MSTORE ADDRESS DUP7 DUP4 ADD MSTORE DUP11 DUP3 PUSH1 0x24 DUP2 DUP12 GAS STATICCALL DUP1 ISZERO PUSH2 0x420 JUMPI DUP5 SWAP1 PUSH2 0x1787 JUMPI JUMPDEST PUSH2 0x158D SWAP3 POP PUSH2 0x242C JUMP JUMPDEST DUP1 ISZERO PUSH2 0x1777 JUMPI DUP3 SLOAD DUP9 MLOAD PUSH4 0x95EA7B3 PUSH1 0xE0 SHL DUP2 MSTORE SWAP1 DUP4 AND PUSH1 0x1 PUSH1 0x1 PUSH1 0xA0 SHL SUB AND DUP7 DUP3 ADD SWAP1 DUP2 MSTORE PUSH1 0x20 DUP2 ADD DUP4 SWAP1 MSTORE DUP12 SWAP1 DUP3 SWAP1 DUP2 SWAP1 PUSH1 0x40 ADD SUB DUP2 DUP8 DUP13 GAS CALL DUP1 ISZERO PUSH2 0x420 JUMPI SWAP1 PUSH1 0x24 SWAP5 SWAP4 SWAP3 SWAP2 PUSH2 0x175A JUMPI JUMPDEST POP DUP9 MLOAD SWAP1 PUSH2 0x15E8 DUP3 PUSH2 0x22DE JUMP JUMPDEST PUSH1 0x2 DUP3 MSTORE DUP10 CALLDATASIZE DUP14 DUP5 ADD CALLDATACOPY DUP9 PUSH2 0x15FC DUP4 PUSH2 0x2350 JUMP JUMPDEST MSTORE DUP12 DUP4 PUSH1 0x1 SLOAD AND DUP1 PUSH2 0x160D DUP6 PUSH2 0x2373 JUMP JUMPDEST MSTORE DUP12 MLOAD SWAP7 DUP8 DUP1 SWAP3 DUP11 DUP3 MSTORE CALLER DUP13 DUP4 ADD MSTORE GAS STATICCALL SWAP5 DUP6 ISZERO PUSH2 0x1750 JUMPI DUP5 SWAP6 PUSH2 0x1721 JUMPI JUMPDEST POP DUP3 DUP5 SLOAD AND SWAP1 PUSH2 0x163D DUP9 SLOAD TIMESTAMP PUSH2 0x2393 JUMP JUMPDEST DUP3 EXTCODESIZE ISZERO PUSH2 0x171D JUMPI SWAP2 DUP13 DUP7 DUP11 SWAP6 SWAP4 PUSH2 0x166C DUP16 SWAP7 DUP4 SWAP8 MLOAD SWAP9 DUP10 SWAP8 DUP9 SWAP7 DUP8 SWAP6 PUSH4 0x5C11D795 PUSH1 0xE0 SHL DUP8 MSTORE CALLER SWAP4 DUP8 ADD PUSH2 0x23F3 JUMP JUMPDEST SUB SWAP3 GAS CALL DUP1 ISZERO PUSH2 0xAA9 JUMPI DUP12 SWAP3 SWAP2 DUP5 SWAP2 PUSH2 0x1704 JUMPI JUMPDEST POP POP PUSH1 0x1 SLOAD AND SWAP4 PUSH1 0x24 DUP10 MLOAD DUP1 SWAP7 DUP2 SWAP4 DUP3 MSTORE CALLER DUP10 DUP4 ADD MSTORE GAS STATICCALL SWAP1 DUP2 ISZERO PUSH2 0xA4D JUMPI SWAP1 PUSH2 0x16D5 JUMPI JUMPDEST PUSH2 0x16AF SWAP3 POP PUSH2 0x242C JUMP JUMPDEST SWAP5 DUP6 LT PUSH2 0x355 JUMPI POP PUSH1 0x0 DUP1 MLOAD PUSH1 0x20 PUSH2 0x2562 DUP4 CODECOPY DUP2 MLOAD SWAP2 MSTORE DUP4 MLOAD DUP1 PUSH2 0x34C DUP8 CALLER SWAP6 DUP4 PUSH2 0x2439 JUMP JUMPDEST POP DUP8 DUP3 DUP2 RETURNDATASIZE DUP4 GT PUSH2 0x16FD JUMPI JUMPDEST PUSH2 0x16EB DUP2 DUP4 PUSH2 0x2316 JUMP JUMPDEST DUP2 ADD SUB SLT PUSH2 0x3F7 JUMPI PUSH2 0x16AF SWAP2 MLOAD PUSH2 0x16A5 JUMP JUMPDEST POP RETURNDATASIZE PUSH2 0x16E1 JUMP JUMPDEST PUSH2 0x1710 SWAP2 SWAP3 SWAP4 POP PUSH2 0x22B4 JUMP JUMPDEST PUSH2 0x7DB JUMPI DUP10 SWAP1 DUP3 CODESIZE PUSH2 0x1680 JUMP JUMPDEST DUP6 DUP1 REVERT JUMPDEST SWAP1 SWAP5 POP DUP12 DUP2 DUP2 RETURNDATASIZE DUP4 GT PUSH2 0x1749 JUMPI JUMPDEST PUSH2 0x1739 DUP2 DUP4 PUSH2 0x2316 JUMP JUMPDEST DUP2 ADD SUB SLT PUSH2 0x3F7 JUMPI MLOAD SWAP4 CODESIZE PUSH2 0x162C JUMP JUMPDEST POP RETURNDATASIZE PUSH2 0x172F JUMP JUMPDEST DUP11 MLOAD RETURNDATASIZE DUP7 DUP3 RETURNDATACOPY RETURNDATASIZE SWAP1 REVERT JUMPDEST PUSH2 0x1770 SWAP1 DUP13 DUP14 RETURNDATASIZE LT PUSH2 0x3AE JUMPI PUSH2 0x39F DUP2 DUP4 PUSH2 0x2316 JUMP JUMPDEST POP CODESIZE PUSH2 0x15DB JUMP JUMPDEST DUP8 MLOAD PUSH4 0x162908E3 PUSH1 0xE1 SHL DUP2 MSTORE DUP6 SWAP1 REVERT JUMPDEST POP DUP11 DUP3 DUP2 RETURNDATASIZE DUP4 GT PUSH2 0x17AF JUMPI JUMPDEST PUSH2 0x179D DUP2 DUP4 PUSH2 0x2316 JUMP JUMPDEST DUP2 ADD SUB SLT PUSH2 0x3F7 JUMPI PUSH2 0x158D SWAP2 MLOAD PUSH2 0x1583 JUMP JUMPDEST POP RETURNDATASIZE PUSH2 0x1793 JUMP JUMPDEST PUSH2 0x17CC SWAP1 DUP12 RETURNDATASIZE DUP14 GT PUSH2 0x3AE JUMPI PUSH2 0x39F DUP2 DUP4 PUSH2 0x2316 JUMP JUMPDEST POP CODESIZE PUSH2 0x1562 JUMP JUMPDEST SWAP1 POP DUP10 DUP2 DUP2 RETURNDATASIZE DUP4 GT PUSH2 0x17F9 JUMPI JUMPDEST PUSH2 0x17EA DUP2 DUP4 PUSH2 0x2316 JUMP JUMPDEST DUP2 ADD SUB SLT PUSH2 0x3F7 JUMPI MLOAD CODESIZE PUSH2 0x1527 JUMP JUMPDEST POP RETURNDATASIZE PUSH2 0x17E0 JUMP JUMPDEST POP CALLVALUE PUSH2 0x483 JUMPI PUSH1 0x20 CALLDATASIZE PUSH1 0x3 NOT ADD SLT PUSH2 0x483 JUMPI PUSH2 0x181A PUSH2 0x2274 JUMP JUMPDEST PUSH1 0x3 SLOAD PUSH1 0x1 PUSH1 0x1 PUSH1 0xA0 SHL SUB SWAP2 SWAP1 DUP3 AND CALLER SUB PUSH2 0x524 JUMPI DUP2 AND SWAP3 DUP4 ISZERO PUSH2 0x516 JUMPI POP DUP3 PUSH1 0x1 SLOAD SWAP3 DUP1 MLOAD SWAP3 PUSH1 0x60 DUP5 MSTORE PUSH1 0xA PUSH1 0x60 DUP6 ADD MSTORE PUSH10 0x3430BB32B72A37B5B2B7 PUSH1 0xB1 SHL PUSH1 0x80 DUP6 ADD MSTORE DUP5 AND PUSH1 0x20 DUP5 ADD MSTORE DUP3 ADD MSTORE PUSH1 0x0 DUP1 MLOAD PUSH1 0x20 PUSH2 0x2542 DUP4 CODECOPY DUP2 MLOAD SWAP2 MSTORE PUSH1 0xA0 CALLER SWAP3 LOG2 PUSH1 0x1 PUSH1 0x1 PUSH1 0xA0 SHL SUB NOT AND OR PUSH1 0x1 SSTORE DUP1 RETURN JUMPDEST POP CALLVALUE PUSH2 0x483 JUMPI DUP1 PUSH1 0x3 NOT CALLDATASIZE ADD SLT PUSH2 0x483 JUMPI DUP1 PUSH2 0x18A8 PUSH2 0x2274 JUMP JUMPDEST DUP2 MLOAD PUSH4 0xFB3DD95F PUSH1 0xE0 SHL DUP2 MSTORE PUSH1 0x24 DUP1 CALLDATALOAD SWAP6 DUP3 ADD SWAP6 SWAP1 SWAP6 MSTORE SWAP4 DUP5 SWAP2 DUP3 SWAP1 PUSH1 0x1 PUSH1 0x1 PUSH1 0xA0 SHL SUB AND GAS STATICCALL SWAP2 DUP3 ISZERO PUSH2 0x1906 JUMPI PUSH1 0x20 SWAP4 SWAP3 PUSH2 0x18E6 JUMPI JUMPDEST POP MLOAD SWAP1 DUP2 MSTORE RETURN JUMPDEST DUP2 PUSH2 0x18FE SWAP3 SWAP4 POP RETURNDATASIZE DUP5 GT PUSH2 0x1498 JUMPI PUSH2 0x1489 DUP2 DUP4 PUSH2 0x2316 JUMP JUMPDEST POP SWAP1 CODESIZE PUSH2 0x18DF JUMP JUMPDEST DUP2 MLOAD RETURNDATASIZE DUP6 DUP3 RETURNDATACOPY RETURNDATASIZE SWAP1 REVERT JUMPDEST POP SWAP1 CALLVALUE PUSH2 0x483 JUMPI DUP3 DUP3 PUSH1 0x3 NOT CALLDATASIZE ADD SLT PUSH2 0x377 JUMPI PUSH2 0xB78 SWAP2 PUSH2 0x192F PUSH2 0x2274 JUMP JUMPDEST SWAP1 DUP5 MLOAD SWAP2 PUSH2 0x193C DUP4 PUSH2 0x22DE JUMP JUMPDEST PUSH1 0x2 DUP4 MSTORE DUP6 CALLDATASIZE PUSH1 0x20 DUP6 ADD CALLDATACOPY PUSH2 0x1950 DUP4 PUSH2 0x2350 JUMP JUMPDEST PUSH1 0x1 PUSH1 0x1 PUSH1 0xA0 SHL SUB SWAP2 DUP3 AND SWAP1 MSTORE PUSH1 0x1 SLOAD DUP2 AND PUSH2 0x196B DUP5 PUSH2 0x2373 JUMP JUMPDEST MSTORE DUP4 SLOAD AND SWAP1 DUP6 MLOAD DUP1 SWAP6 DUP2 SWAP5 DUP3 SWAP4 PUSH4 0xD06CA61F PUSH1 0xE0 SHL DUP5 MSTORE PUSH1 0x24 CALLDATALOAD SWAP1 DUP5 ADD MSTORE DUP9 PUSH1 0x24 DUP5 ADD MSTORE PUSH1 0x44 DUP4 ADD SWAP1 PUSH2 0x23B6 JUMP JUMPDEST DUP4 DUP3 CALLVALUE PUSH2 0x7DB JUMPI DUP2 PUSH1 0x3 NOT CALLDATASIZE ADD SLT PUSH2 0x7DB JUMPI PUSH1 0x20 SWAP1 PUSH1 0xFF PUSH1 0x6 SLOAD AND SWAP1 MLOAD SWAP1 ISZERO ISZERO DUP2 MSTORE RETURN JUMPDEST POP SWAP1 CALLVALUE PUSH2 0x483 JUMPI PUSH1 0x20 CALLDATASIZE PUSH1 0x3 NOT ADD SLT PUSH2 0x483 JUMPI PUSH1 0x3 SLOAD DUP2 CALLDATALOAD SWAP3 SWAP1 PUSH1 0x1 PUSH1 0x1 PUSH1 0xA0 SHL SUB AND CALLER SUB PUSH2 0x1A48 JUMPI DUP3 DUP3 SLOAD SWAP2 DUP1 MLOAD SWAP3 PUSH1 0x60 DUP5 MSTORE PUSH1 0x15 PUSH1 0x60 DUP6 ADD MSTORE PUSH21 0x191959985D5B1D111958591B1A5B9953D9999CD95D PUSH1 0x5A SHL PUSH1 0x80 DUP6 ADD MSTORE PUSH1 0x20 DUP5 ADD MSTORE DUP3 ADD MSTORE PUSH32 0xC8004015853107E4CB5EFA9FDFC530F3530F5F5D8A833A9D67E2EFE39717D7F6 PUSH1 0xA0 CALLER SWAP3 LOG2 SSTORE DUP1 RETURN JUMPDEST MLOAD PUSH3 0x82B429 PUSH1 0xE8 SHL DUP2 MSTORE REVERT JUMPDEST POP SWAP1 CALLVALUE PUSH2 0x483 JUMPI DUP3 DUP3 PUSH1 0x3 NOT CALLDATASIZE ADD SLT PUSH2 0x377 JUMPI PUSH2 0x1ABE SWAP2 PUSH2 0x1A73 PUSH2 0x2274 JUMP JUMPDEST SWAP1 DUP5 MLOAD SWAP2 PUSH2 0x1A80 DUP4 PUSH2 0x22FA JUMP JUMPDEST PUSH1 0x3 DUP4 MSTORE PUSH1 0x60 CALLDATASIZE PUSH1 0x20 DUP6 ADD CALLDATACOPY PUSH1 0x2 SLOAD PUSH1 0x1 PUSH1 0x1 PUSH1 0xA0 SHL SUB SWAP2 SWAP1 DUP3 AND PUSH2 0x1AA4 DUP6 PUSH2 0x2350 JUMP JUMPDEST MSTORE DUP2 PUSH1 0x1 SLOAD AND PUSH2 0x1AB3 DUP6 PUSH2 0x2373 JUMP JUMPDEST MSTORE DUP2 PUSH2 0xB47 DUP6 PUSH2 0x2383 JUMP JUMPDEST SUB SWAP2 GAS STATICCALL SWAP1 DUP2 ISZERO PUSH2 0xBC4 JUMPI SWAP1 PUSH2 0xB99 SWAP2 DUP5 PUSH1 0x20 SWAP6 SWAP3 PUSH2 0x1ADF JUMPI JUMPDEST POP POP PUSH2 0x2383 JUMP JUMPDEST PUSH2 0x1AF3 SWAP3 POP RETURNDATASIZE DUP1 SWAP2 DUP4 RETURNDATACOPY PUSH2 0xBB5 DUP2 DUP4 PUSH2 0x2316 JUMP JUMPDEST CODESIZE DUP1 PUSH2 0x1AD8 JUMP JUMPDEST POP CALLVALUE PUSH2 0x483 JUMPI PUSH1 0x20 CALLDATASIZE PUSH1 0x3 NOT ADD SLT PUSH2 0x483 JUMPI PUSH1 0x3 SLOAD DUP3 CALLDATALOAD SWAP3 SWAP1 PUSH1 0x1 PUSH1 0x1 PUSH1 0xA0 SHL SUB AND CALLER SUB PUSH2 0x1B81 JUMPI POP DUP2 PUSH1 0x5 SLOAD SWAP2 DUP1 MLOAD SWAP3 PUSH1 0x60 DUP5 MSTORE PUSH1 0xE PUSH1 0x60 DUP6 ADD MSTORE PUSH14 0x6D6178536C697070616765427073 PUSH1 0x90 SHL PUSH1 0x80 DUP6 ADD MSTORE PUSH1 0x20 DUP5 ADD MSTORE DUP3 ADD MSTORE PUSH32 0xC8004015853107E4CB5EFA9FDFC530F3530F5F5D8A833A9D67E2EFE39717D7F6 PUSH1 0xA0 CALLER SWAP3 LOG2 PUSH1 0x5 SSTORE DUP1 RETURN JUMPDEST SWAP1 MLOAD PUSH3 0x82B429 PUSH1 0xE8 SHL DUP2 MSTORE REVERT JUMPDEST POP DUP1 DUP4 SWAP2 PUSH1 0x3 NOT CALLDATASIZE ADD SLT PUSH2 0x7DB JUMPI PUSH2 0x1BA4 PUSH2 0x2274 JUMP JUMPDEST PUSH1 0x24 CALLDATALOAD SWAP3 PUSH1 0xFF PUSH1 0x6 SLOAD AND PUSH2 0x1E35 JUMPI PUSH1 0x1 PUSH1 0x1 PUSH1 0xA0 SHL SUB SWAP5 DUP3 DUP7 AND SWAP3 DUP4 ISZERO PUSH2 0x466 JUMPI CALLVALUE ISZERO PUSH2 0x457 JUMPI DUP5 MLOAD SWAP7 PUSH2 0x1BD7 DUP9 PUSH2 0x22DE JUMP JUMPDEST PUSH1 0x2 DUP9 MSTORE PUSH1 0x20 SWAP8 DUP7 CALLDATASIZE DUP11 DUP4 ADD CALLDATACOPY DUP2 PUSH1 0x2 SLOAD AND PUSH2 0x1BF2 DUP3 PUSH2 0x2350 JUMP JUMPDEST MSTORE DUP2 PUSH1 0x1 SLOAD AND PUSH2 0x1C01 DUP3 PUSH2 0x2373 JUMP JUMPDEST MSTORE DUP5 PUSH2 0x1C3E DUP4 DUP3 SLOAD AND PUSH2 0x1C15 DUP8 SLOAD TIMESTAMP PUSH2 0x2393 JUMP JUMPDEST SWAP4 DUP11 MLOAD DUP1 SWAP6 DUP2 SWAP5 DUP3 SWAP4 PUSH4 0x7FF36AB5 PUSH1 0xE0 SHL DUP5 MSTORE DUP8 DUP13 DUP6 ADD MSTORE PUSH1 0x80 PUSH1 0x24 DUP6 ADD MSTORE PUSH1 0x84 DUP5 ADD SWAP1 PUSH2 0x23B6 JUMP JUMPDEST SWAP1 ADDRESS PUSH1 0x44 DUP5 ADD MSTORE PUSH1 0x64 DUP4 ADD MSTORE SUB SWAP2 CALLVALUE SWAP1 GAS CALL SWAP1 DUP2 ISZERO PUSH2 0x1E2B JUMPI SWAP2 PUSH2 0x1C6E DUP11 SWAP3 PUSH2 0x1CA7 SWAP5 DUP9 SWAP2 PUSH2 0x1E11 JUMPI JUMPDEST POP PUSH2 0x2373 JUMP JUMPDEST MLOAD SWAP4 DUP5 SWAP2 PUSH1 0x1 SLOAD AND SWAP1 DUP8 DUP11 MLOAD DUP1 SWAP7 DUP2 SWAP6 DUP3 SWAP5 PUSH4 0x95EA7B3 PUSH1 0xE0 SHL DUP5 MSTORE DUP12 DUP5 ADD PUSH1 0x20 SWAP1 SWAP4 SWAP3 SWAP2 SWAP4 PUSH1 0x40 DUP2 ADD SWAP5 PUSH1 0x1 DUP1 PUSH1 0xA0 SHL SUB AND DUP2 MSTORE ADD MSTORE JUMP JUMPDEST SUB SWAP3 GAS CALL DUP1 ISZERO PUSH2 0x1E07 JUMPI PUSH2 0x1DEA JUMPI JUMPDEST POP DUP4 EXTCODESIZE ISZERO PUSH2 0x483 JUMPI DUP5 MLOAD SWAP1 PUSH4 0x1ADFD7BD PUSH1 0xE3 SHL DUP3 MSTORE DUP3 DUP3 ADD MSTORE DUP6 PUSH1 0x24 DUP3 ADD MSTORE DUP3 DUP2 PUSH1 0x44 DUP2 DUP4 DUP9 GAS CALL DUP1 ISZERO PUSH2 0x1DCC JUMPI SWAP1 DUP4 SWAP2 PUSH2 0x1DD6 JUMPI JUMPDEST POP POP DUP4 MLOAD PUSH4 0x70A08231 PUSH1 0xE0 SHL DUP2 MSTORE ADDRESS DUP3 DUP3 ADD MSTORE SWAP5 DUP7 DUP7 PUSH1 0x24 DUP2 DUP8 GAS STATICCALL SWAP6 DUP7 ISZERO PUSH2 0x1DCC JUMPI DUP4 SWAP7 PUSH2 0x1D9D JUMPI JUMPDEST POP DUP6 LT PUSH2 0x355 JUMPI DUP4 MLOAD PUSH4 0xA9059CBB PUSH1 0xE0 SHL DUP2 MSTORE CALLER SWAP2 DUP2 ADD SWAP2 DUP3 MSTORE PUSH1 0x20 DUP3 ADD DUP7 SWAP1 MSTORE SWAP2 SWAP1 DUP7 SWAP1 DUP4 SWAP1 DUP2 SWAP1 PUSH1 0x40 ADD SUB DUP2 DUP5 DUP8 GAS CALL SWAP1 DUP2 ISZERO PUSH2 0x1D92 JUMPI POP PUSH2 0x1D75 JUMPI JUMPDEST POP DUP2 MLOAD PUSH1 0x0 DUP1 MLOAD PUSH1 0x20 PUSH2 0x2522 DUP4 CODECOPY DUP2 MLOAD SWAP2 MSTORE CALLER SWAP2 DUP1 PUSH2 0x34C DUP8 CALLVALUE DUP4 PUSH2 0x2465 JUMP JUMPDEST PUSH2 0x1D8B SWAP1 DUP6 RETURNDATASIZE DUP8 GT PUSH2 0x3AE JUMPI PUSH2 0x39F DUP2 DUP4 PUSH2 0x2316 JUMP JUMPDEST POP DUP5 PUSH2 0x1D55 JUMP JUMPDEST DUP5 MLOAD SWAP1 RETURNDATASIZE SWAP1 DUP3 RETURNDATACOPY RETURNDATASIZE SWAP1 REVERT JUMPDEST SWAP1 SWAP6 POP DUP7 DUP2 DUP2 RETURNDATASIZE DUP4 GT PUSH2 0x1DC5 JUMPI JUMPDEST PUSH2 0x1DB5 DUP2 DUP4 PUSH2 0x2316 JUMP JUMPDEST DUP2 ADD SUB SLT PUSH2 0x3F7 JUMPI MLOAD SWAP5 DUP8 PUSH2 0x1D16 JUMP JUMPDEST POP RETURNDATASIZE PUSH2 0x1DAB JUMP JUMPDEST DUP6 MLOAD RETURNDATASIZE DUP6 DUP3 RETURNDATACOPY RETURNDATASIZE SWAP1 REVERT JUMPDEST PUSH2 0x1DDF SWAP1 PUSH2 0x22B4 JUMP JUMPDEST PUSH2 0x7DB JUMPI DUP2 DUP8 PUSH2 0x1CEC JUMP JUMPDEST PUSH2 0x1E00 SWAP1 DUP9 RETURNDATASIZE DUP11 GT PUSH2 0x3AE JUMPI PUSH2 0x39F DUP2 DUP4 PUSH2 0x2316 JUMP JUMPDEST POP DUP8 PUSH2 0x1CB6 JUMP JUMPDEST DUP7 MLOAD RETURNDATASIZE DUP7 DUP3 RETURNDATACOPY RETURNDATASIZE SWAP1 REVERT JUMPDEST PUSH2 0x1E25 SWAP2 POP RETURNDATASIZE DUP1 DUP11 DUP4 RETURNDATACOPY PUSH2 0xBB5 DUP2 DUP4 PUSH2 0x2316 JUMP JUMPDEST DUP13 PUSH2 0x1C68 JUMP JUMPDEST DUP8 MLOAD RETURNDATASIZE DUP8 DUP3 RETURNDATACOPY RETURNDATASIZE SWAP1 REVERT JUMPDEST DUP3 MLOAD PUSH4 0x13D0FF59 PUSH1 0xE3 SHL DUP2 MSTORE DUP6 SWAP1 REVERT JUMPDEST POP SWAP1 CALLVALUE PUSH2 0x483 JUMPI DUP3 DUP3 PUSH1 0x3 NOT CALLDATASIZE ADD SLT PUSH2 0x377 JUMPI PUSH2 0x1ABE SWAP2 PUSH2 0x1E64 PUSH2 0x2274 JUMP JUMPDEST SWAP1 DUP5 MLOAD SWAP2 PUSH2 0x1E71 DUP4 PUSH2 0x22FA JUMP JUMPDEST PUSH1 0x3 DUP4 MSTORE PUSH1 0x60 CALLDATASIZE PUSH1 0x20 DUP6 ADD CALLDATACOPY PUSH2 0x1E86 DUP4 PUSH2 0x2350 JUMP JUMPDEST PUSH1 0x1 PUSH1 0x1 PUSH1 0xA0 SHL SUB SWAP2 DUP3 AND SWAP1 MSTORE PUSH1 0x1 SLOAD DUP2 AND PUSH2 0x1EA1 DUP5 PUSH2 0x2373 JUMP JUMPDEST MSTORE DUP1 PUSH1 0x2 SLOAD AND PUSH2 0x196B DUP5 PUSH2 0x2383 JUMP JUMPDEST POP CALLVALUE PUSH2 0x483 JUMPI PUSH2 0x1EBF CALLDATASIZE PUSH2 0x228A JUMP JUMPDEST SWAP4 SWAP2 SWAP5 PUSH1 0xFF PUSH1 0x6 SLOAD AND PUSH2 0x2097 JUMPI PUSH1 0x1 PUSH1 0x1 PUSH1 0xA0 SHL SUB SWAP6 DUP7 AND SWAP3 DUP4 ISZERO PUSH2 0x2089 JUMPI DUP3 ISZERO PUSH2 0x207B JUMPI DUP5 MLOAD PUSH4 0x23B872DD PUSH1 0xE0 SHL DUP2 MSTORE CALLER DUP3 DUP3 ADD SWAP1 DUP2 MSTORE ADDRESS PUSH1 0x20 DUP3 DUP2 ADD SWAP2 SWAP1 SWAP2 MSTORE PUSH1 0x40 DUP3 ADD DUP7 SWAP1 MSTORE SWAP9 SWAP2 SWAP1 DUP10 SWAP1 DUP3 SWAP1 DUP2 SWAP1 PUSH1 0x60 ADD SUB DUP2 DUP8 DUP11 GAS CALL DUP1 ISZERO PUSH2 0x2041 JUMPI PUSH2 0x205E JUMPI JUMPDEST POP DUP5 EXTCODESIZE ISZERO PUSH2 0x483 JUMPI DUP6 MLOAD PUSH4 0xD79875EB PUSH1 0xE0 SHL DUP2 MSTORE DUP5 DUP4 DUP3 ADD MSTORE DUP8 PUSH1 0x24 DUP3 ADD MSTORE DUP4 DUP2 PUSH1 0x44 DUP2 DUP4 DUP11 GAS CALL DUP1 ISZERO PUSH2 0x2041 JUMPI PUSH2 0x204B JUMPI JUMPDEST POP PUSH1 0x1 SLOAD AND SWAP1 DUP6 MLOAD SWAP7 PUSH4 0x70A08231 PUSH1 0xE0 SHL DUP9 MSTORE ADDRESS DUP3 DUP10 ADD MSTORE DUP9 DUP9 PUSH1 0x24 DUP2 DUP7 GAS STATICCALL SWAP8 DUP9 ISZERO PUSH2 0x2041 JUMPI DUP5 SWAP9 PUSH2 0x2012 JUMPI JUMPDEST POP DUP8 LT PUSH2 0x2004 JUMPI DUP6 MLOAD PUSH4 0xA9059CBB PUSH1 0xE0 SHL DUP2 MSTORE CALLER SWAP2 DUP2 ADD SWAP2 DUP3 MSTORE PUSH1 0x20 DUP3 ADD DUP9 SWAP1 MSTORE SWAP3 SWAP2 DUP9 SWAP2 DUP5 SWAP2 SWAP1 DUP3 SWAP1 DUP6 SWAP1 DUP3 SWAP1 PUSH1 0x40 ADD SUB SWAP3 GAS CALL SWAP1 DUP2 ISZERO PUSH2 0x77D JUMPI POP PUSH2 0x1FE7 JUMPI JUMPDEST POP PUSH1 0x0 DUP1 MLOAD PUSH1 0x20 PUSH2 0x2562 DUP4 CODECOPY DUP2 MLOAD SWAP2 MSTORE DUP4 MLOAD DUP1 PUSH2 0x34C DUP8 CALLER SWAP6 DUP4 PUSH2 0x2439 JUMP JUMPDEST PUSH2 0x1FFD SWAP1 DUP7 RETURNDATASIZE DUP9 GT PUSH2 0x3AE JUMPI PUSH2 0x39F DUP2 DUP4 PUSH2 0x2316 JUMP JUMPDEST POP CODESIZE PUSH2 0x1FC8 JUMP JUMPDEST DUP6 MLOAD PUSH4 0x8199F5F3 PUSH1 0xE0 SHL DUP2 MSTORE REVERT JUMPDEST SWAP1 SWAP8 POP DUP9 DUP2 DUP2 RETURNDATASIZE DUP4 GT PUSH2 0x203A JUMPI JUMPDEST PUSH2 0x202A DUP2 DUP4 PUSH2 0x2316 JUMP JUMPDEST DUP2 ADD SUB SLT PUSH2 0x3F7 JUMPI MLOAD SWAP7 CODESIZE PUSH2 0x1F86 JUMP JUMPDEST POP RETURNDATASIZE PUSH2 0x2020 JUMP JUMPDEST DUP8 MLOAD RETURNDATASIZE DUP7 DUP3 RETURNDATACOPY RETURNDATASIZE SWAP1 REVERT JUMPDEST PUSH2 0x2057 SWAP1 SWAP4 SWAP2 SWAP4 PUSH2 0x22B4 JUMP JUMPDEST SWAP2 CODESIZE PUSH2 0x1F58 JUMP JUMPDEST PUSH2 0x2074 SWAP1 DUP10 RETURNDATASIZE DUP12 GT PUSH2 0x3AE JUMPI PUSH2 0x39F DUP2 DUP4 PUSH2 0x2316 JUMP JUMPDEST POP CODESIZE PUSH2 0x1F25 JUMP JUMPDEST DUP5 MLOAD PUSH4 0x162908E3 PUSH1 0xE1 SHL DUP2 MSTORE REVERT JUMPDEST DUP5 MLOAD PUSH4 0xE6C4247B PUSH1 0xE0 SHL DUP2 MSTORE REVERT JUMPDEST DUP4 MLOAD PUSH4 0x13D0FF59 PUSH1 0xE3 SHL DUP2 MSTORE DUP4 SWAP1 REVERT JUMPDEST POP CALLVALUE PUSH2 0x483 JUMPI DUP1 PUSH1 0x3 NOT CALLDATASIZE ADD SLT PUSH2 0x483 JUMPI DUP1 PUSH2 0x20C1 PUSH2 0x2274 JUMP JUMPDEST DUP2 MLOAD PUSH4 0x48153279 PUSH1 0xE0 SHL DUP2 MSTORE PUSH1 0x24 DUP1 CALLDATALOAD SWAP6 DUP3 ADD SWAP6 SWAP1 SWAP6 MSTORE SWAP4 DUP5 SWAP2 DUP3 SWAP1 PUSH1 0x1 PUSH1 0x1 PUSH1 0xA0 SHL SUB AND GAS STATICCALL SWAP2 DUP3 ISZERO PUSH2 0x1906 JUMPI PUSH1 0x20 SWAP4 SWAP3 PUSH2 0x18E6 JUMPI POP MLOAD SWAP1 DUP2 MSTORE RETURN JUMPDEST POP SWAP2 SWAP1 CALLVALUE PUSH2 0x7DB JUMPI DUP3 PUSH1 0x3 NOT CALLDATASIZE ADD SLT PUSH2 0x7DB JUMPI PUSH2 0x2119 PUSH2 0x2274 JUMP JUMPDEST DUP4 MLOAD PUSH2 0x2124 DUP2 PUSH2 0x22DE JUMP JUMPDEST PUSH1 0x2 DUP2 MSTORE DUP5 CALLDATASIZE PUSH1 0x20 DUP4 ADD CALLDATACOPY PUSH1 0x2 SLOAD PUSH1 0x1 PUSH1 0x1 PUSH1 0xA0 SHL SUB SWAP2 PUSH2 0x2189 SWAP2 DUP7 SWAP2 SWAP1 DUP5 AND PUSH2 0x214D DUP3 PUSH2 0x2350 JUMP JUMPDEST MSTORE DUP4 PUSH1 0x1 SLOAD AND PUSH2 0x215C DUP3 PUSH2 0x2373 JUMP JUMPDEST MSTORE DUP4 DUP3 SLOAD AND DUP9 MLOAD DUP1 DUP1 SWAP6 DUP2 SWAP5 PUSH4 0xD06CA61F PUSH1 0xE0 SHL DUP4 MSTORE PUSH1 0x24 CALLDATALOAD DUP12 DUP5 ADD MSTORE DUP13 PUSH1 0x24 DUP5 ADD MSTORE PUSH1 0x44 DUP4 ADD SWAP1 PUSH2 0x23B6 JUMP JUMPDEST SUB SWAP2 GAS STATICCALL SWAP1 DUP2 ISZERO PUSH2 0x2219 JUMPI PUSH2 0x21A9 DUP8 SWAP4 SWAP3 PUSH1 0x24 SWAP3 DUP9 SWAP2 PUSH2 0x21FF JUMPI POP PUSH2 0x2373 JUMP JUMPDEST MLOAD DUP4 MLOAD PUSH4 0x48153279 PUSH1 0xE0 SHL DUP2 MSTORE SWAP6 DUP7 ADD DUP2 SWAP1 MSTORE SWAP5 SWAP4 DUP5 SWAP3 DUP4 SWAP2 AND GAS STATICCALL SWAP3 DUP4 ISZERO PUSH2 0x1D92 JUMPI SWAP3 PUSH2 0x21DF JUMPI JUMPDEST POP DUP3 MLOAD SWAP2 DUP3 MSTORE PUSH1 0x20 DUP3 ADD MSTORE RETURN JUMPDEST PUSH2 0x21F7 SWAP2 SWAP3 POP DUP4 RETURNDATASIZE DUP6 GT PUSH2 0x1498 JUMPI PUSH2 0x1489 DUP2 DUP4 PUSH2 0x2316 JUMP JUMPDEST POP SWAP1 CODESIZE PUSH2 0x21D2 JUMP JUMPDEST PUSH2 0x2213 SWAP2 POP RETURNDATASIZE DUP1 DUP11 DUP4 RETURNDATACOPY PUSH2 0xBB5 DUP2 DUP4 PUSH2 0x2316 JUMP JUMPDEST CODESIZE PUSH2 0x1C68 JUMP JUMPDEST DUP7 MLOAD RETURNDATASIZE DUP8 DUP3 RETURNDATACOPY RETURNDATASIZE SWAP1 REVERT JUMPDEST DUP5 SWAP1 DUP5 CALLVALUE PUSH2 0x483 JUMPI PUSH1 0x20 CALLDATASIZE PUSH1 0x3 NOT ADD SLT PUSH2 0x483 JUMPI DUP1 CALLDATALOAD SWAP2 DUP3 ISZERO ISZERO DUP1 SWAP4 SUB PUSH2 0xA76 JUMPI PUSH1 0x3 SLOAD PUSH1 0x1 PUSH1 0x1 PUSH1 0xA0 SHL SUB AND CALLER SUB PUSH2 0x2269 JUMPI POP POP PUSH1 0xFF DUP1 NOT PUSH1 0x6 SLOAD AND SWAP2 AND OR PUSH1 0x6 SSTORE DUP1 RETURN JUMPDEST PUSH3 0x82B429 PUSH1 0xE8 SHL DUP2 MSTORE REVERT JUMPDEST PUSH1 0x4 CALLDATALOAD SWAP1 PUSH1 0x1 PUSH1 0x1 PUSH1 0xA0 SHL SUB DUP3 AND DUP3 SUB PUSH2 0x3F7 JUMPI JUMP JUMPDEST PUSH1 0x60 SWAP1 PUSH1 0x3 NOT ADD SLT PUSH2 0x3F7 JUMPI PUSH1 0x4 CALLDATALOAD PUSH1 0x1 PUSH1 0x1 PUSH1 0xA0 SHL SUB DUP2 AND DUP2 SUB PUSH2 0x3F7 JUMPI SWAP1 PUSH1 0x24 CALLDATALOAD SWAP1 PUSH1 0x44 CALLDATALOAD SWAP1 JUMP JUMPDEST PUSH8 0xFFFFFFFFFFFFFFFF DUP2 GT PUSH2 0x22C8 JUMPI PUSH1 0x40 MSTORE JUMP JUMPDEST PUSH4 0x4E487B71 PUSH1 0xE0 SHL PUSH1 0x0 MSTORE PUSH1 0x41 PUSH1 0x4 MSTORE PUSH1 0x24 PUSH1 0x0 REVERT JUMPDEST PUSH1 0x60 DUP2 ADD SWAP1 DUP2 LT PUSH8 0xFFFFFFFFFFFFFFFF DUP3 GT OR PUSH2 0x22C8 JUMPI PUSH1 0x40 MSTORE JUMP JUMPDEST PUSH1 0x80 DUP2 ADD SWAP1 DUP2 LT PUSH8 0xFFFFFFFFFFFFFFFF DUP3 GT OR PUSH2 0x22C8 JUMPI PUSH1 0x40 MSTORE JUMP JUMPDEST SWAP1 PUSH1 0x1F DUP1 NOT SWAP2 ADD AND DUP2 ADD SWAP1 DUP2 LT PUSH8 0xFFFFFFFFFFFFFFFF DUP3 GT OR PUSH2 0x22C8 JUMPI PUSH1 0x40 MSTORE JUMP JUMPDEST SWAP1 DUP2 PUSH1 0x20 SWAP2 SUB SLT PUSH2 0x3F7 JUMPI MLOAD DUP1 ISZERO ISZERO DUP2 SUB PUSH2 0x3F7 JUMPI SWAP1 JUMP JUMPDEST DUP1 MLOAD ISZERO PUSH2 0x235D JUMPI PUSH1 0x20 ADD SWAP1 JUMP JUMPDEST PUSH4 0x4E487B71 PUSH1 0xE0 SHL PUSH1 0x0 MSTORE PUSH1 0x32 PUSH1 0x4 MSTORE PUSH1 0x24 PUSH1 0x0 REVERT JUMPDEST DUP1 MLOAD PUSH1 0x1 LT ISZERO PUSH2 0x235D JUMPI PUSH1 0x40 ADD SWAP1 JUMP JUMPDEST DUP1 MLOAD PUSH1 0x2 LT ISZERO PUSH2 0x235D JUMPI PUSH1 0x60 ADD SWAP1 JUMP JUMPDEST SWAP2 SWAP1 DUP3 ADD DUP1 SWAP3 GT PUSH2 0x23A0 JUMPI JUMP JUMPDEST PUSH4 0x4E487B71 PUSH1 0xE0 SHL PUSH1 0x0 MSTORE PUSH1 0x11 PUSH1 0x4 MSTORE PUSH1 0x24 PUSH1 0x0 REVERT JUMPDEST SWAP1 DUP2 MLOAD DUP1 DUP3 MSTORE PUSH1 0x20 DUP1 DUP1 SWAP4 ADD SWAP4 ADD SWAP2 PUSH1 0x0 JUMPDEST DUP3 DUP2 LT PUSH2 0x23D6 JUMPI POP POP POP POP SWAP1 JUMP JUMPDEST DUP4 MLOAD PUSH1 0x1 PUSH1 0x1 PUSH1 0xA0 SHL SUB AND DUP6 MSTORE SWAP4 DUP2 ADD SWAP4 SWAP3 DUP2 ADD SWAP3 PUSH1 0x1 ADD PUSH2 0x23C8 JUMP JUMPDEST SWAP2 SWAP3 PUSH1 0x80 SWAP4 PUSH2 0x2418 SWAP3 SWAP8 SWAP7 SWAP6 SWAP8 DUP5 MSTORE PUSH1 0x20 DUP5 ADD MSTORE PUSH1 0xA0 PUSH1 0x40 DUP5 ADD MSTORE PUSH1 0xA0 DUP4 ADD SWAP1 PUSH2 0x23B6 JUMP JUMPDEST PUSH1 0x1 PUSH1 0x1 PUSH1 0xA0 SHL SUB SWAP1 SWAP6 AND PUSH1 0x60 DUP3 ADD MSTORE ADD MSTORE JUMP JUMPDEST SWAP2 SWAP1 DUP3 SUB SWAP2 DUP3 GT PUSH2 0x23A0 JUMPI JUMP JUMPDEST SWAP1 SWAP2 PUSH1 0xA0 SWAP3 DUP3 MSTORE PUSH1 0x20 DUP3 ADD MSTORE PUSH1 0x60 PUSH1 0x40 DUP3 ADD MSTORE PUSH1 0x5 PUSH1 0x60 DUP3 ADD MSTORE PUSH5 0x2420AB22A7 PUSH1 0xD9 SHL PUSH1 0x80 DUP3 ADD MSTORE ADD SWAP1 JUMP JUMPDEST SWAP1 SWAP2 PUSH1 0xA0 SWAP3 DUP3 MSTORE PUSH1 0x20 DUP3 ADD MSTORE PUSH1 0x60 PUSH1 0x40 DUP3 ADD MSTORE PUSH1 0x3 PUSH1 0x60 DUP3 ADD MSTORE PUSH3 0x212721 PUSH1 0xE9 SHL PUSH1 0x80 DUP3 ADD MSTORE ADD SWAP1 JUMP JUMPDEST SWAP1 PUSH1 0x20 SWAP1 DUP2 DUP4 DUP3 SUB SLT PUSH2 0x3F7 JUMPI DUP3 MLOAD PUSH8 0xFFFFFFFFFFFFFFFF SWAP4 DUP5 DUP3 GT PUSH2 0x3F7 JUMPI ADD DUP2 PUSH1 0x1F DUP3 ADD SLT ISZERO PUSH2 0x3F7 JUMPI DUP1 MLOAD SWAP4 DUP5 GT PUSH2 0x22C8 JUMPI DUP4 PUSH1 0x5 SHL SWAP1 PUSH1 0x40 MLOAD SWAP5 PUSH2 0x24D9 DUP6 DUP5 ADD DUP8 PUSH2 0x2316 JUMP JUMPDEST DUP6 MSTORE DUP4 DUP1 DUP7 ADD SWAP3 DUP3 ADD ADD SWAP3 DUP4 GT PUSH2 0x3F7 JUMPI DUP4 ADD SWAP1 JUMPDEST DUP3 DUP3 LT PUSH2 0x24FC JUMPI POP POP POP POP SWAP1 JUMP JUMPDEST DUP2 MLOAD DUP2 MSTORE SWAP1 DUP4 ADD SWAP1 DUP4 ADD PUSH2 0x24EE JUMP JUMPDEST SWAP2 SWAP1 DUP3 PUSH1 0x40 SWAP2 SUB SLT PUSH2 0x3F7 JUMPI PUSH1 0x20 DUP3 MLOAD SWAP3 ADD MLOAD SWAP1 JUMP INVALID 0xDB 0xF6 PREVRANDAO 0xD8 JUMP 0xB0 MOD SWAP1 0xAF 0xBA DUP14 0x4C 0xD3 0xFB SHR PUSH11 0xFA1F453860C0E83555BCB0 0xCB PUSH20 0x3ADF7244573A89DF583C0B1E16E6C22D41B4E39D 0xE1 0xCA CALLVALUE SAR EXP 0x23 0x4B PUSH18 0x17CCC2BF727DC4A995D58D3FF5874A6DDDAE LOG0 0xCE DELEGATECALL 0x25 0xF8 PUSH9 0x1752FF3BE4102724C 0xC6 JUMP PUSH23 0x9E3724A2646970667358221220D554E73A380DF48AD779 SHL 0x4F ADDMOD 0xAD INVALID RETURNDATACOPY CALLDATACOPY LT BLOCKHASH CALLVALUE 0xDA PC NOT 0xB0 0xF 0xF9 CHAINID 0x24 PUSH9 0x710FD664736F6C6343 STOP ADDMOD EQ STOP CALLER "},"methodIdentifiers":{"batchBuyBondingCurveWithBNB(address,uint256)":"3e598cb9","batchBuyBondingCurveWithHAVEN(address,uint256,uint256)":"f018ad9a","batchBuyGraduatedWithBNB(address,uint256)":"b1998e10","batchBuyGraduatedWithHAVEN(address,uint256,uint256)":"eeb34627","batchSellBondingCurveForBNB(address,uint256,uint256)":"ccb6303e","batchSellBondingCurveForHAVEN(address,uint256,uint256)":"29fe7269","batchSellGraduatedForBNB(address,uint256,uint256)":"fa7c313f","batchSellGraduatedForHAVEN(address,uint256,uint256)":"781380c0","defaultDeadlineOffset()":"e8feca30","emergencyWithdraw(address,address,uint256)":"e63ea408","havenToken()":"7bcafc82","maxSlippageBps()":"c4aa7395","owner()":"8da5cb5b","pancakeRouter()":"c21ebd07","paused()":"5c975abb","previewBuyBondingCurveWithBNB(address,uint256)":"17421db4","previewBuyBondingCurveWithHAVEN(address,uint256)":"22e988a4","previewBuyGraduatedWithBNB(address,uint256)":"584b5a38","previewBuyGraduatedWithHAVEN(address,uint256)":"e9ea09b3","previewSellBondingCurveForBNB(address,uint256)":"8661a02a","previewSellBondingCurveForHAVEN(address,uint256)":"64f5113d","previewSellGraduatedForBNB(address,uint256)":"324fc30c","previewSellGraduatedForHAVEN(address,uint256)":"6231af91","setDefaultDeadlineOffset(uint256)":"5af39811","setHavenToken(address)":"653028e8","setMaxSlippage(uint256)":"43f68a49","setPancakeRouter(address)":"f8316c90","setPaused(bool)":"16c38b3c","setWBNB(address)":"cab27a64","transferOwnership(address)":"f2fde38b","wbnb()":"8d72647e"}}}}}