{"contracts/HavenRouter.sol":{"HavenRouter":{"abi":[{"inputs":[{"internalType":"address","name":"_pancakeRouter","type":"address"},{"internalType":"address","name":"_havenToken","type":"address"},{"internalType":"address","name":"_wbnb","type":"address"}],"stateMutability":"nonpayable","type":"constructor"},{"inputs":[],"name":"InsufficientOutput","type":"error"},{"inputs":[],"name":"InvalidAddress","type":"error"},{"inputs":[],"name":"InvalidAmount","type":"error"},{"inputs":[],"name":"InvalidSlippage","type":"error"},{"inputs":[],"name":"Paused","type":"error"},{"inputs":[],"name":"SlippageExceeded","type":"error"},{"inputs":[],"name":"TransferFailed","type":"error"},{"inputs":[],"name":"Unauthorized","type":"error"},{"anonymous":false,"inputs":[{"indexed":true,"internalType":"address","name":"updater","type":"address"},{"indexed":false,"internalType":"string","name":"parameter","type":"string"},{"indexed":false,"internalType":"address","name":"oldAddress","type":"address"},{"indexed":false,"internalType":"address","name":"newAddress","type":"address"}],"name":"AddressUpdated","type":"event"},{"anonymous":false,"inputs":[{"indexed":true,"internalType":"address","name":"user","type":"address"},{"indexed":true,"internalType":"address","name":"bondingCurveToken","type":"address"},{"indexed":false,"internalType":"uint256","name":"bnbIn","type":"uint256"},{"indexed":false,"internalType":"uint256","name":"havenSwapped","type":"uint256"},{"indexed":false,"internalType":"uint256","name":"tokensOut","type":"uint256"}],"name":"BuyExecuted","type":"event"},{"anonymous":false,"inputs":[{"indexed":true,"internalType":"address","name":"updater","type":"address"},{"indexed":false,"internalType":"string","name":"parameter","type":"string"},{"indexed":false,"internalType":"uint256","name":"oldValue","type":"uint256"},{"indexed":false,"internalType":"uint256","name":"newValue","type":"uint256"}],"name":"ConfigUpdated","type":"event"},{"anonymous":false,"inputs":[{"indexed":true,"internalType":"address","name":"token","type":"address"},{"indexed":true,"internalType":"address","name":"to","type":"address"},{"indexed":false,"internalType":"uint256","name":"amount","type":"uint256"}],"name":"EmergencyWithdraw","type":"event"},{"anonymous":false,"inputs":[{"indexed":true,"internalType":"address","name":"user","type":"address"},{"indexed":true,"internalType":"address","name":"bondingCurveToken","type":"address"},{"indexed":false,"internalType":"uint256","name":"bnbIn","type":"uint256"},{"indexed":false,"internalType":"uint256","name":"bnbRefunded","type":"uint256"},{"indexed":false,"internalType":"uint256","name":"tokensOut","type":"uint256"}],"name":"ExactBuyExecuted","type":"event"},{"inputs":[{"internalType":"address","name":"bondingCurveToken","type":"address"},{"internalType":"uint256","name":"minTokensOut","type":"uint256"}],"name":"buyBondingCurveTokenWithBNB","outputs":[{"internalType":"uint256","name":"tokensOut","type":"uint256"}],"stateMutability":"payable","type":"function"},{"inputs":[{"internalType":"address","name":"bondingCurveToken","type":"address"},{"internalType":"uint256","name":"havenAmount","type":"uint256"},{"internalType":"uint256","name":"minTokensOut","type":"uint256"}],"name":"buyBondingCurveTokenWithHAVEN","outputs":[{"internalType":"uint256","name":"tokensOut","type":"uint256"}],"stateMutability":"nonpayable","type":"function"},{"inputs":[{"internalType":"address","name":"bondingCurveToken","type":"address"},{"internalType":"uint256","name":"exactTokensOut","type":"uint256"},{"internalType":"uint256","name":"maxSlippageBps","type":"uint256"}],"name":"buyExactTokensWithBNB","outputs":[{"internalType":"uint256","name":"bnbSpent","type":"uint256"},{"internalType":"uint256","name":"bnbRefunded","type":"uint256"}],"stateMutability":"payable","type":"function"},{"inputs":[{"internalType":"address","name":"token","type":"address"},{"internalType":"uint256","name":"minTokensOut","type":"uint256"}],"name":"buyGraduatedTokenWithBNB","outputs":[{"internalType":"uint256","name":"tokensOut","type":"uint256"}],"stateMutability":"payable","type":"function"},{"inputs":[{"internalType":"address","name":"token","type":"address"},{"internalType":"uint256","name":"havenAmount","type":"uint256"},{"internalType":"uint256","name":"minTokensOut","type":"uint256"}],"name":"buyGraduatedTokenWithHAVEN","outputs":[{"internalType":"uint256","name":"tokensOut","type":"uint256"}],"stateMutability":"nonpayable","type":"function"},{"inputs":[],"name":"defaultDeadlineOffset","outputs":[{"internalType":"uint256","name":"","type":"uint256"}],"stateMutability":"view","type":"function"},{"inputs":[{"internalType":"address","name":"token","type":"address"},{"internalType":"address","name":"to","type":"address"},{"internalType":"uint256","name":"amount","type":"uint256"}],"name":"emergencyWithdraw","outputs":[],"stateMutability":"nonpayable","type":"function"},{"inputs":[],"name":"havenToken","outputs":[{"internalType":"address","name":"","type":"address"}],"stateMutability":"view","type":"function"},{"inputs":[],"name":"maxSlippageBps","outputs":[{"internalType":"uint256","name":"","type":"uint256"}],"stateMutability":"view","type":"function"},{"inputs":[],"name":"owner","outputs":[{"internalType":"address","name":"","type":"address"}],"stateMutability":"view","type":"function"},{"inputs":[],"name":"pancakeRouter","outputs":[{"internalType":"address","name":"","type":"address"}],"stateMutability":"view","type":"function"},{"inputs":[],"name":"paused","outputs":[{"internalType":"bool","name":"","type":"bool"}],"stateMutability":"view","type":"function"},{"inputs":[{"internalType":"address","name":"bondingCurveToken","type":"address"},{"internalType":"uint256","name":"havenAmount","type":"uint256"}],"name":"previewBuyBondingCurveWithHAVEN","outputs":[{"internalType":"uint256","name":"tokensOut","type":"uint256"}],"stateMutability":"view","type":"function"},{"inputs":[{"internalType":"address","name":"token","type":"address"},{"internalType":"uint256","name":"bnbAmount","type":"uint256"}],"name":"previewBuyGraduatedWithBNB","outputs":[{"internalType":"uint256","name":"tokensOut","type":"uint256"}],"stateMutability":"view","type":"function"},{"inputs":[{"internalType":"address","name":"token","type":"address"},{"internalType":"uint256","name":"havenAmount","type":"uint256"}],"name":"previewBuyGraduatedWithHAVEN","outputs":[{"internalType":"uint256","name":"tokensOut","type":"uint256"}],"stateMutability":"view","type":"function"},{"inputs":[{"internalType":"address","name":"bondingCurveToken","type":"address"},{"internalType":"uint256","name":"bnbAmount","type":"uint256"}],"name":"previewBuyWithBNB","outputs":[{"internalType":"uint256","name":"tokensOut","type":"uint256"},{"internalType":"uint256","name":"havenAmount","type":"uint256"}],"stateMutability":"view","type":"function"},{"inputs":[{"internalType":"address","name":"bondingCurveToken","type":"address"},{"internalType":"uint256","name":"exactTokensOut","type":"uint256"}],"name":"previewExactBuyWithBNB","outputs":[{"internalType":"uint256","name":"bnbRequired","type":"uint256"},{"internalType":"uint256","name":"havenRequired","type":"uint256"}],"stateMutability":"view","type":"function"},{"inputs":[{"internalType":"address","name":"bondingCurveToken","type":"address"},{"internalType":"uint256","name":"tokenAmount","type":"uint256"}],"name":"previewSellBondingCurveForBNB","outputs":[{"internalType":"uint256","name":"bnbOut","type":"uint256"},{"internalType":"uint256","name":"havenAmount","type":"uint256"}],"stateMutability":"view","type":"function"},{"inputs":[{"internalType":"address","name":"token","type":"address"},{"internalType":"uint256","name":"tokenAmount","type":"uint256"}],"name":"previewSellGraduatedForBNB","outputs":[{"internalType":"uint256","name":"bnbOut","type":"uint256"}],"stateMutability":"view","type":"function"},{"inputs":[{"internalType":"address","name":"token","type":"address"},{"internalType":"uint256","name":"tokenAmount","type":"uint256"}],"name":"previewSellGraduatedForHAVEN","outputs":[{"internalType":"uint256","name":"havenOut","type":"uint256"}],"stateMutability":"view","type":"function"},{"inputs":[{"internalType":"address","name":"bondingCurveToken","type":"address"},{"internalType":"uint256","name":"tokenAmount","type":"uint256"},{"internalType":"uint256","name":"minBNBOut","type":"uint256"}],"name":"sellBondingCurveTokenForBNB","outputs":[{"internalType":"uint256","name":"bnbOut","type":"uint256"}],"stateMutability":"nonpayable","type":"function"},{"inputs":[{"internalType":"address","name":"token","type":"address"},{"internalType":"uint256","name":"tokenAmount","type":"uint256"},{"internalType":"uint256","name":"minBNBOut","type":"uint256"}],"name":"sellGraduatedTokenForBNB","outputs":[{"internalType":"uint256","name":"bnbOut","type":"uint256"}],"stateMutability":"nonpayable","type":"function"},{"inputs":[{"internalType":"address","name":"token","type":"address"},{"internalType":"uint256","name":"tokenAmount","type":"uint256"},{"internalType":"uint256","name":"minHavenOut","type":"uint256"}],"name":"sellGraduatedTokenForHAVEN","outputs":[{"internalType":"uint256","name":"havenOut","type":"uint256"}],"stateMutability":"nonpayable","type":"function"},{"inputs":[{"internalType":"uint256","name":"_offset","type":"uint256"}],"name":"setDefaultDeadlineOffset","outputs":[],"stateMutability":"nonpayable","type":"function"},{"inputs":[{"internalType":"address","name":"_havenToken","type":"address"}],"name":"setHavenToken","outputs":[],"stateMutability":"nonpayable","type":"function"},{"inputs":[{"internalType":"uint256","name":"_maxSlippageBps","type":"uint256"}],"name":"setMaxSlippage","outputs":[],"stateMutability":"nonpayable","type":"function"},{"inputs":[{"internalType":"address","name":"_pancakeRouter","type":"address"}],"name":"setPancakeRouter","outputs":[],"stateMutability":"nonpayable","type":"function"},{"inputs":[{"internalType":"bool","name":"_paused","type":"bool"}],"name":"setPaused","outputs":[],"stateMutability":"nonpayable","type":"function"},{"inputs":[{"internalType":"address","name":"_wbnb","type":"address"}],"name":"setWBNB","outputs":[],"stateMutability":"nonpayable","type":"function"},{"inputs":[{"internalType":"address","name":"newOwner","type":"address"}],"name":"transferOwnership","outputs":[],"stateMutability":"nonpayable","type":"function"},{"inputs":[],"name":"wbnb","outputs":[{"internalType":"address","name":"","type":"address"}],"stateMutability":"view","type":"function"},{"stateMutability":"payable","type":"receive"}],"evm":{"bytecode":{"linkReferences":{},"object":"608034620000ff57601f6200269138819003918201601f191683019291906001600160401b0384118385101762000104578160609284926040968752833981010312620000ff5762000051816200011a565b6200006c8362000064602085016200011a565b93016200011a565b61012c6004556113886005556001600160a01b03918216929091908315620000ee578116918215620000ee5716908115620000dd5760018060a01b03199283600054161760005582600154161760015581600254161760025533906003541617600355516125619081620001308239f35b835163e6c4247b60e01b8152600490fd5b845163e6c4247b60e01b8152600490fd5b600080fd5b634e487b7160e01b600052604160045260246000fd5b51906001600160a01b0382168203620000ff5756fe6080604081815260049081361015610022575b505050361561002057600080fd5b005b600092833560e01c90816316c38b3c1461211c575080631ce0ee5c14611fe0578063216f68b214611ec157806322e988a414611e40578063323f351714611cca578063324fc30c14611c5f5780633dc4340a14611a065780634325f299146116e657806343f68a4914611652578063584b5a38146115ad5780635af39811146115165780635c975abb146114f25780636231af9114611469578063653028e8146113db5780637bcafc82146113b25780638661a02a1461129f5780638d72647e146112765780638da5cb5b1461124d57806392212ef714610f7c578063a09f99cc14610b9d578063c21ebd0714610b75578063c4aa739514610b52578063cab27a6414610aaf578063dd0c4331146108f5578063e302b66c1461080b578063e63ea408146106aa578063e8feca301461068c578063e9ea09b3146105ba578063f2fde38b14610517578063f4c0de8c1461022e5763f8316c9003610012573461022a57602036600319011261022a5761019961216d565b6003546001600160a01b0391908216330361021c57811692831561020e57508284549280519260608452600d60608501526c3830b731b0b5b2a937baba32b960991b60808501528416602084015282015260008051602061250c83398151915260a03392a26001600160a01b03191617815580f35b825163e6c4247b60e01b8152fd5b5050516282b42960e81b8152fd5b8280fd5b5082346105145761023e36612183565b90949160ff60065416610504576001600160a01b039081169182156104f45786156104e45785516370a0823160e01b808252308683015260209890918981602481895afa9081156104ab578a9089926104b5575b5089516323b872dd60e01b81523389820190815230602082015260408101949094529192829081906060015b03818b8a5af19081156104ab57889161048e575b501561047e57875191825230868301528882602481885afa801561043057879061044a575b61030192506123ae565b91821561043a578554875163095ea7b360e01b81529082166001600160a01b03168682019081526020810185905289908290819060400103818a895af1801561043057918795949392918692610403575b5088519461035f866121d7565b6002865289368c88013761037286612231565b52806001541661038186612254565b52815416926103b0610394885442612274565b8a516338ed173960e01b815298899788968795339387016123fb565b03925af19182156103f85790816103cd936103d5575b5050612254565b519051908152f35b6103f192503d8091833e6103e9818361220f565b810190612297565b84806103c6565b8351903d90823e3d90fd5b610422908b3d8d11610429575b61041a818361220f565b810190612350565b508a610352565b503d610410565b88513d89823e3d90fd5b865163162908e360e11b81528590fd5b508882813d8311610477575b610460818361220f565b810103126104725761030191516102f7565b600080fd5b503d610456565b87516312171d8360e31b81528690fd5b6104a591508a3d8c116104295761041a818361220f565b8a6102d2565b89513d8a823e3d90fd5b809250813d83116104dd575b6104cb818361220f565b810103126104725751896102be610292565b503d6104c1565b855163162908e360e11b81528490fd5b855163e6c4247b60e01b81528490fd5b84516313d0ff5960e31b81528390fd5b80fd5b503461022a57602036600319011261022a5761053161216d565b600354916001600160a01b0380841692338490036105ab571693841561059d5750808491519260608452600560608501526437bbb732b960d91b6080850152602084015282015260008051602061250c83398151915260a03392a26001600160a01b0319161760035580f35b905163e6c4247b60e01b8152fd5b82516282b42960e81b81528690fd5b50903461022a57828260031936011261051457610645916105d961216d565b908451916105e6836121d7565b60028352853660208501376001546001600160a01b039190821661060985612231565b528161061485612254565b9116905283541690855180958194829363d06ca61f60e01b8452602435908401528860248401526044830190612313565b03915afa90811561068057906103cd918460209592610665575050612254565b61067992503d8091833e6103e9818361220f565b38806103c6565b505051903d90823e3d90fd5b50903461022a578260031936011261022a5760209250549051908152f35b503461022a57606036600319011261022a576106c461216d565b6001600160a01b03602435818116949093918585036104725760443593816003541633036107fc5786156107ec57169383908561074f57508680808093895af161070c6123bb565b501561074157507ff24ef89f38eadc1bde50701ad6e4d6d11a2dc24f7cf834a486991f3883328504916020915b51908152a380f35b90516312171d8360e31b8152fd5b835163a9059cbb60e01b81526001600160a01b039091168382019081526020818101939093529091908290819060400103818a895af19081156107e25787916107c4575b501561074157507ff24ef89f38eadc1bde50701ad6e4d6d11a2dc24f7cf834a486991f388332850491602091610739565b6107dc915060203d81116104295761041a818361220f565b38610793565b83513d89823e3d90fd5b835163e6c4247b60e01b81528390fd5b83516282b42960e81b81528390fd5b50903461022a578160031936011261022a576108a08361083561082c61216d565b6024359061244a565b92845190610842826121d7565b600282528536602084013760025485906001600160a01b0390811661086685612231565b52806001541661087585612254565b52845416918751958694859384936307c0329d60e21b85528401528960248401526044830190612313565b03915afa9081156108e857846108bf939495926108cd575b5050612231565b519082519182526020820152f35b6108e192503d8091833e6103e9818361220f565b38806108b8565b50505051903d90823e3d90fd5b5082346105145761090536612183565b9060ff60069693965416610504576001600160a01b039586169182156104f45781156104e45785516323b872dd60e01b815233858201908152306020828101919091526040820185905298919089908290819060600103818a895af1908115610430578791610a92575b5015610a82578554875163095ea7b360e01b81529082166001600160a01b03168682019081526020810185905289908290819060400103818a895af1801561043057918795949392918692610a65575b508851946109cc866121f3565b600386526060368c8801376109e086612231565b5280600154166109ef86612254565b5280600254166109fe86612264565b5281541692610a2d610a11885442612274565b8a516318cbafe560e01b815298899788968795339387016123fb565b03925af19182156103f85790816103cd93610a4a575b5050612264565b610a5e92503d8091833e6103e9818361220f565b8480610a43565b610a7b908b3d8d116104295761041a818361220f565b508a6109bf565b86516312171d8360e31b81528590fd5b610aa99150893d8b116104295761041a818361220f565b8961096f565b50903461022a57602036600319011261022a57610aca61216d565b6003546001600160a01b0392919083163303610b44578216928315610b3757839060025493815193606085526060850152633bb1373160e11b60808501528416602084015282015260008051602061250c83398151915260a03392a26001600160a01b0319161760025580f35b5163e6c4247b60e01b8152fd5b5082516282b42960e81b8152fd5b838234610b715781600319360112610b71576020906005549051908152f35b5080fd5b838234610b715781600319360112610b7157905490516001600160a01b039091168152602090f35b5091610ba836612183565b919060ff60065416610f6c576001600160a01b0394828616928315610f5d573415610f4e578215610f4e57610bdd838261244a565b96885195610bea876121d7565b600287526020968a36898301378260025416610c0582612231565b528260015416610c1482612254565b5282895416918b516307c0329d60e21b81528b878201528c60248201528a8180610c416044820187612313565b0381875afa908115610f4457610c72610c6a610c799493612710938f8092610f29575050612231565b519283612368565b0490612274565b998a3410610f19578b928a928c8893610cb2610c96865442612274565b9751637ff36ab560e01b8152978896879586943092860161237b565b03925af1908115610f0f5791610cd48892610d0d948b91610ef5575b50612254565b5193849160015416908a8d5180968195829463095ea7b360e01b84528b840160209093929193604081019460018060a01b031681520152565b03925af18015610eeb57610ece575b50833b15610eca57875190631adfd7bd60e31b825282820152826024820152858160448183885af18015610e6957908691610eb2575b505086516370a0823160e01b815230828201528481602481875afa908115610e69579083918791610e81575b5010610e7357865163a9059cbb60e01b81523382820190815260208101849052859082908190604001038189885af1908115610e69578691610e4c575b5015610e3e57610dcb86346123ae565b9485610e23575b50507f1504c5c62e4f504e54290d01e06ac42130fff4d2712e5971c0ee4f42388c6bd5865180610e1633948834846040919493926060820195825260208201520152565b0390a38351928352820152f35b80808088335af1610e326123bb565b5015610e3e5780610dd2565b86516312171d8360e31b8152fd5b610e639150853d87116104295761041a818361220f565b38610dbb565b88513d88823e3d90fd5b865163bb2875c360e01b8152fd5b809250868092503d8311610eab575b610e9a818361220f565b810103126104725782905138610d7e565b503d610e90565b610ebb906121ad565b610ec6578438610d52565b8480fd5b8580fd5b610ee490863d88116104295761041a818361220f565b5038610d1c565b89513d89823e3d90fd5b610f0991503d808d833e6103e9818361220f565b38610cce565b8a513d8a823e3d90fd5b8b5163bb2875c360e01b81528690fd5b610f3d92503d8091833e6103e9818361220f565b388f6108b8565b8d513d8d823e3d90fd5b50865163162908e360e11b8152fd5b50865163e6c4247b60e01b8152fd5b85516313d0ff5960e31b81528590fd5b503461022a57610f8b36612183565b939160ff6006969296541661123d576001600160a01b03908116801561122d57861561121d5784516323b872dd60e01b81523385820190815230602082810191909152604082018a9052989190899082908190606001038188875af19081156112135785916111f6575b50156111e657813b156111e2578391604483928851948593849263d79875eb60e01b84528a8401528160248401525af180156111d8579083916111c4575b505060015484516370a0823160e01b815230858201529082168782602481845afa91821561117b578492611195575b508115611185578354865163095ea7b360e01b81529084166001600160a01b0316868201908152602081018490529091899183919082908890829060400103925af1801561117b5791859391859361115e575b5087838851936110c4856121d7565b6002855289368d87013780600154166110dc86612231565b5280600254166110eb86612254565b528154169261111a6110fe885442612274565b8b516318cbafe560e01b815298899788968795339387016123fb565b03925af191821561115357908161113693610665575050612254565b51928310611145575051908152f35b9051638199f5f360e01b8152fd5b8451903d90823e3d90fd5b611174908a3d8c116104295761041a818361220f565b50386110b5565b86513d86823e3d90fd5b855163bb2875c360e01b81528590fd5b9091508781813d83116111bd575b6111ad818361220f565b8101031261047257519038611062565b503d6111a3565b6111cd906121ad565b610b71578138611033565b85513d85823e3d90fd5b8380fd5b85516312171d8360e31b81528590fd5b61120d9150893d8b116104295761041a818361220f565b38610ff5565b87513d87823e3d90fd5b845163162908e360e11b81528490fd5b845163e6c4247b60e01b81528490fd5b83516313d0ff5960e31b81528390fd5b838234610b715781600319360112610b715760035490516001600160a01b039091168152602090f35b838234610b715781600319360112610b715760025490516001600160a01b039091168152602090f35b50903461022a578160031936011261022a576112b961216d565b825163fb3dd95f60e01b81526024803584830152909185916001600160a01b039186918591829085165afa9283156113a8578293611376575b50829361135893865192611305846121d7565b6002845287366020860137806001541661131e85612231565b52806002541661132d85612254565b528454169187519586948593849363d06ca61f60e01b85528401528960248401526044830190612313565b03915afa9081156108e857846108bf93949592610665575050612254565b611358935061139a90863d88116113a1575b611392818361220f565b810190612434565b50926112f2565b503d611388565b85513d84823e3d90fd5b838234610b715781600319360112610b715760015490516001600160a01b039091168152602090f35b503461022a57602036600319011261022a576113f561216d565b6003546001600160a01b0391908216330361021c57811692831561020e5750826001549280519260608452600a6060850152693430bb32b72a37b5b2b760b11b60808501528416602084015282015260008051602061250c83398151915260a03392a26001600160a01b0319161760015580f35b50903461022a578282600319360112610514576106459161148861216d565b90845191611495836121d7565b60028352853660208501376114a983612231565b6001600160a01b03918216905260015481166114c484612254565b5283541690855180958194829363d06ca61f60e01b8452602435908401528860248401526044830190612313565b838234610b715781600319360112610b715760209060ff6006541690519015158152f35b50903461022a57602036600319011261022a57600354813592906001600160a01b031633036115a15782825491805192606084526015606085015274191959985d5b1d111958591b1a5b9953d9999cd95d605a1b608085015260208401528201527fc8004015853107e4cb5efa9fdfc530f3530f5f5d8a833a9d67e2efe39717d7f660a03392a25580f35b516282b42960e81b8152fd5b50903461022a57828260031936011261051457611617916115cc61216d565b908451916115d9836121f3565b6003835260603660208501376002546001600160a01b03919082166115fd85612231565b52816001541661160c85612254565b528161061485612264565b03915afa90811561068057906103cd918460209592611637575050612264565b61164b92503d8091833e6103e9818361220f565b3880610a43565b503461022a57602036600319011261022a57600354823592906001600160a01b031633036116d95750816005549180519260608452600e60608501526d6d6178536c69707061676542707360901b608085015260208401528201527fc8004015853107e4cb5efa9fdfc530f3530f5f5d8a833a9d67e2efe39717d7f660a03392a260055580f35b90516282b42960e81b8152fd5b508060031936011261022a576116fa61216d565b926024359260ff600654166119f8576001600160a01b038581169290919083156119e95734156119da57845196611730886121d7565b6002885260209786368a830137846002541661174b82612231565b52846001541661175a82612254565b52826117978682541661176e875442612274565b938a51809581948293637ff36ab560e01b8452878c850152608060248501526084840190612313565b903060448401526064830152039134905af19081156119d057906117c19184916119bc5750612254565b519384156119ac57600154875163095ea7b360e01b81526001600160a01b03909316858401908152602081018790528a928492169082908690829060400103925af180156119715761198f575b50833b15610514578451631adfd7bd60e31b81528383820152866024820152818160448183895af180156119715790829161197b575b505084516370a0823160e01b81523083820152958787602481885afa968715611971578297611942575b50861061193357845163a9059cbb60e01b81523383820190815260208101889052889082908190604001038185895af1918215611928579161190b575b50156118fd57507f77eb323217a4770c84b5f7f4076d557a6d1166bf8c746483d2a981d9c678e54d8351806118f487339534846040919493926060820195825260208201520152565b0390a351908152f35b83516312171d8360e31b8152fd5b6119229150873d89116104295761041a818361220f565b386118ab565b8651903d90823e3d90fd5b508351638199f5f360e01b8152fd5b9096508781813d831161196a575b61195a818361220f565b810103126104725751953861186e565b503d611950565b86513d84823e3d90fd5b611984906121ad565b610514578038611844565b6119a590883d8a116104295761041a818361220f565b503861180e565b865163bb2875c360e01b81528490fd5b610f0991503d8086833e6103e9818361220f565b87513d85823e3d90fd5b50835163162908e360e11b8152fd5b50835163e6c4247b60e01b8152fd5b82516313d0ff5960e31b8152fd5b50919034610b7157611a1736612183565b9491939060ff60065416611c50576001600160a01b0395858716958615611c40578215611c305760015485516323b872dd60e01b81523388820190815230602082810191909152604082018790529a928b91839185169082908a90829060600103925af18015611c2657928a928692611ac695611c09575b506001541690878a8a519687958694859363095ea7b360e01b8552840160209093929193604081019460018060a01b031681520152565b03925af18015611bff57611be2575b50853b1561022a57835191631adfd7bd60e31b8352858301526024820152818160448183895af18015611bc957611bd3575b5081516370a0823160e01b81523084820152928584602481885afa938415611bc9579086918395611b94575b50835163a9059cbb60e01b81523391810191825260208201869052949593949384918290859082906040015b03925af19081156103f85750611b77575b5051908152f35b611b8d90843d86116104295761041a818361220f565b5038611b70565b828193929596503d8311611bc2575b611bad818361220f565b81010312610472575192918590611b5f611b33565b503d611ba3565b83513d84823e3d90fd5b611bdc906121ad565b38611b07565b611bf890883d8a116104295761041a818361220f565b5038611ad5565b85513d86823e3d90fd5b611c1f90853d87116104295761041a818361220f565b5038611a8f565b87513d88823e3d90fd5b845163162908e360e11b81528690fd5b845163e6c4247b60e01b81528690fd5b5050516313d0ff5960e31b8152fd5b50903461022a5782826003193601126105145761161791611c7e61216d565b90845191611c8b836121f3565b600383526060366020850137611ca083612231565b6001600160a01b0391821690526001548116611cbb84612254565b5280600254166114c484612264565b50808391600319360112610b7157611ce061216d565b60ff60065416611e30576001600160a01b03908116908115611e20573415611e105792611d7a938195845191611d15836121f3565b6003835260603660208501378060025416611d2f84612231565b528060015416611d3e84612254565b5284611d4984612264565b5283541690611d59815442612274565b8651637ff36ab560e01b81529788948593849391339160243590860161237b565b039134905af1928315611e06578460209594611de9575b5050611da6611d9f84612264565b5193612254565b517f77eb323217a4770c84b5f7f4076d557a6d1166bf8c746483d2a981d9c678e54d8351806118f487339534846040919493926060820195825260208201520152565b611dfe9294503d8091833e6103e9818361220f565b918480611d91565b82513d86823e3d90fd5b825163162908e360e11b81528590fd5b825163e6c4247b60e01b81528590fd5b81516313d0ff5960e31b81528490fd5b503461022a578060031936011261022a5780611e5a61216d565b8151634815327960e01b8152602480359582019590955293849182906001600160a01b03165afa918215611eb75760209392611e97575051908152f35b81611eaf9293503d84116113a157611392818361220f565b509038611b70565b81513d85823e3d90fd5b50919034610b715782600319360112610b7157611edc61216d565b8351611ee7816121d7565b60028152843660208301376002546001600160a01b0391611f4c918691908416611f1082612231565b528360015416611f1f82612254565b52838254168851808095819463d06ca61f60e01b83526024358b8401528c60248401526044830190612313565b03915afa908115611fd657611f6c8793926024928891611fc25750612254565b518351634815327960e01b8152958601819052949384928391165afa9283156111535792611fa2575b5082519182526020820152f35b611fba919250833d85116113a157611392818361220f565b509038611f95565b610f0991503d808a833e6103e9818361220f565b86513d87823e3d90fd5b50823461051457611ff036612183565b9060ff60069693965416610504576001600160a01b039586169182156104f45781156104e45760015486516323b872dd60e01b815233868201908152306020828101919091526040820186905299928a91839185169082908b90829060600103925af18015610430576120ff575b506001548654885163095ea7b360e01b81529083166001600160a01b03168782019081526020810186905290918a91839185169082908b90829060400103925af18015610430579187959493929186926120e2575b508851946120c0866121d7565b6002865289368c88013781600154166120d887612231565b5261038186612254565b6120f8908b3d8d116104295761041a818361220f565b508a6120b3565b61211590893d8b116104295761041a818361220f565b508861205e565b8490843461022a57602036600319011261022a578035918215158093036111e2576003546001600160a01b0316330361216257505060ff80196006541691161760065580f35b6282b42960e81b8152fd5b600435906001600160a01b038216820361047257565b6060906003190112610472576004356001600160a01b038116810361047257906024359060443590565b67ffffffffffffffff81116121c157604052565b634e487b7160e01b600052604160045260246000fd5b6060810190811067ffffffffffffffff8211176121c157604052565b6080810190811067ffffffffffffffff8211176121c157604052565b90601f8019910116810190811067ffffffffffffffff8211176121c157604052565b80511561223e5760200190565b634e487b7160e01b600052603260045260246000fd5b80516001101561223e5760400190565b80516002101561223e5760600190565b9190820180921161228157565b634e487b7160e01b600052601160045260246000fd5b90602090818382031261047257825167ffffffffffffffff93848211610472570181601f820112156104725780519384116121c1578360051b90604051946122e18584018761220f565b85528380860192820101928311610472578301905b828210612304575050505090565b815181529083019083016122f6565b90815180825260208080930193019160005b828110612333575050505090565b83516001600160a01b031685529381019392810192600101612325565b90816020910312610472575180151581036104725790565b8181029291811591840414171561228157565b9060609261239a91969594968352608060208401526080830190612313565b6001600160a01b0390951660408201520152565b9190820391821161228157565b3d156123f6573d9067ffffffffffffffff82116121c157604051916123ea601f8201601f19166020018461220f565b82523d6000602084013e565b606090565b919260809361242092979695978452602084015260a0604084015260a0830190612313565b6001600160a01b0390951660608201520152565b9190826040910312610472576020825192015190565b60408051634815327960e01b81526004810184905291839190839060249082906001600160a01b03165afa9182156124ff576000926124de575b5080821061249157505090565b61249d91925080612368565b81156124c8570460c881029080820460c81481151715612281576127106124c5920490612274565b90565b634e487b7160e01b600052601260045260246000fd5b6124f791925060403d81116113a157611392818361220f565b509038612484565b6040513d6000823e3d90fdfe44573a89df583c0b1e16e6c22d41b4e39de1ca341d0a234b7117ccc2bf727dc4a264697066735822122096aa5cc43f4ae62980f0c5c1a5a3a31ef4a616c4172702692a35bbf83f6f0f1364736f6c63430008140033","opcodes":"PUSH1 0x80 CALLVALUE PUSH3 0xFF JUMPI PUSH1 0x1F PUSH3 0x2691 CODESIZE DUP2 SWAP1 SUB SWAP2 DUP3 ADD PUSH1 0x1F NOT AND DUP4 ADD SWAP3 SWAP2 SWAP1 PUSH1 0x1 PUSH1 0x1 PUSH1 0x40 SHL SUB DUP5 GT DUP4 DUP6 LT OR PUSH3 0x104 JUMPI DUP2 PUSH1 0x60 SWAP3 DUP5 SWAP3 PUSH1 0x40 SWAP7 DUP8 MSTORE DUP4 CODECOPY DUP2 ADD SUB SLT PUSH3 0xFF JUMPI PUSH3 0x51 DUP2 PUSH3 0x11A JUMP JUMPDEST PUSH3 0x6C DUP4 PUSH3 0x64 PUSH1 0x20 DUP6 ADD PUSH3 0x11A JUMP JUMPDEST SWAP4 ADD PUSH3 0x11A JUMP JUMPDEST PUSH2 0x12C PUSH1 0x4 SSTORE PUSH2 0x1388 PUSH1 0x5 SSTORE PUSH1 0x1 PUSH1 0x1 PUSH1 0xA0 SHL SUB SWAP2 DUP3 AND SWAP3 SWAP1 SWAP2 SWAP1 DUP4 ISZERO PUSH3 0xEE JUMPI DUP2 AND SWAP2 DUP3 ISZERO PUSH3 0xEE JUMPI AND SWAP1 DUP2 ISZERO PUSH3 0xDD JUMPI PUSH1 0x1 DUP1 PUSH1 0xA0 SHL SUB NOT SWAP3 DUP4 PUSH1 0x0 SLOAD AND OR PUSH1 0x0 SSTORE DUP3 PUSH1 0x1 SLOAD AND OR PUSH1 0x1 SSTORE DUP2 PUSH1 0x2 SLOAD AND OR PUSH1 0x2 SSTORE CALLER SWAP1 PUSH1 0x3 SLOAD AND OR PUSH1 0x3 SSTORE MLOAD PUSH2 0x2561 SWAP1 DUP2 PUSH3 0x130 DUP3 CODECOPY RETURN JUMPDEST DUP4 MLOAD PUSH4 0xE6C4247B PUSH1 0xE0 SHL DUP2 MSTORE PUSH1 0x4 SWAP1 REVERT JUMPDEST DUP5 MLOAD PUSH4 0xE6C4247B PUSH1 0xE0 SHL DUP2 MSTORE PUSH1 0x4 SWAP1 REVERT JUMPDEST PUSH1 0x0 DUP1 REVERT JUMPDEST PUSH4 0x4E487B71 PUSH1 0xE0 SHL PUSH1 0x0 MSTORE PUSH1 0x41 PUSH1 0x4 MSTORE PUSH1 0x24 PUSH1 0x0 REVERT JUMPDEST MLOAD SWAP1 PUSH1 0x1 PUSH1 0x1 PUSH1 0xA0 SHL SUB DUP3 AND DUP3 SUB PUSH3 0xFF JUMPI JUMP INVALID PUSH1 0x80 PUSH1 0x40 DUP2 DUP2 MSTORE PUSH1 0x4 SWAP1 DUP2 CALLDATASIZE LT ISZERO PUSH2 0x22 JUMPI JUMPDEST POP POP POP CALLDATASIZE ISZERO PUSH2 0x20 JUMPI PUSH1 0x0 DUP1 REVERT JUMPDEST STOP JUMPDEST PUSH1 0x0 SWAP3 DUP4 CALLDATALOAD PUSH1 0xE0 SHR SWAP1 DUP2 PUSH4 0x16C38B3C EQ PUSH2 0x211C JUMPI POP DUP1 PUSH4 0x1CE0EE5C EQ PUSH2 0x1FE0 JUMPI DUP1 PUSH4 0x216F68B2 EQ PUSH2 0x1EC1 JUMPI DUP1 PUSH4 0x22E988A4 EQ PUSH2 0x1E40 JUMPI DUP1 PUSH4 0x323F3517 EQ PUSH2 0x1CCA JUMPI DUP1 PUSH4 0x324FC30C EQ PUSH2 0x1C5F JUMPI DUP1 PUSH4 0x3DC4340A EQ PUSH2 0x1A06 JUMPI DUP1 PUSH4 0x4325F299 EQ PUSH2 0x16E6 JUMPI DUP1 PUSH4 0x43F68A49 EQ PUSH2 0x1652 JUMPI DUP1 PUSH4 0x584B5A38 EQ PUSH2 0x15AD JUMPI DUP1 PUSH4 0x5AF39811 EQ PUSH2 0x1516 JUMPI DUP1 PUSH4 0x5C975ABB EQ PUSH2 0x14F2 JUMPI DUP1 PUSH4 0x6231AF91 EQ PUSH2 0x1469 JUMPI DUP1 PUSH4 0x653028E8 EQ PUSH2 0x13DB JUMPI DUP1 PUSH4 0x7BCAFC82 EQ PUSH2 0x13B2 JUMPI DUP1 PUSH4 0x8661A02A EQ PUSH2 0x129F JUMPI DUP1 PUSH4 0x8D72647E EQ PUSH2 0x1276 JUMPI DUP1 PUSH4 0x8DA5CB5B EQ PUSH2 0x124D JUMPI DUP1 PUSH4 0x92212EF7 EQ PUSH2 0xF7C JUMPI DUP1 PUSH4 0xA09F99CC EQ PUSH2 0xB9D JUMPI DUP1 PUSH4 0xC21EBD07 EQ PUSH2 0xB75 JUMPI DUP1 PUSH4 0xC4AA7395 EQ PUSH2 0xB52 JUMPI DUP1 PUSH4 0xCAB27A64 EQ PUSH2 0xAAF JUMPI DUP1 PUSH4 0xDD0C4331 EQ PUSH2 0x8F5 JUMPI DUP1 PUSH4 0xE302B66C EQ PUSH2 0x80B JUMPI DUP1 PUSH4 0xE63EA408 EQ PUSH2 0x6AA JUMPI DUP1 PUSH4 0xE8FECA30 EQ PUSH2 0x68C JUMPI DUP1 PUSH4 0xE9EA09B3 EQ PUSH2 0x5BA JUMPI DUP1 PUSH4 0xF2FDE38B EQ PUSH2 0x517 JUMPI DUP1 PUSH4 0xF4C0DE8C EQ PUSH2 0x22E JUMPI PUSH4 0xF8316C90 SUB PUSH2 0x12 JUMPI CALLVALUE PUSH2 0x22A JUMPI PUSH1 0x20 CALLDATASIZE PUSH1 0x3 NOT ADD SLT PUSH2 0x22A JUMPI PUSH2 0x199 PUSH2 0x216D JUMP JUMPDEST PUSH1 0x3 SLOAD PUSH1 0x1 PUSH1 0x1 PUSH1 0xA0 SHL SUB SWAP2 SWAP1 DUP3 AND CALLER SUB PUSH2 0x21C JUMPI DUP2 AND SWAP3 DUP4 ISZERO PUSH2 0x20E JUMPI POP DUP3 DUP5 SLOAD SWAP3 DUP1 MLOAD SWAP3 PUSH1 0x60 DUP5 MSTORE PUSH1 0xD PUSH1 0x60 DUP6 ADD MSTORE PUSH13 0x3830B731B0B5B2A937BABA32B9 PUSH1 0x99 SHL PUSH1 0x80 DUP6 ADD MSTORE DUP5 AND PUSH1 0x20 DUP5 ADD MSTORE DUP3 ADD MSTORE PUSH1 0x0 DUP1 MLOAD PUSH1 0x20 PUSH2 0x250C DUP4 CODECOPY DUP2 MLOAD SWAP2 MSTORE PUSH1 0xA0 CALLER SWAP3 LOG2 PUSH1 0x1 PUSH1 0x1 PUSH1 0xA0 SHL SUB NOT AND OR DUP2 SSTORE DUP1 RETURN JUMPDEST DUP3 MLOAD PUSH4 0xE6C4247B PUSH1 0xE0 SHL DUP2 MSTORE REVERT JUMPDEST POP POP MLOAD PUSH3 0x82B429 PUSH1 0xE8 SHL DUP2 MSTORE REVERT JUMPDEST DUP3 DUP1 REVERT JUMPDEST POP DUP3 CALLVALUE PUSH2 0x514 JUMPI PUSH2 0x23E CALLDATASIZE PUSH2 0x2183 JUMP JUMPDEST SWAP1 SWAP5 SWAP2 PUSH1 0xFF PUSH1 0x6 SLOAD AND PUSH2 0x504 JUMPI PUSH1 0x1 PUSH1 0x1 PUSH1 0xA0 SHL SUB SWAP1 DUP2 AND SWAP2 DUP3 ISZERO PUSH2 0x4F4 JUMPI DUP7 ISZERO PUSH2 0x4E4 JUMPI DUP6 MLOAD PUSH4 0x70A08231 PUSH1 0xE0 SHL DUP1 DUP3 MSTORE ADDRESS DUP7 DUP4 ADD MSTORE PUSH1 0x20 SWAP9 SWAP1 SWAP2 DUP10 DUP2 PUSH1 0x24 DUP2 DUP10 GAS STATICCALL SWAP1 DUP2 ISZERO PUSH2 0x4AB JUMPI DUP11 SWAP1 DUP10 SWAP3 PUSH2 0x4B5 JUMPI JUMPDEST POP DUP10 MLOAD PUSH4 0x23B872DD PUSH1 0xE0 SHL DUP2 MSTORE CALLER DUP10 DUP3 ADD SWAP1 DUP2 MSTORE ADDRESS PUSH1 0x20 DUP3 ADD MSTORE PUSH1 0x40 DUP2 ADD SWAP5 SWAP1 SWAP5 MSTORE SWAP2 SWAP3 DUP3 SWAP1 DUP2 SWAP1 PUSH1 0x60 ADD JUMPDEST SUB DUP2 DUP12 DUP11 GAS CALL SWAP1 DUP2 ISZERO PUSH2 0x4AB JUMPI DUP9 SWAP2 PUSH2 0x48E JUMPI JUMPDEST POP ISZERO PUSH2 0x47E JUMPI DUP8 MLOAD SWAP2 DUP3 MSTORE ADDRESS DUP7 DUP4 ADD MSTORE DUP9 DUP3 PUSH1 0x24 DUP2 DUP9 GAS STATICCALL DUP1 ISZERO PUSH2 0x430 JUMPI DUP8 SWAP1 PUSH2 0x44A JUMPI JUMPDEST PUSH2 0x301 SWAP3 POP PUSH2 0x23AE JUMP JUMPDEST SWAP2 DUP3 ISZERO PUSH2 0x43A JUMPI DUP6 SLOAD DUP8 MLOAD PUSH4 0x95EA7B3 PUSH1 0xE0 SHL DUP2 MSTORE SWAP1 DUP3 AND PUSH1 0x1 PUSH1 0x1 PUSH1 0xA0 SHL SUB AND DUP7 DUP3 ADD SWAP1 DUP2 MSTORE PUSH1 0x20 DUP2 ADD DUP6 SWAP1 MSTORE DUP10 SWAP1 DUP3 SWAP1 DUP2 SWAP1 PUSH1 0x40 ADD SUB DUP2 DUP11 DUP10 GAS CALL DUP1 ISZERO PUSH2 0x430 JUMPI SWAP2 DUP8 SWAP6 SWAP5 SWAP4 SWAP3 SWAP2 DUP7 SWAP3 PUSH2 0x403 JUMPI JUMPDEST POP DUP9 MLOAD SWAP5 PUSH2 0x35F DUP7 PUSH2 0x21D7 JUMP JUMPDEST PUSH1 0x2 DUP7 MSTORE DUP10 CALLDATASIZE DUP13 DUP9 ADD CALLDATACOPY PUSH2 0x372 DUP7 PUSH2 0x2231 JUMP JUMPDEST MSTORE DUP1 PUSH1 0x1 SLOAD AND PUSH2 0x381 DUP7 PUSH2 0x2254 JUMP JUMPDEST MSTORE DUP2 SLOAD AND SWAP3 PUSH2 0x3B0 PUSH2 0x394 DUP9 SLOAD TIMESTAMP PUSH2 0x2274 JUMP JUMPDEST DUP11 MLOAD PUSH4 0x38ED1739 PUSH1 0xE0 SHL DUP2 MSTORE SWAP9 DUP10 SWAP8 DUP9 SWAP7 DUP8 SWAP6 CALLER SWAP4 DUP8 ADD PUSH2 0x23FB JUMP JUMPDEST SUB SWAP3 GAS CALL SWAP2 DUP3 ISZERO PUSH2 0x3F8 JUMPI SWAP1 DUP2 PUSH2 0x3CD SWAP4 PUSH2 0x3D5 JUMPI JUMPDEST POP POP PUSH2 0x2254 JUMP JUMPDEST MLOAD SWAP1 MLOAD SWAP1 DUP2 MSTORE RETURN JUMPDEST PUSH2 0x3F1 SWAP3 POP RETURNDATASIZE DUP1 SWAP2 DUP4 RETURNDATACOPY PUSH2 0x3E9 DUP2 DUP4 PUSH2 0x220F JUMP JUMPDEST DUP2 ADD SWAP1 PUSH2 0x2297 JUMP JUMPDEST DUP5 DUP1 PUSH2 0x3C6 JUMP JUMPDEST DUP4 MLOAD SWAP1 RETURNDATASIZE SWAP1 DUP3 RETURNDATACOPY RETURNDATASIZE SWAP1 REVERT JUMPDEST PUSH2 0x422 SWAP1 DUP12 RETURNDATASIZE DUP14 GT PUSH2 0x429 JUMPI JUMPDEST PUSH2 0x41A DUP2 DUP4 PUSH2 0x220F JUMP JUMPDEST DUP2 ADD SWAP1 PUSH2 0x2350 JUMP JUMPDEST POP DUP11 PUSH2 0x352 JUMP JUMPDEST POP RETURNDATASIZE PUSH2 0x410 JUMP JUMPDEST DUP9 MLOAD RETURNDATASIZE DUP10 DUP3 RETURNDATACOPY RETURNDATASIZE SWAP1 REVERT JUMPDEST DUP7 MLOAD PUSH4 0x162908E3 PUSH1 0xE1 SHL DUP2 MSTORE DUP6 SWAP1 REVERT JUMPDEST POP DUP9 DUP3 DUP2 RETURNDATASIZE DUP4 GT PUSH2 0x477 JUMPI JUMPDEST PUSH2 0x460 DUP2 DUP4 PUSH2 0x220F JUMP JUMPDEST DUP2 ADD SUB SLT PUSH2 0x472 JUMPI PUSH2 0x301 SWAP2 MLOAD PUSH2 0x2F7 JUMP JUMPDEST PUSH1 0x0 DUP1 REVERT JUMPDEST POP RETURNDATASIZE PUSH2 0x456 JUMP JUMPDEST DUP8 MLOAD PUSH4 0x12171D83 PUSH1 0xE3 SHL DUP2 MSTORE DUP7 SWAP1 REVERT JUMPDEST PUSH2 0x4A5 SWAP2 POP DUP11 RETURNDATASIZE DUP13 GT PUSH2 0x429 JUMPI PUSH2 0x41A DUP2 DUP4 PUSH2 0x220F JUMP JUMPDEST DUP11 PUSH2 0x2D2 JUMP JUMPDEST DUP10 MLOAD RETURNDATASIZE DUP11 DUP3 RETURNDATACOPY RETURNDATASIZE SWAP1 REVERT JUMPDEST DUP1 SWAP3 POP DUP2 RETURNDATASIZE DUP4 GT PUSH2 0x4DD JUMPI JUMPDEST PUSH2 0x4CB DUP2 DUP4 PUSH2 0x220F JUMP JUMPDEST DUP2 ADD SUB SLT PUSH2 0x472 JUMPI MLOAD DUP10 PUSH2 0x2BE PUSH2 0x292 JUMP JUMPDEST POP RETURNDATASIZE PUSH2 0x4C1 JUMP JUMPDEST DUP6 MLOAD PUSH4 0x162908E3 PUSH1 0xE1 SHL DUP2 MSTORE DUP5 SWAP1 REVERT JUMPDEST DUP6 MLOAD PUSH4 0xE6C4247B PUSH1 0xE0 SHL DUP2 MSTORE DUP5 SWAP1 REVERT JUMPDEST DUP5 MLOAD PUSH4 0x13D0FF59 PUSH1 0xE3 SHL DUP2 MSTORE DUP4 SWAP1 REVERT JUMPDEST DUP1 REVERT JUMPDEST POP CALLVALUE PUSH2 0x22A JUMPI PUSH1 0x20 CALLDATASIZE PUSH1 0x3 NOT ADD SLT PUSH2 0x22A JUMPI PUSH2 0x531 PUSH2 0x216D JUMP JUMPDEST PUSH1 0x3 SLOAD SWAP2 PUSH1 0x1 PUSH1 0x1 PUSH1 0xA0 SHL SUB DUP1 DUP5 AND SWAP3 CALLER DUP5 SWAP1 SUB PUSH2 0x5AB JUMPI AND SWAP4 DUP5 ISZERO PUSH2 0x59D JUMPI POP DUP1 DUP5 SWAP2 MLOAD SWAP3 PUSH1 0x60 DUP5 MSTORE PUSH1 0x5 PUSH1 0x60 DUP6 ADD MSTORE PUSH5 0x37BBB732B9 PUSH1 0xD9 SHL PUSH1 0x80 DUP6 ADD MSTORE PUSH1 0x20 DUP5 ADD MSTORE DUP3 ADD MSTORE PUSH1 0x0 DUP1 MLOAD PUSH1 0x20 PUSH2 0x250C DUP4 CODECOPY DUP2 MLOAD SWAP2 MSTORE PUSH1 0xA0 CALLER SWAP3 LOG2 PUSH1 0x1 PUSH1 0x1 PUSH1 0xA0 SHL SUB NOT AND OR PUSH1 0x3 SSTORE DUP1 RETURN JUMPDEST SWAP1 MLOAD PUSH4 0xE6C4247B PUSH1 0xE0 SHL DUP2 MSTORE REVERT JUMPDEST DUP3 MLOAD PUSH3 0x82B429 PUSH1 0xE8 SHL DUP2 MSTORE DUP7 SWAP1 REVERT JUMPDEST POP SWAP1 CALLVALUE PUSH2 0x22A JUMPI DUP3 DUP3 PUSH1 0x3 NOT CALLDATASIZE ADD SLT PUSH2 0x514 JUMPI PUSH2 0x645 SWAP2 PUSH2 0x5D9 PUSH2 0x216D JUMP JUMPDEST SWAP1 DUP5 MLOAD SWAP2 PUSH2 0x5E6 DUP4 PUSH2 0x21D7 JUMP JUMPDEST PUSH1 0x2 DUP4 MSTORE DUP6 CALLDATASIZE PUSH1 0x20 DUP6 ADD CALLDATACOPY PUSH1 0x1 SLOAD PUSH1 0x1 PUSH1 0x1 PUSH1 0xA0 SHL SUB SWAP2 SWAP1 DUP3 AND PUSH2 0x609 DUP6 PUSH2 0x2231 JUMP JUMPDEST MSTORE DUP2 PUSH2 0x614 DUP6 PUSH2 0x2254 JUMP JUMPDEST SWAP2 AND SWAP1 MSTORE DUP4 SLOAD AND SWAP1 DUP6 MLOAD DUP1 SWAP6 DUP2 SWAP5 DUP3 SWAP4 PUSH4 0xD06CA61F PUSH1 0xE0 SHL DUP5 MSTORE PUSH1 0x24 CALLDATALOAD SWAP1 DUP5 ADD MSTORE DUP9 PUSH1 0x24 DUP5 ADD MSTORE PUSH1 0x44 DUP4 ADD SWAP1 PUSH2 0x2313 JUMP JUMPDEST SUB SWAP2 GAS STATICCALL SWAP1 DUP2 ISZERO PUSH2 0x680 JUMPI SWAP1 PUSH2 0x3CD SWAP2 DUP5 PUSH1 0x20 SWAP6 SWAP3 PUSH2 0x665 JUMPI POP POP PUSH2 0x2254 JUMP JUMPDEST PUSH2 0x679 SWAP3 POP RETURNDATASIZE DUP1 SWAP2 DUP4 RETURNDATACOPY PUSH2 0x3E9 DUP2 DUP4 PUSH2 0x220F JUMP JUMPDEST CODESIZE DUP1 PUSH2 0x3C6 JUMP JUMPDEST POP POP MLOAD SWAP1 RETURNDATASIZE SWAP1 DUP3 RETURNDATACOPY RETURNDATASIZE SWAP1 REVERT JUMPDEST POP SWAP1 CALLVALUE PUSH2 0x22A JUMPI DUP3 PUSH1 0x3 NOT CALLDATASIZE ADD SLT PUSH2 0x22A JUMPI PUSH1 0x20 SWAP3 POP SLOAD SWAP1 MLOAD SWAP1 DUP2 MSTORE RETURN JUMPDEST POP CALLVALUE PUSH2 0x22A JUMPI PUSH1 0x60 CALLDATASIZE PUSH1 0x3 NOT ADD SLT PUSH2 0x22A JUMPI PUSH2 0x6C4 PUSH2 0x216D JUMP JUMPDEST PUSH1 0x1 PUSH1 0x1 PUSH1 0xA0 SHL SUB PUSH1 0x24 CALLDATALOAD DUP2 DUP2 AND SWAP5 SWAP1 SWAP4 SWAP2 DUP6 DUP6 SUB PUSH2 0x472 JUMPI PUSH1 0x44 CALLDATALOAD SWAP4 DUP2 PUSH1 0x3 SLOAD AND CALLER SUB PUSH2 0x7FC JUMPI DUP7 ISZERO PUSH2 0x7EC JUMPI AND SWAP4 DUP4 SWAP1 DUP6 PUSH2 0x74F JUMPI POP DUP7 DUP1 DUP1 DUP1 SWAP4 DUP10 GAS CALL PUSH2 0x70C PUSH2 0x23BB JUMP JUMPDEST POP ISZERO PUSH2 0x741 JUMPI POP PUSH32 0xF24EF89F38EADC1BDE50701AD6E4D6D11A2DC24F7CF834A486991F3883328504 SWAP2 PUSH1 0x20 SWAP2 JUMPDEST MLOAD SWAP1 DUP2 MSTORE LOG3 DUP1 RETURN JUMPDEST SWAP1 MLOAD PUSH4 0x12171D83 PUSH1 0xE3 SHL DUP2 MSTORE REVERT JUMPDEST DUP4 MLOAD PUSH4 0xA9059CBB PUSH1 0xE0 SHL DUP2 MSTORE PUSH1 0x1 PUSH1 0x1 PUSH1 0xA0 SHL SUB SWAP1 SWAP2 AND DUP4 DUP3 ADD SWAP1 DUP2 MSTORE PUSH1 0x20 DUP2 DUP2 ADD SWAP4 SWAP1 SWAP4 MSTORE SWAP1 SWAP2 SWAP1 DUP3 SWAP1 DUP2 SWAP1 PUSH1 0x40 ADD SUB DUP2 DUP11 DUP10 GAS CALL SWAP1 DUP2 ISZERO PUSH2 0x7E2 JUMPI DUP8 SWAP2 PUSH2 0x7C4 JUMPI JUMPDEST POP ISZERO PUSH2 0x741 JUMPI POP PUSH32 0xF24EF89F38EADC1BDE50701AD6E4D6D11A2DC24F7CF834A486991F3883328504 SWAP2 PUSH1 0x20 SWAP2 PUSH2 0x739 JUMP JUMPDEST PUSH2 0x7DC SWAP2 POP PUSH1 0x20 RETURNDATASIZE DUP2 GT PUSH2 0x429 JUMPI PUSH2 0x41A DUP2 DUP4 PUSH2 0x220F JUMP JUMPDEST CODESIZE PUSH2 0x793 JUMP JUMPDEST DUP4 MLOAD RETURNDATASIZE DUP10 DUP3 RETURNDATACOPY RETURNDATASIZE SWAP1 REVERT JUMPDEST DUP4 MLOAD PUSH4 0xE6C4247B PUSH1 0xE0 SHL DUP2 MSTORE DUP4 SWAP1 REVERT JUMPDEST DUP4 MLOAD PUSH3 0x82B429 PUSH1 0xE8 SHL DUP2 MSTORE DUP4 SWAP1 REVERT JUMPDEST POP SWAP1 CALLVALUE PUSH2 0x22A JUMPI DUP2 PUSH1 0x3 NOT CALLDATASIZE ADD SLT PUSH2 0x22A JUMPI PUSH2 0x8A0 DUP4 PUSH2 0x835 PUSH2 0x82C PUSH2 0x216D JUMP JUMPDEST PUSH1 0x24 CALLDATALOAD SWAP1 PUSH2 0x244A JUMP JUMPDEST SWAP3 DUP5 MLOAD SWAP1 PUSH2 0x842 DUP3 PUSH2 0x21D7 JUMP JUMPDEST PUSH1 0x2 DUP3 MSTORE DUP6 CALLDATASIZE PUSH1 0x20 DUP5 ADD CALLDATACOPY PUSH1 0x2 SLOAD DUP6 SWAP1 PUSH1 0x1 PUSH1 0x1 PUSH1 0xA0 SHL SUB SWAP1 DUP2 AND PUSH2 0x866 DUP6 PUSH2 0x2231 JUMP JUMPDEST MSTORE DUP1 PUSH1 0x1 SLOAD AND PUSH2 0x875 DUP6 PUSH2 0x2254 JUMP JUMPDEST MSTORE DUP5 SLOAD AND SWAP2 DUP8 MLOAD SWAP6 DUP7 SWAP5 DUP6 SWAP4 DUP5 SWAP4 PUSH4 0x7C0329D PUSH1 0xE2 SHL DUP6 MSTORE DUP5 ADD MSTORE DUP10 PUSH1 0x24 DUP5 ADD MSTORE PUSH1 0x44 DUP4 ADD SWAP1 PUSH2 0x2313 JUMP JUMPDEST SUB SWAP2 GAS STATICCALL SWAP1 DUP2 ISZERO PUSH2 0x8E8 JUMPI DUP5 PUSH2 0x8BF SWAP4 SWAP5 SWAP6 SWAP3 PUSH2 0x8CD JUMPI JUMPDEST POP POP PUSH2 0x2231 JUMP JUMPDEST MLOAD SWAP1 DUP3 MLOAD SWAP2 DUP3 MSTORE PUSH1 0x20 DUP3 ADD MSTORE RETURN JUMPDEST PUSH2 0x8E1 SWAP3 POP RETURNDATASIZE DUP1 SWAP2 DUP4 RETURNDATACOPY PUSH2 0x3E9 DUP2 DUP4 PUSH2 0x220F JUMP JUMPDEST CODESIZE DUP1 PUSH2 0x8B8 JUMP JUMPDEST POP POP POP MLOAD SWAP1 RETURNDATASIZE SWAP1 DUP3 RETURNDATACOPY RETURNDATASIZE SWAP1 REVERT JUMPDEST POP DUP3 CALLVALUE PUSH2 0x514 JUMPI PUSH2 0x905 CALLDATASIZE PUSH2 0x2183 JUMP JUMPDEST SWAP1 PUSH1 0xFF PUSH1 0x6 SWAP7 SWAP4 SWAP7 SLOAD AND PUSH2 0x504 JUMPI PUSH1 0x1 PUSH1 0x1 PUSH1 0xA0 SHL SUB SWAP6 DUP7 AND SWAP2 DUP3 ISZERO PUSH2 0x4F4 JUMPI DUP2 ISZERO PUSH2 0x4E4 JUMPI DUP6 MLOAD PUSH4 0x23B872DD PUSH1 0xE0 SHL DUP2 MSTORE CALLER DUP6 DUP3 ADD SWAP1 DUP2 MSTORE ADDRESS PUSH1 0x20 DUP3 DUP2 ADD SWAP2 SWAP1 SWAP2 MSTORE PUSH1 0x40 DUP3 ADD DUP6 SWAP1 MSTORE SWAP9 SWAP2 SWAP1 DUP10 SWAP1 DUP3 SWAP1 DUP2 SWAP1 PUSH1 0x60 ADD SUB DUP2 DUP11 DUP10 GAS CALL SWAP1 DUP2 ISZERO PUSH2 0x430 JUMPI DUP8 SWAP2 PUSH2 0xA92 JUMPI JUMPDEST POP ISZERO PUSH2 0xA82 JUMPI DUP6 SLOAD DUP8 MLOAD PUSH4 0x95EA7B3 PUSH1 0xE0 SHL DUP2 MSTORE SWAP1 DUP3 AND PUSH1 0x1 PUSH1 0x1 PUSH1 0xA0 SHL SUB AND DUP7 DUP3 ADD SWAP1 DUP2 MSTORE PUSH1 0x20 DUP2 ADD DUP6 SWAP1 MSTORE DUP10 SWAP1 DUP3 SWAP1 DUP2 SWAP1 PUSH1 0x40 ADD SUB DUP2 DUP11 DUP10 GAS CALL DUP1 ISZERO PUSH2 0x430 JUMPI SWAP2 DUP8 SWAP6 SWAP5 SWAP4 SWAP3 SWAP2 DUP7 SWAP3 PUSH2 0xA65 JUMPI JUMPDEST POP DUP9 MLOAD SWAP5 PUSH2 0x9CC DUP7 PUSH2 0x21F3 JUMP JUMPDEST PUSH1 0x3 DUP7 MSTORE PUSH1 0x60 CALLDATASIZE DUP13 DUP9 ADD CALLDATACOPY PUSH2 0x9E0 DUP7 PUSH2 0x2231 JUMP JUMPDEST MSTORE DUP1 PUSH1 0x1 SLOAD AND PUSH2 0x9EF DUP7 PUSH2 0x2254 JUMP JUMPDEST MSTORE DUP1 PUSH1 0x2 SLOAD AND PUSH2 0x9FE DUP7 PUSH2 0x2264 JUMP JUMPDEST MSTORE DUP2 SLOAD AND SWAP3 PUSH2 0xA2D PUSH2 0xA11 DUP9 SLOAD TIMESTAMP PUSH2 0x2274 JUMP JUMPDEST DUP11 MLOAD PUSH4 0x18CBAFE5 PUSH1 0xE0 SHL DUP2 MSTORE SWAP9 DUP10 SWAP8 DUP9 SWAP7 DUP8 SWAP6 CALLER SWAP4 DUP8 ADD PUSH2 0x23FB JUMP JUMPDEST SUB SWAP3 GAS CALL SWAP2 DUP3 ISZERO PUSH2 0x3F8 JUMPI SWAP1 DUP2 PUSH2 0x3CD SWAP4 PUSH2 0xA4A JUMPI JUMPDEST POP POP PUSH2 0x2264 JUMP JUMPDEST PUSH2 0xA5E SWAP3 POP RETURNDATASIZE DUP1 SWAP2 DUP4 RETURNDATACOPY PUSH2 0x3E9 DUP2 DUP4 PUSH2 0x220F JUMP JUMPDEST DUP5 DUP1 PUSH2 0xA43 JUMP JUMPDEST PUSH2 0xA7B SWAP1 DUP12 RETURNDATASIZE DUP14 GT PUSH2 0x429 JUMPI PUSH2 0x41A DUP2 DUP4 PUSH2 0x220F JUMP JUMPDEST POP DUP11 PUSH2 0x9BF JUMP JUMPDEST DUP7 MLOAD PUSH4 0x12171D83 PUSH1 0xE3 SHL DUP2 MSTORE DUP6 SWAP1 REVERT JUMPDEST PUSH2 0xAA9 SWAP2 POP DUP10 RETURNDATASIZE DUP12 GT PUSH2 0x429 JUMPI PUSH2 0x41A DUP2 DUP4 PUSH2 0x220F JUMP JUMPDEST DUP10 PUSH2 0x96F JUMP JUMPDEST POP SWAP1 CALLVALUE PUSH2 0x22A JUMPI PUSH1 0x20 CALLDATASIZE PUSH1 0x3 NOT ADD SLT PUSH2 0x22A JUMPI PUSH2 0xACA PUSH2 0x216D JUMP JUMPDEST PUSH1 0x3 SLOAD PUSH1 0x1 PUSH1 0x1 PUSH1 0xA0 SHL SUB SWAP3 SWAP2 SWAP1 DUP4 AND CALLER SUB PUSH2 0xB44 JUMPI DUP3 AND SWAP3 DUP4 ISZERO PUSH2 0xB37 JUMPI DUP4 SWAP1 PUSH1 0x2 SLOAD SWAP4 DUP2 MLOAD SWAP4 PUSH1 0x60 DUP6 MSTORE PUSH1 0x60 DUP6 ADD MSTORE PUSH4 0x3BB13731 PUSH1 0xE1 SHL PUSH1 0x80 DUP6 ADD MSTORE DUP5 AND PUSH1 0x20 DUP5 ADD MSTORE DUP3 ADD MSTORE PUSH1 0x0 DUP1 MLOAD PUSH1 0x20 PUSH2 0x250C DUP4 CODECOPY DUP2 MLOAD SWAP2 MSTORE PUSH1 0xA0 CALLER SWAP3 LOG2 PUSH1 0x1 PUSH1 0x1 PUSH1 0xA0 SHL SUB NOT AND OR PUSH1 0x2 SSTORE DUP1 RETURN JUMPDEST MLOAD PUSH4 0xE6C4247B PUSH1 0xE0 SHL DUP2 MSTORE REVERT JUMPDEST POP DUP3 MLOAD PUSH3 0x82B429 PUSH1 0xE8 SHL DUP2 MSTORE REVERT JUMPDEST DUP4 DUP3 CALLVALUE PUSH2 0xB71 JUMPI DUP2 PUSH1 0x3 NOT CALLDATASIZE ADD SLT PUSH2 0xB71 JUMPI PUSH1 0x20 SWAP1 PUSH1 0x5 SLOAD SWAP1 MLOAD SWAP1 DUP2 MSTORE RETURN JUMPDEST POP DUP1 REVERT JUMPDEST DUP4 DUP3 CALLVALUE PUSH2 0xB71 JUMPI DUP2 PUSH1 0x3 NOT CALLDATASIZE ADD SLT PUSH2 0xB71 JUMPI SWAP1 SLOAD SWAP1 MLOAD PUSH1 0x1 PUSH1 0x1 PUSH1 0xA0 SHL SUB SWAP1 SWAP2 AND DUP2 MSTORE PUSH1 0x20 SWAP1 RETURN JUMPDEST POP SWAP2 PUSH2 0xBA8 CALLDATASIZE PUSH2 0x2183 JUMP JUMPDEST SWAP2 SWAP1 PUSH1 0xFF PUSH1 0x6 SLOAD AND PUSH2 0xF6C JUMPI PUSH1 0x1 PUSH1 0x1 PUSH1 0xA0 SHL SUB SWAP5 DUP3 DUP7 AND SWAP3 DUP4 ISZERO PUSH2 0xF5D JUMPI CALLVALUE ISZERO PUSH2 0xF4E JUMPI DUP3 ISZERO PUSH2 0xF4E JUMPI PUSH2 0xBDD DUP4 DUP3 PUSH2 0x244A JUMP JUMPDEST SWAP7 DUP9 MLOAD SWAP6 PUSH2 0xBEA DUP8 PUSH2 0x21D7 JUMP JUMPDEST PUSH1 0x2 DUP8 MSTORE PUSH1 0x20 SWAP7 DUP11 CALLDATASIZE DUP10 DUP4 ADD CALLDATACOPY DUP3 PUSH1 0x2 SLOAD AND PUSH2 0xC05 DUP3 PUSH2 0x2231 JUMP JUMPDEST MSTORE DUP3 PUSH1 0x1 SLOAD AND PUSH2 0xC14 DUP3 PUSH2 0x2254 JUMP JUMPDEST MSTORE DUP3 DUP10 SLOAD AND SWAP2 DUP12 MLOAD PUSH4 0x7C0329D PUSH1 0xE2 SHL DUP2 MSTORE DUP12 DUP8 DUP3 ADD MSTORE DUP13 PUSH1 0x24 DUP3 ADD MSTORE DUP11 DUP2 DUP1 PUSH2 0xC41 PUSH1 0x44 DUP3 ADD DUP8 PUSH2 0x2313 JUMP JUMPDEST SUB DUP2 DUP8 GAS STATICCALL SWAP1 DUP2 ISZERO PUSH2 0xF44 JUMPI PUSH2 0xC72 PUSH2 0xC6A PUSH2 0xC79 SWAP5 SWAP4 PUSH2 0x2710 SWAP4 DUP16 DUP1 SWAP3 PUSH2 0xF29 JUMPI POP POP PUSH2 0x2231 JUMP JUMPDEST MLOAD SWAP3 DUP4 PUSH2 0x2368 JUMP JUMPDEST DIV SWAP1 PUSH2 0x2274 JUMP JUMPDEST SWAP10 DUP11 CALLVALUE LT PUSH2 0xF19 JUMPI DUP12 SWAP3 DUP11 SWAP3 DUP13 DUP9 SWAP4 PUSH2 0xCB2 PUSH2 0xC96 DUP7 SLOAD TIMESTAMP PUSH2 0x2274 JUMP JUMPDEST SWAP8 MLOAD PUSH4 0x7FF36AB5 PUSH1 0xE0 SHL DUP2 MSTORE SWAP8 DUP9 SWAP7 DUP8 SWAP6 DUP7 SWAP5 ADDRESS SWAP3 DUP7 ADD PUSH2 0x237B JUMP JUMPDEST SUB SWAP3 GAS CALL SWAP1 DUP2 ISZERO PUSH2 0xF0F JUMPI SWAP2 PUSH2 0xCD4 DUP9 SWAP3 PUSH2 0xD0D SWAP5 DUP12 SWAP2 PUSH2 0xEF5 JUMPI JUMPDEST POP PUSH2 0x2254 JUMP JUMPDEST MLOAD SWAP4 DUP5 SWAP2 PUSH1 0x1 SLOAD AND SWAP1 DUP11 DUP14 MLOAD DUP1 SWAP7 DUP2 SWAP6 DUP3 SWAP5 PUSH4 0x95EA7B3 PUSH1 0xE0 SHL DUP5 MSTORE DUP12 DUP5 ADD PUSH1 0x20 SWAP1 SWAP4 SWAP3 SWAP2 SWAP4 PUSH1 0x40 DUP2 ADD SWAP5 PUSH1 0x1 DUP1 PUSH1 0xA0 SHL SUB AND DUP2 MSTORE ADD MSTORE JUMP JUMPDEST SUB SWAP3 GAS CALL DUP1 ISZERO PUSH2 0xEEB JUMPI PUSH2 0xECE JUMPI JUMPDEST POP DUP4 EXTCODESIZE ISZERO PUSH2 0xECA JUMPI DUP8 MLOAD SWAP1 PUSH4 0x1ADFD7BD PUSH1 0xE3 SHL DUP3 MSTORE DUP3 DUP3 ADD MSTORE DUP3 PUSH1 0x24 DUP3 ADD MSTORE DUP6 DUP2 PUSH1 0x44 DUP2 DUP4 DUP9 GAS CALL DUP1 ISZERO PUSH2 0xE69 JUMPI SWAP1 DUP7 SWAP2 PUSH2 0xEB2 JUMPI JUMPDEST POP POP DUP7 MLOAD PUSH4 0x70A08231 PUSH1 0xE0 SHL DUP2 MSTORE ADDRESS DUP3 DUP3 ADD MSTORE DUP5 DUP2 PUSH1 0x24 DUP2 DUP8 GAS STATICCALL SWAP1 DUP2 ISZERO PUSH2 0xE69 JUMPI SWAP1 DUP4 SWAP2 DUP8 SWAP2 PUSH2 0xE81 JUMPI JUMPDEST POP LT PUSH2 0xE73 JUMPI DUP7 MLOAD PUSH4 0xA9059CBB PUSH1 0xE0 SHL DUP2 MSTORE CALLER DUP3 DUP3 ADD SWAP1 DUP2 MSTORE PUSH1 0x20 DUP2 ADD DUP5 SWAP1 MSTORE DUP6 SWAP1 DUP3 SWAP1 DUP2 SWAP1 PUSH1 0x40 ADD SUB DUP2 DUP10 DUP9 GAS CALL SWAP1 DUP2 ISZERO PUSH2 0xE69 JUMPI DUP7 SWAP2 PUSH2 0xE4C JUMPI JUMPDEST POP ISZERO PUSH2 0xE3E JUMPI PUSH2 0xDCB DUP7 CALLVALUE PUSH2 0x23AE JUMP JUMPDEST SWAP5 DUP6 PUSH2 0xE23 JUMPI JUMPDEST POP POP PUSH32 0x1504C5C62E4F504E54290D01E06AC42130FFF4D2712E5971C0EE4F42388C6BD5 DUP7 MLOAD DUP1 PUSH2 0xE16 CALLER SWAP5 DUP9 CALLVALUE DUP5 PUSH1 0x40 SWAP2 SWAP5 SWAP4 SWAP3 PUSH1 0x60 DUP3 ADD SWAP6 DUP3 MSTORE PUSH1 0x20 DUP3 ADD MSTORE ADD MSTORE JUMP JUMPDEST SUB SWAP1 LOG3 DUP4 MLOAD SWAP3 DUP4 MSTORE DUP3 ADD MSTORE RETURN JUMPDEST DUP1 DUP1 DUP1 DUP9 CALLER GAS CALL PUSH2 0xE32 PUSH2 0x23BB JUMP JUMPDEST POP ISZERO PUSH2 0xE3E JUMPI DUP1 PUSH2 0xDD2 JUMP JUMPDEST DUP7 MLOAD PUSH4 0x12171D83 PUSH1 0xE3 SHL DUP2 MSTORE REVERT JUMPDEST PUSH2 0xE63 SWAP2 POP DUP6 RETURNDATASIZE DUP8 GT PUSH2 0x429 JUMPI PUSH2 0x41A DUP2 DUP4 PUSH2 0x220F JUMP JUMPDEST CODESIZE PUSH2 0xDBB JUMP JUMPDEST DUP9 MLOAD RETURNDATASIZE DUP9 DUP3 RETURNDATACOPY RETURNDATASIZE SWAP1 REVERT JUMPDEST DUP7 MLOAD PUSH4 0xBB2875C3 PUSH1 0xE0 SHL DUP2 MSTORE REVERT JUMPDEST DUP1 SWAP3 POP DUP7 DUP1 SWAP3 POP RETURNDATASIZE DUP4 GT PUSH2 0xEAB JUMPI JUMPDEST PUSH2 0xE9A DUP2 DUP4 PUSH2 0x220F JUMP JUMPDEST DUP2 ADD SUB SLT PUSH2 0x472 JUMPI DUP3 SWAP1 MLOAD CODESIZE PUSH2 0xD7E JUMP JUMPDEST POP RETURNDATASIZE PUSH2 0xE90 JUMP JUMPDEST PUSH2 0xEBB SWAP1 PUSH2 0x21AD JUMP JUMPDEST PUSH2 0xEC6 JUMPI DUP5 CODESIZE PUSH2 0xD52 JUMP JUMPDEST DUP5 DUP1 REVERT JUMPDEST DUP6 DUP1 REVERT JUMPDEST PUSH2 0xEE4 SWAP1 DUP7 RETURNDATASIZE DUP9 GT PUSH2 0x429 JUMPI PUSH2 0x41A DUP2 DUP4 PUSH2 0x220F JUMP JUMPDEST POP CODESIZE PUSH2 0xD1C JUMP JUMPDEST DUP10 MLOAD RETURNDATASIZE DUP10 DUP3 RETURNDATACOPY RETURNDATASIZE SWAP1 REVERT JUMPDEST PUSH2 0xF09 SWAP2 POP RETURNDATASIZE DUP1 DUP14 DUP4 RETURNDATACOPY PUSH2 0x3E9 DUP2 DUP4 PUSH2 0x220F JUMP JUMPDEST CODESIZE PUSH2 0xCCE JUMP JUMPDEST DUP11 MLOAD RETURNDATASIZE DUP11 DUP3 RETURNDATACOPY RETURNDATASIZE SWAP1 REVERT JUMPDEST DUP12 MLOAD PUSH4 0xBB2875C3 PUSH1 0xE0 SHL DUP2 MSTORE DUP7 SWAP1 REVERT JUMPDEST PUSH2 0xF3D SWAP3 POP RETURNDATASIZE DUP1 SWAP2 DUP4 RETURNDATACOPY PUSH2 0x3E9 DUP2 DUP4 PUSH2 0x220F JUMP JUMPDEST CODESIZE DUP16 PUSH2 0x8B8 JUMP JUMPDEST DUP14 MLOAD RETURNDATASIZE DUP14 DUP3 RETURNDATACOPY RETURNDATASIZE SWAP1 REVERT JUMPDEST POP DUP7 MLOAD PUSH4 0x162908E3 PUSH1 0xE1 SHL DUP2 MSTORE REVERT JUMPDEST POP DUP7 MLOAD PUSH4 0xE6C4247B PUSH1 0xE0 SHL DUP2 MSTORE REVERT JUMPDEST DUP6 MLOAD PUSH4 0x13D0FF59 PUSH1 0xE3 SHL DUP2 MSTORE DUP6 SWAP1 REVERT JUMPDEST POP CALLVALUE PUSH2 0x22A JUMPI PUSH2 0xF8B CALLDATASIZE PUSH2 0x2183 JUMP JUMPDEST SWAP4 SWAP2 PUSH1 0xFF PUSH1 0x6 SWAP7 SWAP3 SWAP7 SLOAD AND PUSH2 0x123D JUMPI PUSH1 0x1 PUSH1 0x1 PUSH1 0xA0 SHL SUB SWAP1 DUP2 AND DUP1 ISZERO PUSH2 0x122D JUMPI DUP7 ISZERO PUSH2 0x121D JUMPI DUP5 MLOAD PUSH4 0x23B872DD PUSH1 0xE0 SHL DUP2 MSTORE CALLER DUP6 DUP3 ADD SWAP1 DUP2 MSTORE ADDRESS PUSH1 0x20 DUP3 DUP2 ADD SWAP2 SWAP1 SWAP2 MSTORE PUSH1 0x40 DUP3 ADD DUP11 SWAP1 MSTORE SWAP9 SWAP2 SWAP1 DUP10 SWAP1 DUP3 SWAP1 DUP2 SWAP1 PUSH1 0x60 ADD SUB DUP2 DUP9 DUP8 GAS CALL SWAP1 DUP2 ISZERO PUSH2 0x1213 JUMPI DUP6 SWAP2 PUSH2 0x11F6 JUMPI JUMPDEST POP ISZERO PUSH2 0x11E6 JUMPI DUP2 EXTCODESIZE ISZERO PUSH2 0x11E2 JUMPI DUP4 SWAP2 PUSH1 0x44 DUP4 SWAP3 DUP9 MLOAD SWAP5 DUP6 SWAP4 DUP5 SWAP3 PUSH4 0xD79875EB PUSH1 0xE0 SHL DUP5 MSTORE DUP11 DUP5 ADD MSTORE DUP2 PUSH1 0x24 DUP5 ADD MSTORE GAS CALL DUP1 ISZERO PUSH2 0x11D8 JUMPI SWAP1 DUP4 SWAP2 PUSH2 0x11C4 JUMPI JUMPDEST POP POP PUSH1 0x1 SLOAD DUP5 MLOAD PUSH4 0x70A08231 PUSH1 0xE0 SHL DUP2 MSTORE ADDRESS DUP6 DUP3 ADD MSTORE SWAP1 DUP3 AND DUP8 DUP3 PUSH1 0x24 DUP2 DUP5 GAS STATICCALL SWAP2 DUP3 ISZERO PUSH2 0x117B JUMPI DUP5 SWAP3 PUSH2 0x1195 JUMPI JUMPDEST POP DUP2 ISZERO PUSH2 0x1185 JUMPI DUP4 SLOAD DUP7 MLOAD PUSH4 0x95EA7B3 PUSH1 0xE0 SHL DUP2 MSTORE SWAP1 DUP5 AND PUSH1 0x1 PUSH1 0x1 PUSH1 0xA0 SHL SUB AND DUP7 DUP3 ADD SWAP1 DUP2 MSTORE PUSH1 0x20 DUP2 ADD DUP5 SWAP1 MSTORE SWAP1 SWAP2 DUP10 SWAP2 DUP4 SWAP2 SWAP1 DUP3 SWAP1 DUP9 SWAP1 DUP3 SWAP1 PUSH1 0x40 ADD SUB SWAP3 GAS CALL DUP1 ISZERO PUSH2 0x117B JUMPI SWAP2 DUP6 SWAP4 SWAP2 DUP6 SWAP4 PUSH2 0x115E JUMPI JUMPDEST POP DUP8 DUP4 DUP9 MLOAD SWAP4 PUSH2 0x10C4 DUP6 PUSH2 0x21D7 JUMP JUMPDEST PUSH1 0x2 DUP6 MSTORE DUP10 CALLDATASIZE DUP14 DUP8 ADD CALLDATACOPY DUP1 PUSH1 0x1 SLOAD AND PUSH2 0x10DC DUP7 PUSH2 0x2231 JUMP JUMPDEST MSTORE DUP1 PUSH1 0x2 SLOAD AND PUSH2 0x10EB DUP7 PUSH2 0x2254 JUMP JUMPDEST MSTORE DUP2 SLOAD AND SWAP3 PUSH2 0x111A PUSH2 0x10FE DUP9 SLOAD TIMESTAMP PUSH2 0x2274 JUMP JUMPDEST DUP12 MLOAD PUSH4 0x18CBAFE5 PUSH1 0xE0 SHL DUP2 MSTORE SWAP9 DUP10 SWAP8 DUP9 SWAP7 DUP8 SWAP6 CALLER SWAP4 DUP8 ADD PUSH2 0x23FB JUMP JUMPDEST SUB SWAP3 GAS CALL SWAP2 DUP3 ISZERO PUSH2 0x1153 JUMPI SWAP1 DUP2 PUSH2 0x1136 SWAP4 PUSH2 0x665 JUMPI POP POP PUSH2 0x2254 JUMP JUMPDEST MLOAD SWAP3 DUP4 LT PUSH2 0x1145 JUMPI POP MLOAD SWAP1 DUP2 MSTORE RETURN JUMPDEST SWAP1 MLOAD PUSH4 0x8199F5F3 PUSH1 0xE0 SHL DUP2 MSTORE REVERT JUMPDEST DUP5 MLOAD SWAP1 RETURNDATASIZE SWAP1 DUP3 RETURNDATACOPY RETURNDATASIZE SWAP1 REVERT JUMPDEST PUSH2 0x1174 SWAP1 DUP11 RETURNDATASIZE DUP13 GT PUSH2 0x429 JUMPI PUSH2 0x41A DUP2 DUP4 PUSH2 0x220F JUMP JUMPDEST POP CODESIZE PUSH2 0x10B5 JUMP JUMPDEST DUP7 MLOAD RETURNDATASIZE DUP7 DUP3 RETURNDATACOPY RETURNDATASIZE SWAP1 REVERT JUMPDEST DUP6 MLOAD PUSH4 0xBB2875C3 PUSH1 0xE0 SHL DUP2 MSTORE DUP6 SWAP1 REVERT JUMPDEST SWAP1 SWAP2 POP DUP8 DUP2 DUP2 RETURNDATASIZE DUP4 GT PUSH2 0x11BD JUMPI JUMPDEST PUSH2 0x11AD DUP2 DUP4 PUSH2 0x220F JUMP JUMPDEST DUP2 ADD SUB SLT PUSH2 0x472 JUMPI MLOAD SWAP1 CODESIZE PUSH2 0x1062 JUMP JUMPDEST POP RETURNDATASIZE PUSH2 0x11A3 JUMP JUMPDEST PUSH2 0x11CD SWAP1 PUSH2 0x21AD JUMP JUMPDEST PUSH2 0xB71 JUMPI DUP2 CODESIZE PUSH2 0x1033 JUMP JUMPDEST DUP6 MLOAD RETURNDATASIZE DUP6 DUP3 RETURNDATACOPY RETURNDATASIZE SWAP1 REVERT JUMPDEST DUP4 DUP1 REVERT JUMPDEST DUP6 MLOAD PUSH4 0x12171D83 PUSH1 0xE3 SHL DUP2 MSTORE DUP6 SWAP1 REVERT JUMPDEST PUSH2 0x120D SWAP2 POP DUP10 RETURNDATASIZE DUP12 GT PUSH2 0x429 JUMPI PUSH2 0x41A DUP2 DUP4 PUSH2 0x220F JUMP JUMPDEST CODESIZE PUSH2 0xFF5 JUMP JUMPDEST DUP8 MLOAD RETURNDATASIZE DUP8 DUP3 RETURNDATACOPY RETURNDATASIZE SWAP1 REVERT JUMPDEST DUP5 MLOAD PUSH4 0x162908E3 PUSH1 0xE1 SHL DUP2 MSTORE DUP5 SWAP1 REVERT JUMPDEST DUP5 MLOAD PUSH4 0xE6C4247B PUSH1 0xE0 SHL DUP2 MSTORE DUP5 SWAP1 REVERT JUMPDEST DUP4 MLOAD PUSH4 0x13D0FF59 PUSH1 0xE3 SHL DUP2 MSTORE DUP4 SWAP1 REVERT JUMPDEST DUP4 DUP3 CALLVALUE PUSH2 0xB71 JUMPI DUP2 PUSH1 0x3 NOT CALLDATASIZE ADD SLT PUSH2 0xB71 JUMPI PUSH1 0x3 SLOAD SWAP1 MLOAD PUSH1 0x1 PUSH1 0x1 PUSH1 0xA0 SHL SUB SWAP1 SWAP2 AND DUP2 MSTORE PUSH1 0x20 SWAP1 RETURN JUMPDEST DUP4 DUP3 CALLVALUE PUSH2 0xB71 JUMPI DUP2 PUSH1 0x3 NOT CALLDATASIZE ADD SLT PUSH2 0xB71 JUMPI PUSH1 0x2 SLOAD SWAP1 MLOAD PUSH1 0x1 PUSH1 0x1 PUSH1 0xA0 SHL SUB SWAP1 SWAP2 AND DUP2 MSTORE PUSH1 0x20 SWAP1 RETURN JUMPDEST POP SWAP1 CALLVALUE PUSH2 0x22A JUMPI DUP2 PUSH1 0x3 NOT CALLDATASIZE ADD SLT PUSH2 0x22A JUMPI PUSH2 0x12B9 PUSH2 0x216D JUMP JUMPDEST DUP3 MLOAD PUSH4 0xFB3DD95F PUSH1 0xE0 SHL DUP2 MSTORE PUSH1 0x24 DUP1 CALLDATALOAD DUP5 DUP4 ADD MSTORE SWAP1 SWAP2 DUP6 SWAP2 PUSH1 0x1 PUSH1 0x1 PUSH1 0xA0 SHL SUB SWAP2 DUP7 SWAP2 DUP6 SWAP2 DUP3 SWAP1 DUP6 AND GAS STATICCALL SWAP3 DUP4 ISZERO PUSH2 0x13A8 JUMPI DUP3 SWAP4 PUSH2 0x1376 JUMPI JUMPDEST POP DUP3 SWAP4 PUSH2 0x1358 SWAP4 DUP7 MLOAD SWAP3 PUSH2 0x1305 DUP5 PUSH2 0x21D7 JUMP JUMPDEST PUSH1 0x2 DUP5 MSTORE DUP8 CALLDATASIZE PUSH1 0x20 DUP7 ADD CALLDATACOPY DUP1 PUSH1 0x1 SLOAD AND PUSH2 0x131E DUP6 PUSH2 0x2231 JUMP JUMPDEST MSTORE DUP1 PUSH1 0x2 SLOAD AND PUSH2 0x132D DUP6 PUSH2 0x2254 JUMP JUMPDEST MSTORE DUP5 SLOAD AND SWAP2 DUP8 MLOAD SWAP6 DUP7 SWAP5 DUP6 SWAP4 DUP5 SWAP4 PUSH4 0xD06CA61F PUSH1 0xE0 SHL DUP6 MSTORE DUP5 ADD MSTORE DUP10 PUSH1 0x24 DUP5 ADD MSTORE PUSH1 0x44 DUP4 ADD SWAP1 PUSH2 0x2313 JUMP JUMPDEST SUB SWAP2 GAS STATICCALL SWAP1 DUP2 ISZERO PUSH2 0x8E8 JUMPI DUP5 PUSH2 0x8BF SWAP4 SWAP5 SWAP6 SWAP3 PUSH2 0x665 JUMPI POP POP PUSH2 0x2254 JUMP JUMPDEST PUSH2 0x1358 SWAP4 POP PUSH2 0x139A SWAP1 DUP7 RETURNDATASIZE DUP9 GT PUSH2 0x13A1 JUMPI JUMPDEST PUSH2 0x1392 DUP2 DUP4 PUSH2 0x220F JUMP JUMPDEST DUP2 ADD SWAP1 PUSH2 0x2434 JUMP JUMPDEST POP SWAP3 PUSH2 0x12F2 JUMP JUMPDEST POP RETURNDATASIZE PUSH2 0x1388 JUMP JUMPDEST DUP6 MLOAD RETURNDATASIZE DUP5 DUP3 RETURNDATACOPY RETURNDATASIZE SWAP1 REVERT JUMPDEST DUP4 DUP3 CALLVALUE PUSH2 0xB71 JUMPI DUP2 PUSH1 0x3 NOT CALLDATASIZE ADD SLT PUSH2 0xB71 JUMPI PUSH1 0x1 SLOAD SWAP1 MLOAD PUSH1 0x1 PUSH1 0x1 PUSH1 0xA0 SHL SUB SWAP1 SWAP2 AND DUP2 MSTORE PUSH1 0x20 SWAP1 RETURN JUMPDEST POP CALLVALUE PUSH2 0x22A JUMPI PUSH1 0x20 CALLDATASIZE PUSH1 0x3 NOT ADD SLT PUSH2 0x22A JUMPI PUSH2 0x13F5 PUSH2 0x216D JUMP JUMPDEST PUSH1 0x3 SLOAD PUSH1 0x1 PUSH1 0x1 PUSH1 0xA0 SHL SUB SWAP2 SWAP1 DUP3 AND CALLER SUB PUSH2 0x21C JUMPI DUP2 AND SWAP3 DUP4 ISZERO PUSH2 0x20E JUMPI POP DUP3 PUSH1 0x1 SLOAD SWAP3 DUP1 MLOAD SWAP3 PUSH1 0x60 DUP5 MSTORE PUSH1 0xA PUSH1 0x60 DUP6 ADD MSTORE PUSH10 0x3430BB32B72A37B5B2B7 PUSH1 0xB1 SHL PUSH1 0x80 DUP6 ADD MSTORE DUP5 AND PUSH1 0x20 DUP5 ADD MSTORE DUP3 ADD MSTORE PUSH1 0x0 DUP1 MLOAD PUSH1 0x20 PUSH2 0x250C DUP4 CODECOPY DUP2 MLOAD SWAP2 MSTORE PUSH1 0xA0 CALLER SWAP3 LOG2 PUSH1 0x1 PUSH1 0x1 PUSH1 0xA0 SHL SUB NOT AND OR PUSH1 0x1 SSTORE DUP1 RETURN JUMPDEST POP SWAP1 CALLVALUE PUSH2 0x22A JUMPI DUP3 DUP3 PUSH1 0x3 NOT CALLDATASIZE ADD SLT PUSH2 0x514 JUMPI PUSH2 0x645 SWAP2 PUSH2 0x1488 PUSH2 0x216D JUMP JUMPDEST SWAP1 DUP5 MLOAD SWAP2 PUSH2 0x1495 DUP4 PUSH2 0x21D7 JUMP JUMPDEST PUSH1 0x2 DUP4 MSTORE DUP6 CALLDATASIZE PUSH1 0x20 DUP6 ADD CALLDATACOPY PUSH2 0x14A9 DUP4 PUSH2 0x2231 JUMP JUMPDEST PUSH1 0x1 PUSH1 0x1 PUSH1 0xA0 SHL SUB SWAP2 DUP3 AND SWAP1 MSTORE PUSH1 0x1 SLOAD DUP2 AND PUSH2 0x14C4 DUP5 PUSH2 0x2254 JUMP JUMPDEST MSTORE DUP4 SLOAD AND SWAP1 DUP6 MLOAD DUP1 SWAP6 DUP2 SWAP5 DUP3 SWAP4 PUSH4 0xD06CA61F PUSH1 0xE0 SHL DUP5 MSTORE PUSH1 0x24 CALLDATALOAD SWAP1 DUP5 ADD MSTORE DUP9 PUSH1 0x24 DUP5 ADD MSTORE PUSH1 0x44 DUP4 ADD SWAP1 PUSH2 0x2313 JUMP JUMPDEST DUP4 DUP3 CALLVALUE PUSH2 0xB71 JUMPI DUP2 PUSH1 0x3 NOT CALLDATASIZE ADD SLT PUSH2 0xB71 JUMPI PUSH1 0x20 SWAP1 PUSH1 0xFF PUSH1 0x6 SLOAD AND SWAP1 MLOAD SWAP1 ISZERO ISZERO DUP2 MSTORE RETURN JUMPDEST POP SWAP1 CALLVALUE PUSH2 0x22A JUMPI PUSH1 0x20 CALLDATASIZE PUSH1 0x3 NOT ADD SLT PUSH2 0x22A JUMPI PUSH1 0x3 SLOAD DUP2 CALLDATALOAD SWAP3 SWAP1 PUSH1 0x1 PUSH1 0x1 PUSH1 0xA0 SHL SUB AND CALLER SUB PUSH2 0x15A1 JUMPI DUP3 DUP3 SLOAD SWAP2 DUP1 MLOAD SWAP3 PUSH1 0x60 DUP5 MSTORE PUSH1 0x15 PUSH1 0x60 DUP6 ADD MSTORE PUSH21 0x191959985D5B1D111958591B1A5B9953D9999CD95D PUSH1 0x5A SHL PUSH1 0x80 DUP6 ADD MSTORE PUSH1 0x20 DUP5 ADD MSTORE DUP3 ADD MSTORE PUSH32 0xC8004015853107E4CB5EFA9FDFC530F3530F5F5D8A833A9D67E2EFE39717D7F6 PUSH1 0xA0 CALLER SWAP3 LOG2 SSTORE DUP1 RETURN JUMPDEST MLOAD PUSH3 0x82B429 PUSH1 0xE8 SHL DUP2 MSTORE REVERT JUMPDEST POP SWAP1 CALLVALUE PUSH2 0x22A JUMPI DUP3 DUP3 PUSH1 0x3 NOT CALLDATASIZE ADD SLT PUSH2 0x514 JUMPI PUSH2 0x1617 SWAP2 PUSH2 0x15CC PUSH2 0x216D JUMP JUMPDEST SWAP1 DUP5 MLOAD SWAP2 PUSH2 0x15D9 DUP4 PUSH2 0x21F3 JUMP JUMPDEST PUSH1 0x3 DUP4 MSTORE PUSH1 0x60 CALLDATASIZE PUSH1 0x20 DUP6 ADD CALLDATACOPY PUSH1 0x2 SLOAD PUSH1 0x1 PUSH1 0x1 PUSH1 0xA0 SHL SUB SWAP2 SWAP1 DUP3 AND PUSH2 0x15FD DUP6 PUSH2 0x2231 JUMP JUMPDEST MSTORE DUP2 PUSH1 0x1 SLOAD AND PUSH2 0x160C DUP6 PUSH2 0x2254 JUMP JUMPDEST MSTORE DUP2 PUSH2 0x614 DUP6 PUSH2 0x2264 JUMP JUMPDEST SUB SWAP2 GAS STATICCALL SWAP1 DUP2 ISZERO PUSH2 0x680 JUMPI SWAP1 PUSH2 0x3CD SWAP2 DUP5 PUSH1 0x20 SWAP6 SWAP3 PUSH2 0x1637 JUMPI POP POP PUSH2 0x2264 JUMP JUMPDEST PUSH2 0x164B SWAP3 POP RETURNDATASIZE DUP1 SWAP2 DUP4 RETURNDATACOPY PUSH2 0x3E9 DUP2 DUP4 PUSH2 0x220F JUMP JUMPDEST CODESIZE DUP1 PUSH2 0xA43 JUMP JUMPDEST POP CALLVALUE PUSH2 0x22A JUMPI PUSH1 0x20 CALLDATASIZE PUSH1 0x3 NOT ADD SLT PUSH2 0x22A JUMPI PUSH1 0x3 SLOAD DUP3 CALLDATALOAD SWAP3 SWAP1 PUSH1 0x1 PUSH1 0x1 PUSH1 0xA0 SHL SUB AND CALLER SUB PUSH2 0x16D9 JUMPI POP DUP2 PUSH1 0x5 SLOAD SWAP2 DUP1 MLOAD SWAP3 PUSH1 0x60 DUP5 MSTORE PUSH1 0xE PUSH1 0x60 DUP6 ADD MSTORE PUSH14 0x6D6178536C697070616765427073 PUSH1 0x90 SHL PUSH1 0x80 DUP6 ADD MSTORE PUSH1 0x20 DUP5 ADD MSTORE DUP3 ADD MSTORE PUSH32 0xC8004015853107E4CB5EFA9FDFC530F3530F5F5D8A833A9D67E2EFE39717D7F6 PUSH1 0xA0 CALLER SWAP3 LOG2 PUSH1 0x5 SSTORE DUP1 RETURN JUMPDEST SWAP1 MLOAD PUSH3 0x82B429 PUSH1 0xE8 SHL DUP2 MSTORE REVERT JUMPDEST POP DUP1 PUSH1 0x3 NOT CALLDATASIZE ADD SLT PUSH2 0x22A JUMPI PUSH2 0x16FA PUSH2 0x216D JUMP JUMPDEST SWAP3 PUSH1 0x24 CALLDATALOAD SWAP3 PUSH1 0xFF PUSH1 0x6 SLOAD AND PUSH2 0x19F8 JUMPI PUSH1 0x1 PUSH1 0x1 PUSH1 0xA0 SHL SUB DUP6 DUP2 AND SWAP3 SWAP1 SWAP2 SWAP1 DUP4 ISZERO PUSH2 0x19E9 JUMPI CALLVALUE ISZERO PUSH2 0x19DA JUMPI DUP5 MLOAD SWAP7 PUSH2 0x1730 DUP9 PUSH2 0x21D7 JUMP JUMPDEST PUSH1 0x2 DUP9 MSTORE PUSH1 0x20 SWAP8 DUP7 CALLDATASIZE DUP11 DUP4 ADD CALLDATACOPY DUP5 PUSH1 0x2 SLOAD AND PUSH2 0x174B DUP3 PUSH2 0x2231 JUMP JUMPDEST MSTORE DUP5 PUSH1 0x1 SLOAD AND PUSH2 0x175A DUP3 PUSH2 0x2254 JUMP JUMPDEST MSTORE DUP3 PUSH2 0x1797 DUP7 DUP3 SLOAD AND PUSH2 0x176E DUP8 SLOAD TIMESTAMP PUSH2 0x2274 JUMP JUMPDEST SWAP4 DUP11 MLOAD DUP1 SWAP6 DUP2 SWAP5 DUP3 SWAP4 PUSH4 0x7FF36AB5 PUSH1 0xE0 SHL DUP5 MSTORE DUP8 DUP13 DUP6 ADD MSTORE PUSH1 0x80 PUSH1 0x24 DUP6 ADD MSTORE PUSH1 0x84 DUP5 ADD SWAP1 PUSH2 0x2313 JUMP JUMPDEST SWAP1 ADDRESS PUSH1 0x44 DUP5 ADD MSTORE PUSH1 0x64 DUP4 ADD MSTORE SUB SWAP2 CALLVALUE SWAP1 GAS CALL SWAP1 DUP2 ISZERO PUSH2 0x19D0 JUMPI SWAP1 PUSH2 0x17C1 SWAP2 DUP5 SWAP2 PUSH2 0x19BC JUMPI POP PUSH2 0x2254 JUMP JUMPDEST MLOAD SWAP4 DUP5 ISZERO PUSH2 0x19AC JUMPI PUSH1 0x1 SLOAD DUP8 MLOAD PUSH4 0x95EA7B3 PUSH1 0xE0 SHL DUP2 MSTORE PUSH1 0x1 PUSH1 0x1 PUSH1 0xA0 SHL SUB SWAP1 SWAP4 AND DUP6 DUP5 ADD SWAP1 DUP2 MSTORE PUSH1 0x20 DUP2 ADD DUP8 SWAP1 MSTORE DUP11 SWAP3 DUP5 SWAP3 AND SWAP1 DUP3 SWAP1 DUP7 SWAP1 DUP3 SWAP1 PUSH1 0x40 ADD SUB SWAP3 GAS CALL DUP1 ISZERO PUSH2 0x1971 JUMPI PUSH2 0x198F JUMPI JUMPDEST POP DUP4 EXTCODESIZE ISZERO PUSH2 0x514 JUMPI DUP5 MLOAD PUSH4 0x1ADFD7BD PUSH1 0xE3 SHL DUP2 MSTORE DUP4 DUP4 DUP3 ADD MSTORE DUP7 PUSH1 0x24 DUP3 ADD MSTORE DUP2 DUP2 PUSH1 0x44 DUP2 DUP4 DUP10 GAS CALL DUP1 ISZERO PUSH2 0x1971 JUMPI SWAP1 DUP3 SWAP2 PUSH2 0x197B JUMPI JUMPDEST POP POP DUP5 MLOAD PUSH4 0x70A08231 PUSH1 0xE0 SHL DUP2 MSTORE ADDRESS DUP4 DUP3 ADD MSTORE SWAP6 DUP8 DUP8 PUSH1 0x24 DUP2 DUP9 GAS STATICCALL SWAP7 DUP8 ISZERO PUSH2 0x1971 JUMPI DUP3 SWAP8 PUSH2 0x1942 JUMPI JUMPDEST POP DUP7 LT PUSH2 0x1933 JUMPI DUP5 MLOAD PUSH4 0xA9059CBB PUSH1 0xE0 SHL DUP2 MSTORE CALLER DUP4 DUP3 ADD SWAP1 DUP2 MSTORE PUSH1 0x20 DUP2 ADD DUP9 SWAP1 MSTORE DUP9 SWAP1 DUP3 SWAP1 DUP2 SWAP1 PUSH1 0x40 ADD SUB DUP2 DUP6 DUP10 GAS CALL SWAP2 DUP3 ISZERO PUSH2 0x1928 JUMPI SWAP2 PUSH2 0x190B JUMPI JUMPDEST POP ISZERO PUSH2 0x18FD JUMPI POP PUSH32 0x77EB323217A4770C84B5F7F4076D557A6D1166BF8C746483D2A981D9C678E54D DUP4 MLOAD DUP1 PUSH2 0x18F4 DUP8 CALLER SWAP6 CALLVALUE DUP5 PUSH1 0x40 SWAP2 SWAP5 SWAP4 SWAP3 PUSH1 0x60 DUP3 ADD SWAP6 DUP3 MSTORE PUSH1 0x20 DUP3 ADD MSTORE ADD MSTORE JUMP JUMPDEST SUB SWAP1 LOG3 MLOAD SWAP1 DUP2 MSTORE RETURN JUMPDEST DUP4 MLOAD PUSH4 0x12171D83 PUSH1 0xE3 SHL DUP2 MSTORE REVERT JUMPDEST PUSH2 0x1922 SWAP2 POP DUP8 RETURNDATASIZE DUP10 GT PUSH2 0x429 JUMPI PUSH2 0x41A DUP2 DUP4 PUSH2 0x220F JUMP JUMPDEST CODESIZE PUSH2 0x18AB JUMP JUMPDEST DUP7 MLOAD SWAP1 RETURNDATASIZE SWAP1 DUP3 RETURNDATACOPY RETURNDATASIZE SWAP1 REVERT JUMPDEST POP DUP4 MLOAD PUSH4 0x8199F5F3 PUSH1 0xE0 SHL DUP2 MSTORE REVERT JUMPDEST SWAP1 SWAP7 POP DUP8 DUP2 DUP2 RETURNDATASIZE DUP4 GT PUSH2 0x196A JUMPI JUMPDEST PUSH2 0x195A DUP2 DUP4 PUSH2 0x220F JUMP JUMPDEST DUP2 ADD SUB SLT PUSH2 0x472 JUMPI MLOAD SWAP6 CODESIZE PUSH2 0x186E JUMP JUMPDEST POP RETURNDATASIZE PUSH2 0x1950 JUMP JUMPDEST DUP7 MLOAD RETURNDATASIZE DUP5 DUP3 RETURNDATACOPY RETURNDATASIZE SWAP1 REVERT JUMPDEST PUSH2 0x1984 SWAP1 PUSH2 0x21AD JUMP JUMPDEST PUSH2 0x514 JUMPI DUP1 CODESIZE PUSH2 0x1844 JUMP JUMPDEST PUSH2 0x19A5 SWAP1 DUP9 RETURNDATASIZE DUP11 GT PUSH2 0x429 JUMPI PUSH2 0x41A DUP2 DUP4 PUSH2 0x220F JUMP JUMPDEST POP CODESIZE PUSH2 0x180E JUMP JUMPDEST DUP7 MLOAD PUSH4 0xBB2875C3 PUSH1 0xE0 SHL DUP2 MSTORE DUP5 SWAP1 REVERT JUMPDEST PUSH2 0xF09 SWAP2 POP RETURNDATASIZE DUP1 DUP7 DUP4 RETURNDATACOPY PUSH2 0x3E9 DUP2 DUP4 PUSH2 0x220F JUMP JUMPDEST DUP8 MLOAD RETURNDATASIZE DUP6 DUP3 RETURNDATACOPY RETURNDATASIZE SWAP1 REVERT JUMPDEST POP DUP4 MLOAD PUSH4 0x162908E3 PUSH1 0xE1 SHL DUP2 MSTORE REVERT JUMPDEST POP DUP4 MLOAD PUSH4 0xE6C4247B PUSH1 0xE0 SHL DUP2 MSTORE REVERT JUMPDEST DUP3 MLOAD PUSH4 0x13D0FF59 PUSH1 0xE3 SHL DUP2 MSTORE REVERT JUMPDEST POP SWAP2 SWAP1 CALLVALUE PUSH2 0xB71 JUMPI PUSH2 0x1A17 CALLDATASIZE PUSH2 0x2183 JUMP JUMPDEST SWAP5 SWAP2 SWAP4 SWAP1 PUSH1 0xFF PUSH1 0x6 SLOAD AND PUSH2 0x1C50 JUMPI PUSH1 0x1 PUSH1 0x1 PUSH1 0xA0 SHL SUB SWAP6 DUP6 DUP8 AND SWAP6 DUP7 ISZERO PUSH2 0x1C40 JUMPI DUP3 ISZERO PUSH2 0x1C30 JUMPI PUSH1 0x1 SLOAD DUP6 MLOAD PUSH4 0x23B872DD PUSH1 0xE0 SHL DUP2 MSTORE CALLER DUP9 DUP3 ADD SWAP1 DUP2 MSTORE ADDRESS PUSH1 0x20 DUP3 DUP2 ADD SWAP2 SWAP1 SWAP2 MSTORE PUSH1 0x40 DUP3 ADD DUP8 SWAP1 MSTORE SWAP11 SWAP3 DUP12 SWAP2 DUP4 SWAP2 DUP6 AND SWAP1 DUP3 SWAP1 DUP11 SWAP1 DUP3 SWAP1 PUSH1 0x60 ADD SUB SWAP3 GAS CALL DUP1 ISZERO PUSH2 0x1C26 JUMPI SWAP3 DUP11 SWAP3 DUP7 SWAP3 PUSH2 0x1AC6 SWAP6 PUSH2 0x1C09 JUMPI JUMPDEST POP PUSH1 0x1 SLOAD AND SWAP1 DUP8 DUP11 DUP11 MLOAD SWAP7 DUP8 SWAP6 DUP7 SWAP5 DUP6 SWAP4 PUSH4 0x95EA7B3 PUSH1 0xE0 SHL DUP6 MSTORE DUP5 ADD PUSH1 0x20 SWAP1 SWAP4 SWAP3 SWAP2 SWAP4 PUSH1 0x40 DUP2 ADD SWAP5 PUSH1 0x1 DUP1 PUSH1 0xA0 SHL SUB AND DUP2 MSTORE ADD MSTORE JUMP JUMPDEST SUB SWAP3 GAS CALL DUP1 ISZERO PUSH2 0x1BFF JUMPI PUSH2 0x1BE2 JUMPI JUMPDEST POP DUP6 EXTCODESIZE ISZERO PUSH2 0x22A JUMPI DUP4 MLOAD SWAP2 PUSH4 0x1ADFD7BD PUSH1 0xE3 SHL DUP4 MSTORE DUP6 DUP4 ADD MSTORE PUSH1 0x24 DUP3 ADD MSTORE DUP2 DUP2 PUSH1 0x44 DUP2 DUP4 DUP10 GAS CALL DUP1 ISZERO PUSH2 0x1BC9 JUMPI PUSH2 0x1BD3 JUMPI JUMPDEST POP DUP2 MLOAD PUSH4 0x70A08231 PUSH1 0xE0 SHL DUP2 MSTORE ADDRESS DUP5 DUP3 ADD MSTORE SWAP3 DUP6 DUP5 PUSH1 0x24 DUP2 DUP9 GAS STATICCALL SWAP4 DUP5 ISZERO PUSH2 0x1BC9 JUMPI SWAP1 DUP7 SWAP2 DUP4 SWAP6 PUSH2 0x1B94 JUMPI JUMPDEST POP DUP4 MLOAD PUSH4 0xA9059CBB PUSH1 0xE0 SHL DUP2 MSTORE CALLER SWAP2 DUP2 ADD SWAP2 DUP3 MSTORE PUSH1 0x20 DUP3 ADD DUP7 SWAP1 MSTORE SWAP5 SWAP6 SWAP4 SWAP5 SWAP4 DUP5 SWAP2 DUP3 SWAP1 DUP6 SWAP1 DUP3 SWAP1 PUSH1 0x40 ADD JUMPDEST SUB SWAP3 GAS CALL SWAP1 DUP2 ISZERO PUSH2 0x3F8 JUMPI POP PUSH2 0x1B77 JUMPI JUMPDEST POP MLOAD SWAP1 DUP2 MSTORE RETURN JUMPDEST PUSH2 0x1B8D SWAP1 DUP5 RETURNDATASIZE DUP7 GT PUSH2 0x429 JUMPI PUSH2 0x41A DUP2 DUP4 PUSH2 0x220F JUMP JUMPDEST POP CODESIZE PUSH2 0x1B70 JUMP JUMPDEST DUP3 DUP2 SWAP4 SWAP3 SWAP6 SWAP7 POP RETURNDATASIZE DUP4 GT PUSH2 0x1BC2 JUMPI JUMPDEST PUSH2 0x1BAD DUP2 DUP4 PUSH2 0x220F JUMP JUMPDEST DUP2 ADD SUB SLT PUSH2 0x472 JUMPI MLOAD SWAP3 SWAP2 DUP6 SWAP1 PUSH2 0x1B5F PUSH2 0x1B33 JUMP JUMPDEST POP RETURNDATASIZE PUSH2 0x1BA3 JUMP JUMPDEST DUP4 MLOAD RETURNDATASIZE DUP5 DUP3 RETURNDATACOPY RETURNDATASIZE SWAP1 REVERT JUMPDEST PUSH2 0x1BDC SWAP1 PUSH2 0x21AD JUMP JUMPDEST CODESIZE PUSH2 0x1B07 JUMP JUMPDEST PUSH2 0x1BF8 SWAP1 DUP9 RETURNDATASIZE DUP11 GT PUSH2 0x429 JUMPI PUSH2 0x41A DUP2 DUP4 PUSH2 0x220F JUMP JUMPDEST POP CODESIZE PUSH2 0x1AD5 JUMP JUMPDEST DUP6 MLOAD RETURNDATASIZE DUP7 DUP3 RETURNDATACOPY RETURNDATASIZE SWAP1 REVERT JUMPDEST PUSH2 0x1C1F SWAP1 DUP6 RETURNDATASIZE DUP8 GT PUSH2 0x429 JUMPI PUSH2 0x41A DUP2 DUP4 PUSH2 0x220F JUMP JUMPDEST POP CODESIZE PUSH2 0x1A8F JUMP JUMPDEST DUP8 MLOAD RETURNDATASIZE DUP9 DUP3 RETURNDATACOPY RETURNDATASIZE SWAP1 REVERT JUMPDEST DUP5 MLOAD PUSH4 0x162908E3 PUSH1 0xE1 SHL DUP2 MSTORE DUP7 SWAP1 REVERT JUMPDEST DUP5 MLOAD PUSH4 0xE6C4247B PUSH1 0xE0 SHL DUP2 MSTORE DUP7 SWAP1 REVERT JUMPDEST POP POP MLOAD PUSH4 0x13D0FF59 PUSH1 0xE3 SHL DUP2 MSTORE REVERT JUMPDEST POP SWAP1 CALLVALUE PUSH2 0x22A JUMPI DUP3 DUP3 PUSH1 0x3 NOT CALLDATASIZE ADD SLT PUSH2 0x514 JUMPI PUSH2 0x1617 SWAP2 PUSH2 0x1C7E PUSH2 0x216D JUMP JUMPDEST SWAP1 DUP5 MLOAD SWAP2 PUSH2 0x1C8B DUP4 PUSH2 0x21F3 JUMP JUMPDEST PUSH1 0x3 DUP4 MSTORE PUSH1 0x60 CALLDATASIZE PUSH1 0x20 DUP6 ADD CALLDATACOPY PUSH2 0x1CA0 DUP4 PUSH2 0x2231 JUMP JUMPDEST PUSH1 0x1 PUSH1 0x1 PUSH1 0xA0 SHL SUB SWAP2 DUP3 AND SWAP1 MSTORE PUSH1 0x1 SLOAD DUP2 AND PUSH2 0x1CBB DUP5 PUSH2 0x2254 JUMP JUMPDEST MSTORE DUP1 PUSH1 0x2 SLOAD AND PUSH2 0x14C4 DUP5 PUSH2 0x2264 JUMP JUMPDEST POP DUP1 DUP4 SWAP2 PUSH1 0x3 NOT CALLDATASIZE ADD SLT PUSH2 0xB71 JUMPI PUSH2 0x1CE0 PUSH2 0x216D JUMP JUMPDEST PUSH1 0xFF PUSH1 0x6 SLOAD AND PUSH2 0x1E30 JUMPI PUSH1 0x1 PUSH1 0x1 PUSH1 0xA0 SHL SUB SWAP1 DUP2 AND SWAP1 DUP2 ISZERO PUSH2 0x1E20 JUMPI CALLVALUE ISZERO PUSH2 0x1E10 JUMPI SWAP3 PUSH2 0x1D7A SWAP4 DUP2 SWAP6 DUP5 MLOAD SWAP2 PUSH2 0x1D15 DUP4 PUSH2 0x21F3 JUMP JUMPDEST PUSH1 0x3 DUP4 MSTORE PUSH1 0x60 CALLDATASIZE PUSH1 0x20 DUP6 ADD CALLDATACOPY DUP1 PUSH1 0x2 SLOAD AND PUSH2 0x1D2F DUP5 PUSH2 0x2231 JUMP JUMPDEST MSTORE DUP1 PUSH1 0x1 SLOAD AND PUSH2 0x1D3E DUP5 PUSH2 0x2254 JUMP JUMPDEST MSTORE DUP5 PUSH2 0x1D49 DUP5 PUSH2 0x2264 JUMP JUMPDEST MSTORE DUP4 SLOAD AND SWAP1 PUSH2 0x1D59 DUP2 SLOAD TIMESTAMP PUSH2 0x2274 JUMP JUMPDEST DUP7 MLOAD PUSH4 0x7FF36AB5 PUSH1 0xE0 SHL DUP2 MSTORE SWAP8 DUP9 SWAP5 DUP6 SWAP4 DUP5 SWAP4 SWAP2 CALLER SWAP2 PUSH1 0x24 CALLDATALOAD SWAP1 DUP7 ADD PUSH2 0x237B JUMP JUMPDEST SUB SWAP2 CALLVALUE SWAP1 GAS CALL SWAP3 DUP4 ISZERO PUSH2 0x1E06 JUMPI DUP5 PUSH1 0x20 SWAP6 SWAP5 PUSH2 0x1DE9 JUMPI JUMPDEST POP POP PUSH2 0x1DA6 PUSH2 0x1D9F DUP5 PUSH2 0x2264 JUMP JUMPDEST MLOAD SWAP4 PUSH2 0x2254 JUMP JUMPDEST MLOAD PUSH32 0x77EB323217A4770C84B5F7F4076D557A6D1166BF8C746483D2A981D9C678E54D DUP4 MLOAD DUP1 PUSH2 0x18F4 DUP8 CALLER SWAP6 CALLVALUE DUP5 PUSH1 0x40 SWAP2 SWAP5 SWAP4 SWAP3 PUSH1 0x60 DUP3 ADD SWAP6 DUP3 MSTORE PUSH1 0x20 DUP3 ADD MSTORE ADD MSTORE JUMP JUMPDEST PUSH2 0x1DFE SWAP3 SWAP5 POP RETURNDATASIZE DUP1 SWAP2 DUP4 RETURNDATACOPY PUSH2 0x3E9 DUP2 DUP4 PUSH2 0x220F JUMP JUMPDEST SWAP2 DUP5 DUP1 PUSH2 0x1D91 JUMP JUMPDEST DUP3 MLOAD RETURNDATASIZE DUP7 DUP3 RETURNDATACOPY RETURNDATASIZE SWAP1 REVERT JUMPDEST DUP3 MLOAD PUSH4 0x162908E3 PUSH1 0xE1 SHL DUP2 MSTORE DUP6 SWAP1 REVERT JUMPDEST DUP3 MLOAD PUSH4 0xE6C4247B PUSH1 0xE0 SHL DUP2 MSTORE DUP6 SWAP1 REVERT JUMPDEST DUP2 MLOAD PUSH4 0x13D0FF59 PUSH1 0xE3 SHL DUP2 MSTORE DUP5 SWAP1 REVERT JUMPDEST POP CALLVALUE PUSH2 0x22A JUMPI DUP1 PUSH1 0x3 NOT CALLDATASIZE ADD SLT PUSH2 0x22A JUMPI DUP1 PUSH2 0x1E5A PUSH2 0x216D JUMP JUMPDEST DUP2 MLOAD PUSH4 0x48153279 PUSH1 0xE0 SHL DUP2 MSTORE PUSH1 0x24 DUP1 CALLDATALOAD SWAP6 DUP3 ADD SWAP6 SWAP1 SWAP6 MSTORE SWAP4 DUP5 SWAP2 DUP3 SWAP1 PUSH1 0x1 PUSH1 0x1 PUSH1 0xA0 SHL SUB AND GAS STATICCALL SWAP2 DUP3 ISZERO PUSH2 0x1EB7 JUMPI PUSH1 0x20 SWAP4 SWAP3 PUSH2 0x1E97 JUMPI POP MLOAD SWAP1 DUP2 MSTORE RETURN JUMPDEST DUP2 PUSH2 0x1EAF SWAP3 SWAP4 POP RETURNDATASIZE DUP5 GT PUSH2 0x13A1 JUMPI PUSH2 0x1392 DUP2 DUP4 PUSH2 0x220F JUMP JUMPDEST POP SWAP1 CODESIZE PUSH2 0x1B70 JUMP JUMPDEST DUP2 MLOAD RETURNDATASIZE DUP6 DUP3 RETURNDATACOPY RETURNDATASIZE SWAP1 REVERT JUMPDEST POP SWAP2 SWAP1 CALLVALUE PUSH2 0xB71 JUMPI DUP3 PUSH1 0x3 NOT CALLDATASIZE ADD SLT PUSH2 0xB71 JUMPI PUSH2 0x1EDC PUSH2 0x216D JUMP JUMPDEST DUP4 MLOAD PUSH2 0x1EE7 DUP2 PUSH2 0x21D7 JUMP JUMPDEST PUSH1 0x2 DUP2 MSTORE DUP5 CALLDATASIZE PUSH1 0x20 DUP4 ADD CALLDATACOPY PUSH1 0x2 SLOAD PUSH1 0x1 PUSH1 0x1 PUSH1 0xA0 SHL SUB SWAP2 PUSH2 0x1F4C SWAP2 DUP7 SWAP2 SWAP1 DUP5 AND PUSH2 0x1F10 DUP3 PUSH2 0x2231 JUMP JUMPDEST MSTORE DUP4 PUSH1 0x1 SLOAD AND PUSH2 0x1F1F DUP3 PUSH2 0x2254 JUMP JUMPDEST MSTORE DUP4 DUP3 SLOAD AND DUP9 MLOAD DUP1 DUP1 SWAP6 DUP2 SWAP5 PUSH4 0xD06CA61F PUSH1 0xE0 SHL DUP4 MSTORE PUSH1 0x24 CALLDATALOAD DUP12 DUP5 ADD MSTORE DUP13 PUSH1 0x24 DUP5 ADD MSTORE PUSH1 0x44 DUP4 ADD SWAP1 PUSH2 0x2313 JUMP JUMPDEST SUB SWAP2 GAS STATICCALL SWAP1 DUP2 ISZERO PUSH2 0x1FD6 JUMPI PUSH2 0x1F6C DUP8 SWAP4 SWAP3 PUSH1 0x24 SWAP3 DUP9 SWAP2 PUSH2 0x1FC2 JUMPI POP PUSH2 0x2254 JUMP JUMPDEST MLOAD DUP4 MLOAD PUSH4 0x48153279 PUSH1 0xE0 SHL DUP2 MSTORE SWAP6 DUP7 ADD DUP2 SWAP1 MSTORE SWAP5 SWAP4 DUP5 SWAP3 DUP4 SWAP2 AND GAS STATICCALL SWAP3 DUP4 ISZERO PUSH2 0x1153 JUMPI SWAP3 PUSH2 0x1FA2 JUMPI JUMPDEST POP DUP3 MLOAD SWAP2 DUP3 MSTORE PUSH1 0x20 DUP3 ADD MSTORE RETURN JUMPDEST PUSH2 0x1FBA SWAP2 SWAP3 POP DUP4 RETURNDATASIZE DUP6 GT PUSH2 0x13A1 JUMPI PUSH2 0x1392 DUP2 DUP4 PUSH2 0x220F JUMP JUMPDEST POP SWAP1 CODESIZE PUSH2 0x1F95 JUMP JUMPDEST PUSH2 0xF09 SWAP2 POP RETURNDATASIZE DUP1 DUP11 DUP4 RETURNDATACOPY PUSH2 0x3E9 DUP2 DUP4 PUSH2 0x220F JUMP JUMPDEST DUP7 MLOAD RETURNDATASIZE DUP8 DUP3 RETURNDATACOPY RETURNDATASIZE SWAP1 REVERT JUMPDEST POP DUP3 CALLVALUE PUSH2 0x514 JUMPI PUSH2 0x1FF0 CALLDATASIZE PUSH2 0x2183 JUMP JUMPDEST SWAP1 PUSH1 0xFF PUSH1 0x6 SWAP7 SWAP4 SWAP7 SLOAD AND PUSH2 0x504 JUMPI PUSH1 0x1 PUSH1 0x1 PUSH1 0xA0 SHL SUB SWAP6 DUP7 AND SWAP2 DUP3 ISZERO PUSH2 0x4F4 JUMPI DUP2 ISZERO PUSH2 0x4E4 JUMPI PUSH1 0x1 SLOAD DUP7 MLOAD PUSH4 0x23B872DD PUSH1 0xE0 SHL DUP2 MSTORE CALLER DUP7 DUP3 ADD SWAP1 DUP2 MSTORE ADDRESS PUSH1 0x20 DUP3 DUP2 ADD SWAP2 SWAP1 SWAP2 MSTORE PUSH1 0x40 DUP3 ADD DUP7 SWAP1 MSTORE SWAP10 SWAP3 DUP11 SWAP2 DUP4 SWAP2 DUP6 AND SWAP1 DUP3 SWAP1 DUP12 SWAP1 DUP3 SWAP1 PUSH1 0x60 ADD SUB SWAP3 GAS CALL DUP1 ISZERO PUSH2 0x430 JUMPI PUSH2 0x20FF JUMPI JUMPDEST POP PUSH1 0x1 SLOAD DUP7 SLOAD DUP9 MLOAD PUSH4 0x95EA7B3 PUSH1 0xE0 SHL DUP2 MSTORE SWAP1 DUP4 AND PUSH1 0x1 PUSH1 0x1 PUSH1 0xA0 SHL SUB AND DUP8 DUP3 ADD SWAP1 DUP2 MSTORE PUSH1 0x20 DUP2 ADD DUP7 SWAP1 MSTORE SWAP1 SWAP2 DUP11 SWAP2 DUP4 SWAP2 DUP6 AND SWAP1 DUP3 SWAP1 DUP12 SWAP1 DUP3 SWAP1 PUSH1 0x40 ADD SUB SWAP3 GAS CALL DUP1 ISZERO PUSH2 0x430 JUMPI SWAP2 DUP8 SWAP6 SWAP5 SWAP4 SWAP3 SWAP2 DUP7 SWAP3 PUSH2 0x20E2 JUMPI JUMPDEST POP DUP9 MLOAD SWAP5 PUSH2 0x20C0 DUP7 PUSH2 0x21D7 JUMP JUMPDEST PUSH1 0x2 DUP7 MSTORE DUP10 CALLDATASIZE DUP13 DUP9 ADD CALLDATACOPY DUP2 PUSH1 0x1 SLOAD AND PUSH2 0x20D8 DUP8 PUSH2 0x2231 JUMP JUMPDEST MSTORE PUSH2 0x381 DUP7 PUSH2 0x2254 JUMP JUMPDEST PUSH2 0x20F8 SWAP1 DUP12 RETURNDATASIZE DUP14 GT PUSH2 0x429 JUMPI PUSH2 0x41A DUP2 DUP4 PUSH2 0x220F JUMP JUMPDEST POP DUP11 PUSH2 0x20B3 JUMP JUMPDEST PUSH2 0x2115 SWAP1 DUP10 RETURNDATASIZE DUP12 GT PUSH2 0x429 JUMPI PUSH2 0x41A DUP2 DUP4 PUSH2 0x220F JUMP JUMPDEST POP DUP9 PUSH2 0x205E JUMP JUMPDEST DUP5 SWAP1 DUP5 CALLVALUE PUSH2 0x22A JUMPI PUSH1 0x20 CALLDATASIZE PUSH1 0x3 NOT ADD SLT PUSH2 0x22A JUMPI DUP1 CALLDATALOAD SWAP2 DUP3 ISZERO ISZERO DUP1 SWAP4 SUB PUSH2 0x11E2 JUMPI PUSH1 0x3 SLOAD PUSH1 0x1 PUSH1 0x1 PUSH1 0xA0 SHL SUB AND CALLER SUB PUSH2 0x2162 JUMPI POP POP PUSH1 0xFF DUP1 NOT PUSH1 0x6 SLOAD AND SWAP2 AND OR PUSH1 0x6 SSTORE DUP1 RETURN JUMPDEST PUSH3 0x82B429 PUSH1 0xE8 SHL DUP2 MSTORE REVERT JUMPDEST PUSH1 0x4 CALLDATALOAD SWAP1 PUSH1 0x1 PUSH1 0x1 PUSH1 0xA0 SHL SUB DUP3 AND DUP3 SUB PUSH2 0x472 JUMPI JUMP JUMPDEST PUSH1 0x60 SWAP1 PUSH1 0x3 NOT ADD SLT PUSH2 0x472 JUMPI PUSH1 0x4 CALLDATALOAD PUSH1 0x1 PUSH1 0x1 PUSH1 0xA0 SHL SUB DUP2 AND DUP2 SUB PUSH2 0x472 JUMPI SWAP1 PUSH1 0x24 CALLDATALOAD SWAP1 PUSH1 0x44 CALLDATALOAD SWAP1 JUMP JUMPDEST PUSH8 0xFFFFFFFFFFFFFFFF DUP2 GT PUSH2 0x21C1 JUMPI PUSH1 0x40 MSTORE JUMP JUMPDEST PUSH4 0x4E487B71 PUSH1 0xE0 SHL PUSH1 0x0 MSTORE PUSH1 0x41 PUSH1 0x4 MSTORE PUSH1 0x24 PUSH1 0x0 REVERT JUMPDEST PUSH1 0x60 DUP2 ADD SWAP1 DUP2 LT PUSH8 0xFFFFFFFFFFFFFFFF DUP3 GT OR PUSH2 0x21C1 JUMPI PUSH1 0x40 MSTORE JUMP JUMPDEST PUSH1 0x80 DUP2 ADD SWAP1 DUP2 LT PUSH8 0xFFFFFFFFFFFFFFFF DUP3 GT OR PUSH2 0x21C1 JUMPI PUSH1 0x40 MSTORE JUMP JUMPDEST SWAP1 PUSH1 0x1F DUP1 NOT SWAP2 ADD AND DUP2 ADD SWAP1 DUP2 LT PUSH8 0xFFFFFFFFFFFFFFFF DUP3 GT OR PUSH2 0x21C1 JUMPI PUSH1 0x40 MSTORE JUMP JUMPDEST DUP1 MLOAD ISZERO PUSH2 0x223E JUMPI PUSH1 0x20 ADD SWAP1 JUMP JUMPDEST PUSH4 0x4E487B71 PUSH1 0xE0 SHL PUSH1 0x0 MSTORE PUSH1 0x32 PUSH1 0x4 MSTORE PUSH1 0x24 PUSH1 0x0 REVERT JUMPDEST DUP1 MLOAD PUSH1 0x1 LT ISZERO PUSH2 0x223E JUMPI PUSH1 0x40 ADD SWAP1 JUMP JUMPDEST DUP1 MLOAD PUSH1 0x2 LT ISZERO PUSH2 0x223E JUMPI PUSH1 0x60 ADD SWAP1 JUMP JUMPDEST SWAP2 SWAP1 DUP3 ADD DUP1 SWAP3 GT PUSH2 0x2281 JUMPI JUMP JUMPDEST PUSH4 0x4E487B71 PUSH1 0xE0 SHL PUSH1 0x0 MSTORE PUSH1 0x11 PUSH1 0x4 MSTORE PUSH1 0x24 PUSH1 0x0 REVERT JUMPDEST SWAP1 PUSH1 0x20 SWAP1 DUP2 DUP4 DUP3 SUB SLT PUSH2 0x472 JUMPI DUP3 MLOAD PUSH8 0xFFFFFFFFFFFFFFFF SWAP4 DUP5 DUP3 GT PUSH2 0x472 JUMPI ADD DUP2 PUSH1 0x1F DUP3 ADD SLT ISZERO PUSH2 0x472 JUMPI DUP1 MLOAD SWAP4 DUP5 GT PUSH2 0x21C1 JUMPI DUP4 PUSH1 0x5 SHL SWAP1 PUSH1 0x40 MLOAD SWAP5 PUSH2 0x22E1 DUP6 DUP5 ADD DUP8 PUSH2 0x220F JUMP JUMPDEST DUP6 MSTORE DUP4 DUP1 DUP7 ADD SWAP3 DUP3 ADD ADD SWAP3 DUP4 GT PUSH2 0x472 JUMPI DUP4 ADD SWAP1 JUMPDEST DUP3 DUP3 LT PUSH2 0x2304 JUMPI POP POP POP POP SWAP1 JUMP JUMPDEST DUP2 MLOAD DUP2 MSTORE SWAP1 DUP4 ADD SWAP1 DUP4 ADD PUSH2 0x22F6 JUMP JUMPDEST SWAP1 DUP2 MLOAD DUP1 DUP3 MSTORE PUSH1 0x20 DUP1 DUP1 SWAP4 ADD SWAP4 ADD SWAP2 PUSH1 0x0 JUMPDEST DUP3 DUP2 LT PUSH2 0x2333 JUMPI POP POP POP POP SWAP1 JUMP JUMPDEST DUP4 MLOAD PUSH1 0x1 PUSH1 0x1 PUSH1 0xA0 SHL SUB AND DUP6 MSTORE SWAP4 DUP2 ADD SWAP4 SWAP3 DUP2 ADD SWAP3 PUSH1 0x1 ADD PUSH2 0x2325 JUMP JUMPDEST SWAP1 DUP2 PUSH1 0x20 SWAP2 SUB SLT PUSH2 0x472 JUMPI MLOAD DUP1 ISZERO ISZERO DUP2 SUB PUSH2 0x472 JUMPI SWAP1 JUMP JUMPDEST DUP2 DUP2 MUL SWAP3 SWAP2 DUP2 ISZERO SWAP2 DUP5 DIV EQ OR ISZERO PUSH2 0x2281 JUMPI JUMP JUMPDEST SWAP1 PUSH1 0x60 SWAP3 PUSH2 0x239A SWAP2 SWAP7 SWAP6 SWAP5 SWAP7 DUP4 MSTORE PUSH1 0x80 PUSH1 0x20 DUP5 ADD MSTORE PUSH1 0x80 DUP4 ADD SWAP1 PUSH2 0x2313 JUMP JUMPDEST PUSH1 0x1 PUSH1 0x1 PUSH1 0xA0 SHL SUB SWAP1 SWAP6 AND PUSH1 0x40 DUP3 ADD MSTORE ADD MSTORE JUMP JUMPDEST SWAP2 SWAP1 DUP3 SUB SWAP2 DUP3 GT PUSH2 0x2281 JUMPI JUMP JUMPDEST RETURNDATASIZE ISZERO PUSH2 0x23F6 JUMPI RETURNDATASIZE SWAP1 PUSH8 0xFFFFFFFFFFFFFFFF DUP3 GT PUSH2 0x21C1 JUMPI PUSH1 0x40 MLOAD SWAP2 PUSH2 0x23EA PUSH1 0x1F DUP3 ADD PUSH1 0x1F NOT AND PUSH1 0x20 ADD DUP5 PUSH2 0x220F JUMP JUMPDEST DUP3 MSTORE RETURNDATASIZE PUSH1 0x0 PUSH1 0x20 DUP5 ADD RETURNDATACOPY JUMP JUMPDEST PUSH1 0x60 SWAP1 JUMP JUMPDEST SWAP2 SWAP3 PUSH1 0x80 SWAP4 PUSH2 0x2420 SWAP3 SWAP8 SWAP7 SWAP6 SWAP8 DUP5 MSTORE PUSH1 0x20 DUP5 ADD MSTORE PUSH1 0xA0 PUSH1 0x40 DUP5 ADD MSTORE PUSH1 0xA0 DUP4 ADD SWAP1 PUSH2 0x2313 JUMP JUMPDEST PUSH1 0x1 PUSH1 0x1 PUSH1 0xA0 SHL SUB SWAP1 SWAP6 AND PUSH1 0x60 DUP3 ADD MSTORE ADD MSTORE JUMP JUMPDEST SWAP2 SWAP1 DUP3 PUSH1 0x40 SWAP2 SUB SLT PUSH2 0x472 JUMPI PUSH1 0x20 DUP3 MLOAD SWAP3 ADD MLOAD SWAP1 JUMP JUMPDEST PUSH1 0x40 DUP1 MLOAD PUSH4 0x48153279 PUSH1 0xE0 SHL DUP2 MSTORE PUSH1 0x4 DUP2 ADD DUP5 SWAP1 MSTORE SWAP2 DUP4 SWAP2 SWAP1 DUP4 SWAP1 PUSH1 0x24 SWAP1 DUP3 SWAP1 PUSH1 0x1 PUSH1 0x1 PUSH1 0xA0 SHL SUB AND GAS STATICCALL SWAP2 DUP3 ISZERO PUSH2 0x24FF JUMPI PUSH1 0x0 SWAP3 PUSH2 0x24DE JUMPI JUMPDEST POP DUP1 DUP3 LT PUSH2 0x2491 JUMPI POP POP SWAP1 JUMP JUMPDEST PUSH2 0x249D SWAP2 SWAP3 POP DUP1 PUSH2 0x2368 JUMP JUMPDEST DUP2 ISZERO PUSH2 0x24C8 JUMPI DIV PUSH1 0xC8 DUP2 MUL SWAP1 DUP1 DUP3 DIV PUSH1 0xC8 EQ DUP2 ISZERO OR ISZERO PUSH2 0x2281 JUMPI PUSH2 0x2710 PUSH2 0x24C5 SWAP3 DIV SWAP1 PUSH2 0x2274 JUMP JUMPDEST SWAP1 JUMP JUMPDEST PUSH4 0x4E487B71 PUSH1 0xE0 SHL PUSH1 0x0 MSTORE PUSH1 0x12 PUSH1 0x4 MSTORE PUSH1 0x24 PUSH1 0x0 REVERT JUMPDEST PUSH2 0x24F7 SWAP2 SWAP3 POP PUSH1 0x40 RETURNDATASIZE DUP2 GT PUSH2 0x13A1 JUMPI PUSH2 0x1392 DUP2 DUP4 PUSH2 0x220F JUMP JUMPDEST POP SWAP1 CODESIZE PUSH2 0x2484 JUMP JUMPDEST PUSH1 0x40 MLOAD RETURNDATASIZE PUSH1 0x0 DUP3 RETURNDATACOPY RETURNDATASIZE SWAP1 REVERT INVALID PREVRANDAO JUMPI GASPRICE DUP10 0xDF PC EXTCODECOPY SIGNEXTEND 0x1E AND 0xE6 0xC2 0x2D COINBASE 0xB4 0xE3 SWAP14 0xE1 0xCA CALLVALUE SAR EXP 0x23 0x4B PUSH18 0x17CCC2BF727DC4A264697066735822122096 0xAA 0x5C 0xC4 EXTCODEHASH 0x4A 0xE6 0x29 DUP1 CREATE 0xC5 0xC1 0xA5 LOG3 LOG3 0x1E DELEGATECALL 0xA6 AND 0xC4 OR 0x27 MUL PUSH10 0x2A35BBF83F6F0F136473 PUSH16 0x6C634300081400330000000000000000 "},"methodIdentifiers":{"buyBondingCurveTokenWithBNB(address,uint256)":"4325f299","buyBondingCurveTokenWithHAVEN(address,uint256,uint256)":"3dc4340a","buyExactTokensWithBNB(address,uint256,uint256)":"a09f99cc","buyGraduatedTokenWithBNB(address,uint256)":"323f3517","buyGraduatedTokenWithHAVEN(address,uint256,uint256)":"1ce0ee5c","defaultDeadlineOffset()":"e8feca30","emergencyWithdraw(address,address,uint256)":"e63ea408","havenToken()":"7bcafc82","maxSlippageBps()":"c4aa7395","owner()":"8da5cb5b","pancakeRouter()":"c21ebd07","paused()":"5c975abb","previewBuyBondingCurveWithHAVEN(address,uint256)":"22e988a4","previewBuyGraduatedWithBNB(address,uint256)":"584b5a38","previewBuyGraduatedWithHAVEN(address,uint256)":"e9ea09b3","previewBuyWithBNB(address,uint256)":"216f68b2","previewExactBuyWithBNB(address,uint256)":"e302b66c","previewSellBondingCurveForBNB(address,uint256)":"8661a02a","previewSellGraduatedForBNB(address,uint256)":"324fc30c","previewSellGraduatedForHAVEN(address,uint256)":"6231af91","sellBondingCurveTokenForBNB(address,uint256,uint256)":"92212ef7","sellGraduatedTokenForBNB(address,uint256,uint256)":"dd0c4331","sellGraduatedTokenForHAVEN(address,uint256,uint256)":"f4c0de8c","setDefaultDeadlineOffset(uint256)":"5af39811","setHavenToken(address)":"653028e8","setMaxSlippage(uint256)":"43f68a49","setPancakeRouter(address)":"f8316c90","setPaused(bool)":"16c38b3c","setWBNB(address)":"cab27a64","transferOwnership(address)":"f2fde38b","wbnb()":"8d72647e"}}}}}