{"contracts/HavenRouter.sol":{"HavenRouter":{"abi":[{"inputs":[{"internalType":"address","name":"_pancakeRouter","type":"address"},{"internalType":"address","name":"_havenToken","type":"address"},{"internalType":"address","name":"_wbnb","type":"address"}],"stateMutability":"nonpayable","type":"constructor"},{"inputs":[],"name":"InsufficientOutput","type":"error"},{"inputs":[],"name":"InvalidAddress","type":"error"},{"inputs":[],"name":"InvalidAmount","type":"error"},{"inputs":[],"name":"InvalidSlippage","type":"error"},{"inputs":[],"name":"Paused","type":"error"},{"inputs":[],"name":"SlippageExceeded","type":"error"},{"inputs":[],"name":"TransferFailed","type":"error"},{"inputs":[],"name":"Unauthorized","type":"error"},{"anonymous":false,"inputs":[{"indexed":true,"internalType":"address","name":"updater","type":"address"},{"indexed":false,"internalType":"string","name":"parameter","type":"string"},{"indexed":false,"internalType":"address","name":"oldAddress","type":"address"},{"indexed":false,"internalType":"address","name":"newAddress","type":"address"}],"name":"AddressUpdated","type":"event"},{"anonymous":false,"inputs":[{"indexed":true,"internalType":"address","name":"user","type":"address"},{"indexed":true,"internalType":"address","name":"bondingCurveToken","type":"address"},{"indexed":false,"internalType":"uint256","name":"bnbIn","type":"uint256"},{"indexed":false,"internalType":"uint256","name":"havenSwapped","type":"uint256"},{"indexed":false,"internalType":"uint256","name":"tokensOut","type":"uint256"}],"name":"BuyExecuted","type":"event"},{"anonymous":false,"inputs":[{"indexed":true,"internalType":"address","name":"updater","type":"address"},{"indexed":false,"internalType":"string","name":"parameter","type":"string"},{"indexed":false,"internalType":"uint256","name":"oldValue","type":"uint256"},{"indexed":false,"internalType":"uint256","name":"newValue","type":"uint256"}],"name":"ConfigUpdated","type":"event"},{"anonymous":false,"inputs":[{"indexed":true,"internalType":"address","name":"token","type":"address"},{"indexed":true,"internalType":"address","name":"to","type":"address"},{"indexed":false,"internalType":"uint256","name":"amount","type":"uint256"}],"name":"EmergencyWithdraw","type":"event"},{"anonymous":false,"inputs":[{"indexed":true,"internalType":"address","name":"user","type":"address"},{"indexed":true,"internalType":"address","name":"bondingCurveToken","type":"address"},{"indexed":false,"internalType":"uint256","name":"bnbIn","type":"uint256"},{"indexed":false,"internalType":"uint256","name":"bnbRefunded","type":"uint256"},{"indexed":false,"internalType":"uint256","name":"tokensOut","type":"uint256"}],"name":"ExactBuyExecuted","type":"event"},{"inputs":[{"internalType":"address[]","name":"bondingCurveTokens","type":"address[]"},{"internalType":"bool[]","name":"isWBNBArray","type":"bool[]"}],"name":"batchRegisterBondingCurveTypes","outputs":[],"stateMutability":"nonpayable","type":"function"},{"inputs":[{"internalType":"address","name":"bondingCurveToken","type":"address"},{"internalType":"uint256","name":"minTokensOut","type":"uint256"}],"name":"buyBondingCurveTokenWithBNB","outputs":[{"internalType":"uint256","name":"tokensOut","type":"uint256"}],"stateMutability":"payable","type":"function"},{"inputs":[{"internalType":"address","name":"bondingCurveToken","type":"address"},{"internalType":"uint256","name":"havenAmount","type":"uint256"},{"internalType":"uint256","name":"minTokensOut","type":"uint256"}],"name":"buyBondingCurveTokenWithHAVEN","outputs":[{"internalType":"uint256","name":"tokensOut","type":"uint256"}],"stateMutability":"nonpayable","type":"function"},{"inputs":[{"internalType":"address","name":"bondingCurveToken","type":"address"},{"internalType":"uint256","name":"exactTokensOut","type":"uint256"},{"internalType":"uint256","name":"maxSlippageBps","type":"uint256"}],"name":"buyExactTokensWithBNB","outputs":[{"internalType":"uint256","name":"bnbSpent","type":"uint256"},{"internalType":"uint256","name":"bnbRefunded","type":"uint256"}],"stateMutability":"payable","type":"function"},{"inputs":[{"internalType":"address","name":"token","type":"address"},{"internalType":"uint256","name":"minTokensOut","type":"uint256"}],"name":"buyGraduatedTokenWithBNB","outputs":[{"internalType":"uint256","name":"tokensOut","type":"uint256"}],"stateMutability":"payable","type":"function"},{"inputs":[{"internalType":"address","name":"token","type":"address"},{"internalType":"uint256","name":"havenAmount","type":"uint256"},{"internalType":"uint256","name":"minTokensOut","type":"uint256"}],"name":"buyGraduatedTokenWithHAVEN","outputs":[{"internalType":"uint256","name":"tokensOut","type":"uint256"}],"stateMutability":"nonpayable","type":"function"},{"inputs":[],"name":"defaultDeadlineOffset","outputs":[{"internalType":"uint256","name":"","type":"uint256"}],"stateMutability":"view","type":"function"},{"inputs":[{"internalType":"address","name":"token","type":"address"},{"internalType":"address","name":"to","type":"address"},{"internalType":"uint256","name":"amount","type":"uint256"}],"name":"emergencyWithdraw","outputs":[],"stateMutability":"nonpayable","type":"function"},{"inputs":[],"name":"havenToken","outputs":[{"internalType":"address","name":"","type":"address"}],"stateMutability":"view","type":"function"},{"inputs":[{"internalType":"address","name":"","type":"address"}],"name":"isWBNBBondingCurve","outputs":[{"internalType":"bool","name":"","type":"bool"}],"stateMutability":"view","type":"function"},{"inputs":[],"name":"maxSlippageBps","outputs":[{"internalType":"uint256","name":"","type":"uint256"}],"stateMutability":"view","type":"function"},{"inputs":[],"name":"owner","outputs":[{"internalType":"address","name":"","type":"address"}],"stateMutability":"view","type":"function"},{"inputs":[],"name":"pancakeRouter","outputs":[{"internalType":"address","name":"","type":"address"}],"stateMutability":"view","type":"function"},{"inputs":[],"name":"paused","outputs":[{"internalType":"bool","name":"","type":"bool"}],"stateMutability":"view","type":"function"},{"inputs":[{"internalType":"address","name":"bondingCurveToken","type":"address"},{"internalType":"uint256","name":"havenAmount","type":"uint256"}],"name":"previewBuyBondingCurveWithHAVEN","outputs":[{"internalType":"uint256","name":"tokensOut","type":"uint256"}],"stateMutability":"view","type":"function"},{"inputs":[{"internalType":"address","name":"token","type":"address"},{"internalType":"uint256","name":"bnbAmount","type":"uint256"}],"name":"previewBuyGraduatedWithBNB","outputs":[{"internalType":"uint256","name":"tokensOut","type":"uint256"}],"stateMutability":"view","type":"function"},{"inputs":[{"internalType":"address","name":"token","type":"address"},{"internalType":"uint256","name":"havenAmount","type":"uint256"}],"name":"previewBuyGraduatedWithHAVEN","outputs":[{"internalType":"uint256","name":"tokensOut","type":"uint256"}],"stateMutability":"view","type":"function"},{"inputs":[{"internalType":"address","name":"bondingCurveToken","type":"address"},{"internalType":"uint256","name":"bnbAmount","type":"uint256"}],"name":"previewBuyWithBNB","outputs":[{"internalType":"uint256","name":"tokensOut","type":"uint256"},{"internalType":"uint256","name":"havenAmount","type":"uint256"}],"stateMutability":"view","type":"function"},{"inputs":[{"internalType":"address","name":"bondingCurveToken","type":"address"},{"internalType":"uint256","name":"exactTokensOut","type":"uint256"}],"name":"previewExactBuyWithBNB","outputs":[{"internalType":"uint256","name":"bnbRequired","type":"uint256"},{"internalType":"uint256","name":"havenRequired","type":"uint256"}],"stateMutability":"view","type":"function"},{"inputs":[{"internalType":"address","name":"bondingCurveToken","type":"address"},{"internalType":"uint256","name":"tokenAmount","type":"uint256"}],"name":"previewSellBondingCurveForBNB","outputs":[{"internalType":"uint256","name":"bnbOut","type":"uint256"},{"internalType":"uint256","name":"havenAmount","type":"uint256"}],"stateMutability":"view","type":"function"},{"inputs":[{"internalType":"address","name":"token","type":"address"},{"internalType":"uint256","name":"tokenAmount","type":"uint256"}],"name":"previewSellGraduatedForBNB","outputs":[{"internalType":"uint256","name":"bnbOut","type":"uint256"}],"stateMutability":"view","type":"function"},{"inputs":[{"internalType":"address","name":"token","type":"address"},{"internalType":"uint256","name":"tokenAmount","type":"uint256"}],"name":"previewSellGraduatedForHAVEN","outputs":[{"internalType":"uint256","name":"havenOut","type":"uint256"}],"stateMutability":"view","type":"function"},{"inputs":[{"internalType":"address","name":"bondingCurveToken","type":"address"},{"internalType":"bool","name":"isWBNB","type":"bool"}],"name":"registerBondingCurveType","outputs":[],"stateMutability":"nonpayable","type":"function"},{"inputs":[{"internalType":"address","name":"bondingCurveToken","type":"address"},{"internalType":"uint256","name":"tokenAmount","type":"uint256"},{"internalType":"uint256","name":"minBNBOut","type":"uint256"}],"name":"sellBondingCurveTokenForBNB","outputs":[{"internalType":"uint256","name":"bnbOut","type":"uint256"}],"stateMutability":"nonpayable","type":"function"},{"inputs":[{"internalType":"address","name":"token","type":"address"},{"internalType":"uint256","name":"tokenAmount","type":"uint256"},{"internalType":"uint256","name":"minBNBOut","type":"uint256"}],"name":"sellGraduatedTokenForBNB","outputs":[{"internalType":"uint256","name":"bnbOut","type":"uint256"}],"stateMutability":"nonpayable","type":"function"},{"inputs":[{"internalType":"address","name":"token","type":"address"},{"internalType":"uint256","name":"tokenAmount","type":"uint256"},{"internalType":"uint256","name":"minHavenOut","type":"uint256"}],"name":"sellGraduatedTokenForHAVEN","outputs":[{"internalType":"uint256","name":"havenOut","type":"uint256"}],"stateMutability":"nonpayable","type":"function"},{"inputs":[{"internalType":"uint256","name":"_offset","type":"uint256"}],"name":"setDefaultDeadlineOffset","outputs":[],"stateMutability":"nonpayable","type":"function"},{"inputs":[{"internalType":"address","name":"_havenToken","type":"address"}],"name":"setHavenToken","outputs":[],"stateMutability":"nonpayable","type":"function"},{"inputs":[{"internalType":"uint256","name":"_maxSlippageBps","type":"uint256"}],"name":"setMaxSlippage","outputs":[],"stateMutability":"nonpayable","type":"function"},{"inputs":[{"internalType":"address","name":"_pancakeRouter","type":"address"}],"name":"setPancakeRouter","outputs":[],"stateMutability":"nonpayable","type":"function"},{"inputs":[{"internalType":"bool","name":"_paused","type":"bool"}],"name":"setPaused","outputs":[],"stateMutability":"nonpayable","type":"function"},{"inputs":[{"internalType":"address","name":"_wbnb","type":"address"}],"name":"setWBNB","outputs":[],"stateMutability":"nonpayable","type":"function"},{"inputs":[{"internalType":"address","name":"newOwner","type":"address"}],"name":"transferOwnership","outputs":[],"stateMutability":"nonpayable","type":"function"},{"inputs":[],"name":"wbnb","outputs":[{"internalType":"address","name":"","type":"address"}],"stateMutability":"view","type":"function"},{"stateMutability":"payable","type":"receive"}],"evm":{"bytecode":{"linkReferences":{},"object":"608034620000ff57601f62002c9438819003918201601f191683019291906001600160401b0384118385101762000104578160609284926040968752833981010312620000ff5762000051816200011a565b6200006c8362000064602085016200011a565b93016200011a565b61012c6004556113886005556001600160a01b03918216929091908315620000ee578116918215620000ee5716908115620000dd5760018060a01b0319928360005416176000558260015416176001558160025416176002553390600354161760035551612b649081620001308239f35b835163e6c4247b60e01b8152600490fd5b845163e6c4247b60e01b8152600490fd5b600080fd5b634e487b7160e01b600052604160045260246000fd5b51906001600160a01b0382168203620000ff5756fe6080604081815260049081361015610022575b505050361561002057600080fd5b005b600092833560e01c90816316c38b3c14611cc4575080631ce0ee5c14611b88578063216f68b214611b6157806322e988a414611ad0578063323f351714611951578063324fc30c146118e65780633dc4340a1461168d5780633e3b2b391461164f5780634325f2991461161057806343f68a491461157c578063584b5a38146114d75780635af39811146114405780635c975abb1461141c5780636231af9114611393578063653028e81461130557806376027930146111d55780637bcafc82146111ac5780638661a02a146111795780638d72647e146111505780638da5cb5b1461112757806392212ef7146110e5578063a09f99cc14610d06578063b203c4ce14610bbe578063c21ebd0714610b96578063c4aa739514610b73578063cab27a6414610ad0578063dd0c433114610916578063e302b66c1461082c578063e63ea408146106cb578063e8feca30146106ad578063e9ea09b3146105db578063f2fde38b14610538578063f4c0de8c1461024f5763f8316c9003610012573461024b57602036600319011261024b576101ba611d19565b6003546001600160a01b0391908216330361023d57811692831561022f57508284549280519260608452600d60608501526c3830b731b0b5b2a937baba32b960991b608085015284166020840152820152600080516020612b0f83398151915260a03392a26001600160a01b03191617815580f35b825163e6c4247b60e01b8152fd5b5050516282b42960e81b8152fd5b8280fd5b5082346105355761025f36611d2f565b90949160ff60065416610525576001600160a01b039081169182156105155786156105055785516370a0823160e01b808252308683015260209890918981602481895afa9081156104cc578a9089926104d6575b5089516323b872dd60e01b81523389820190815230602082015260408101949094529192829081906060015b03818b8a5af19081156104cc5788916104af575b501561049f57875191825230868301528882602481885afa801561045157879061046b575b61032292506123fc565b91821561045b578554875163095ea7b360e01b81529082166001600160a01b03168682019081526020810185905289908290819060400103818a895af1801561045157918795949392918692610424575b5088519461038086611db4565b6002865289368c88013761039386611e2a565b5280600154166103a286611e4d565b52815416926103d16103b5885442611e6d565b8a516338ed173960e01b81529889978896879533938701612449565b03925af19182156104195790816103ee936103f6575b5050611e4d565b519051908152f35b61041292503d8091833e61040a8183611e08565b810190611e90565b84806103e7565b8351903d90823e3d90fd5b610443908b3d8d1161044a575b61043b8183611e08565b810190611f49565b508a610373565b503d610431565b88513d89823e3d90fd5b865163162908e360e11b81528590fd5b508882813d8311610498575b6104818183611e08565b81010312610493576103229151610318565b600080fd5b503d610477565b87516312171d8360e31b81528690fd5b6104c691508a3d8c1161044a5761043b8183611e08565b8a6102f3565b89513d8a823e3d90fd5b809250813d83116104fe575b6104ec8183611e08565b810103126104935751896102df6102b3565b503d6104e2565b855163162908e360e11b81528490fd5b855163e6c4247b60e01b81528490fd5b84516313d0ff5960e31b81528390fd5b80fd5b503461024b57602036600319011261024b57610552611d19565b600354916001600160a01b0380841692338490036105cc57169384156105be5750808491519260608452600560608501526437bbb732b960d91b60808501526020840152820152600080516020612b0f83398151915260a03392a26001600160a01b0319161760035580f35b905163e6c4247b60e01b8152fd5b82516282b42960e81b81528690fd5b50903461024b57828260031936011261053557610666916105fa611d19565b9084519161060783611db4565b60028352853660208501376001546001600160a01b039190821661062a85611e2a565b528161063585611e4d565b9116905283541690855180958194829363d06ca61f60e01b8452602435908401528860248401526044830190611f0c565b03915afa9081156106a157906103ee918460209592610686575050611e4d565b61069a92503d8091833e61040a8183611e08565b38806103e7565b505051903d90823e3d90fd5b50903461024b578260031936011261024b5760209250549051908152f35b503461024b57606036600319011261024b576106e5611d19565b6001600160a01b036024358181169490939185850361049357604435938160035416330361081d57861561080d57169383908561077057508680808093895af161072d612409565b501561076257507ff24ef89f38eadc1bde50701ad6e4d6d11a2dc24f7cf834a486991f3883328504916020915b51908152a380f35b90516312171d8360e31b8152fd5b835163a9059cbb60e01b81526001600160a01b039091168382019081526020818101939093529091908290819060400103818a895af19081156108035787916107e5575b501561076257507ff24ef89f38eadc1bde50701ad6e4d6d11a2dc24f7cf834a486991f38833285049160209161075a565b6107fd915060203d811161044a5761043b8183611e08565b386107b4565b83513d89823e3d90fd5b835163e6c4247b60e01b81528390fd5b83516282b42960e81b81528390fd5b50903461024b578160031936011261024b576108c18361085661084d611d19565b60243590612a4d565b9284519061086382611db4565b600282528536602084013760025485906001600160a01b0390811661088785611e2a565b52806001541661089685611e4d565b52845416918751958694859384936307c0329d60e21b85528401528960248401526044830190611f0c565b03915afa90811561090957846108e0939495926108ee575b5050611e2a565b519082519182526020820152f35b61090292503d8091833e61040a8183611e08565b38806108d9565b50505051903d90823e3d90fd5b5082346105355761092636611d2f565b9060ff60069693965416610525576001600160a01b039586169182156105155781156105055785516323b872dd60e01b815233858201908152306020828101919091526040820185905298919089908290819060600103818a895af1908115610451578791610ab3575b5015610aa3578554875163095ea7b360e01b81529082166001600160a01b03168682019081526020810185905289908290819060400103818a895af1801561045157918795949392918692610a86575b508851946109ed86611dd0565b600386526060368c880137610a0186611e2a565b528060015416610a1086611e4d565b528060025416610a1f86611e5d565b5281541692610a4e610a32885442611e6d565b8a516318cbafe560e01b81529889978896879533938701612449565b03925af19182156104195790816103ee93610a6b575b5050611e5d565b610a7f92503d8091833e61040a8183611e08565b8480610a64565b610a9c908b3d8d1161044a5761043b8183611e08565b508a6109e0565b86516312171d8360e31b81528590fd5b610aca9150893d8b1161044a5761043b8183611e08565b89610990565b50903461024b57602036600319011261024b57610aeb611d19565b6003546001600160a01b0392919083163303610b65578216928315610b5857839060025493815193606085526060850152633bb1373160e11b608085015284166020840152820152600080516020612b0f83398151915260a03392a26001600160a01b0319161760025580f35b5163e6c4247b60e01b8152fd5b5082516282b42960e81b8152fd5b838234610b925781600319360112610b92576020906005549051908152f35b5080fd5b838234610b925781600319360112610b9257905490516001600160a01b039091168152602090f35b50903461024b578160031936011261024b57610bd8611d19565b90602435918215158303610493576001600160a01b0316908115610cf8575080845260209160078352610c19818587209060ff801983541691151516179055565b15610cbc578251610c2981611dec565b601d81527f57424e4220426f6e64696e672043757276652052656769737465726564000000838201529192905b8151916060835285845195866060860152815b878110610ca55750600080516020612b0f833981519152955081608088870101528401528201526080813394601f80199101168101030190a280f35b808701820151868201608001528892508101610c69565b8251610cc781611dec565b601e81527f484156454e20426f6e64696e672043757276652052656769737465726564000083820152919290610c56565b835163e6c4247b60e01b8152fd5b5091610d1136611d2f565b919060ff600654166110d5576001600160a01b03948286169283156110c65734156110b75782156110b757610d468382612a4d565b96885195610d5387611db4565b600287526020968a36898301378260025416610d6e82611e2a565b528260015416610d7d82611e4d565b5282895416918b516307c0329d60e21b81528b878201528c60248201528a8180610daa6044820187611f0c565b0381875afa9081156110ad57610ddb610dd3610de29493612710938f8092611092575050611e2a565b5192836123b6565b0490611e6d565b998a3410611082578b928a928c8893610e1b610dff865442611e6d565b9751637ff36ab560e01b815297889687958694309286016123c9565b03925af19081156110785791610e3d8892610e76948b9161105e575b50611e4d565b5193849160015416908a8d5180968195829463095ea7b360e01b84528b840160209093929193604081019460018060a01b031681520152565b03925af1801561105457611037575b50833b1561103357875190631adfd7bd60e31b825282820152826024820152858160448183885af18015610fd25790869161101b575b505086516370a0823160e01b815230828201528481602481875afa908115610fd2579083918791610fea575b5010610fdc57865163a9059cbb60e01b81523382820190815260208101849052859082908190604001038189885af1908115610fd2578691610fb5575b5015610fa757610f3486346123fc565b9485610f8c575b50507f1504c5c62e4f504e54290d01e06ac42130fff4d2712e5971c0ee4f42388c6bd5865180610f7f33948834846040919493926060820195825260208201520152565b0390a38351928352820152f35b80808088335af1610f9b612409565b5015610fa75780610f3b565b86516312171d8360e31b8152fd5b610fcc9150853d871161044a5761043b8183611e08565b38610f24565b88513d88823e3d90fd5b865163bb2875c360e01b8152fd5b809250868092503d8311611014575b6110038183611e08565b810103126104935782905138610ee7565b503d610ff9565b61102490611d8a565b61102f578438610ebb565b8480fd5b8580fd5b61104d90863d881161044a5761043b8183611e08565b5038610e85565b89513d89823e3d90fd5b61107291503d808d833e61040a8183611e08565b38610e37565b8a513d8a823e3d90fd5b8b5163bb2875c360e01b81528690fd5b6110a692503d8091833e61040a8183611e08565b388f6108d9565b8d513d8d823e3d90fd5b50865163162908e360e11b8152fd5b50865163e6c4247b60e01b8152fd5b85516313d0ff5960e31b81528590fd5b50823461053557506110f636611d2f565b9360ff6006939293541661111957509261111291602094612482565b9051908152f35b83516313d0ff5960e31b8152fd5b838234610b925781600319360112610b925760035490516001600160a01b039091168152602090f35b838234610b925781600319360112610b925760025490516001600160a01b039091168152602090f35b508234610535578160031936011261053557506111a0611197611d19565b60243590612792565b82519182526020820152f35b838234610b925781600319360112610b925760015490516001600160a01b039091168152602090f35b503461024b578060031936011261024b5767ffffffffffffffff91803583811161102f576112069036908301611d59565b926024948535908111611301576112209036908501611d59565b60035491956001600160a01b0392909190831633036112f2578082036112e257885b82811061124d578980f35b8361126161125c83868a612a29565b612a39565b16156112d25761127281838a612a29565b3580151581036112ce576112ab908561128f61125c85888c612a29565b168c526007602052868c209060ff801983541691151516179055565b60001981146112bc57600101611242565b634e487b7160e01b8a5260118752888afd5b8a80fd5b845163e6c4247b60e01b81528790fd5b835163162908e360e11b81528690fd5b83516282b42960e81b81528690fd5b8680fd5b503461024b57602036600319011261024b5761131f611d19565b6003546001600160a01b0391908216330361023d57811692831561022f5750826001549280519260608452600a6060850152693430bb32b72a37b5b2b760b11b608085015284166020840152820152600080516020612b0f83398151915260a03392a26001600160a01b0319161760015580f35b50903461024b57828260031936011261053557610666916113b2611d19565b908451916113bf83611db4565b60028352853660208501376113d383611e2a565b6001600160a01b03918216905260015481166113ee84611e4d565b5283541690855180958194829363d06ca61f60e01b8452602435908401528860248401526044830190611f0c565b838234610b925781600319360112610b925760209060ff6006541690519015158152f35b50903461024b57602036600319011261024b57600354813592906001600160a01b031633036114cb5782825491805192606084526015606085015274191959985d5b1d111958591b1a5b9953d9999cd95d605a1b608085015260208401528201527fc8004015853107e4cb5efa9fdfc530f3530f5f5d8a833a9d67e2efe39717d7f660a03392a25580f35b516282b42960e81b8152fd5b50903461024b57828260031936011261053557611541916114f6611d19565b9084519161150383611dd0565b6003835260603660208501376002546001600160a01b039190821661152785611e2a565b52816001541661153685611e4d565b528161063585611e5d565b03915afa9081156106a157906103ee918460209592611561575050611e5d565b61157592503d8091833e61040a8183611e08565b3880610a64565b503461024b57602036600319011261024b57600354823592906001600160a01b031633036116035750816005549180519260608452600e60608501526d6d6178536c69707061676542707360901b608085015260208401528201527fc8004015853107e4cb5efa9fdfc530f3530f5f5d8a833a9d67e2efe39717d7f660a03392a260055580f35b90516282b42960e81b8152fd5b5082816003193601126105355750611626611d19565b9160ff60065416611641575061111260209260243590611f61565b90516313d0ff5960e31b8152fd5b838234610b92576020366003190112610b925760209160ff9082906001600160a01b0361167a611d19565b1681526007855220541690519015158152f35b50919034610b925761169e36611d2f565b9491939060ff600654166118d7576001600160a01b03958587169586156118c75782156118b75760015485516323b872dd60e01b81523388820190815230602082810191909152604082018790529a928b91839185169082908a90829060600103925af180156118ad57928a92869261174d95611890575b506001541690878a8a519687958694859363095ea7b360e01b8552840160209093929193604081019460018060a01b031681520152565b03925af1801561188657611869575b50853b1561024b57835191631adfd7bd60e31b8352858301526024820152818160448183895af180156118505761185a575b5081516370a0823160e01b81523084820152928584602481885afa93841561185057908691839561181b575b50835163a9059cbb60e01b81523391810191825260208201869052949593949384918290859082906040015b03925af190811561041957506117fe575b5051908152f35b61181490843d861161044a5761043b8183611e08565b50386117f7565b828193929596503d8311611849575b6118348183611e08565b810103126104935751929185906117e66117ba565b503d61182a565b83513d84823e3d90fd5b61186390611d8a565b3861178e565b61187f90883d8a1161044a5761043b8183611e08565b503861175c565b85513d86823e3d90fd5b6118a690853d871161044a5761043b8183611e08565b5038611716565b87513d88823e3d90fd5b845163162908e360e11b81528690fd5b845163e6c4247b60e01b81528690fd5b5050516313d0ff5960e31b8152fd5b50903461024b5782826003193601126105355761154191611905611d19565b9084519161191283611dd0565b60038352606036602085013761192783611e2a565b6001600160a01b039182169052600154811661194284611e4d565b5280600254166113ee84611e5d565b50808391600319360112610b9257611967611d19565b60ff60065416611ac0576001600160a01b03908116908115611ab0573415611aa05792611a0193819584519161199c83611dd0565b60038352606036602085013780600254166119b684611e2a565b5280600154166119c584611e4d565b52846119d084611e5d565b52835416906119e0815442611e6d565b8651637ff36ab560e01b8152978894859384939133916024359086016123c9565b039134905af1928315611a96578460209594611a79575b5050611a2d611a2684611e5d565b5193611e4d565b517f77eb323217a4770c84b5f7f4076d557a6d1166bf8c746483d2a981d9c678e54d835180611a7087339534846040919493926060820195825260208201520152565b0390a351908152f35b611a8e9294503d8091833e61040a8183611e08565b918480611a18565b82513d86823e3d90fd5b825163162908e360e11b81528590fd5b825163e6c4247b60e01b81528590fd5b81516313d0ff5960e31b81528490fd5b503461024b578060031936011261024b5780611aea611d19565b8151634815327960e01b8152602480359582019590955293849182906001600160a01b03165afa918215611b575760209392611b27575051908152f35b81611b489293503d8411611b50575b611b408183611e08565b81019061277c565b5090386117f7565b503d611b36565b81513d85823e3d90fd5b508234610535578160031936011261053557506111a0611b7f611d19565b602435906128fc565b50823461053557611b9836611d2f565b9060ff60069693965416610525576001600160a01b039586169182156105155781156105055760015486516323b872dd60e01b815233868201908152306020828101919091526040820186905299928a91839185169082908b90829060600103925af1801561045157611ca7575b506001548654885163095ea7b360e01b81529083166001600160a01b03168782019081526020810186905290918a91839185169082908b90829060400103925af1801561045157918795949392918692611c8a575b50885194611c6886611db4565b6002865289368c8801378160015416611c8087611e2a565b526103a286611e4d565b611ca0908b3d8d1161044a5761043b8183611e08565b508a611c5b565b611cbd90893d8b1161044a5761043b8183611e08565b5088611c06565b8490843461024b57602036600319011261024b57803591821515809303611d15576003546001600160a01b03163303611d0a57505060ff80196006541691161760065580f35b6282b42960e81b8152fd5b8380fd5b600435906001600160a01b038216820361049357565b6060906003190112610493576004356001600160a01b038116810361049357906024359060443590565b9181601f840112156104935782359167ffffffffffffffff8311610493576020808501948460051b01011161049357565b67ffffffffffffffff8111611d9e57604052565b634e487b7160e01b600052604160045260246000fd5b6060810190811067ffffffffffffffff821117611d9e57604052565b6080810190811067ffffffffffffffff821117611d9e57604052565b6040810190811067ffffffffffffffff821117611d9e57604052565b90601f8019910116810190811067ffffffffffffffff821117611d9e57604052565b805115611e375760200190565b634e487b7160e01b600052603260045260246000fd5b805160011015611e375760400190565b805160021015611e375760600190565b91908201809211611e7a57565b634e487b7160e01b600052601160045260246000fd5b90602090818382031261049357825167ffffffffffffffff93848211610493570181601f82011215610493578051938411611d9e578360051b9060405194611eda85840187611e08565b85528380860192820101928311610493578301905b828210611efd575050505090565b81518152908301908301611eef565b90815180825260208080930193019160005b828110611f2c575050505090565b83516001600160a01b031685529381019392810192600101611f1e565b90816020910312610493575180151581036104935790565b6001600160a01b0380821691600083156123a4573415612392578381526020926007845260409260ff84842054166000146120eb575050833b15610535578151636cb504a560e11b815260048101869052818160248134895af18015611850579082916120d7575b505081516370a0823160e01b8152306004820152948386602481885afa9586156118505782966120a8575b50851061209757815163a9059cbb60e01b815233600482015260248101869052838160448185895af190811561185057829161207a575b5015612069579084918151933485528401528201527f77eb323217a4770c84b5f7f4076d557a6d1166bf8c746483d2a981d9c678e54d60603392a390565b81516312171d8360e31b8152600490fd5b6120919150843d861161044a5761043b8183611e08565b3861202b565b8151638199f5f360e01b8152600490fd5b9095508381813d83116120d0575b6120c08183611e08565b8101031261049357519438611ff4565b503d6120b6565b6120e090611d8a565b610535578038611fc9565b918394919451926120fb84611db4565b60028452843684860137856002541661211385611e2a565b52856001541661212285611e4d565b5285825416938261216360049661213a885442611e6d565b938951809581948293637ff36ab560e01b8452878d850152608060248501526084840190611f0c565b903060448401526064830152039134905af1908115612388579061218d9184916123745750611e4d565b5195861561236457600154865163095ea7b360e01b81526001600160a01b039093168684019081526020810189905285928492169082908690829060400103925af1801561233d57612347575b50853b15610535578351631adfd7bd60e31b815285848201528760248201528181604481838b5af1801561233d5761232e575b50908351966370a0823160e01b8852308489015281886024818a5afa9788156123245783986122f5575b5087106122e557835163a9059cbb60e01b815233848201908152602081018990529091908190839081906040010381868b5af19283156122da57926122bd575b50501561076257505134815260208101919091526040810183905233907f77eb323217a4770c84b5f7f4076d557a6d1166bf8c746483d2a981d9c678e54d90606090a390565b6122d39250803d1061044a5761043b8183611e08565b3880612277565b8551903d90823e3d90fd5b8351638199f5f360e01b81528390fd5b9097508181813d831161231d575b61230d8183611e08565b8101031261049357519638612237565b503d612303565b85513d85823e3d90fd5b61233790611d8a565b3861220d565b85513d84823e3d90fd5b61235d90833d851161044a5761043b8183611e08565b50386121da565b855163bb2875c360e01b81528590fd5b61107291503d8086833e61040a8183611e08565b86513d85823e3d90fd5b60405163162908e360e11b8152600490fd5b60405163e6c4247b60e01b8152600490fd5b81810292918115918404141715611e7a57565b906060926123e891969594968352608060208401526080830190611f0c565b6001600160a01b0390951660408201520152565b91908203918211611e7a57565b3d15612444573d9067ffffffffffffffff8211611d9e5760405191612438601f8201601f191660200184611e08565b82523d6000602084013e565b606090565b919260809361246e92979695978452602084015260a0604084015260a0830190611f0c565b6001600160a01b0390951660608201520152565b6001600160a01b03919082169060009082156123a457801561239257604080516323b872dd60e01b8152336004808301919091523060248301526044820184905295919491602091828160648189885af19081156118ad57869161275f575b501561274f57828552600782528585205460ff161561259c5750504791813b15611d15578391604483928751948593849263d79875eb60e01b84528b8401528b60248401525af180156125925790839161257e575b505061254290476123fc565b9384106125705780808086335af1612558612409565b501561256357505090565b516312171d8360e31b8152fd5b5051638199f5f360e01b8152fd5b61258790611d8a565b610b92578138612536565b84513d85823e3d90fd5b919092813b1561102f578491604483928851948593849263d79875eb60e01b84528c8401528160248401525af180156118865761273c575b5060015484516370a0823160e01b81523087820152919081168383602481845afa9283156126f357859361270d575b5082156126fd578454865163095ea7b360e01b81529083166001600160a01b0316888201908152602081018590529091859183919082908990829060400103925af180156126f357858895938195938b936126d6575b508880519561266787611db4565b600287523690870137806001541661267e86611e2a565b52806002541661268d86611e4d565b52815416926126a0610a32885442611e6d565b03925af19182156104195790816126bc93610686575050611e4d565b519283106126c957505090565b51638199f5f360e01b8152fd5b6126ec90863d881161044a5761043b8183611e08565b5038612659565b86513d87823e3d90fd5b855163bb2875c360e01b81528790fd5b9092508381813d8311612735575b6127258183611e08565b8101031261049357519138612603565b503d61271b565b61274890939193611d8a565b91386125d4565b85516312171d8360e31b81528790fd5b6127769150833d851161044a5761043b8183611e08565b386124e1565b9190826040910312610493576020825192015190565b6001600160a01b03908116600081815260076020526040808220549195949093909186919060ff16156128175750508290602482518094819363fb3dd95f60e01b835260048301525afa91821561280e5784926127f0575b50509190565b6128069250803d10611b5057611b408183611e08565b5038806127ea565b513d85823e3d90fd5b90919380939594602482518098819363fb3dd95f60e01b835260048301525afa9485156118505782956128d6575b5082516128a9929161285682611db4565b6002825284366020840137806001541661286f83611e2a565b52806002541661287e83611e4d565b528254168451808095819463d06ca61f60e01b83528a60048401528860248401526044830190611f0c565b03915afa9182156128cd5750846128c893949592610686575050611e4d565b519190565b513d86823e3d90fd5b6128a9929195506128f390843d8611611b5057611b408183611e08565b50949091612845565b6001600160a01b03908116600081815260076020526040808220549195949093909160ff1615612955575082906024825180948193634815327960e01b835260048301525afa91821561280e5784926127f05750509190565b948392956129be928295519161296a83611db4565b6002835285366020850137806002541661298384611e2a565b52806001541661299284611e4d565b5283541690855180958194829363d06ca61f60e01b845260048401528860248401526044830190611f0c565b03915afa9081156106a157916129de81926024948691612a155750611e4d565b5195815193848092634815327960e01b82528960048301525afa928315612a0a57926127f05750509190565b9051903d90823e3d90fd5b61107291503d8088833e61040a8183611e08565b9190811015611e375760051b0190565b356001600160a01b03811681036104935790565b60408051634815327960e01b81526004810184905291839190839060249082906001600160a01b03165afa918215612b0257600092612ae1575b50808210612a9457505090565b612aa0919250806123b6565b8115612acb570460c881029080820460c81481151715611e7a57612710612ac8920490611e6d565b90565b634e487b7160e01b600052601260045260246000fd5b612afa91925060403d8111611b5057611b408183611e08565b509038612a87565b6040513d6000823e3d90fdfe44573a89df583c0b1e16e6c22d41b4e39de1ca341d0a234b7117ccc2bf727dc4a264697066735822122099862fd7d37d5b71b22ed2a3b017a499bf700fef4220dd8fb6d182c120fe660864736f6c63430008140033","opcodes":"PUSH1 0x80 CALLVALUE PUSH3 0xFF JUMPI PUSH1 0x1F PUSH3 0x2C94 CODESIZE DUP2 SWAP1 SUB SWAP2 DUP3 ADD PUSH1 0x1F NOT AND DUP4 ADD SWAP3 SWAP2 SWAP1 PUSH1 0x1 PUSH1 0x1 PUSH1 0x40 SHL SUB DUP5 GT DUP4 DUP6 LT OR PUSH3 0x104 JUMPI DUP2 PUSH1 0x60 SWAP3 DUP5 SWAP3 PUSH1 0x40 SWAP7 DUP8 MSTORE DUP4 CODECOPY DUP2 ADD SUB SLT PUSH3 0xFF JUMPI PUSH3 0x51 DUP2 PUSH3 0x11A JUMP JUMPDEST PUSH3 0x6C DUP4 PUSH3 0x64 PUSH1 0x20 DUP6 ADD PUSH3 0x11A JUMP JUMPDEST SWAP4 ADD PUSH3 0x11A JUMP JUMPDEST PUSH2 0x12C PUSH1 0x4 SSTORE PUSH2 0x1388 PUSH1 0x5 SSTORE PUSH1 0x1 PUSH1 0x1 PUSH1 0xA0 SHL SUB SWAP2 DUP3 AND SWAP3 SWAP1 SWAP2 SWAP1 DUP4 ISZERO PUSH3 0xEE JUMPI DUP2 AND SWAP2 DUP3 ISZERO PUSH3 0xEE JUMPI AND SWAP1 DUP2 ISZERO PUSH3 0xDD JUMPI PUSH1 0x1 DUP1 PUSH1 0xA0 SHL SUB NOT SWAP3 DUP4 PUSH1 0x0 SLOAD AND OR PUSH1 0x0 SSTORE DUP3 PUSH1 0x1 SLOAD AND OR PUSH1 0x1 SSTORE DUP2 PUSH1 0x2 SLOAD AND OR PUSH1 0x2 SSTORE CALLER SWAP1 PUSH1 0x3 SLOAD AND OR PUSH1 0x3 SSTORE MLOAD PUSH2 0x2B64 SWAP1 DUP2 PUSH3 0x130 DUP3 CODECOPY RETURN JUMPDEST DUP4 MLOAD PUSH4 0xE6C4247B PUSH1 0xE0 SHL DUP2 MSTORE PUSH1 0x4 SWAP1 REVERT JUMPDEST DUP5 MLOAD PUSH4 0xE6C4247B PUSH1 0xE0 SHL DUP2 MSTORE PUSH1 0x4 SWAP1 REVERT JUMPDEST PUSH1 0x0 DUP1 REVERT JUMPDEST PUSH4 0x4E487B71 PUSH1 0xE0 SHL PUSH1 0x0 MSTORE PUSH1 0x41 PUSH1 0x4 MSTORE PUSH1 0x24 PUSH1 0x0 REVERT JUMPDEST MLOAD SWAP1 PUSH1 0x1 PUSH1 0x1 PUSH1 0xA0 SHL SUB DUP3 AND DUP3 SUB PUSH3 0xFF JUMPI JUMP INVALID PUSH1 0x80 PUSH1 0x40 DUP2 DUP2 MSTORE PUSH1 0x4 SWAP1 DUP2 CALLDATASIZE LT ISZERO PUSH2 0x22 JUMPI JUMPDEST POP POP POP CALLDATASIZE ISZERO PUSH2 0x20 JUMPI PUSH1 0x0 DUP1 REVERT JUMPDEST STOP JUMPDEST PUSH1 0x0 SWAP3 DUP4 CALLDATALOAD PUSH1 0xE0 SHR SWAP1 DUP2 PUSH4 0x16C38B3C EQ PUSH2 0x1CC4 JUMPI POP DUP1 PUSH4 0x1CE0EE5C EQ PUSH2 0x1B88 JUMPI DUP1 PUSH4 0x216F68B2 EQ PUSH2 0x1B61 JUMPI DUP1 PUSH4 0x22E988A4 EQ PUSH2 0x1AD0 JUMPI DUP1 PUSH4 0x323F3517 EQ PUSH2 0x1951 JUMPI DUP1 PUSH4 0x324FC30C EQ PUSH2 0x18E6 JUMPI DUP1 PUSH4 0x3DC4340A EQ PUSH2 0x168D JUMPI DUP1 PUSH4 0x3E3B2B39 EQ PUSH2 0x164F JUMPI DUP1 PUSH4 0x4325F299 EQ PUSH2 0x1610 JUMPI DUP1 PUSH4 0x43F68A49 EQ PUSH2 0x157C JUMPI DUP1 PUSH4 0x584B5A38 EQ PUSH2 0x14D7 JUMPI DUP1 PUSH4 0x5AF39811 EQ PUSH2 0x1440 JUMPI DUP1 PUSH4 0x5C975ABB EQ PUSH2 0x141C JUMPI DUP1 PUSH4 0x6231AF91 EQ PUSH2 0x1393 JUMPI DUP1 PUSH4 0x653028E8 EQ PUSH2 0x1305 JUMPI DUP1 PUSH4 0x76027930 EQ PUSH2 0x11D5 JUMPI DUP1 PUSH4 0x7BCAFC82 EQ PUSH2 0x11AC JUMPI DUP1 PUSH4 0x8661A02A EQ PUSH2 0x1179 JUMPI DUP1 PUSH4 0x8D72647E EQ PUSH2 0x1150 JUMPI DUP1 PUSH4 0x8DA5CB5B EQ PUSH2 0x1127 JUMPI DUP1 PUSH4 0x92212EF7 EQ PUSH2 0x10E5 JUMPI DUP1 PUSH4 0xA09F99CC EQ PUSH2 0xD06 JUMPI DUP1 PUSH4 0xB203C4CE EQ PUSH2 0xBBE JUMPI DUP1 PUSH4 0xC21EBD07 EQ PUSH2 0xB96 JUMPI DUP1 PUSH4 0xC4AA7395 EQ PUSH2 0xB73 JUMPI DUP1 PUSH4 0xCAB27A64 EQ PUSH2 0xAD0 JUMPI DUP1 PUSH4 0xDD0C4331 EQ PUSH2 0x916 JUMPI DUP1 PUSH4 0xE302B66C EQ PUSH2 0x82C JUMPI DUP1 PUSH4 0xE63EA408 EQ PUSH2 0x6CB JUMPI DUP1 PUSH4 0xE8FECA30 EQ PUSH2 0x6AD JUMPI DUP1 PUSH4 0xE9EA09B3 EQ PUSH2 0x5DB JUMPI DUP1 PUSH4 0xF2FDE38B EQ PUSH2 0x538 JUMPI DUP1 PUSH4 0xF4C0DE8C EQ PUSH2 0x24F JUMPI PUSH4 0xF8316C90 SUB PUSH2 0x12 JUMPI CALLVALUE PUSH2 0x24B JUMPI PUSH1 0x20 CALLDATASIZE PUSH1 0x3 NOT ADD SLT PUSH2 0x24B JUMPI PUSH2 0x1BA PUSH2 0x1D19 JUMP JUMPDEST PUSH1 0x3 SLOAD PUSH1 0x1 PUSH1 0x1 PUSH1 0xA0 SHL SUB SWAP2 SWAP1 DUP3 AND CALLER SUB PUSH2 0x23D JUMPI DUP2 AND SWAP3 DUP4 ISZERO PUSH2 0x22F JUMPI POP DUP3 DUP5 SLOAD SWAP3 DUP1 MLOAD SWAP3 PUSH1 0x60 DUP5 MSTORE PUSH1 0xD PUSH1 0x60 DUP6 ADD MSTORE PUSH13 0x3830B731B0B5B2A937BABA32B9 PUSH1 0x99 SHL PUSH1 0x80 DUP6 ADD MSTORE DUP5 AND PUSH1 0x20 DUP5 ADD MSTORE DUP3 ADD MSTORE PUSH1 0x0 DUP1 MLOAD PUSH1 0x20 PUSH2 0x2B0F DUP4 CODECOPY DUP2 MLOAD SWAP2 MSTORE PUSH1 0xA0 CALLER SWAP3 LOG2 PUSH1 0x1 PUSH1 0x1 PUSH1 0xA0 SHL SUB NOT AND OR DUP2 SSTORE DUP1 RETURN JUMPDEST DUP3 MLOAD PUSH4 0xE6C4247B PUSH1 0xE0 SHL DUP2 MSTORE REVERT JUMPDEST POP POP MLOAD PUSH3 0x82B429 PUSH1 0xE8 SHL DUP2 MSTORE REVERT JUMPDEST DUP3 DUP1 REVERT JUMPDEST POP DUP3 CALLVALUE PUSH2 0x535 JUMPI PUSH2 0x25F CALLDATASIZE PUSH2 0x1D2F JUMP JUMPDEST SWAP1 SWAP5 SWAP2 PUSH1 0xFF PUSH1 0x6 SLOAD AND PUSH2 0x525 JUMPI PUSH1 0x1 PUSH1 0x1 PUSH1 0xA0 SHL SUB SWAP1 DUP2 AND SWAP2 DUP3 ISZERO PUSH2 0x515 JUMPI DUP7 ISZERO PUSH2 0x505 JUMPI DUP6 MLOAD PUSH4 0x70A08231 PUSH1 0xE0 SHL DUP1 DUP3 MSTORE ADDRESS DUP7 DUP4 ADD MSTORE PUSH1 0x20 SWAP9 SWAP1 SWAP2 DUP10 DUP2 PUSH1 0x24 DUP2 DUP10 GAS STATICCALL SWAP1 DUP2 ISZERO PUSH2 0x4CC JUMPI DUP11 SWAP1 DUP10 SWAP3 PUSH2 0x4D6 JUMPI JUMPDEST POP DUP10 MLOAD PUSH4 0x23B872DD PUSH1 0xE0 SHL DUP2 MSTORE CALLER DUP10 DUP3 ADD SWAP1 DUP2 MSTORE ADDRESS PUSH1 0x20 DUP3 ADD MSTORE PUSH1 0x40 DUP2 ADD SWAP5 SWAP1 SWAP5 MSTORE SWAP2 SWAP3 DUP3 SWAP1 DUP2 SWAP1 PUSH1 0x60 ADD JUMPDEST SUB DUP2 DUP12 DUP11 GAS CALL SWAP1 DUP2 ISZERO PUSH2 0x4CC JUMPI DUP9 SWAP2 PUSH2 0x4AF JUMPI JUMPDEST POP ISZERO PUSH2 0x49F JUMPI DUP8 MLOAD SWAP2 DUP3 MSTORE ADDRESS DUP7 DUP4 ADD MSTORE DUP9 DUP3 PUSH1 0x24 DUP2 DUP9 GAS STATICCALL DUP1 ISZERO PUSH2 0x451 JUMPI DUP8 SWAP1 PUSH2 0x46B JUMPI JUMPDEST PUSH2 0x322 SWAP3 POP PUSH2 0x23FC JUMP JUMPDEST SWAP2 DUP3 ISZERO PUSH2 0x45B JUMPI DUP6 SLOAD DUP8 MLOAD PUSH4 0x95EA7B3 PUSH1 0xE0 SHL DUP2 MSTORE SWAP1 DUP3 AND PUSH1 0x1 PUSH1 0x1 PUSH1 0xA0 SHL SUB AND DUP7 DUP3 ADD SWAP1 DUP2 MSTORE PUSH1 0x20 DUP2 ADD DUP6 SWAP1 MSTORE DUP10 SWAP1 DUP3 SWAP1 DUP2 SWAP1 PUSH1 0x40 ADD SUB DUP2 DUP11 DUP10 GAS CALL DUP1 ISZERO PUSH2 0x451 JUMPI SWAP2 DUP8 SWAP6 SWAP5 SWAP4 SWAP3 SWAP2 DUP7 SWAP3 PUSH2 0x424 JUMPI JUMPDEST POP DUP9 MLOAD SWAP5 PUSH2 0x380 DUP7 PUSH2 0x1DB4 JUMP JUMPDEST PUSH1 0x2 DUP7 MSTORE DUP10 CALLDATASIZE DUP13 DUP9 ADD CALLDATACOPY PUSH2 0x393 DUP7 PUSH2 0x1E2A JUMP JUMPDEST MSTORE DUP1 PUSH1 0x1 SLOAD AND PUSH2 0x3A2 DUP7 PUSH2 0x1E4D JUMP JUMPDEST MSTORE DUP2 SLOAD AND SWAP3 PUSH2 0x3D1 PUSH2 0x3B5 DUP9 SLOAD TIMESTAMP PUSH2 0x1E6D JUMP JUMPDEST DUP11 MLOAD PUSH4 0x38ED1739 PUSH1 0xE0 SHL DUP2 MSTORE SWAP9 DUP10 SWAP8 DUP9 SWAP7 DUP8 SWAP6 CALLER SWAP4 DUP8 ADD PUSH2 0x2449 JUMP JUMPDEST SUB SWAP3 GAS CALL SWAP2 DUP3 ISZERO PUSH2 0x419 JUMPI SWAP1 DUP2 PUSH2 0x3EE SWAP4 PUSH2 0x3F6 JUMPI JUMPDEST POP POP PUSH2 0x1E4D JUMP JUMPDEST MLOAD SWAP1 MLOAD SWAP1 DUP2 MSTORE RETURN JUMPDEST PUSH2 0x412 SWAP3 POP RETURNDATASIZE DUP1 SWAP2 DUP4 RETURNDATACOPY PUSH2 0x40A DUP2 DUP4 PUSH2 0x1E08 JUMP JUMPDEST DUP2 ADD SWAP1 PUSH2 0x1E90 JUMP JUMPDEST DUP5 DUP1 PUSH2 0x3E7 JUMP JUMPDEST DUP4 MLOAD SWAP1 RETURNDATASIZE SWAP1 DUP3 RETURNDATACOPY RETURNDATASIZE SWAP1 REVERT JUMPDEST PUSH2 0x443 SWAP1 DUP12 RETURNDATASIZE DUP14 GT PUSH2 0x44A JUMPI JUMPDEST PUSH2 0x43B DUP2 DUP4 PUSH2 0x1E08 JUMP JUMPDEST DUP2 ADD SWAP1 PUSH2 0x1F49 JUMP JUMPDEST POP DUP11 PUSH2 0x373 JUMP JUMPDEST POP RETURNDATASIZE PUSH2 0x431 JUMP JUMPDEST DUP9 MLOAD RETURNDATASIZE DUP10 DUP3 RETURNDATACOPY RETURNDATASIZE SWAP1 REVERT JUMPDEST DUP7 MLOAD PUSH4 0x162908E3 PUSH1 0xE1 SHL DUP2 MSTORE DUP6 SWAP1 REVERT JUMPDEST POP DUP9 DUP3 DUP2 RETURNDATASIZE DUP4 GT PUSH2 0x498 JUMPI JUMPDEST PUSH2 0x481 DUP2 DUP4 PUSH2 0x1E08 JUMP JUMPDEST DUP2 ADD SUB SLT PUSH2 0x493 JUMPI PUSH2 0x322 SWAP2 MLOAD PUSH2 0x318 JUMP JUMPDEST PUSH1 0x0 DUP1 REVERT JUMPDEST POP RETURNDATASIZE PUSH2 0x477 JUMP JUMPDEST DUP8 MLOAD PUSH4 0x12171D83 PUSH1 0xE3 SHL DUP2 MSTORE DUP7 SWAP1 REVERT JUMPDEST PUSH2 0x4C6 SWAP2 POP DUP11 RETURNDATASIZE DUP13 GT PUSH2 0x44A JUMPI PUSH2 0x43B DUP2 DUP4 PUSH2 0x1E08 JUMP JUMPDEST DUP11 PUSH2 0x2F3 JUMP JUMPDEST DUP10 MLOAD RETURNDATASIZE DUP11 DUP3 RETURNDATACOPY RETURNDATASIZE SWAP1 REVERT JUMPDEST DUP1 SWAP3 POP DUP2 RETURNDATASIZE DUP4 GT PUSH2 0x4FE JUMPI JUMPDEST PUSH2 0x4EC DUP2 DUP4 PUSH2 0x1E08 JUMP JUMPDEST DUP2 ADD SUB SLT PUSH2 0x493 JUMPI MLOAD DUP10 PUSH2 0x2DF PUSH2 0x2B3 JUMP JUMPDEST POP RETURNDATASIZE PUSH2 0x4E2 JUMP JUMPDEST DUP6 MLOAD PUSH4 0x162908E3 PUSH1 0xE1 SHL DUP2 MSTORE DUP5 SWAP1 REVERT JUMPDEST DUP6 MLOAD PUSH4 0xE6C4247B PUSH1 0xE0 SHL DUP2 MSTORE DUP5 SWAP1 REVERT JUMPDEST DUP5 MLOAD PUSH4 0x13D0FF59 PUSH1 0xE3 SHL DUP2 MSTORE DUP4 SWAP1 REVERT JUMPDEST DUP1 REVERT JUMPDEST POP CALLVALUE PUSH2 0x24B JUMPI PUSH1 0x20 CALLDATASIZE PUSH1 0x3 NOT ADD SLT PUSH2 0x24B JUMPI PUSH2 0x552 PUSH2 0x1D19 JUMP JUMPDEST PUSH1 0x3 SLOAD SWAP2 PUSH1 0x1 PUSH1 0x1 PUSH1 0xA0 SHL SUB DUP1 DUP5 AND SWAP3 CALLER DUP5 SWAP1 SUB PUSH2 0x5CC JUMPI AND SWAP4 DUP5 ISZERO PUSH2 0x5BE JUMPI POP DUP1 DUP5 SWAP2 MLOAD SWAP3 PUSH1 0x60 DUP5 MSTORE PUSH1 0x5 PUSH1 0x60 DUP6 ADD MSTORE PUSH5 0x37BBB732B9 PUSH1 0xD9 SHL PUSH1 0x80 DUP6 ADD MSTORE PUSH1 0x20 DUP5 ADD MSTORE DUP3 ADD MSTORE PUSH1 0x0 DUP1 MLOAD PUSH1 0x20 PUSH2 0x2B0F DUP4 CODECOPY DUP2 MLOAD SWAP2 MSTORE PUSH1 0xA0 CALLER SWAP3 LOG2 PUSH1 0x1 PUSH1 0x1 PUSH1 0xA0 SHL SUB NOT AND OR PUSH1 0x3 SSTORE DUP1 RETURN JUMPDEST SWAP1 MLOAD PUSH4 0xE6C4247B PUSH1 0xE0 SHL DUP2 MSTORE REVERT JUMPDEST DUP3 MLOAD PUSH3 0x82B429 PUSH1 0xE8 SHL DUP2 MSTORE DUP7 SWAP1 REVERT JUMPDEST POP SWAP1 CALLVALUE PUSH2 0x24B JUMPI DUP3 DUP3 PUSH1 0x3 NOT CALLDATASIZE ADD SLT PUSH2 0x535 JUMPI PUSH2 0x666 SWAP2 PUSH2 0x5FA PUSH2 0x1D19 JUMP JUMPDEST SWAP1 DUP5 MLOAD SWAP2 PUSH2 0x607 DUP4 PUSH2 0x1DB4 JUMP JUMPDEST PUSH1 0x2 DUP4 MSTORE DUP6 CALLDATASIZE PUSH1 0x20 DUP6 ADD CALLDATACOPY PUSH1 0x1 SLOAD PUSH1 0x1 PUSH1 0x1 PUSH1 0xA0 SHL SUB SWAP2 SWAP1 DUP3 AND PUSH2 0x62A DUP6 PUSH2 0x1E2A JUMP JUMPDEST MSTORE DUP2 PUSH2 0x635 DUP6 PUSH2 0x1E4D JUMP JUMPDEST SWAP2 AND SWAP1 MSTORE DUP4 SLOAD AND SWAP1 DUP6 MLOAD DUP1 SWAP6 DUP2 SWAP5 DUP3 SWAP4 PUSH4 0xD06CA61F PUSH1 0xE0 SHL DUP5 MSTORE PUSH1 0x24 CALLDATALOAD SWAP1 DUP5 ADD MSTORE DUP9 PUSH1 0x24 DUP5 ADD MSTORE PUSH1 0x44 DUP4 ADD SWAP1 PUSH2 0x1F0C JUMP JUMPDEST SUB SWAP2 GAS STATICCALL SWAP1 DUP2 ISZERO PUSH2 0x6A1 JUMPI SWAP1 PUSH2 0x3EE SWAP2 DUP5 PUSH1 0x20 SWAP6 SWAP3 PUSH2 0x686 JUMPI POP POP PUSH2 0x1E4D JUMP JUMPDEST PUSH2 0x69A SWAP3 POP RETURNDATASIZE DUP1 SWAP2 DUP4 RETURNDATACOPY PUSH2 0x40A DUP2 DUP4 PUSH2 0x1E08 JUMP JUMPDEST CODESIZE DUP1 PUSH2 0x3E7 JUMP JUMPDEST POP POP MLOAD SWAP1 RETURNDATASIZE SWAP1 DUP3 RETURNDATACOPY RETURNDATASIZE SWAP1 REVERT JUMPDEST POP SWAP1 CALLVALUE PUSH2 0x24B JUMPI DUP3 PUSH1 0x3 NOT CALLDATASIZE ADD SLT PUSH2 0x24B JUMPI PUSH1 0x20 SWAP3 POP SLOAD SWAP1 MLOAD SWAP1 DUP2 MSTORE RETURN JUMPDEST POP CALLVALUE PUSH2 0x24B JUMPI PUSH1 0x60 CALLDATASIZE PUSH1 0x3 NOT ADD SLT PUSH2 0x24B JUMPI PUSH2 0x6E5 PUSH2 0x1D19 JUMP JUMPDEST PUSH1 0x1 PUSH1 0x1 PUSH1 0xA0 SHL SUB PUSH1 0x24 CALLDATALOAD DUP2 DUP2 AND SWAP5 SWAP1 SWAP4 SWAP2 DUP6 DUP6 SUB PUSH2 0x493 JUMPI PUSH1 0x44 CALLDATALOAD SWAP4 DUP2 PUSH1 0x3 SLOAD AND CALLER SUB PUSH2 0x81D JUMPI DUP7 ISZERO PUSH2 0x80D JUMPI AND SWAP4 DUP4 SWAP1 DUP6 PUSH2 0x770 JUMPI POP DUP7 DUP1 DUP1 DUP1 SWAP4 DUP10 GAS CALL PUSH2 0x72D PUSH2 0x2409 JUMP JUMPDEST POP ISZERO PUSH2 0x762 JUMPI POP PUSH32 0xF24EF89F38EADC1BDE50701AD6E4D6D11A2DC24F7CF834A486991F3883328504 SWAP2 PUSH1 0x20 SWAP2 JUMPDEST MLOAD SWAP1 DUP2 MSTORE LOG3 DUP1 RETURN JUMPDEST SWAP1 MLOAD PUSH4 0x12171D83 PUSH1 0xE3 SHL DUP2 MSTORE REVERT JUMPDEST DUP4 MLOAD PUSH4 0xA9059CBB PUSH1 0xE0 SHL DUP2 MSTORE PUSH1 0x1 PUSH1 0x1 PUSH1 0xA0 SHL SUB SWAP1 SWAP2 AND DUP4 DUP3 ADD SWAP1 DUP2 MSTORE PUSH1 0x20 DUP2 DUP2 ADD SWAP4 SWAP1 SWAP4 MSTORE SWAP1 SWAP2 SWAP1 DUP3 SWAP1 DUP2 SWAP1 PUSH1 0x40 ADD SUB DUP2 DUP11 DUP10 GAS CALL SWAP1 DUP2 ISZERO PUSH2 0x803 JUMPI DUP8 SWAP2 PUSH2 0x7E5 JUMPI JUMPDEST POP ISZERO PUSH2 0x762 JUMPI POP PUSH32 0xF24EF89F38EADC1BDE50701AD6E4D6D11A2DC24F7CF834A486991F3883328504 SWAP2 PUSH1 0x20 SWAP2 PUSH2 0x75A JUMP JUMPDEST PUSH2 0x7FD SWAP2 POP PUSH1 0x20 RETURNDATASIZE DUP2 GT PUSH2 0x44A JUMPI PUSH2 0x43B DUP2 DUP4 PUSH2 0x1E08 JUMP JUMPDEST CODESIZE PUSH2 0x7B4 JUMP JUMPDEST DUP4 MLOAD RETURNDATASIZE DUP10 DUP3 RETURNDATACOPY RETURNDATASIZE SWAP1 REVERT JUMPDEST DUP4 MLOAD PUSH4 0xE6C4247B PUSH1 0xE0 SHL DUP2 MSTORE DUP4 SWAP1 REVERT JUMPDEST DUP4 MLOAD PUSH3 0x82B429 PUSH1 0xE8 SHL DUP2 MSTORE DUP4 SWAP1 REVERT JUMPDEST POP SWAP1 CALLVALUE PUSH2 0x24B JUMPI DUP2 PUSH1 0x3 NOT CALLDATASIZE ADD SLT PUSH2 0x24B JUMPI PUSH2 0x8C1 DUP4 PUSH2 0x856 PUSH2 0x84D PUSH2 0x1D19 JUMP JUMPDEST PUSH1 0x24 CALLDATALOAD SWAP1 PUSH2 0x2A4D JUMP JUMPDEST SWAP3 DUP5 MLOAD SWAP1 PUSH2 0x863 DUP3 PUSH2 0x1DB4 JUMP JUMPDEST PUSH1 0x2 DUP3 MSTORE DUP6 CALLDATASIZE PUSH1 0x20 DUP5 ADD CALLDATACOPY PUSH1 0x2 SLOAD DUP6 SWAP1 PUSH1 0x1 PUSH1 0x1 PUSH1 0xA0 SHL SUB SWAP1 DUP2 AND PUSH2 0x887 DUP6 PUSH2 0x1E2A JUMP JUMPDEST MSTORE DUP1 PUSH1 0x1 SLOAD AND PUSH2 0x896 DUP6 PUSH2 0x1E4D JUMP JUMPDEST MSTORE DUP5 SLOAD AND SWAP2 DUP8 MLOAD SWAP6 DUP7 SWAP5 DUP6 SWAP4 DUP5 SWAP4 PUSH4 0x7C0329D PUSH1 0xE2 SHL DUP6 MSTORE DUP5 ADD MSTORE DUP10 PUSH1 0x24 DUP5 ADD MSTORE PUSH1 0x44 DUP4 ADD SWAP1 PUSH2 0x1F0C JUMP JUMPDEST SUB SWAP2 GAS STATICCALL SWAP1 DUP2 ISZERO PUSH2 0x909 JUMPI DUP5 PUSH2 0x8E0 SWAP4 SWAP5 SWAP6 SWAP3 PUSH2 0x8EE JUMPI JUMPDEST POP POP PUSH2 0x1E2A JUMP JUMPDEST MLOAD SWAP1 DUP3 MLOAD SWAP2 DUP3 MSTORE PUSH1 0x20 DUP3 ADD MSTORE RETURN JUMPDEST PUSH2 0x902 SWAP3 POP RETURNDATASIZE DUP1 SWAP2 DUP4 RETURNDATACOPY PUSH2 0x40A DUP2 DUP4 PUSH2 0x1E08 JUMP JUMPDEST CODESIZE DUP1 PUSH2 0x8D9 JUMP JUMPDEST POP POP POP MLOAD SWAP1 RETURNDATASIZE SWAP1 DUP3 RETURNDATACOPY RETURNDATASIZE SWAP1 REVERT JUMPDEST POP DUP3 CALLVALUE PUSH2 0x535 JUMPI PUSH2 0x926 CALLDATASIZE PUSH2 0x1D2F JUMP JUMPDEST SWAP1 PUSH1 0xFF PUSH1 0x6 SWAP7 SWAP4 SWAP7 SLOAD AND PUSH2 0x525 JUMPI PUSH1 0x1 PUSH1 0x1 PUSH1 0xA0 SHL SUB SWAP6 DUP7 AND SWAP2 DUP3 ISZERO PUSH2 0x515 JUMPI DUP2 ISZERO PUSH2 0x505 JUMPI DUP6 MLOAD PUSH4 0x23B872DD PUSH1 0xE0 SHL DUP2 MSTORE CALLER DUP6 DUP3 ADD SWAP1 DUP2 MSTORE ADDRESS PUSH1 0x20 DUP3 DUP2 ADD SWAP2 SWAP1 SWAP2 MSTORE PUSH1 0x40 DUP3 ADD DUP6 SWAP1 MSTORE SWAP9 SWAP2 SWAP1 DUP10 SWAP1 DUP3 SWAP1 DUP2 SWAP1 PUSH1 0x60 ADD SUB DUP2 DUP11 DUP10 GAS CALL SWAP1 DUP2 ISZERO PUSH2 0x451 JUMPI DUP8 SWAP2 PUSH2 0xAB3 JUMPI JUMPDEST POP ISZERO PUSH2 0xAA3 JUMPI DUP6 SLOAD DUP8 MLOAD PUSH4 0x95EA7B3 PUSH1 0xE0 SHL DUP2 MSTORE SWAP1 DUP3 AND PUSH1 0x1 PUSH1 0x1 PUSH1 0xA0 SHL SUB AND DUP7 DUP3 ADD SWAP1 DUP2 MSTORE PUSH1 0x20 DUP2 ADD DUP6 SWAP1 MSTORE DUP10 SWAP1 DUP3 SWAP1 DUP2 SWAP1 PUSH1 0x40 ADD SUB DUP2 DUP11 DUP10 GAS CALL DUP1 ISZERO PUSH2 0x451 JUMPI SWAP2 DUP8 SWAP6 SWAP5 SWAP4 SWAP3 SWAP2 DUP7 SWAP3 PUSH2 0xA86 JUMPI JUMPDEST POP DUP9 MLOAD SWAP5 PUSH2 0x9ED DUP7 PUSH2 0x1DD0 JUMP JUMPDEST PUSH1 0x3 DUP7 MSTORE PUSH1 0x60 CALLDATASIZE DUP13 DUP9 ADD CALLDATACOPY PUSH2 0xA01 DUP7 PUSH2 0x1E2A JUMP JUMPDEST MSTORE DUP1 PUSH1 0x1 SLOAD AND PUSH2 0xA10 DUP7 PUSH2 0x1E4D JUMP JUMPDEST MSTORE DUP1 PUSH1 0x2 SLOAD AND PUSH2 0xA1F DUP7 PUSH2 0x1E5D JUMP JUMPDEST MSTORE DUP2 SLOAD AND SWAP3 PUSH2 0xA4E PUSH2 0xA32 DUP9 SLOAD TIMESTAMP PUSH2 0x1E6D JUMP JUMPDEST DUP11 MLOAD PUSH4 0x18CBAFE5 PUSH1 0xE0 SHL DUP2 MSTORE SWAP9 DUP10 SWAP8 DUP9 SWAP7 DUP8 SWAP6 CALLER SWAP4 DUP8 ADD PUSH2 0x2449 JUMP JUMPDEST SUB SWAP3 GAS CALL SWAP2 DUP3 ISZERO PUSH2 0x419 JUMPI SWAP1 DUP2 PUSH2 0x3EE SWAP4 PUSH2 0xA6B JUMPI JUMPDEST POP POP PUSH2 0x1E5D JUMP JUMPDEST PUSH2 0xA7F SWAP3 POP RETURNDATASIZE DUP1 SWAP2 DUP4 RETURNDATACOPY PUSH2 0x40A DUP2 DUP4 PUSH2 0x1E08 JUMP JUMPDEST DUP5 DUP1 PUSH2 0xA64 JUMP JUMPDEST PUSH2 0xA9C SWAP1 DUP12 RETURNDATASIZE DUP14 GT PUSH2 0x44A JUMPI PUSH2 0x43B DUP2 DUP4 PUSH2 0x1E08 JUMP JUMPDEST POP DUP11 PUSH2 0x9E0 JUMP JUMPDEST DUP7 MLOAD PUSH4 0x12171D83 PUSH1 0xE3 SHL DUP2 MSTORE DUP6 SWAP1 REVERT JUMPDEST PUSH2 0xACA SWAP2 POP DUP10 RETURNDATASIZE DUP12 GT PUSH2 0x44A JUMPI PUSH2 0x43B DUP2 DUP4 PUSH2 0x1E08 JUMP JUMPDEST DUP10 PUSH2 0x990 JUMP JUMPDEST POP SWAP1 CALLVALUE PUSH2 0x24B JUMPI PUSH1 0x20 CALLDATASIZE PUSH1 0x3 NOT ADD SLT PUSH2 0x24B JUMPI PUSH2 0xAEB PUSH2 0x1D19 JUMP JUMPDEST PUSH1 0x3 SLOAD PUSH1 0x1 PUSH1 0x1 PUSH1 0xA0 SHL SUB SWAP3 SWAP2 SWAP1 DUP4 AND CALLER SUB PUSH2 0xB65 JUMPI DUP3 AND SWAP3 DUP4 ISZERO PUSH2 0xB58 JUMPI DUP4 SWAP1 PUSH1 0x2 SLOAD SWAP4 DUP2 MLOAD SWAP4 PUSH1 0x60 DUP6 MSTORE PUSH1 0x60 DUP6 ADD MSTORE PUSH4 0x3BB13731 PUSH1 0xE1 SHL PUSH1 0x80 DUP6 ADD MSTORE DUP5 AND PUSH1 0x20 DUP5 ADD MSTORE DUP3 ADD MSTORE PUSH1 0x0 DUP1 MLOAD PUSH1 0x20 PUSH2 0x2B0F DUP4 CODECOPY DUP2 MLOAD SWAP2 MSTORE PUSH1 0xA0 CALLER SWAP3 LOG2 PUSH1 0x1 PUSH1 0x1 PUSH1 0xA0 SHL SUB NOT AND OR PUSH1 0x2 SSTORE DUP1 RETURN JUMPDEST MLOAD PUSH4 0xE6C4247B PUSH1 0xE0 SHL DUP2 MSTORE REVERT JUMPDEST POP DUP3 MLOAD PUSH3 0x82B429 PUSH1 0xE8 SHL DUP2 MSTORE REVERT JUMPDEST DUP4 DUP3 CALLVALUE PUSH2 0xB92 JUMPI DUP2 PUSH1 0x3 NOT CALLDATASIZE ADD SLT PUSH2 0xB92 JUMPI PUSH1 0x20 SWAP1 PUSH1 0x5 SLOAD SWAP1 MLOAD SWAP1 DUP2 MSTORE RETURN JUMPDEST POP DUP1 REVERT JUMPDEST DUP4 DUP3 CALLVALUE PUSH2 0xB92 JUMPI DUP2 PUSH1 0x3 NOT CALLDATASIZE ADD SLT PUSH2 0xB92 JUMPI SWAP1 SLOAD SWAP1 MLOAD PUSH1 0x1 PUSH1 0x1 PUSH1 0xA0 SHL SUB SWAP1 SWAP2 AND DUP2 MSTORE PUSH1 0x20 SWAP1 RETURN JUMPDEST POP SWAP1 CALLVALUE PUSH2 0x24B JUMPI DUP2 PUSH1 0x3 NOT CALLDATASIZE ADD SLT PUSH2 0x24B JUMPI PUSH2 0xBD8 PUSH2 0x1D19 JUMP JUMPDEST SWAP1 PUSH1 0x24 CALLDATALOAD SWAP2 DUP3 ISZERO ISZERO DUP4 SUB PUSH2 0x493 JUMPI PUSH1 0x1 PUSH1 0x1 PUSH1 0xA0 SHL SUB AND SWAP1 DUP2 ISZERO PUSH2 0xCF8 JUMPI POP DUP1 DUP5 MSTORE PUSH1 0x20 SWAP2 PUSH1 0x7 DUP4 MSTORE PUSH2 0xC19 DUP2 DUP6 DUP8 KECCAK256 SWAP1 PUSH1 0xFF DUP1 NOT DUP4 SLOAD AND SWAP2 ISZERO ISZERO AND OR SWAP1 SSTORE JUMP JUMPDEST ISZERO PUSH2 0xCBC JUMPI DUP3 MLOAD PUSH2 0xC29 DUP2 PUSH2 0x1DEC JUMP JUMPDEST PUSH1 0x1D DUP2 MSTORE PUSH32 0x57424E4220426F6E64696E672043757276652052656769737465726564000000 DUP4 DUP3 ADD MSTORE SWAP2 SWAP3 SWAP1 JUMPDEST DUP2 MLOAD SWAP2 PUSH1 0x60 DUP4 MSTORE DUP6 DUP5 MLOAD SWAP6 DUP7 PUSH1 0x60 DUP7 ADD MSTORE DUP2 JUMPDEST DUP8 DUP2 LT PUSH2 0xCA5 JUMPI POP PUSH1 0x0 DUP1 MLOAD PUSH1 0x20 PUSH2 0x2B0F DUP4 CODECOPY DUP2 MLOAD SWAP2 MSTORE SWAP6 POP DUP2 PUSH1 0x80 DUP9 DUP8 ADD ADD MSTORE DUP5 ADD MSTORE DUP3 ADD MSTORE PUSH1 0x80 DUP2 CALLER SWAP5 PUSH1 0x1F DUP1 NOT SWAP2 ADD AND DUP2 ADD SUB ADD SWAP1 LOG2 DUP1 RETURN JUMPDEST DUP1 DUP8 ADD DUP3 ADD MLOAD DUP7 DUP3 ADD PUSH1 0x80 ADD MSTORE DUP9 SWAP3 POP DUP2 ADD PUSH2 0xC69 JUMP JUMPDEST DUP3 MLOAD PUSH2 0xCC7 DUP2 PUSH2 0x1DEC JUMP JUMPDEST PUSH1 0x1E DUP2 MSTORE PUSH32 0x484156454E20426F6E64696E6720437572766520526567697374657265640000 DUP4 DUP3 ADD MSTORE SWAP2 SWAP3 SWAP1 PUSH2 0xC56 JUMP JUMPDEST DUP4 MLOAD PUSH4 0xE6C4247B PUSH1 0xE0 SHL DUP2 MSTORE REVERT JUMPDEST POP SWAP2 PUSH2 0xD11 CALLDATASIZE PUSH2 0x1D2F JUMP JUMPDEST SWAP2 SWAP1 PUSH1 0xFF PUSH1 0x6 SLOAD AND PUSH2 0x10D5 JUMPI PUSH1 0x1 PUSH1 0x1 PUSH1 0xA0 SHL SUB SWAP5 DUP3 DUP7 AND SWAP3 DUP4 ISZERO PUSH2 0x10C6 JUMPI CALLVALUE ISZERO PUSH2 0x10B7 JUMPI DUP3 ISZERO PUSH2 0x10B7 JUMPI PUSH2 0xD46 DUP4 DUP3 PUSH2 0x2A4D JUMP JUMPDEST SWAP7 DUP9 MLOAD SWAP6 PUSH2 0xD53 DUP8 PUSH2 0x1DB4 JUMP JUMPDEST PUSH1 0x2 DUP8 MSTORE PUSH1 0x20 SWAP7 DUP11 CALLDATASIZE DUP10 DUP4 ADD CALLDATACOPY DUP3 PUSH1 0x2 SLOAD AND PUSH2 0xD6E DUP3 PUSH2 0x1E2A JUMP JUMPDEST MSTORE DUP3 PUSH1 0x1 SLOAD AND PUSH2 0xD7D DUP3 PUSH2 0x1E4D JUMP JUMPDEST MSTORE DUP3 DUP10 SLOAD AND SWAP2 DUP12 MLOAD PUSH4 0x7C0329D PUSH1 0xE2 SHL DUP2 MSTORE DUP12 DUP8 DUP3 ADD MSTORE DUP13 PUSH1 0x24 DUP3 ADD MSTORE DUP11 DUP2 DUP1 PUSH2 0xDAA PUSH1 0x44 DUP3 ADD DUP8 PUSH2 0x1F0C JUMP JUMPDEST SUB DUP2 DUP8 GAS STATICCALL SWAP1 DUP2 ISZERO PUSH2 0x10AD JUMPI PUSH2 0xDDB PUSH2 0xDD3 PUSH2 0xDE2 SWAP5 SWAP4 PUSH2 0x2710 SWAP4 DUP16 DUP1 SWAP3 PUSH2 0x1092 JUMPI POP POP PUSH2 0x1E2A JUMP JUMPDEST MLOAD SWAP3 DUP4 PUSH2 0x23B6 JUMP JUMPDEST DIV SWAP1 PUSH2 0x1E6D JUMP JUMPDEST SWAP10 DUP11 CALLVALUE LT PUSH2 0x1082 JUMPI DUP12 SWAP3 DUP11 SWAP3 DUP13 DUP9 SWAP4 PUSH2 0xE1B PUSH2 0xDFF DUP7 SLOAD TIMESTAMP PUSH2 0x1E6D JUMP JUMPDEST SWAP8 MLOAD PUSH4 0x7FF36AB5 PUSH1 0xE0 SHL DUP2 MSTORE SWAP8 DUP9 SWAP7 DUP8 SWAP6 DUP7 SWAP5 ADDRESS SWAP3 DUP7 ADD PUSH2 0x23C9 JUMP JUMPDEST SUB SWAP3 GAS CALL SWAP1 DUP2 ISZERO PUSH2 0x1078 JUMPI SWAP2 PUSH2 0xE3D DUP9 SWAP3 PUSH2 0xE76 SWAP5 DUP12 SWAP2 PUSH2 0x105E JUMPI JUMPDEST POP PUSH2 0x1E4D JUMP JUMPDEST MLOAD SWAP4 DUP5 SWAP2 PUSH1 0x1 SLOAD AND SWAP1 DUP11 DUP14 MLOAD DUP1 SWAP7 DUP2 SWAP6 DUP3 SWAP5 PUSH4 0x95EA7B3 PUSH1 0xE0 SHL DUP5 MSTORE DUP12 DUP5 ADD PUSH1 0x20 SWAP1 SWAP4 SWAP3 SWAP2 SWAP4 PUSH1 0x40 DUP2 ADD SWAP5 PUSH1 0x1 DUP1 PUSH1 0xA0 SHL SUB AND DUP2 MSTORE ADD MSTORE JUMP JUMPDEST SUB SWAP3 GAS CALL DUP1 ISZERO PUSH2 0x1054 JUMPI PUSH2 0x1037 JUMPI JUMPDEST POP DUP4 EXTCODESIZE ISZERO PUSH2 0x1033 JUMPI DUP8 MLOAD SWAP1 PUSH4 0x1ADFD7BD PUSH1 0xE3 SHL DUP3 MSTORE DUP3 DUP3 ADD MSTORE DUP3 PUSH1 0x24 DUP3 ADD MSTORE DUP6 DUP2 PUSH1 0x44 DUP2 DUP4 DUP9 GAS CALL DUP1 ISZERO PUSH2 0xFD2 JUMPI SWAP1 DUP7 SWAP2 PUSH2 0x101B JUMPI JUMPDEST POP POP DUP7 MLOAD PUSH4 0x70A08231 PUSH1 0xE0 SHL DUP2 MSTORE ADDRESS DUP3 DUP3 ADD MSTORE DUP5 DUP2 PUSH1 0x24 DUP2 DUP8 GAS STATICCALL SWAP1 DUP2 ISZERO PUSH2 0xFD2 JUMPI SWAP1 DUP4 SWAP2 DUP8 SWAP2 PUSH2 0xFEA JUMPI JUMPDEST POP LT PUSH2 0xFDC JUMPI DUP7 MLOAD PUSH4 0xA9059CBB PUSH1 0xE0 SHL DUP2 MSTORE CALLER DUP3 DUP3 ADD SWAP1 DUP2 MSTORE PUSH1 0x20 DUP2 ADD DUP5 SWAP1 MSTORE DUP6 SWAP1 DUP3 SWAP1 DUP2 SWAP1 PUSH1 0x40 ADD SUB DUP2 DUP10 DUP9 GAS CALL SWAP1 DUP2 ISZERO PUSH2 0xFD2 JUMPI DUP7 SWAP2 PUSH2 0xFB5 JUMPI JUMPDEST POP ISZERO PUSH2 0xFA7 JUMPI PUSH2 0xF34 DUP7 CALLVALUE PUSH2 0x23FC JUMP JUMPDEST SWAP5 DUP6 PUSH2 0xF8C JUMPI JUMPDEST POP POP PUSH32 0x1504C5C62E4F504E54290D01E06AC42130FFF4D2712E5971C0EE4F42388C6BD5 DUP7 MLOAD DUP1 PUSH2 0xF7F CALLER SWAP5 DUP9 CALLVALUE DUP5 PUSH1 0x40 SWAP2 SWAP5 SWAP4 SWAP3 PUSH1 0x60 DUP3 ADD SWAP6 DUP3 MSTORE PUSH1 0x20 DUP3 ADD MSTORE ADD MSTORE JUMP JUMPDEST SUB SWAP1 LOG3 DUP4 MLOAD SWAP3 DUP4 MSTORE DUP3 ADD MSTORE RETURN JUMPDEST DUP1 DUP1 DUP1 DUP9 CALLER GAS CALL PUSH2 0xF9B PUSH2 0x2409 JUMP JUMPDEST POP ISZERO PUSH2 0xFA7 JUMPI DUP1 PUSH2 0xF3B JUMP JUMPDEST DUP7 MLOAD PUSH4 0x12171D83 PUSH1 0xE3 SHL DUP2 MSTORE REVERT JUMPDEST PUSH2 0xFCC SWAP2 POP DUP6 RETURNDATASIZE DUP8 GT PUSH2 0x44A JUMPI PUSH2 0x43B DUP2 DUP4 PUSH2 0x1E08 JUMP JUMPDEST CODESIZE PUSH2 0xF24 JUMP JUMPDEST DUP9 MLOAD RETURNDATASIZE DUP9 DUP3 RETURNDATACOPY RETURNDATASIZE SWAP1 REVERT JUMPDEST DUP7 MLOAD PUSH4 0xBB2875C3 PUSH1 0xE0 SHL DUP2 MSTORE REVERT JUMPDEST DUP1 SWAP3 POP DUP7 DUP1 SWAP3 POP RETURNDATASIZE DUP4 GT PUSH2 0x1014 JUMPI JUMPDEST PUSH2 0x1003 DUP2 DUP4 PUSH2 0x1E08 JUMP JUMPDEST DUP2 ADD SUB SLT PUSH2 0x493 JUMPI DUP3 SWAP1 MLOAD CODESIZE PUSH2 0xEE7 JUMP JUMPDEST POP RETURNDATASIZE PUSH2 0xFF9 JUMP JUMPDEST PUSH2 0x1024 SWAP1 PUSH2 0x1D8A JUMP JUMPDEST PUSH2 0x102F JUMPI DUP5 CODESIZE PUSH2 0xEBB JUMP JUMPDEST DUP5 DUP1 REVERT JUMPDEST DUP6 DUP1 REVERT JUMPDEST PUSH2 0x104D SWAP1 DUP7 RETURNDATASIZE DUP9 GT PUSH2 0x44A JUMPI PUSH2 0x43B DUP2 DUP4 PUSH2 0x1E08 JUMP JUMPDEST POP CODESIZE PUSH2 0xE85 JUMP JUMPDEST DUP10 MLOAD RETURNDATASIZE DUP10 DUP3 RETURNDATACOPY RETURNDATASIZE SWAP1 REVERT JUMPDEST PUSH2 0x1072 SWAP2 POP RETURNDATASIZE DUP1 DUP14 DUP4 RETURNDATACOPY PUSH2 0x40A DUP2 DUP4 PUSH2 0x1E08 JUMP JUMPDEST CODESIZE PUSH2 0xE37 JUMP JUMPDEST DUP11 MLOAD RETURNDATASIZE DUP11 DUP3 RETURNDATACOPY RETURNDATASIZE SWAP1 REVERT JUMPDEST DUP12 MLOAD PUSH4 0xBB2875C3 PUSH1 0xE0 SHL DUP2 MSTORE DUP7 SWAP1 REVERT JUMPDEST PUSH2 0x10A6 SWAP3 POP RETURNDATASIZE DUP1 SWAP2 DUP4 RETURNDATACOPY PUSH2 0x40A DUP2 DUP4 PUSH2 0x1E08 JUMP JUMPDEST CODESIZE DUP16 PUSH2 0x8D9 JUMP JUMPDEST DUP14 MLOAD RETURNDATASIZE DUP14 DUP3 RETURNDATACOPY RETURNDATASIZE SWAP1 REVERT JUMPDEST POP DUP7 MLOAD PUSH4 0x162908E3 PUSH1 0xE1 SHL DUP2 MSTORE REVERT JUMPDEST POP DUP7 MLOAD PUSH4 0xE6C4247B PUSH1 0xE0 SHL DUP2 MSTORE REVERT JUMPDEST DUP6 MLOAD PUSH4 0x13D0FF59 PUSH1 0xE3 SHL DUP2 MSTORE DUP6 SWAP1 REVERT JUMPDEST POP DUP3 CALLVALUE PUSH2 0x535 JUMPI POP PUSH2 0x10F6 CALLDATASIZE PUSH2 0x1D2F JUMP JUMPDEST SWAP4 PUSH1 0xFF PUSH1 0x6 SWAP4 SWAP3 SWAP4 SLOAD AND PUSH2 0x1119 JUMPI POP SWAP3 PUSH2 0x1112 SWAP2 PUSH1 0x20 SWAP5 PUSH2 0x2482 JUMP JUMPDEST SWAP1 MLOAD SWAP1 DUP2 MSTORE RETURN JUMPDEST DUP4 MLOAD PUSH4 0x13D0FF59 PUSH1 0xE3 SHL DUP2 MSTORE REVERT JUMPDEST DUP4 DUP3 CALLVALUE PUSH2 0xB92 JUMPI DUP2 PUSH1 0x3 NOT CALLDATASIZE ADD SLT PUSH2 0xB92 JUMPI PUSH1 0x3 SLOAD SWAP1 MLOAD PUSH1 0x1 PUSH1 0x1 PUSH1 0xA0 SHL SUB SWAP1 SWAP2 AND DUP2 MSTORE PUSH1 0x20 SWAP1 RETURN JUMPDEST DUP4 DUP3 CALLVALUE PUSH2 0xB92 JUMPI DUP2 PUSH1 0x3 NOT CALLDATASIZE ADD SLT PUSH2 0xB92 JUMPI PUSH1 0x2 SLOAD SWAP1 MLOAD PUSH1 0x1 PUSH1 0x1 PUSH1 0xA0 SHL SUB SWAP1 SWAP2 AND DUP2 MSTORE PUSH1 0x20 SWAP1 RETURN JUMPDEST POP DUP3 CALLVALUE PUSH2 0x535 JUMPI DUP2 PUSH1 0x3 NOT CALLDATASIZE ADD SLT PUSH2 0x535 JUMPI POP PUSH2 0x11A0 PUSH2 0x1197 PUSH2 0x1D19 JUMP JUMPDEST PUSH1 0x24 CALLDATALOAD SWAP1 PUSH2 0x2792 JUMP JUMPDEST DUP3 MLOAD SWAP2 DUP3 MSTORE PUSH1 0x20 DUP3 ADD MSTORE RETURN JUMPDEST DUP4 DUP3 CALLVALUE PUSH2 0xB92 JUMPI DUP2 PUSH1 0x3 NOT CALLDATASIZE ADD SLT PUSH2 0xB92 JUMPI PUSH1 0x1 SLOAD SWAP1 MLOAD PUSH1 0x1 PUSH1 0x1 PUSH1 0xA0 SHL SUB SWAP1 SWAP2 AND DUP2 MSTORE PUSH1 0x20 SWAP1 RETURN JUMPDEST POP CALLVALUE PUSH2 0x24B JUMPI DUP1 PUSH1 0x3 NOT CALLDATASIZE ADD SLT PUSH2 0x24B JUMPI PUSH8 0xFFFFFFFFFFFFFFFF SWAP2 DUP1 CALLDATALOAD DUP4 DUP2 GT PUSH2 0x102F JUMPI PUSH2 0x1206 SWAP1 CALLDATASIZE SWAP1 DUP4 ADD PUSH2 0x1D59 JUMP JUMPDEST SWAP3 PUSH1 0x24 SWAP5 DUP6 CALLDATALOAD SWAP1 DUP2 GT PUSH2 0x1301 JUMPI PUSH2 0x1220 SWAP1 CALLDATASIZE SWAP1 DUP6 ADD PUSH2 0x1D59 JUMP JUMPDEST PUSH1 0x3 SLOAD SWAP2 SWAP6 PUSH1 0x1 PUSH1 0x1 PUSH1 0xA0 SHL SUB SWAP3 SWAP1 SWAP2 SWAP1 DUP4 AND CALLER SUB PUSH2 0x12F2 JUMPI DUP1 DUP3 SUB PUSH2 0x12E2 JUMPI DUP9 JUMPDEST DUP3 DUP2 LT PUSH2 0x124D JUMPI DUP10 DUP1 RETURN JUMPDEST DUP4 PUSH2 0x1261 PUSH2 0x125C DUP4 DUP7 DUP11 PUSH2 0x2A29 JUMP JUMPDEST PUSH2 0x2A39 JUMP JUMPDEST AND ISZERO PUSH2 0x12D2 JUMPI PUSH2 0x1272 DUP2 DUP4 DUP11 PUSH2 0x2A29 JUMP JUMPDEST CALLDATALOAD DUP1 ISZERO ISZERO DUP2 SUB PUSH2 0x12CE JUMPI PUSH2 0x12AB SWAP1 DUP6 PUSH2 0x128F PUSH2 0x125C DUP6 DUP9 DUP13 PUSH2 0x2A29 JUMP JUMPDEST AND DUP13 MSTORE PUSH1 0x7 PUSH1 0x20 MSTORE DUP7 DUP13 KECCAK256 SWAP1 PUSH1 0xFF DUP1 NOT DUP4 SLOAD AND SWAP2 ISZERO ISZERO AND OR SWAP1 SSTORE JUMP JUMPDEST PUSH1 0x0 NOT DUP2 EQ PUSH2 0x12BC JUMPI PUSH1 0x1 ADD PUSH2 0x1242 JUMP JUMPDEST PUSH4 0x4E487B71 PUSH1 0xE0 SHL DUP11 MSTORE PUSH1 0x11 DUP8 MSTORE DUP9 DUP11 REVERT JUMPDEST DUP11 DUP1 REVERT JUMPDEST DUP5 MLOAD PUSH4 0xE6C4247B PUSH1 0xE0 SHL DUP2 MSTORE DUP8 SWAP1 REVERT JUMPDEST DUP4 MLOAD PUSH4 0x162908E3 PUSH1 0xE1 SHL DUP2 MSTORE DUP7 SWAP1 REVERT JUMPDEST DUP4 MLOAD PUSH3 0x82B429 PUSH1 0xE8 SHL DUP2 MSTORE DUP7 SWAP1 REVERT JUMPDEST DUP7 DUP1 REVERT JUMPDEST POP CALLVALUE PUSH2 0x24B JUMPI PUSH1 0x20 CALLDATASIZE PUSH1 0x3 NOT ADD SLT PUSH2 0x24B JUMPI PUSH2 0x131F PUSH2 0x1D19 JUMP JUMPDEST PUSH1 0x3 SLOAD PUSH1 0x1 PUSH1 0x1 PUSH1 0xA0 SHL SUB SWAP2 SWAP1 DUP3 AND CALLER SUB PUSH2 0x23D JUMPI DUP2 AND SWAP3 DUP4 ISZERO PUSH2 0x22F JUMPI POP DUP3 PUSH1 0x1 SLOAD SWAP3 DUP1 MLOAD SWAP3 PUSH1 0x60 DUP5 MSTORE PUSH1 0xA PUSH1 0x60 DUP6 ADD MSTORE PUSH10 0x3430BB32B72A37B5B2B7 PUSH1 0xB1 SHL PUSH1 0x80 DUP6 ADD MSTORE DUP5 AND PUSH1 0x20 DUP5 ADD MSTORE DUP3 ADD MSTORE PUSH1 0x0 DUP1 MLOAD PUSH1 0x20 PUSH2 0x2B0F DUP4 CODECOPY DUP2 MLOAD SWAP2 MSTORE PUSH1 0xA0 CALLER SWAP3 LOG2 PUSH1 0x1 PUSH1 0x1 PUSH1 0xA0 SHL SUB NOT AND OR PUSH1 0x1 SSTORE DUP1 RETURN JUMPDEST POP SWAP1 CALLVALUE PUSH2 0x24B JUMPI DUP3 DUP3 PUSH1 0x3 NOT CALLDATASIZE ADD SLT PUSH2 0x535 JUMPI PUSH2 0x666 SWAP2 PUSH2 0x13B2 PUSH2 0x1D19 JUMP JUMPDEST SWAP1 DUP5 MLOAD SWAP2 PUSH2 0x13BF DUP4 PUSH2 0x1DB4 JUMP JUMPDEST PUSH1 0x2 DUP4 MSTORE DUP6 CALLDATASIZE PUSH1 0x20 DUP6 ADD CALLDATACOPY PUSH2 0x13D3 DUP4 PUSH2 0x1E2A JUMP JUMPDEST PUSH1 0x1 PUSH1 0x1 PUSH1 0xA0 SHL SUB SWAP2 DUP3 AND SWAP1 MSTORE PUSH1 0x1 SLOAD DUP2 AND PUSH2 0x13EE DUP5 PUSH2 0x1E4D JUMP JUMPDEST MSTORE DUP4 SLOAD AND SWAP1 DUP6 MLOAD DUP1 SWAP6 DUP2 SWAP5 DUP3 SWAP4 PUSH4 0xD06CA61F PUSH1 0xE0 SHL DUP5 MSTORE PUSH1 0x24 CALLDATALOAD SWAP1 DUP5 ADD MSTORE DUP9 PUSH1 0x24 DUP5 ADD MSTORE PUSH1 0x44 DUP4 ADD SWAP1 PUSH2 0x1F0C JUMP JUMPDEST DUP4 DUP3 CALLVALUE PUSH2 0xB92 JUMPI DUP2 PUSH1 0x3 NOT CALLDATASIZE ADD SLT PUSH2 0xB92 JUMPI PUSH1 0x20 SWAP1 PUSH1 0xFF PUSH1 0x6 SLOAD AND SWAP1 MLOAD SWAP1 ISZERO ISZERO DUP2 MSTORE RETURN JUMPDEST POP SWAP1 CALLVALUE PUSH2 0x24B JUMPI PUSH1 0x20 CALLDATASIZE PUSH1 0x3 NOT ADD SLT PUSH2 0x24B JUMPI PUSH1 0x3 SLOAD DUP2 CALLDATALOAD SWAP3 SWAP1 PUSH1 0x1 PUSH1 0x1 PUSH1 0xA0 SHL SUB AND CALLER SUB PUSH2 0x14CB JUMPI DUP3 DUP3 SLOAD SWAP2 DUP1 MLOAD SWAP3 PUSH1 0x60 DUP5 MSTORE PUSH1 0x15 PUSH1 0x60 DUP6 ADD MSTORE PUSH21 0x191959985D5B1D111958591B1A5B9953D9999CD95D PUSH1 0x5A SHL PUSH1 0x80 DUP6 ADD MSTORE PUSH1 0x20 DUP5 ADD MSTORE DUP3 ADD MSTORE PUSH32 0xC8004015853107E4CB5EFA9FDFC530F3530F5F5D8A833A9D67E2EFE39717D7F6 PUSH1 0xA0 CALLER SWAP3 LOG2 SSTORE DUP1 RETURN JUMPDEST MLOAD PUSH3 0x82B429 PUSH1 0xE8 SHL DUP2 MSTORE REVERT JUMPDEST POP SWAP1 CALLVALUE PUSH2 0x24B JUMPI DUP3 DUP3 PUSH1 0x3 NOT CALLDATASIZE ADD SLT PUSH2 0x535 JUMPI PUSH2 0x1541 SWAP2 PUSH2 0x14F6 PUSH2 0x1D19 JUMP JUMPDEST SWAP1 DUP5 MLOAD SWAP2 PUSH2 0x1503 DUP4 PUSH2 0x1DD0 JUMP JUMPDEST PUSH1 0x3 DUP4 MSTORE PUSH1 0x60 CALLDATASIZE PUSH1 0x20 DUP6 ADD CALLDATACOPY PUSH1 0x2 SLOAD PUSH1 0x1 PUSH1 0x1 PUSH1 0xA0 SHL SUB SWAP2 SWAP1 DUP3 AND PUSH2 0x1527 DUP6 PUSH2 0x1E2A JUMP JUMPDEST MSTORE DUP2 PUSH1 0x1 SLOAD AND PUSH2 0x1536 DUP6 PUSH2 0x1E4D JUMP JUMPDEST MSTORE DUP2 PUSH2 0x635 DUP6 PUSH2 0x1E5D JUMP JUMPDEST SUB SWAP2 GAS STATICCALL SWAP1 DUP2 ISZERO PUSH2 0x6A1 JUMPI SWAP1 PUSH2 0x3EE SWAP2 DUP5 PUSH1 0x20 SWAP6 SWAP3 PUSH2 0x1561 JUMPI POP POP PUSH2 0x1E5D JUMP JUMPDEST PUSH2 0x1575 SWAP3 POP RETURNDATASIZE DUP1 SWAP2 DUP4 RETURNDATACOPY PUSH2 0x40A DUP2 DUP4 PUSH2 0x1E08 JUMP JUMPDEST CODESIZE DUP1 PUSH2 0xA64 JUMP JUMPDEST POP CALLVALUE PUSH2 0x24B JUMPI PUSH1 0x20 CALLDATASIZE PUSH1 0x3 NOT ADD SLT PUSH2 0x24B JUMPI PUSH1 0x3 SLOAD DUP3 CALLDATALOAD SWAP3 SWAP1 PUSH1 0x1 PUSH1 0x1 PUSH1 0xA0 SHL SUB AND CALLER SUB PUSH2 0x1603 JUMPI POP DUP2 PUSH1 0x5 SLOAD SWAP2 DUP1 MLOAD SWAP3 PUSH1 0x60 DUP5 MSTORE PUSH1 0xE PUSH1 0x60 DUP6 ADD MSTORE PUSH14 0x6D6178536C697070616765427073 PUSH1 0x90 SHL PUSH1 0x80 DUP6 ADD MSTORE PUSH1 0x20 DUP5 ADD MSTORE DUP3 ADD MSTORE PUSH32 0xC8004015853107E4CB5EFA9FDFC530F3530F5F5D8A833A9D67E2EFE39717D7F6 PUSH1 0xA0 CALLER SWAP3 LOG2 PUSH1 0x5 SSTORE DUP1 RETURN JUMPDEST SWAP1 MLOAD PUSH3 0x82B429 PUSH1 0xE8 SHL DUP2 MSTORE REVERT JUMPDEST POP DUP3 DUP2 PUSH1 0x3 NOT CALLDATASIZE ADD SLT PUSH2 0x535 JUMPI POP PUSH2 0x1626 PUSH2 0x1D19 JUMP JUMPDEST SWAP2 PUSH1 0xFF PUSH1 0x6 SLOAD AND PUSH2 0x1641 JUMPI POP PUSH2 0x1112 PUSH1 0x20 SWAP3 PUSH1 0x24 CALLDATALOAD SWAP1 PUSH2 0x1F61 JUMP JUMPDEST SWAP1 MLOAD PUSH4 0x13D0FF59 PUSH1 0xE3 SHL DUP2 MSTORE REVERT JUMPDEST DUP4 DUP3 CALLVALUE PUSH2 0xB92 JUMPI PUSH1 0x20 CALLDATASIZE PUSH1 0x3 NOT ADD SLT PUSH2 0xB92 JUMPI PUSH1 0x20 SWAP2 PUSH1 0xFF SWAP1 DUP3 SWAP1 PUSH1 0x1 PUSH1 0x1 PUSH1 0xA0 SHL SUB PUSH2 0x167A PUSH2 0x1D19 JUMP JUMPDEST AND DUP2 MSTORE PUSH1 0x7 DUP6 MSTORE KECCAK256 SLOAD AND SWAP1 MLOAD SWAP1 ISZERO ISZERO DUP2 MSTORE RETURN JUMPDEST POP SWAP2 SWAP1 CALLVALUE PUSH2 0xB92 JUMPI PUSH2 0x169E CALLDATASIZE PUSH2 0x1D2F JUMP JUMPDEST SWAP5 SWAP2 SWAP4 SWAP1 PUSH1 0xFF PUSH1 0x6 SLOAD AND PUSH2 0x18D7 JUMPI PUSH1 0x1 PUSH1 0x1 PUSH1 0xA0 SHL SUB SWAP6 DUP6 DUP8 AND SWAP6 DUP7 ISZERO PUSH2 0x18C7 JUMPI DUP3 ISZERO PUSH2 0x18B7 JUMPI PUSH1 0x1 SLOAD DUP6 MLOAD PUSH4 0x23B872DD PUSH1 0xE0 SHL DUP2 MSTORE CALLER DUP9 DUP3 ADD SWAP1 DUP2 MSTORE ADDRESS PUSH1 0x20 DUP3 DUP2 ADD SWAP2 SWAP1 SWAP2 MSTORE PUSH1 0x40 DUP3 ADD DUP8 SWAP1 MSTORE SWAP11 SWAP3 DUP12 SWAP2 DUP4 SWAP2 DUP6 AND SWAP1 DUP3 SWAP1 DUP11 SWAP1 DUP3 SWAP1 PUSH1 0x60 ADD SUB SWAP3 GAS CALL DUP1 ISZERO PUSH2 0x18AD JUMPI SWAP3 DUP11 SWAP3 DUP7 SWAP3 PUSH2 0x174D SWAP6 PUSH2 0x1890 JUMPI JUMPDEST POP PUSH1 0x1 SLOAD AND SWAP1 DUP8 DUP11 DUP11 MLOAD SWAP7 DUP8 SWAP6 DUP7 SWAP5 DUP6 SWAP4 PUSH4 0x95EA7B3 PUSH1 0xE0 SHL DUP6 MSTORE DUP5 ADD PUSH1 0x20 SWAP1 SWAP4 SWAP3 SWAP2 SWAP4 PUSH1 0x40 DUP2 ADD SWAP5 PUSH1 0x1 DUP1 PUSH1 0xA0 SHL SUB AND DUP2 MSTORE ADD MSTORE JUMP JUMPDEST SUB SWAP3 GAS CALL DUP1 ISZERO PUSH2 0x1886 JUMPI PUSH2 0x1869 JUMPI JUMPDEST POP DUP6 EXTCODESIZE ISZERO PUSH2 0x24B JUMPI DUP4 MLOAD SWAP2 PUSH4 0x1ADFD7BD PUSH1 0xE3 SHL DUP4 MSTORE DUP6 DUP4 ADD MSTORE PUSH1 0x24 DUP3 ADD MSTORE DUP2 DUP2 PUSH1 0x44 DUP2 DUP4 DUP10 GAS CALL DUP1 ISZERO PUSH2 0x1850 JUMPI PUSH2 0x185A JUMPI JUMPDEST POP DUP2 MLOAD PUSH4 0x70A08231 PUSH1 0xE0 SHL DUP2 MSTORE ADDRESS DUP5 DUP3 ADD MSTORE SWAP3 DUP6 DUP5 PUSH1 0x24 DUP2 DUP9 GAS STATICCALL SWAP4 DUP5 ISZERO PUSH2 0x1850 JUMPI SWAP1 DUP7 SWAP2 DUP4 SWAP6 PUSH2 0x181B JUMPI JUMPDEST POP DUP4 MLOAD PUSH4 0xA9059CBB PUSH1 0xE0 SHL DUP2 MSTORE CALLER SWAP2 DUP2 ADD SWAP2 DUP3 MSTORE PUSH1 0x20 DUP3 ADD DUP7 SWAP1 MSTORE SWAP5 SWAP6 SWAP4 SWAP5 SWAP4 DUP5 SWAP2 DUP3 SWAP1 DUP6 SWAP1 DUP3 SWAP1 PUSH1 0x40 ADD JUMPDEST SUB SWAP3 GAS CALL SWAP1 DUP2 ISZERO PUSH2 0x419 JUMPI POP PUSH2 0x17FE JUMPI JUMPDEST POP MLOAD SWAP1 DUP2 MSTORE RETURN JUMPDEST PUSH2 0x1814 SWAP1 DUP5 RETURNDATASIZE DUP7 GT PUSH2 0x44A JUMPI PUSH2 0x43B DUP2 DUP4 PUSH2 0x1E08 JUMP JUMPDEST POP CODESIZE PUSH2 0x17F7 JUMP JUMPDEST DUP3 DUP2 SWAP4 SWAP3 SWAP6 SWAP7 POP RETURNDATASIZE DUP4 GT PUSH2 0x1849 JUMPI JUMPDEST PUSH2 0x1834 DUP2 DUP4 PUSH2 0x1E08 JUMP JUMPDEST DUP2 ADD SUB SLT PUSH2 0x493 JUMPI MLOAD SWAP3 SWAP2 DUP6 SWAP1 PUSH2 0x17E6 PUSH2 0x17BA JUMP JUMPDEST POP RETURNDATASIZE PUSH2 0x182A JUMP JUMPDEST DUP4 MLOAD RETURNDATASIZE DUP5 DUP3 RETURNDATACOPY RETURNDATASIZE SWAP1 REVERT JUMPDEST PUSH2 0x1863 SWAP1 PUSH2 0x1D8A JUMP JUMPDEST CODESIZE PUSH2 0x178E JUMP JUMPDEST PUSH2 0x187F SWAP1 DUP9 RETURNDATASIZE DUP11 GT PUSH2 0x44A JUMPI PUSH2 0x43B DUP2 DUP4 PUSH2 0x1E08 JUMP JUMPDEST POP CODESIZE PUSH2 0x175C JUMP JUMPDEST DUP6 MLOAD RETURNDATASIZE DUP7 DUP3 RETURNDATACOPY RETURNDATASIZE SWAP1 REVERT JUMPDEST PUSH2 0x18A6 SWAP1 DUP6 RETURNDATASIZE DUP8 GT PUSH2 0x44A JUMPI PUSH2 0x43B DUP2 DUP4 PUSH2 0x1E08 JUMP JUMPDEST POP CODESIZE PUSH2 0x1716 JUMP JUMPDEST DUP8 MLOAD RETURNDATASIZE DUP9 DUP3 RETURNDATACOPY RETURNDATASIZE SWAP1 REVERT JUMPDEST DUP5 MLOAD PUSH4 0x162908E3 PUSH1 0xE1 SHL DUP2 MSTORE DUP7 SWAP1 REVERT JUMPDEST DUP5 MLOAD PUSH4 0xE6C4247B PUSH1 0xE0 SHL DUP2 MSTORE DUP7 SWAP1 REVERT JUMPDEST POP POP MLOAD PUSH4 0x13D0FF59 PUSH1 0xE3 SHL DUP2 MSTORE REVERT JUMPDEST POP SWAP1 CALLVALUE PUSH2 0x24B JUMPI DUP3 DUP3 PUSH1 0x3 NOT CALLDATASIZE ADD SLT PUSH2 0x535 JUMPI PUSH2 0x1541 SWAP2 PUSH2 0x1905 PUSH2 0x1D19 JUMP JUMPDEST SWAP1 DUP5 MLOAD SWAP2 PUSH2 0x1912 DUP4 PUSH2 0x1DD0 JUMP JUMPDEST PUSH1 0x3 DUP4 MSTORE PUSH1 0x60 CALLDATASIZE PUSH1 0x20 DUP6 ADD CALLDATACOPY PUSH2 0x1927 DUP4 PUSH2 0x1E2A JUMP JUMPDEST PUSH1 0x1 PUSH1 0x1 PUSH1 0xA0 SHL SUB SWAP2 DUP3 AND SWAP1 MSTORE PUSH1 0x1 SLOAD DUP2 AND PUSH2 0x1942 DUP5 PUSH2 0x1E4D JUMP JUMPDEST MSTORE DUP1 PUSH1 0x2 SLOAD AND PUSH2 0x13EE DUP5 PUSH2 0x1E5D JUMP JUMPDEST POP DUP1 DUP4 SWAP2 PUSH1 0x3 NOT CALLDATASIZE ADD SLT PUSH2 0xB92 JUMPI PUSH2 0x1967 PUSH2 0x1D19 JUMP JUMPDEST PUSH1 0xFF PUSH1 0x6 SLOAD AND PUSH2 0x1AC0 JUMPI PUSH1 0x1 PUSH1 0x1 PUSH1 0xA0 SHL SUB SWAP1 DUP2 AND SWAP1 DUP2 ISZERO PUSH2 0x1AB0 JUMPI CALLVALUE ISZERO PUSH2 0x1AA0 JUMPI SWAP3 PUSH2 0x1A01 SWAP4 DUP2 SWAP6 DUP5 MLOAD SWAP2 PUSH2 0x199C DUP4 PUSH2 0x1DD0 JUMP JUMPDEST PUSH1 0x3 DUP4 MSTORE PUSH1 0x60 CALLDATASIZE PUSH1 0x20 DUP6 ADD CALLDATACOPY DUP1 PUSH1 0x2 SLOAD AND PUSH2 0x19B6 DUP5 PUSH2 0x1E2A JUMP JUMPDEST MSTORE DUP1 PUSH1 0x1 SLOAD AND PUSH2 0x19C5 DUP5 PUSH2 0x1E4D JUMP JUMPDEST MSTORE DUP5 PUSH2 0x19D0 DUP5 PUSH2 0x1E5D JUMP JUMPDEST MSTORE DUP4 SLOAD AND SWAP1 PUSH2 0x19E0 DUP2 SLOAD TIMESTAMP PUSH2 0x1E6D JUMP JUMPDEST DUP7 MLOAD PUSH4 0x7FF36AB5 PUSH1 0xE0 SHL DUP2 MSTORE SWAP8 DUP9 SWAP5 DUP6 SWAP4 DUP5 SWAP4 SWAP2 CALLER SWAP2 PUSH1 0x24 CALLDATALOAD SWAP1 DUP7 ADD PUSH2 0x23C9 JUMP JUMPDEST SUB SWAP2 CALLVALUE SWAP1 GAS CALL SWAP3 DUP4 ISZERO PUSH2 0x1A96 JUMPI DUP5 PUSH1 0x20 SWAP6 SWAP5 PUSH2 0x1A79 JUMPI JUMPDEST POP POP PUSH2 0x1A2D PUSH2 0x1A26 DUP5 PUSH2 0x1E5D JUMP JUMPDEST MLOAD SWAP4 PUSH2 0x1E4D JUMP JUMPDEST MLOAD PUSH32 0x77EB323217A4770C84B5F7F4076D557A6D1166BF8C746483D2A981D9C678E54D DUP4 MLOAD DUP1 PUSH2 0x1A70 DUP8 CALLER SWAP6 CALLVALUE DUP5 PUSH1 0x40 SWAP2 SWAP5 SWAP4 SWAP3 PUSH1 0x60 DUP3 ADD SWAP6 DUP3 MSTORE PUSH1 0x20 DUP3 ADD MSTORE ADD MSTORE JUMP JUMPDEST SUB SWAP1 LOG3 MLOAD SWAP1 DUP2 MSTORE RETURN JUMPDEST PUSH2 0x1A8E SWAP3 SWAP5 POP RETURNDATASIZE DUP1 SWAP2 DUP4 RETURNDATACOPY PUSH2 0x40A DUP2 DUP4 PUSH2 0x1E08 JUMP JUMPDEST SWAP2 DUP5 DUP1 PUSH2 0x1A18 JUMP JUMPDEST DUP3 MLOAD RETURNDATASIZE DUP7 DUP3 RETURNDATACOPY RETURNDATASIZE SWAP1 REVERT JUMPDEST DUP3 MLOAD PUSH4 0x162908E3 PUSH1 0xE1 SHL DUP2 MSTORE DUP6 SWAP1 REVERT JUMPDEST DUP3 MLOAD PUSH4 0xE6C4247B PUSH1 0xE0 SHL DUP2 MSTORE DUP6 SWAP1 REVERT JUMPDEST DUP2 MLOAD PUSH4 0x13D0FF59 PUSH1 0xE3 SHL DUP2 MSTORE DUP5 SWAP1 REVERT JUMPDEST POP CALLVALUE PUSH2 0x24B JUMPI DUP1 PUSH1 0x3 NOT CALLDATASIZE ADD SLT PUSH2 0x24B JUMPI DUP1 PUSH2 0x1AEA PUSH2 0x1D19 JUMP JUMPDEST DUP2 MLOAD PUSH4 0x48153279 PUSH1 0xE0 SHL DUP2 MSTORE PUSH1 0x24 DUP1 CALLDATALOAD SWAP6 DUP3 ADD SWAP6 SWAP1 SWAP6 MSTORE SWAP4 DUP5 SWAP2 DUP3 SWAP1 PUSH1 0x1 PUSH1 0x1 PUSH1 0xA0 SHL SUB AND GAS STATICCALL SWAP2 DUP3 ISZERO PUSH2 0x1B57 JUMPI PUSH1 0x20 SWAP4 SWAP3 PUSH2 0x1B27 JUMPI POP MLOAD SWAP1 DUP2 MSTORE RETURN JUMPDEST DUP2 PUSH2 0x1B48 SWAP3 SWAP4 POP RETURNDATASIZE DUP5 GT PUSH2 0x1B50 JUMPI JUMPDEST PUSH2 0x1B40 DUP2 DUP4 PUSH2 0x1E08 JUMP JUMPDEST DUP2 ADD SWAP1 PUSH2 0x277C JUMP JUMPDEST POP SWAP1 CODESIZE PUSH2 0x17F7 JUMP JUMPDEST POP RETURNDATASIZE PUSH2 0x1B36 JUMP JUMPDEST DUP2 MLOAD RETURNDATASIZE DUP6 DUP3 RETURNDATACOPY RETURNDATASIZE SWAP1 REVERT JUMPDEST POP DUP3 CALLVALUE PUSH2 0x535 JUMPI DUP2 PUSH1 0x3 NOT CALLDATASIZE ADD SLT PUSH2 0x535 JUMPI POP PUSH2 0x11A0 PUSH2 0x1B7F PUSH2 0x1D19 JUMP JUMPDEST PUSH1 0x24 CALLDATALOAD SWAP1 PUSH2 0x28FC JUMP JUMPDEST POP DUP3 CALLVALUE PUSH2 0x535 JUMPI PUSH2 0x1B98 CALLDATASIZE PUSH2 0x1D2F JUMP JUMPDEST SWAP1 PUSH1 0xFF PUSH1 0x6 SWAP7 SWAP4 SWAP7 SLOAD AND PUSH2 0x525 JUMPI PUSH1 0x1 PUSH1 0x1 PUSH1 0xA0 SHL SUB SWAP6 DUP7 AND SWAP2 DUP3 ISZERO PUSH2 0x515 JUMPI DUP2 ISZERO PUSH2 0x505 JUMPI PUSH1 0x1 SLOAD DUP7 MLOAD PUSH4 0x23B872DD PUSH1 0xE0 SHL DUP2 MSTORE CALLER DUP7 DUP3 ADD SWAP1 DUP2 MSTORE ADDRESS PUSH1 0x20 DUP3 DUP2 ADD SWAP2 SWAP1 SWAP2 MSTORE PUSH1 0x40 DUP3 ADD DUP7 SWAP1 MSTORE SWAP10 SWAP3 DUP11 SWAP2 DUP4 SWAP2 DUP6 AND SWAP1 DUP3 SWAP1 DUP12 SWAP1 DUP3 SWAP1 PUSH1 0x60 ADD SUB SWAP3 GAS CALL DUP1 ISZERO PUSH2 0x451 JUMPI PUSH2 0x1CA7 JUMPI JUMPDEST POP PUSH1 0x1 SLOAD DUP7 SLOAD DUP9 MLOAD PUSH4 0x95EA7B3 PUSH1 0xE0 SHL DUP2 MSTORE SWAP1 DUP4 AND PUSH1 0x1 PUSH1 0x1 PUSH1 0xA0 SHL SUB AND DUP8 DUP3 ADD SWAP1 DUP2 MSTORE PUSH1 0x20 DUP2 ADD DUP7 SWAP1 MSTORE SWAP1 SWAP2 DUP11 SWAP2 DUP4 SWAP2 DUP6 AND SWAP1 DUP3 SWAP1 DUP12 SWAP1 DUP3 SWAP1 PUSH1 0x40 ADD SUB SWAP3 GAS CALL DUP1 ISZERO PUSH2 0x451 JUMPI SWAP2 DUP8 SWAP6 SWAP5 SWAP4 SWAP3 SWAP2 DUP7 SWAP3 PUSH2 0x1C8A JUMPI JUMPDEST POP DUP9 MLOAD SWAP5 PUSH2 0x1C68 DUP7 PUSH2 0x1DB4 JUMP JUMPDEST PUSH1 0x2 DUP7 MSTORE DUP10 CALLDATASIZE DUP13 DUP9 ADD CALLDATACOPY DUP2 PUSH1 0x1 SLOAD AND PUSH2 0x1C80 DUP8 PUSH2 0x1E2A JUMP JUMPDEST MSTORE PUSH2 0x3A2 DUP7 PUSH2 0x1E4D JUMP JUMPDEST PUSH2 0x1CA0 SWAP1 DUP12 RETURNDATASIZE DUP14 GT PUSH2 0x44A JUMPI PUSH2 0x43B DUP2 DUP4 PUSH2 0x1E08 JUMP JUMPDEST POP DUP11 PUSH2 0x1C5B JUMP JUMPDEST PUSH2 0x1CBD SWAP1 DUP10 RETURNDATASIZE DUP12 GT PUSH2 0x44A JUMPI PUSH2 0x43B DUP2 DUP4 PUSH2 0x1E08 JUMP JUMPDEST POP DUP9 PUSH2 0x1C06 JUMP JUMPDEST DUP5 SWAP1 DUP5 CALLVALUE PUSH2 0x24B JUMPI PUSH1 0x20 CALLDATASIZE PUSH1 0x3 NOT ADD SLT PUSH2 0x24B JUMPI DUP1 CALLDATALOAD SWAP2 DUP3 ISZERO ISZERO DUP1 SWAP4 SUB PUSH2 0x1D15 JUMPI PUSH1 0x3 SLOAD PUSH1 0x1 PUSH1 0x1 PUSH1 0xA0 SHL SUB AND CALLER SUB PUSH2 0x1D0A JUMPI POP POP PUSH1 0xFF DUP1 NOT PUSH1 0x6 SLOAD AND SWAP2 AND OR PUSH1 0x6 SSTORE DUP1 RETURN JUMPDEST PUSH3 0x82B429 PUSH1 0xE8 SHL DUP2 MSTORE REVERT JUMPDEST DUP4 DUP1 REVERT JUMPDEST PUSH1 0x4 CALLDATALOAD SWAP1 PUSH1 0x1 PUSH1 0x1 PUSH1 0xA0 SHL SUB DUP3 AND DUP3 SUB PUSH2 0x493 JUMPI JUMP JUMPDEST PUSH1 0x60 SWAP1 PUSH1 0x3 NOT ADD SLT PUSH2 0x493 JUMPI PUSH1 0x4 CALLDATALOAD PUSH1 0x1 PUSH1 0x1 PUSH1 0xA0 SHL SUB DUP2 AND DUP2 SUB PUSH2 0x493 JUMPI SWAP1 PUSH1 0x24 CALLDATALOAD SWAP1 PUSH1 0x44 CALLDATALOAD SWAP1 JUMP JUMPDEST SWAP2 DUP2 PUSH1 0x1F DUP5 ADD SLT ISZERO PUSH2 0x493 JUMPI DUP3 CALLDATALOAD SWAP2 PUSH8 0xFFFFFFFFFFFFFFFF DUP4 GT PUSH2 0x493 JUMPI PUSH1 0x20 DUP1 DUP6 ADD SWAP5 DUP5 PUSH1 0x5 SHL ADD ADD GT PUSH2 0x493 JUMPI JUMP JUMPDEST PUSH8 0xFFFFFFFFFFFFFFFF DUP2 GT PUSH2 0x1D9E JUMPI PUSH1 0x40 MSTORE JUMP JUMPDEST PUSH4 0x4E487B71 PUSH1 0xE0 SHL PUSH1 0x0 MSTORE PUSH1 0x41 PUSH1 0x4 MSTORE PUSH1 0x24 PUSH1 0x0 REVERT JUMPDEST PUSH1 0x60 DUP2 ADD SWAP1 DUP2 LT PUSH8 0xFFFFFFFFFFFFFFFF DUP3 GT OR PUSH2 0x1D9E JUMPI PUSH1 0x40 MSTORE JUMP JUMPDEST PUSH1 0x80 DUP2 ADD SWAP1 DUP2 LT PUSH8 0xFFFFFFFFFFFFFFFF DUP3 GT OR PUSH2 0x1D9E JUMPI PUSH1 0x40 MSTORE JUMP JUMPDEST PUSH1 0x40 DUP2 ADD SWAP1 DUP2 LT PUSH8 0xFFFFFFFFFFFFFFFF DUP3 GT OR PUSH2 0x1D9E JUMPI PUSH1 0x40 MSTORE JUMP JUMPDEST SWAP1 PUSH1 0x1F DUP1 NOT SWAP2 ADD AND DUP2 ADD SWAP1 DUP2 LT PUSH8 0xFFFFFFFFFFFFFFFF DUP3 GT OR PUSH2 0x1D9E JUMPI PUSH1 0x40 MSTORE JUMP JUMPDEST DUP1 MLOAD ISZERO PUSH2 0x1E37 JUMPI PUSH1 0x20 ADD SWAP1 JUMP JUMPDEST PUSH4 0x4E487B71 PUSH1 0xE0 SHL PUSH1 0x0 MSTORE PUSH1 0x32 PUSH1 0x4 MSTORE PUSH1 0x24 PUSH1 0x0 REVERT JUMPDEST DUP1 MLOAD PUSH1 0x1 LT ISZERO PUSH2 0x1E37 JUMPI PUSH1 0x40 ADD SWAP1 JUMP JUMPDEST DUP1 MLOAD PUSH1 0x2 LT ISZERO PUSH2 0x1E37 JUMPI PUSH1 0x60 ADD SWAP1 JUMP JUMPDEST SWAP2 SWAP1 DUP3 ADD DUP1 SWAP3 GT PUSH2 0x1E7A JUMPI JUMP JUMPDEST PUSH4 0x4E487B71 PUSH1 0xE0 SHL PUSH1 0x0 MSTORE PUSH1 0x11 PUSH1 0x4 MSTORE PUSH1 0x24 PUSH1 0x0 REVERT JUMPDEST SWAP1 PUSH1 0x20 SWAP1 DUP2 DUP4 DUP3 SUB SLT PUSH2 0x493 JUMPI DUP3 MLOAD PUSH8 0xFFFFFFFFFFFFFFFF SWAP4 DUP5 DUP3 GT PUSH2 0x493 JUMPI ADD DUP2 PUSH1 0x1F DUP3 ADD SLT ISZERO PUSH2 0x493 JUMPI DUP1 MLOAD SWAP4 DUP5 GT PUSH2 0x1D9E JUMPI DUP4 PUSH1 0x5 SHL SWAP1 PUSH1 0x40 MLOAD SWAP5 PUSH2 0x1EDA DUP6 DUP5 ADD DUP8 PUSH2 0x1E08 JUMP JUMPDEST DUP6 MSTORE DUP4 DUP1 DUP7 ADD SWAP3 DUP3 ADD ADD SWAP3 DUP4 GT PUSH2 0x493 JUMPI DUP4 ADD SWAP1 JUMPDEST DUP3 DUP3 LT PUSH2 0x1EFD JUMPI POP POP POP POP SWAP1 JUMP JUMPDEST DUP2 MLOAD DUP2 MSTORE SWAP1 DUP4 ADD SWAP1 DUP4 ADD PUSH2 0x1EEF JUMP JUMPDEST SWAP1 DUP2 MLOAD DUP1 DUP3 MSTORE PUSH1 0x20 DUP1 DUP1 SWAP4 ADD SWAP4 ADD SWAP2 PUSH1 0x0 JUMPDEST DUP3 DUP2 LT PUSH2 0x1F2C JUMPI POP POP POP POP SWAP1 JUMP JUMPDEST DUP4 MLOAD PUSH1 0x1 PUSH1 0x1 PUSH1 0xA0 SHL SUB AND DUP6 MSTORE SWAP4 DUP2 ADD SWAP4 SWAP3 DUP2 ADD SWAP3 PUSH1 0x1 ADD PUSH2 0x1F1E JUMP JUMPDEST SWAP1 DUP2 PUSH1 0x20 SWAP2 SUB SLT PUSH2 0x493 JUMPI MLOAD DUP1 ISZERO ISZERO DUP2 SUB PUSH2 0x493 JUMPI SWAP1 JUMP JUMPDEST PUSH1 0x1 PUSH1 0x1 PUSH1 0xA0 SHL SUB DUP1 DUP3 AND SWAP2 PUSH1 0x0 DUP4 ISZERO PUSH2 0x23A4 JUMPI CALLVALUE ISZERO PUSH2 0x2392 JUMPI DUP4 DUP2 MSTORE PUSH1 0x20 SWAP3 PUSH1 0x7 DUP5 MSTORE PUSH1 0x40 SWAP3 PUSH1 0xFF DUP5 DUP5 KECCAK256 SLOAD AND PUSH1 0x0 EQ PUSH2 0x20EB JUMPI POP POP DUP4 EXTCODESIZE ISZERO PUSH2 0x535 JUMPI DUP2 MLOAD PUSH4 0x6CB504A5 PUSH1 0xE1 SHL DUP2 MSTORE PUSH1 0x4 DUP2 ADD DUP7 SWAP1 MSTORE DUP2 DUP2 PUSH1 0x24 DUP2 CALLVALUE DUP10 GAS CALL DUP1 ISZERO PUSH2 0x1850 JUMPI SWAP1 DUP3 SWAP2 PUSH2 0x20D7 JUMPI JUMPDEST POP POP DUP2 MLOAD PUSH4 0x70A08231 PUSH1 0xE0 SHL DUP2 MSTORE ADDRESS PUSH1 0x4 DUP3 ADD MSTORE SWAP5 DUP4 DUP7 PUSH1 0x24 DUP2 DUP9 GAS STATICCALL SWAP6 DUP7 ISZERO PUSH2 0x1850 JUMPI DUP3 SWAP7 PUSH2 0x20A8 JUMPI JUMPDEST POP DUP6 LT PUSH2 0x2097 JUMPI DUP2 MLOAD PUSH4 0xA9059CBB PUSH1 0xE0 SHL DUP2 MSTORE CALLER PUSH1 0x4 DUP3 ADD MSTORE PUSH1 0x24 DUP2 ADD DUP7 SWAP1 MSTORE DUP4 DUP2 PUSH1 0x44 DUP2 DUP6 DUP10 GAS CALL SWAP1 DUP2 ISZERO PUSH2 0x1850 JUMPI DUP3 SWAP2 PUSH2 0x207A JUMPI JUMPDEST POP ISZERO PUSH2 0x2069 JUMPI SWAP1 DUP5 SWAP2 DUP2 MLOAD SWAP4 CALLVALUE DUP6 MSTORE DUP5 ADD MSTORE DUP3 ADD MSTORE PUSH32 0x77EB323217A4770C84B5F7F4076D557A6D1166BF8C746483D2A981D9C678E54D PUSH1 0x60 CALLER SWAP3 LOG3 SWAP1 JUMP JUMPDEST DUP2 MLOAD PUSH4 0x12171D83 PUSH1 0xE3 SHL DUP2 MSTORE PUSH1 0x4 SWAP1 REVERT JUMPDEST PUSH2 0x2091 SWAP2 POP DUP5 RETURNDATASIZE DUP7 GT PUSH2 0x44A JUMPI PUSH2 0x43B DUP2 DUP4 PUSH2 0x1E08 JUMP JUMPDEST CODESIZE PUSH2 0x202B JUMP JUMPDEST DUP2 MLOAD PUSH4 0x8199F5F3 PUSH1 0xE0 SHL DUP2 MSTORE PUSH1 0x4 SWAP1 REVERT JUMPDEST SWAP1 SWAP6 POP DUP4 DUP2 DUP2 RETURNDATASIZE DUP4 GT PUSH2 0x20D0 JUMPI JUMPDEST PUSH2 0x20C0 DUP2 DUP4 PUSH2 0x1E08 JUMP JUMPDEST DUP2 ADD SUB SLT PUSH2 0x493 JUMPI MLOAD SWAP5 CODESIZE PUSH2 0x1FF4 JUMP JUMPDEST POP RETURNDATASIZE PUSH2 0x20B6 JUMP JUMPDEST PUSH2 0x20E0 SWAP1 PUSH2 0x1D8A JUMP JUMPDEST PUSH2 0x535 JUMPI DUP1 CODESIZE PUSH2 0x1FC9 JUMP JUMPDEST SWAP2 DUP4 SWAP5 SWAP2 SWAP5 MLOAD SWAP3 PUSH2 0x20FB DUP5 PUSH2 0x1DB4 JUMP JUMPDEST PUSH1 0x2 DUP5 MSTORE DUP5 CALLDATASIZE DUP5 DUP7 ADD CALLDATACOPY DUP6 PUSH1 0x2 SLOAD AND PUSH2 0x2113 DUP6 PUSH2 0x1E2A JUMP JUMPDEST MSTORE DUP6 PUSH1 0x1 SLOAD AND PUSH2 0x2122 DUP6 PUSH2 0x1E4D JUMP JUMPDEST MSTORE DUP6 DUP3 SLOAD AND SWAP4 DUP3 PUSH2 0x2163 PUSH1 0x4 SWAP7 PUSH2 0x213A DUP9 SLOAD TIMESTAMP PUSH2 0x1E6D JUMP JUMPDEST SWAP4 DUP10 MLOAD DUP1 SWAP6 DUP2 SWAP5 DUP3 SWAP4 PUSH4 0x7FF36AB5 PUSH1 0xE0 SHL DUP5 MSTORE DUP8 DUP14 DUP6 ADD MSTORE PUSH1 0x80 PUSH1 0x24 DUP6 ADD MSTORE PUSH1 0x84 DUP5 ADD SWAP1 PUSH2 0x1F0C JUMP JUMPDEST SWAP1 ADDRESS PUSH1 0x44 DUP5 ADD MSTORE PUSH1 0x64 DUP4 ADD MSTORE SUB SWAP2 CALLVALUE SWAP1 GAS CALL SWAP1 DUP2 ISZERO PUSH2 0x2388 JUMPI SWAP1 PUSH2 0x218D SWAP2 DUP5 SWAP2 PUSH2 0x2374 JUMPI POP PUSH2 0x1E4D JUMP JUMPDEST MLOAD SWAP6 DUP7 ISZERO PUSH2 0x2364 JUMPI PUSH1 0x1 SLOAD DUP7 MLOAD PUSH4 0x95EA7B3 PUSH1 0xE0 SHL DUP2 MSTORE PUSH1 0x1 PUSH1 0x1 PUSH1 0xA0 SHL SUB SWAP1 SWAP4 AND DUP7 DUP5 ADD SWAP1 DUP2 MSTORE PUSH1 0x20 DUP2 ADD DUP10 SWAP1 MSTORE DUP6 SWAP3 DUP5 SWAP3 AND SWAP1 DUP3 SWAP1 DUP7 SWAP1 DUP3 SWAP1 PUSH1 0x40 ADD SUB SWAP3 GAS CALL DUP1 ISZERO PUSH2 0x233D JUMPI PUSH2 0x2347 JUMPI JUMPDEST POP DUP6 EXTCODESIZE ISZERO PUSH2 0x535 JUMPI DUP4 MLOAD PUSH4 0x1ADFD7BD PUSH1 0xE3 SHL DUP2 MSTORE DUP6 DUP5 DUP3 ADD MSTORE DUP8 PUSH1 0x24 DUP3 ADD MSTORE DUP2 DUP2 PUSH1 0x44 DUP2 DUP4 DUP12 GAS CALL DUP1 ISZERO PUSH2 0x233D JUMPI PUSH2 0x232E JUMPI JUMPDEST POP SWAP1 DUP4 MLOAD SWAP7 PUSH4 0x70A08231 PUSH1 0xE0 SHL DUP9 MSTORE ADDRESS DUP5 DUP10 ADD MSTORE DUP2 DUP9 PUSH1 0x24 DUP2 DUP11 GAS STATICCALL SWAP8 DUP9 ISZERO PUSH2 0x2324 JUMPI DUP4 SWAP9 PUSH2 0x22F5 JUMPI JUMPDEST POP DUP8 LT PUSH2 0x22E5 JUMPI DUP4 MLOAD PUSH4 0xA9059CBB PUSH1 0xE0 SHL DUP2 MSTORE CALLER DUP5 DUP3 ADD SWAP1 DUP2 MSTORE PUSH1 0x20 DUP2 ADD DUP10 SWAP1 MSTORE SWAP1 SWAP2 SWAP1 DUP2 SWAP1 DUP4 SWAP1 DUP2 SWAP1 PUSH1 0x40 ADD SUB DUP2 DUP7 DUP12 GAS CALL SWAP3 DUP4 ISZERO PUSH2 0x22DA JUMPI SWAP3 PUSH2 0x22BD JUMPI JUMPDEST POP POP ISZERO PUSH2 0x762 JUMPI POP MLOAD CALLVALUE DUP2 MSTORE PUSH1 0x20 DUP2 ADD SWAP2 SWAP1 SWAP2 MSTORE PUSH1 0x40 DUP2 ADD DUP4 SWAP1 MSTORE CALLER SWAP1 PUSH32 0x77EB323217A4770C84B5F7F4076D557A6D1166BF8C746483D2A981D9C678E54D SWAP1 PUSH1 0x60 SWAP1 LOG3 SWAP1 JUMP JUMPDEST PUSH2 0x22D3 SWAP3 POP DUP1 RETURNDATASIZE LT PUSH2 0x44A JUMPI PUSH2 0x43B DUP2 DUP4 PUSH2 0x1E08 JUMP JUMPDEST CODESIZE DUP1 PUSH2 0x2277 JUMP JUMPDEST DUP6 MLOAD SWAP1 RETURNDATASIZE SWAP1 DUP3 RETURNDATACOPY RETURNDATASIZE SWAP1 REVERT JUMPDEST DUP4 MLOAD PUSH4 0x8199F5F3 PUSH1 0xE0 SHL DUP2 MSTORE DUP4 SWAP1 REVERT JUMPDEST SWAP1 SWAP8 POP DUP2 DUP2 DUP2 RETURNDATASIZE DUP4 GT PUSH2 0x231D JUMPI JUMPDEST PUSH2 0x230D DUP2 DUP4 PUSH2 0x1E08 JUMP JUMPDEST DUP2 ADD SUB SLT PUSH2 0x493 JUMPI MLOAD SWAP7 CODESIZE PUSH2 0x2237 JUMP JUMPDEST POP RETURNDATASIZE PUSH2 0x2303 JUMP JUMPDEST DUP6 MLOAD RETURNDATASIZE DUP6 DUP3 RETURNDATACOPY RETURNDATASIZE SWAP1 REVERT JUMPDEST PUSH2 0x2337 SWAP1 PUSH2 0x1D8A JUMP JUMPDEST CODESIZE PUSH2 0x220D JUMP JUMPDEST DUP6 MLOAD RETURNDATASIZE DUP5 DUP3 RETURNDATACOPY RETURNDATASIZE SWAP1 REVERT JUMPDEST PUSH2 0x235D SWAP1 DUP4 RETURNDATASIZE DUP6 GT PUSH2 0x44A JUMPI PUSH2 0x43B DUP2 DUP4 PUSH2 0x1E08 JUMP JUMPDEST POP CODESIZE PUSH2 0x21DA JUMP JUMPDEST DUP6 MLOAD PUSH4 0xBB2875C3 PUSH1 0xE0 SHL DUP2 MSTORE DUP6 SWAP1 REVERT JUMPDEST PUSH2 0x1072 SWAP2 POP RETURNDATASIZE DUP1 DUP7 DUP4 RETURNDATACOPY PUSH2 0x40A DUP2 DUP4 PUSH2 0x1E08 JUMP JUMPDEST DUP7 MLOAD RETURNDATASIZE DUP6 DUP3 RETURNDATACOPY RETURNDATASIZE SWAP1 REVERT JUMPDEST PUSH1 0x40 MLOAD PUSH4 0x162908E3 PUSH1 0xE1 SHL DUP2 MSTORE PUSH1 0x4 SWAP1 REVERT JUMPDEST PUSH1 0x40 MLOAD PUSH4 0xE6C4247B PUSH1 0xE0 SHL DUP2 MSTORE PUSH1 0x4 SWAP1 REVERT JUMPDEST DUP2 DUP2 MUL SWAP3 SWAP2 DUP2 ISZERO SWAP2 DUP5 DIV EQ OR ISZERO PUSH2 0x1E7A JUMPI JUMP JUMPDEST SWAP1 PUSH1 0x60 SWAP3 PUSH2 0x23E8 SWAP2 SWAP7 SWAP6 SWAP5 SWAP7 DUP4 MSTORE PUSH1 0x80 PUSH1 0x20 DUP5 ADD MSTORE PUSH1 0x80 DUP4 ADD SWAP1 PUSH2 0x1F0C JUMP JUMPDEST PUSH1 0x1 PUSH1 0x1 PUSH1 0xA0 SHL SUB SWAP1 SWAP6 AND PUSH1 0x40 DUP3 ADD MSTORE ADD MSTORE JUMP JUMPDEST SWAP2 SWAP1 DUP3 SUB SWAP2 DUP3 GT PUSH2 0x1E7A JUMPI JUMP JUMPDEST RETURNDATASIZE ISZERO PUSH2 0x2444 JUMPI RETURNDATASIZE SWAP1 PUSH8 0xFFFFFFFFFFFFFFFF DUP3 GT PUSH2 0x1D9E JUMPI PUSH1 0x40 MLOAD SWAP2 PUSH2 0x2438 PUSH1 0x1F DUP3 ADD PUSH1 0x1F NOT AND PUSH1 0x20 ADD DUP5 PUSH2 0x1E08 JUMP JUMPDEST DUP3 MSTORE RETURNDATASIZE PUSH1 0x0 PUSH1 0x20 DUP5 ADD RETURNDATACOPY JUMP JUMPDEST PUSH1 0x60 SWAP1 JUMP JUMPDEST SWAP2 SWAP3 PUSH1 0x80 SWAP4 PUSH2 0x246E SWAP3 SWAP8 SWAP7 SWAP6 SWAP8 DUP5 MSTORE PUSH1 0x20 DUP5 ADD MSTORE PUSH1 0xA0 PUSH1 0x40 DUP5 ADD MSTORE PUSH1 0xA0 DUP4 ADD SWAP1 PUSH2 0x1F0C JUMP JUMPDEST PUSH1 0x1 PUSH1 0x1 PUSH1 0xA0 SHL SUB SWAP1 SWAP6 AND PUSH1 0x60 DUP3 ADD MSTORE ADD MSTORE JUMP JUMPDEST PUSH1 0x1 PUSH1 0x1 PUSH1 0xA0 SHL SUB SWAP2 SWAP1 DUP3 AND SWAP1 PUSH1 0x0 SWAP1 DUP3 ISZERO PUSH2 0x23A4 JUMPI DUP1 ISZERO PUSH2 0x2392 JUMPI PUSH1 0x40 DUP1 MLOAD PUSH4 0x23B872DD PUSH1 0xE0 SHL DUP2 MSTORE CALLER PUSH1 0x4 DUP1 DUP4 ADD SWAP2 SWAP1 SWAP2 MSTORE ADDRESS PUSH1 0x24 DUP4 ADD MSTORE PUSH1 0x44 DUP3 ADD DUP5 SWAP1 MSTORE SWAP6 SWAP2 SWAP5 SWAP2 PUSH1 0x20 SWAP2 DUP3 DUP2 PUSH1 0x64 DUP2 DUP10 DUP9 GAS CALL SWAP1 DUP2 ISZERO PUSH2 0x18AD JUMPI DUP7 SWAP2 PUSH2 0x275F JUMPI JUMPDEST POP ISZERO PUSH2 0x274F JUMPI DUP3 DUP6 MSTORE PUSH1 0x7 DUP3 MSTORE DUP6 DUP6 KECCAK256 SLOAD PUSH1 0xFF AND ISZERO PUSH2 0x259C JUMPI POP POP SELFBALANCE SWAP2 DUP2 EXTCODESIZE ISZERO PUSH2 0x1D15 JUMPI DUP4 SWAP2 PUSH1 0x44 DUP4 SWAP3 DUP8 MLOAD SWAP5 DUP6 SWAP4 DUP5 SWAP3 PUSH4 0xD79875EB PUSH1 0xE0 SHL DUP5 MSTORE DUP12 DUP5 ADD MSTORE DUP12 PUSH1 0x24 DUP5 ADD MSTORE GAS CALL DUP1 ISZERO PUSH2 0x2592 JUMPI SWAP1 DUP4 SWAP2 PUSH2 0x257E JUMPI JUMPDEST POP POP PUSH2 0x2542 SWAP1 SELFBALANCE PUSH2 0x23FC JUMP JUMPDEST SWAP4 DUP5 LT PUSH2 0x2570 JUMPI DUP1 DUP1 DUP1 DUP7 CALLER GAS CALL PUSH2 0x2558 PUSH2 0x2409 JUMP JUMPDEST POP ISZERO PUSH2 0x2563 JUMPI POP POP SWAP1 JUMP JUMPDEST MLOAD PUSH4 0x12171D83 PUSH1 0xE3 SHL DUP2 MSTORE REVERT JUMPDEST POP MLOAD PUSH4 0x8199F5F3 PUSH1 0xE0 SHL DUP2 MSTORE REVERT JUMPDEST PUSH2 0x2587 SWAP1 PUSH2 0x1D8A JUMP JUMPDEST PUSH2 0xB92 JUMPI DUP2 CODESIZE PUSH2 0x2536 JUMP JUMPDEST DUP5 MLOAD RETURNDATASIZE DUP6 DUP3 RETURNDATACOPY RETURNDATASIZE SWAP1 REVERT JUMPDEST SWAP2 SWAP1 SWAP3 DUP2 EXTCODESIZE ISZERO PUSH2 0x102F JUMPI DUP5 SWAP2 PUSH1 0x44 DUP4 SWAP3 DUP9 MLOAD SWAP5 DUP6 SWAP4 DUP5 SWAP3 PUSH4 0xD79875EB PUSH1 0xE0 SHL DUP5 MSTORE DUP13 DUP5 ADD MSTORE DUP2 PUSH1 0x24 DUP5 ADD MSTORE GAS CALL DUP1 ISZERO PUSH2 0x1886 JUMPI PUSH2 0x273C JUMPI JUMPDEST POP PUSH1 0x1 SLOAD DUP5 MLOAD PUSH4 0x70A08231 PUSH1 0xE0 SHL DUP2 MSTORE ADDRESS DUP8 DUP3 ADD MSTORE SWAP2 SWAP1 DUP2 AND DUP4 DUP4 PUSH1 0x24 DUP2 DUP5 GAS STATICCALL SWAP3 DUP4 ISZERO PUSH2 0x26F3 JUMPI DUP6 SWAP4 PUSH2 0x270D JUMPI JUMPDEST POP DUP3 ISZERO PUSH2 0x26FD JUMPI DUP5 SLOAD DUP7 MLOAD PUSH4 0x95EA7B3 PUSH1 0xE0 SHL DUP2 MSTORE SWAP1 DUP4 AND PUSH1 0x1 PUSH1 0x1 PUSH1 0xA0 SHL SUB AND DUP9 DUP3 ADD SWAP1 DUP2 MSTORE PUSH1 0x20 DUP2 ADD DUP6 SWAP1 MSTORE SWAP1 SWAP2 DUP6 SWAP2 DUP4 SWAP2 SWAP1 DUP3 SWAP1 DUP10 SWAP1 DUP3 SWAP1 PUSH1 0x40 ADD SUB SWAP3 GAS CALL DUP1 ISZERO PUSH2 0x26F3 JUMPI DUP6 DUP9 SWAP6 SWAP4 DUP2 SWAP6 SWAP4 DUP12 SWAP4 PUSH2 0x26D6 JUMPI JUMPDEST POP DUP9 DUP1 MLOAD SWAP6 PUSH2 0x2667 DUP8 PUSH2 0x1DB4 JUMP JUMPDEST PUSH1 0x2 DUP8 MSTORE CALLDATASIZE SWAP1 DUP8 ADD CALLDATACOPY DUP1 PUSH1 0x1 SLOAD AND PUSH2 0x267E DUP7 PUSH2 0x1E2A JUMP JUMPDEST MSTORE DUP1 PUSH1 0x2 SLOAD AND PUSH2 0x268D DUP7 PUSH2 0x1E4D JUMP JUMPDEST MSTORE DUP2 SLOAD AND SWAP3 PUSH2 0x26A0 PUSH2 0xA32 DUP9 SLOAD TIMESTAMP PUSH2 0x1E6D JUMP JUMPDEST SUB SWAP3 GAS CALL SWAP2 DUP3 ISZERO PUSH2 0x419 JUMPI SWAP1 DUP2 PUSH2 0x26BC SWAP4 PUSH2 0x686 JUMPI POP POP PUSH2 0x1E4D JUMP JUMPDEST MLOAD SWAP3 DUP4 LT PUSH2 0x26C9 JUMPI POP POP SWAP1 JUMP JUMPDEST MLOAD PUSH4 0x8199F5F3 PUSH1 0xE0 SHL DUP2 MSTORE REVERT JUMPDEST PUSH2 0x26EC SWAP1 DUP7 RETURNDATASIZE DUP9 GT PUSH2 0x44A JUMPI PUSH2 0x43B DUP2 DUP4 PUSH2 0x1E08 JUMP JUMPDEST POP CODESIZE PUSH2 0x2659 JUMP JUMPDEST DUP7 MLOAD RETURNDATASIZE DUP8 DUP3 RETURNDATACOPY RETURNDATASIZE SWAP1 REVERT JUMPDEST DUP6 MLOAD PUSH4 0xBB2875C3 PUSH1 0xE0 SHL DUP2 MSTORE DUP8 SWAP1 REVERT JUMPDEST SWAP1 SWAP3 POP DUP4 DUP2 DUP2 RETURNDATASIZE DUP4 GT PUSH2 0x2735 JUMPI JUMPDEST PUSH2 0x2725 DUP2 DUP4 PUSH2 0x1E08 JUMP JUMPDEST DUP2 ADD SUB SLT PUSH2 0x493 JUMPI MLOAD SWAP2 CODESIZE PUSH2 0x2603 JUMP JUMPDEST POP RETURNDATASIZE PUSH2 0x271B JUMP JUMPDEST PUSH2 0x2748 SWAP1 SWAP4 SWAP2 SWAP4 PUSH2 0x1D8A JUMP JUMPDEST SWAP2 CODESIZE PUSH2 0x25D4 JUMP JUMPDEST DUP6 MLOAD PUSH4 0x12171D83 PUSH1 0xE3 SHL DUP2 MSTORE DUP8 SWAP1 REVERT JUMPDEST PUSH2 0x2776 SWAP2 POP DUP4 RETURNDATASIZE DUP6 GT PUSH2 0x44A JUMPI PUSH2 0x43B DUP2 DUP4 PUSH2 0x1E08 JUMP JUMPDEST CODESIZE PUSH2 0x24E1 JUMP JUMPDEST SWAP2 SWAP1 DUP3 PUSH1 0x40 SWAP2 SUB SLT PUSH2 0x493 JUMPI PUSH1 0x20 DUP3 MLOAD SWAP3 ADD MLOAD SWAP1 JUMP JUMPDEST PUSH1 0x1 PUSH1 0x1 PUSH1 0xA0 SHL SUB SWAP1 DUP2 AND PUSH1 0x0 DUP2 DUP2 MSTORE PUSH1 0x7 PUSH1 0x20 MSTORE PUSH1 0x40 DUP1 DUP3 KECCAK256 SLOAD SWAP2 SWAP6 SWAP5 SWAP1 SWAP4 SWAP1 SWAP2 DUP7 SWAP2 SWAP1 PUSH1 0xFF AND ISZERO PUSH2 0x2817 JUMPI POP POP DUP3 SWAP1 PUSH1 0x24 DUP3 MLOAD DUP1 SWAP5 DUP2 SWAP4 PUSH4 0xFB3DD95F PUSH1 0xE0 SHL DUP4 MSTORE PUSH1 0x4 DUP4 ADD MSTORE GAS STATICCALL SWAP2 DUP3 ISZERO PUSH2 0x280E JUMPI DUP5 SWAP3 PUSH2 0x27F0 JUMPI JUMPDEST POP POP SWAP2 SWAP1 JUMP JUMPDEST PUSH2 0x2806 SWAP3 POP DUP1 RETURNDATASIZE LT PUSH2 0x1B50 JUMPI PUSH2 0x1B40 DUP2 DUP4 PUSH2 0x1E08 JUMP JUMPDEST POP CODESIZE DUP1 PUSH2 0x27EA JUMP JUMPDEST MLOAD RETURNDATASIZE DUP6 DUP3 RETURNDATACOPY RETURNDATASIZE SWAP1 REVERT JUMPDEST SWAP1 SWAP2 SWAP4 DUP1 SWAP4 SWAP6 SWAP5 PUSH1 0x24 DUP3 MLOAD DUP1 SWAP9 DUP2 SWAP4 PUSH4 0xFB3DD95F PUSH1 0xE0 SHL DUP4 MSTORE PUSH1 0x4 DUP4 ADD MSTORE GAS STATICCALL SWAP5 DUP6 ISZERO PUSH2 0x1850 JUMPI DUP3 SWAP6 PUSH2 0x28D6 JUMPI JUMPDEST POP DUP3 MLOAD PUSH2 0x28A9 SWAP3 SWAP2 PUSH2 0x2856 DUP3 PUSH2 0x1DB4 JUMP JUMPDEST PUSH1 0x2 DUP3 MSTORE DUP5 CALLDATASIZE PUSH1 0x20 DUP5 ADD CALLDATACOPY DUP1 PUSH1 0x1 SLOAD AND PUSH2 0x286F DUP4 PUSH2 0x1E2A JUMP JUMPDEST MSTORE DUP1 PUSH1 0x2 SLOAD AND PUSH2 0x287E DUP4 PUSH2 0x1E4D JUMP JUMPDEST MSTORE DUP3 SLOAD AND DUP5 MLOAD DUP1 DUP1 SWAP6 DUP2 SWAP5 PUSH4 0xD06CA61F PUSH1 0xE0 SHL DUP4 MSTORE DUP11 PUSH1 0x4 DUP5 ADD MSTORE DUP9 PUSH1 0x24 DUP5 ADD MSTORE PUSH1 0x44 DUP4 ADD SWAP1 PUSH2 0x1F0C JUMP JUMPDEST SUB SWAP2 GAS STATICCALL SWAP2 DUP3 ISZERO PUSH2 0x28CD JUMPI POP DUP5 PUSH2 0x28C8 SWAP4 SWAP5 SWAP6 SWAP3 PUSH2 0x686 JUMPI POP POP PUSH2 0x1E4D JUMP JUMPDEST MLOAD SWAP2 SWAP1 JUMP JUMPDEST MLOAD RETURNDATASIZE DUP7 DUP3 RETURNDATACOPY RETURNDATASIZE SWAP1 REVERT JUMPDEST PUSH2 0x28A9 SWAP3 SWAP2 SWAP6 POP PUSH2 0x28F3 SWAP1 DUP5 RETURNDATASIZE DUP7 GT PUSH2 0x1B50 JUMPI PUSH2 0x1B40 DUP2 DUP4 PUSH2 0x1E08 JUMP JUMPDEST POP SWAP5 SWAP1 SWAP2 PUSH2 0x2845 JUMP JUMPDEST PUSH1 0x1 PUSH1 0x1 PUSH1 0xA0 SHL SUB SWAP1 DUP2 AND PUSH1 0x0 DUP2 DUP2 MSTORE PUSH1 0x7 PUSH1 0x20 MSTORE PUSH1 0x40 DUP1 DUP3 KECCAK256 SLOAD SWAP2 SWAP6 SWAP5 SWAP1 SWAP4 SWAP1 SWAP2 PUSH1 0xFF AND ISZERO PUSH2 0x2955 JUMPI POP DUP3 SWAP1 PUSH1 0x24 DUP3 MLOAD DUP1 SWAP5 DUP2 SWAP4 PUSH4 0x48153279 PUSH1 0xE0 SHL DUP4 MSTORE PUSH1 0x4 DUP4 ADD MSTORE GAS STATICCALL SWAP2 DUP3 ISZERO PUSH2 0x280E JUMPI DUP5 SWAP3 PUSH2 0x27F0 JUMPI POP POP SWAP2 SWAP1 JUMP JUMPDEST SWAP5 DUP4 SWAP3 SWAP6 PUSH2 0x29BE SWAP3 DUP3 SWAP6 MLOAD SWAP2 PUSH2 0x296A DUP4 PUSH2 0x1DB4 JUMP JUMPDEST PUSH1 0x2 DUP4 MSTORE DUP6 CALLDATASIZE PUSH1 0x20 DUP6 ADD CALLDATACOPY DUP1 PUSH1 0x2 SLOAD AND PUSH2 0x2983 DUP5 PUSH2 0x1E2A JUMP JUMPDEST MSTORE DUP1 PUSH1 0x1 SLOAD AND PUSH2 0x2992 DUP5 PUSH2 0x1E4D JUMP JUMPDEST MSTORE DUP4 SLOAD AND SWAP1 DUP6 MLOAD DUP1 SWAP6 DUP2 SWAP5 DUP3 SWAP4 PUSH4 0xD06CA61F PUSH1 0xE0 SHL DUP5 MSTORE PUSH1 0x4 DUP5 ADD MSTORE DUP9 PUSH1 0x24 DUP5 ADD MSTORE PUSH1 0x44 DUP4 ADD SWAP1 PUSH2 0x1F0C JUMP JUMPDEST SUB SWAP2 GAS STATICCALL SWAP1 DUP2 ISZERO PUSH2 0x6A1 JUMPI SWAP2 PUSH2 0x29DE DUP2 SWAP3 PUSH1 0x24 SWAP5 DUP7 SWAP2 PUSH2 0x2A15 JUMPI POP PUSH2 0x1E4D JUMP JUMPDEST MLOAD SWAP6 DUP2 MLOAD SWAP4 DUP5 DUP1 SWAP3 PUSH4 0x48153279 PUSH1 0xE0 SHL DUP3 MSTORE DUP10 PUSH1 0x4 DUP4 ADD MSTORE GAS STATICCALL SWAP3 DUP4 ISZERO PUSH2 0x2A0A JUMPI SWAP3 PUSH2 0x27F0 JUMPI POP POP SWAP2 SWAP1 JUMP JUMPDEST SWAP1 MLOAD SWAP1 RETURNDATASIZE SWAP1 DUP3 RETURNDATACOPY RETURNDATASIZE SWAP1 REVERT JUMPDEST PUSH2 0x1072 SWAP2 POP RETURNDATASIZE DUP1 DUP9 DUP4 RETURNDATACOPY PUSH2 0x40A DUP2 DUP4 PUSH2 0x1E08 JUMP JUMPDEST SWAP2 SWAP1 DUP2 LT ISZERO PUSH2 0x1E37 JUMPI PUSH1 0x5 SHL ADD SWAP1 JUMP JUMPDEST CALLDATALOAD PUSH1 0x1 PUSH1 0x1 PUSH1 0xA0 SHL SUB DUP2 AND DUP2 SUB PUSH2 0x493 JUMPI SWAP1 JUMP JUMPDEST PUSH1 0x40 DUP1 MLOAD PUSH4 0x48153279 PUSH1 0xE0 SHL DUP2 MSTORE PUSH1 0x4 DUP2 ADD DUP5 SWAP1 MSTORE SWAP2 DUP4 SWAP2 SWAP1 DUP4 SWAP1 PUSH1 0x24 SWAP1 DUP3 SWAP1 PUSH1 0x1 PUSH1 0x1 PUSH1 0xA0 SHL SUB AND GAS STATICCALL SWAP2 DUP3 ISZERO PUSH2 0x2B02 JUMPI PUSH1 0x0 SWAP3 PUSH2 0x2AE1 JUMPI JUMPDEST POP DUP1 DUP3 LT PUSH2 0x2A94 JUMPI POP POP SWAP1 JUMP JUMPDEST PUSH2 0x2AA0 SWAP2 SWAP3 POP DUP1 PUSH2 0x23B6 JUMP JUMPDEST DUP2 ISZERO PUSH2 0x2ACB JUMPI DIV PUSH1 0xC8 DUP2 MUL SWAP1 DUP1 DUP3 DIV PUSH1 0xC8 EQ DUP2 ISZERO OR ISZERO PUSH2 0x1E7A JUMPI PUSH2 0x2710 PUSH2 0x2AC8 SWAP3 DIV SWAP1 PUSH2 0x1E6D JUMP JUMPDEST SWAP1 JUMP JUMPDEST PUSH4 0x4E487B71 PUSH1 0xE0 SHL PUSH1 0x0 MSTORE PUSH1 0x12 PUSH1 0x4 MSTORE PUSH1 0x24 PUSH1 0x0 REVERT JUMPDEST PUSH2 0x2AFA SWAP2 SWAP3 POP PUSH1 0x40 RETURNDATASIZE DUP2 GT PUSH2 0x1B50 JUMPI PUSH2 0x1B40 DUP2 DUP4 PUSH2 0x1E08 JUMP JUMPDEST POP SWAP1 CODESIZE PUSH2 0x2A87 JUMP JUMPDEST PUSH1 0x40 MLOAD RETURNDATASIZE PUSH1 0x0 DUP3 RETURNDATACOPY RETURNDATASIZE SWAP1 REVERT INVALID PREVRANDAO JUMPI GASPRICE DUP10 0xDF PC EXTCODECOPY SIGNEXTEND 0x1E AND 0xE6 0xC2 0x2D COINBASE 0xB4 0xE3 SWAP14 0xE1 0xCA CALLVALUE SAR EXP 0x23 0x4B PUSH18 0x17CCC2BF727DC4A264697066735822122099 DUP7 0x2F 0xD7 0xD3 PUSH30 0x5B71B22ED2A3B017A499BF700FEF4220DD8FB6D182C120FE660864736F6C PUSH4 0x43000814 STOP CALLER "},"methodIdentifiers":{"batchRegisterBondingCurveTypes(address[],bool[])":"76027930","buyBondingCurveTokenWithBNB(address,uint256)":"4325f299","buyBondingCurveTokenWithHAVEN(address,uint256,uint256)":"3dc4340a","buyExactTokensWithBNB(address,uint256,uint256)":"a09f99cc","buyGraduatedTokenWithBNB(address,uint256)":"323f3517","buyGraduatedTokenWithHAVEN(address,uint256,uint256)":"1ce0ee5c","defaultDeadlineOffset()":"e8feca30","emergencyWithdraw(address,address,uint256)":"e63ea408","havenToken()":"7bcafc82","isWBNBBondingCurve(address)":"3e3b2b39","maxSlippageBps()":"c4aa7395","owner()":"8da5cb5b","pancakeRouter()":"c21ebd07","paused()":"5c975abb","previewBuyBondingCurveWithHAVEN(address,uint256)":"22e988a4","previewBuyGraduatedWithBNB(address,uint256)":"584b5a38","previewBuyGraduatedWithHAVEN(address,uint256)":"e9ea09b3","previewBuyWithBNB(address,uint256)":"216f68b2","previewExactBuyWithBNB(address,uint256)":"e302b66c","previewSellBondingCurveForBNB(address,uint256)":"8661a02a","previewSellGraduatedForBNB(address,uint256)":"324fc30c","previewSellGraduatedForHAVEN(address,uint256)":"6231af91","registerBondingCurveType(address,bool)":"b203c4ce","sellBondingCurveTokenForBNB(address,uint256,uint256)":"92212ef7","sellGraduatedTokenForBNB(address,uint256,uint256)":"dd0c4331","sellGraduatedTokenForHAVEN(address,uint256,uint256)":"f4c0de8c","setDefaultDeadlineOffset(uint256)":"5af39811","setHavenToken(address)":"653028e8","setMaxSlippage(uint256)":"43f68a49","setPancakeRouter(address)":"f8316c90","setPaused(bool)":"16c38b3c","setWBNB(address)":"cab27a64","transferOwnership(address)":"f2fde38b","wbnb()":"8d72647e"}}}}}