{"contracts/HavenRouterV2.sol":{"HavenRouterV2":{"abi":[{"inputs":[{"internalType":"address","name":"_pancakeRouter","type":"address"},{"internalType":"address","name":"_havenToken","type":"address"},{"internalType":"address","name":"_wbnb","type":"address"}],"stateMutability":"nonpayable","type":"constructor"},{"inputs":[],"name":"ApproveFailed","type":"error"},{"inputs":[],"name":"InsufficientOutput","type":"error"},{"inputs":[],"name":"InvalidAddress","type":"error"},{"inputs":[],"name":"InvalidAmount","type":"error"},{"inputs":[],"name":"InvalidSlippage","type":"error"},{"inputs":[],"name":"Paused","type":"error"},{"inputs":[],"name":"SlippageExceeded","type":"error"},{"inputs":[],"name":"TransferFailed","type":"error"},{"inputs":[],"name":"Unauthorized","type":"error"},{"anonymous":false,"inputs":[{"indexed":true,"internalType":"address","name":"updater","type":"address"},{"indexed":false,"internalType":"string","name":"parameter","type":"string"},{"indexed":false,"internalType":"address","name":"oldAddress","type":"address"},{"indexed":false,"internalType":"address","name":"newAddress","type":"address"}],"name":"AddressUpdated","type":"event"},{"anonymous":false,"inputs":[{"indexed":true,"internalType":"address","name":"user","type":"address"},{"indexed":false,"internalType":"uint256","name":"tradesCount","type":"uint256"}],"name":"BatchTradeExecuted","type":"event"},{"anonymous":false,"inputs":[{"indexed":true,"internalType":"address","name":"user","type":"address"},{"indexed":true,"internalType":"address","name":"token","type":"address"},{"indexed":false,"internalType":"uint256","name":"inputAmount","type":"uint256"},{"indexed":false,"internalType":"uint256","name":"tokensOut","type":"uint256"},{"indexed":false,"internalType":"string","name":"inputCurrency","type":"string"}],"name":"BuyExecuted","type":"event"},{"anonymous":false,"inputs":[{"indexed":true,"internalType":"address","name":"updater","type":"address"},{"indexed":false,"internalType":"string","name":"parameter","type":"string"},{"indexed":false,"internalType":"uint256","name":"oldValue","type":"uint256"},{"indexed":false,"internalType":"uint256","name":"newValue","type":"uint256"}],"name":"ConfigUpdated","type":"event"},{"anonymous":false,"inputs":[{"indexed":true,"internalType":"address","name":"token","type":"address"},{"indexed":true,"internalType":"address","name":"to","type":"address"},{"indexed":false,"internalType":"uint256","name":"amount","type":"uint256"}],"name":"EmergencyWithdraw","type":"event"},{"anonymous":false,"inputs":[{"indexed":true,"internalType":"address","name":"user","type":"address"},{"indexed":true,"internalType":"address","name":"token","type":"address"},{"indexed":false,"internalType":"uint256","name":"tokensIn","type":"uint256"},{"indexed":false,"internalType":"uint256","name":"outputAmount","type":"uint256"},{"indexed":false,"internalType":"string","name":"outputCurrency","type":"string"}],"name":"SellExecuted","type":"event"},{"inputs":[{"internalType":"address","name":"bondingCurveToken","type":"address"},{"internalType":"uint256","name":"minTokensOut","type":"uint256"}],"name":"batchBuyBondingCurveWithBNB","outputs":[{"internalType":"uint256","name":"tokensOut","type":"uint256"}],"stateMutability":"payable","type":"function"},{"inputs":[{"internalType":"address","name":"bondingCurveToken","type":"address"},{"internalType":"uint256","name":"havenAmount","type":"uint256"},{"internalType":"uint256","name":"minTokensOut","type":"uint256"}],"name":"batchBuyBondingCurveWithHAVEN","outputs":[{"internalType":"uint256","name":"tokensOut","type":"uint256"}],"stateMutability":"nonpayable","type":"function"},{"inputs":[{"internalType":"address","name":"token","type":"address"},{"internalType":"uint256","name":"minTokensOut","type":"uint256"}],"name":"batchBuyGraduatedWithBNB","outputs":[{"internalType":"uint256","name":"tokensOut","type":"uint256"}],"stateMutability":"payable","type":"function"},{"inputs":[{"internalType":"address","name":"token","type":"address"},{"internalType":"uint256","name":"havenAmount","type":"uint256"},{"internalType":"uint256","name":"minTokensOut","type":"uint256"}],"name":"batchBuyGraduatedWithHAVEN","outputs":[{"internalType":"uint256","name":"tokensOut","type":"uint256"}],"stateMutability":"nonpayable","type":"function"},{"inputs":[{"internalType":"address","name":"bondingCurveToken","type":"address"},{"internalType":"uint256","name":"tokenAmount","type":"uint256"},{"internalType":"uint256","name":"minBNBOut","type":"uint256"}],"name":"batchSellBondingCurveForBNB","outputs":[{"internalType":"uint256","name":"bnbOut","type":"uint256"}],"stateMutability":"nonpayable","type":"function"},{"inputs":[{"internalType":"address","name":"bondingCurveToken","type":"address"},{"internalType":"uint256","name":"tokenAmount","type":"uint256"},{"internalType":"uint256","name":"minHavenOut","type":"uint256"}],"name":"batchSellBondingCurveForHAVEN","outputs":[{"internalType":"uint256","name":"havenOut","type":"uint256"}],"stateMutability":"nonpayable","type":"function"},{"inputs":[{"internalType":"address","name":"token","type":"address"},{"internalType":"uint256","name":"tokenAmount","type":"uint256"},{"internalType":"uint256","name":"minBNBOut","type":"uint256"}],"name":"batchSellGraduatedForBNB","outputs":[{"internalType":"uint256","name":"bnbOut","type":"uint256"}],"stateMutability":"nonpayable","type":"function"},{"inputs":[{"internalType":"address","name":"token","type":"address"},{"internalType":"uint256","name":"tokenAmount","type":"uint256"},{"internalType":"uint256","name":"minHavenOut","type":"uint256"}],"name":"batchSellGraduatedForHAVEN","outputs":[{"internalType":"uint256","name":"havenOut","type":"uint256"}],"stateMutability":"nonpayable","type":"function"},{"inputs":[],"name":"defaultDeadlineOffset","outputs":[{"internalType":"uint256","name":"","type":"uint256"}],"stateMutability":"view","type":"function"},{"inputs":[{"internalType":"address","name":"token","type":"address"},{"internalType":"address","name":"to","type":"address"},{"internalType":"uint256","name":"amount","type":"uint256"}],"name":"emergencyWithdraw","outputs":[],"stateMutability":"nonpayable","type":"function"},{"inputs":[],"name":"havenToken","outputs":[{"internalType":"address","name":"","type":"address"}],"stateMutability":"view","type":"function"},{"inputs":[],"name":"maxSlippageBps","outputs":[{"internalType":"uint256","name":"","type":"uint256"}],"stateMutability":"view","type":"function"},{"inputs":[],"name":"owner","outputs":[{"internalType":"address","name":"","type":"address"}],"stateMutability":"view","type":"function"},{"inputs":[],"name":"pancakeRouter","outputs":[{"internalType":"address","name":"","type":"address"}],"stateMutability":"view","type":"function"},{"inputs":[],"name":"paused","outputs":[{"internalType":"bool","name":"","type":"bool"}],"stateMutability":"view","type":"function"},{"inputs":[{"internalType":"address","name":"bondingCurveToken","type":"address"},{"internalType":"uint256","name":"bnbAmount","type":"uint256"}],"name":"previewBuyBondingCurveWithBNB","outputs":[{"internalType":"uint256","name":"tokensOut","type":"uint256"},{"internalType":"uint256","name":"havenAmount","type":"uint256"}],"stateMutability":"view","type":"function"},{"inputs":[{"internalType":"address","name":"bondingCurveToken","type":"address"},{"internalType":"uint256","name":"havenAmount","type":"uint256"}],"name":"previewBuyBondingCurveWithHAVEN","outputs":[{"internalType":"uint256","name":"tokensOut","type":"uint256"}],"stateMutability":"view","type":"function"},{"inputs":[{"internalType":"address","name":"token","type":"address"},{"internalType":"uint256","name":"bnbAmount","type":"uint256"}],"name":"previewBuyGraduatedWithBNB","outputs":[{"internalType":"uint256","name":"tokensOut","type":"uint256"}],"stateMutability":"view","type":"function"},{"inputs":[{"internalType":"address","name":"token","type":"address"},{"internalType":"uint256","name":"havenAmount","type":"uint256"}],"name":"previewBuyGraduatedWithHAVEN","outputs":[{"internalType":"uint256","name":"tokensOut","type":"uint256"}],"stateMutability":"view","type":"function"},{"inputs":[{"internalType":"address","name":"bondingCurveToken","type":"address"},{"internalType":"uint256","name":"tokenAmount","type":"uint256"}],"name":"previewSellBondingCurveForBNB","outputs":[{"internalType":"uint256","name":"bnbOut","type":"uint256"},{"internalType":"uint256","name":"havenAmount","type":"uint256"}],"stateMutability":"view","type":"function"},{"inputs":[{"internalType":"address","name":"bondingCurveToken","type":"address"},{"internalType":"uint256","name":"tokenAmount","type":"uint256"}],"name":"previewSellBondingCurveForHAVEN","outputs":[{"internalType":"uint256","name":"havenOut","type":"uint256"}],"stateMutability":"view","type":"function"},{"inputs":[{"internalType":"address","name":"token","type":"address"},{"internalType":"uint256","name":"tokenAmount","type":"uint256"}],"name":"previewSellGraduatedForBNB","outputs":[{"internalType":"uint256","name":"bnbOut","type":"uint256"}],"stateMutability":"view","type":"function"},{"inputs":[{"internalType":"address","name":"token","type":"address"},{"internalType":"uint256","name":"tokenAmount","type":"uint256"}],"name":"previewSellGraduatedForHAVEN","outputs":[{"internalType":"uint256","name":"havenOut","type":"uint256"}],"stateMutability":"view","type":"function"},{"inputs":[{"internalType":"uint256","name":"_offset","type":"uint256"}],"name":"setDefaultDeadlineOffset","outputs":[],"stateMutability":"nonpayable","type":"function"},{"inputs":[{"internalType":"address","name":"_havenToken","type":"address"}],"name":"setHavenToken","outputs":[],"stateMutability":"nonpayable","type":"function"},{"inputs":[{"internalType":"uint256","name":"_maxSlippageBps","type":"uint256"}],"name":"setMaxSlippage","outputs":[],"stateMutability":"nonpayable","type":"function"},{"inputs":[{"internalType":"address","name":"_pancakeRouter","type":"address"}],"name":"setPancakeRouter","outputs":[],"stateMutability":"nonpayable","type":"function"},{"inputs":[{"internalType":"bool","name":"_paused","type":"bool"}],"name":"setPaused","outputs":[],"stateMutability":"nonpayable","type":"function"},{"inputs":[{"internalType":"address","name":"_wbnb","type":"address"}],"name":"setWBNB","outputs":[],"stateMutability":"nonpayable","type":"function"},{"inputs":[{"internalType":"address","name":"newOwner","type":"address"}],"name":"transferOwnership","outputs":[],"stateMutability":"nonpayable","type":"function"},{"inputs":[],"name":"wbnb","outputs":[{"internalType":"address","name":"","type":"address"}],"stateMutability":"view","type":"function"},{"stateMutability":"payable","type":"receive"}],"evm":{"bytecode":{"linkReferences":{},"object":"608034620000ff57601f620025dd38819003918201601f191683019291906001600160401b0384118385101762000104578160609284926040968752833981010312620000ff5762000051816200011a565b6200006c8362000064602085016200011a565b93016200011a565b61012c6004556113886005556001600160a01b03918216929091908315620000ee578116918215620000ee5716908115620000dd5760018060a01b03199283600054161760005582600154161760015581600254161760025533906003541617600355516124ad9081620001308239f35b835163e6c4247b60e01b8152600490fd5b845163e6c4247b60e01b8152600490fd5b600080fd5b634e487b7160e01b600052604160045260246000fd5b51906001600160a01b0382168203620000ff5756fe608060409080825260049182361015610023575b505050361561002157600080fd5b005b600091823560e01c90816316c38b3c146120425750806317421db414611f2457806322e988a414611ecb57806329fe726914611cd2578063324fc30c14611c675780633e598cb914611a1657806343f68a4914611980578063584b5a38146118da5780635af39811146118435780635c975abb146118205780636231af911461179757806364f5113d14611713578063653028e814611683578063781380c0146113995780637bcafc82146113715780638661a02a1461124d5780638d72647e146112255780638da5cb5b146111fd578063b1998e1014610fe7578063c21ebd0714610fc0578063c4aa739514610fa2578063cab27a6414610eff578063ccb6303e14610cb8578063e63ea40814610b0f578063e8feca3014610af1578063e9ea09b314610a0e578063eeb34627146107b4578063f018ad9a14610593578063f2fde38b146104ee578063f8316c901461043d5763fa7c313f0361001357346104395761018f366120a9565b93919460ff6006541661042b576001600160a01b0386811693841561041b57831561040b5785516370a0823160e01b8082523085830152602099918a816024818b5afa90811561039d5784916103de575b5088516323b872dd60e01b815233878201908152306020820152604081018990528c90829081906060010381888d5af180156103d4576103a7575b50885191825230868301528a826024818b5afa801561039d578490610369575b610245925061224b565b908115610359578161025b918585541690612284565b86519061026782612119565b600382526060368b8401378661027c8361216f565b52836001541661028b83612192565b52836002541661029a836121a2565b52333193835416906102ad8654426121b2565b823b1561035557918a858895936102db82968e519889978896879563791ac94760e01b875233938701612212565b03925af1801561034b57610334575b50506102f790333161224b565b948510610326575060008051602061245883398151915283518061031d8733958361235b565b0390a351908152f35b8351638199f5f360e01b8152fd5b61033e82916120d3565b61034857806102ea565b80fd5b87513d84823e3d90fd5b8480fd5b875163162908e360e11b81528590fd5b508a82813d8311610396575b61037f8183612135565b8101031261039157610245915161023b565b600080fd5b503d610375565b89513d86823e3d90fd5b6103c6908c8d3d106103cd575b6103be8183612135565b810190612157565b503861021b565b503d6103b4565b8a513d87823e3d90fd5b90508a81813d8311610404575b6103f58183612135565b810103126103915751386101e0565b503d6103eb565b855163162908e360e11b81528390fd5b855163e6c4247b60e01b81528390fd5b83516313d0ff5960e31b8152fd5b5080fd5b508290346104ea5760203660031901126104ea57610459612093565b6003546001600160a01b039190821633036104dc5781169283156104ce57508284549280519260608452600d60608501526c3830b731b0b5b2a937baba32b960991b60808501528416602084015282015260008051602061243883398151915260a03392a26001600160a01b03191617815580f35b825163e6c4247b60e01b8152fd5b5050516282b42960e81b8152fd5b8280fd5b508290346104ea5760203660031901126104ea5761050a612093565b600354916001600160a01b03808416923384900361058457169384156105765750808491519260608452600560608501526437bbb732b960d91b6080850152602084015282015260008051602061243883398151915260a03392a26001600160a01b0319161760035580f35b905163e6c4247b60e01b8152fd5b82516282b42960e81b81528690fd5b508290346104ea5781926105a6366120a9565b60ff60069492939454166107a4576001600160a01b03848116949085156107945784156107845760015487516323b872dd60e01b8152339a81019a8b523060208c81019190915260408c018890529a90918b91839185169082908990829060600103925af1801561077a57916106289391879361075d575b5060015416612284565b833b1561043957845190631adfd7bd60e31b825283878301526024820152818160448183885af1801561073f57908291610749575b505083516370a0823160e01b81523086820152948686602481875afa95861561073f57908791839761070a575b50855163a9059cbb60e01b81523391810191825260208201889052929190839081906040015b038184885af19081156106ff57506106e2575b5060008051602061241883398151915283518061031d87339583612258565b6106f890863d88116103cd576103be8183612135565b50856106c3565b8551903d90823e3d90fd5b828194939298503d8311610738575b6107238183612135565b810103126103915790519486906106b061068a565b503d610719565b85513d84823e3d90fd5b610752906120d3565b61034857808761065d565b610773908c8d3d106103cd576103be8183612135565b508b61061e565b88513d87823e3d90fd5b865163162908e360e11b81528890fd5b865163e6c4247b60e01b81528890fd5b84516313d0ff5960e31b81528690fd5b508290346104ea576107c5366120a9565b9360ff6006541661042b576001600160a01b039283169283156109ff5782156109f05760015485516323b872dd60e01b815233848201908152306020828101919091526040820187905299928a91839186169082908690829060600103925af1801561034b576109d3575b506108448483600154168484541690612284565b855190610850826120fd565b6002825286368a84013782600154166108688361216f565b528561087383612192565b528651916370a0823160e01b9384845233868501528a846024818b5afa9384156109c957839461099a575b508254166108ad8654426121b2565b813b15610996579183918b838a6108db8b978f5198899788968795635c11d79560e01b875233938701612212565b03925af1801561098c57908291610978575b5050865192835233848401528883602481895afa90811561096d579061093e575b610918925061224b565b948510610326575060008051602061241883398151915283518061031d87339583612258565b508782813d8311610966575b6109548183612135565b8101031261039157610918915161090e565b503d61094a565b8751903d90823e3d90fd5b610981906120d3565b61034857808a6108ed565b88513d84823e3d90fd5b8380fd5b9093508a81813d83116109c2575b6109b28183612135565b810103126103915751928b61089e565b503d6109a8565b89513d85823e3d90fd5b6109e990893d8b116103cd576103be8183612135565b5088610830565b50835163162908e360e11b8152fd5b50835163e6c4247b60e01b8152fd5b5082346104ea57828260031936011261034857610a9991610a2d612093565b90845191610a3a836120fd565b60028352853660208501376001546001600160a01b0391908216610a5d8561216f565b5281610a6885612192565b9116905283541690855180958194829363d06ca61f60e01b84526024359084015288602484015260448301906121d5565b03915afa908115610ae55790610aba918460209592610ac2575b5050612192565b519051908152f35b610ade92503d8091833e610ad68183612135565b810190612385565b8480610ab3565b505051903d90823e3d90fd5b5082346104ea57826003193601126104ea5760209250549051908152f35b508290346104ea5760603660031901126104ea57610b2b612093565b6001600160a01b0360243581811694909391858503610391576044359381600354163303610ca9578615610c99571693839085610bfc57508680808093895af13d15610bf7573d67ffffffffffffffff8111610be457835190610b98601f8201601f191660200183612135565b81528760203d92013e5b15610bd657507ff24ef89f38eadc1bde50701ad6e4d6d11a2dc24f7cf834a486991f3883328504916020915b51908152a380f35b90516312171d8360e31b8152fd5b634e487b7160e01b885260418352602488fd5b610ba2565b835163a9059cbb60e01b81526001600160a01b039091168382019081526020818101939093529091908290819060400103818a895af1908115610c8f578791610c71575b5015610bd657507ff24ef89f38eadc1bde50701ad6e4d6d11a2dc24f7cf834a486991f388332850491602091610bce565b610c89915060203d81116103cd576103be8183612135565b87610c40565b83513d89823e3d90fd5b835163e6c4247b60e01b81528390fd5b83516282b42960e81b81528390fd5b503461043957610cc7366120a9565b93919460ff6006541661042b576001600160a01b039586169283156109ff5782156109f05784516323b872dd60e01b81523383820190815230602082810191909152604082018690529891908990829081906060010381868a5af18015610ed857610ee2575b50843b1561043957855163d79875eb60e01b815284848201528260248201528281604481838a5af18015610ed857908391610ec4575b505060015486516370a0823160e01b81523085820152919081168983602481845afa928315610eba578493610e8b575b508215610e7b5782898584610db089978f96849885541690612284565b8b805195610dbd876120fd565b6002875236908701378060015416610dd48661216f565b528060025416610de386612192565b5281541692610e12610df68854426121b2565b8d516318cbafe560e01b81529889978896879533938701612212565b03925af1918215610e70579081610e2e93610e55575050612192565b51948510610326575060008051602061245883398151915283518061031d8733958361235b565b610e6992503d8091833e610ad68183612135565b3880610ab3565b8651903d90823e3d90fd5b875163bb2875c360e01b81528590fd5b9092508981813d8311610eb3575b610ea38183612135565b8101031261039157519138610d93565b503d610e99565b88513d86823e3d90fd5b610ecd906120d3565b610439578138610d63565b87513d85823e3d90fd5b610ef890893d8b116103cd576103be8183612135565b5038610d2d565b5082346104ea5760203660031901126104ea57610f1a612093565b6003546001600160a01b0392919083163303610f94578216928315610f8757839060025493815193606085526060850152633bb1373160e11b60808501528416602084015282015260008051602061243883398151915260a03392a26001600160a01b0319161760025580f35b5163e6c4247b60e01b8152fd5b5082516282b42960e81b8152fd5b50346104395781600319360112610439576020906005549051908152f35b5034610439578160031936011261043957905490516001600160a01b039091168152602090f35b508083916003193601126104ea57610ffd612093565b6024359260ff600654166111ef576001600160a01b039182169182156111e05734156111d157835161102e81612119565b6003815260209660603689840137826002541661104a8361216f565b52826001541661105983612192565b5284611064836121a2565b528551916370a0823160e01b93848452338685015289846024818a5afa9384156111c7578394611198575b5082541661109e8654426121b2565b91813b156109965783916110d5918b8b519586948593849363b6f9de9560e01b85528d8501526080602485015260848401906121d5565b903360448401526064830152039134905af1801561034b57908291611184575b5050855192835233848401528783602481885afa908115610e705790611155575b611120925061224b565b9384106111475750815160008051602061241883398151915233918061031d87348361235b565b8251638199f5f360e01b8152fd5b508682813d831161117d575b61116b8183612135565b81010312610391576111209151611116565b503d611161565b61118d906120d3565b6103485780896110f5565b9093508981813d83116111c0575b6111b08183612135565b810103126103915751928a61108f565b503d6111a6565b88513d85823e3d90fd5b50825163162908e360e11b8152fd5b50825163e6c4247b60e01b8152fd5b82516313d0ff5960e31b8152fd5b503461043957816003193601126104395760035490516001600160a01b039091168152602090f35b503461043957816003193601126104395760025490516001600160a01b039091168152602090f35b5082346104ea57816003193601126104ea57611267612093565b825163fb3dd95f60e01b81526024803584830152909185916001600160a01b039186918591829085165afa92831561073f57829361133f575b508293611306938651926112b3846120fd565b600284528736602086013780600154166112cc8561216f565b5280600254166112db85612192565b528454169187519586948593849363d06ca61f60e01b855284015289602484015260448301906121d5565b03915afa908115611332578461132493949592610ac2575050612192565b519082519182526020820152f35b50505051903d90823e3d90fd5b611306935061136390863d881161136a575b61135b8183612135565b810190612401565b50926112a0565b503d611351565b503461043957816003193601126104395760015490516001600160a01b039091168152602090f35b5034610439576113a8366120a9565b93919460ff6006541661042b576001600160a01b039580871693841561041b57831561040b578551976370a0823160e01b92838a5230858b01526020998a816024818b5afa90811561039d578491611656575b5088516323b872dd60e01b815233878201908152306020820152604081018990528c90829081906060010381888d5af180156103d457611639575b5088519085825230878301528b826024818c5afa80156103d457859061160a575b611461925061224b565b9081156115fa579061147c8184938695602497541690612284565b885190611488826120fd565b6002825289368d8401378861149c8361216f565b528b8360015416806114ad85612192565b528b51968780928a8252338c8301525afa9485156115f05784956115c1575b5082845416906114dd8854426121b2565b823b156115bd57918c868a959361150c8f9683975198899788968795635c11d79560e01b875233938701612212565b03925af180156109c9578b929184916115a4575b505060015416936024895180968193825233898301525afa90811561096d5790611575575b61154f925061224b565b948510610326575060008051602061245883398151915283518061031d87339583612258565b508782813d831161159d575b61158b8183612135565b810103126103915761154f9151611545565b503d611581565b6115b0919293506120d3565b6104395789908238611520565b8580fd5b9094508b81813d83116115e9575b6115d98183612135565b81010312610391575193386114cc565b503d6115cf565b8a513d86823e3d90fd5b885163162908e360e11b81528690fd5b508b82813d8311611632575b6116208183612135565b81010312610391576114619151611457565b503d611616565b61164f908c8d3d106103cd576103be8183612135565b5038611436565b90508a81813d831161167c575b61166d8183612135565b810103126103915751386113fb565b503d611663565b508290346104ea5760203660031901126104ea5761169f612093565b6003546001600160a01b039190821633036104dc5781169283156104ce5750826001549280519260608452600a6060850152693430bb32b72a37b5b2b760b11b60808501528416602084015282015260008051602061243883398151915260a03392a26001600160a01b0319161760015580f35b508290346104ea57806003193601126104ea578061172f612093565b815163fb3dd95f60e01b8152602480359582019590955293849182906001600160a01b03165afa91821561178d576020939261176d575b5051908152f35b816117859293503d841161136a5761135b8183612135565b509083611766565b81513d85823e3d90fd5b5082346104ea57828260031936011261034857610a99916117b6612093565b908451916117c3836120fd565b60028352853660208501376117d78361216f565b6001600160a01b03918216905260015481166117f284612192565b5283541690855180958194829363d06ca61f60e01b84526024359084015288602484015260448301906121d5565b503461043957816003193601126104395760209060ff6006541690519015158152f35b5082346104ea5760203660031901126104ea57600354813592906001600160a01b031633036118ce5782825491805192606084526015606085015274191959985d5b1d111958591b1a5b9953d9999cd95d605a1b608085015260208401528201527fc8004015853107e4cb5efa9fdfc530f3530f5f5d8a833a9d67e2efe39717d7f660a03392a25580f35b516282b42960e81b8152fd5b5082346104ea57828260031936011261034857611944916118f9612093565b9084519161190683612119565b6003835260603660208501376002546001600160a01b039190821661192a8561216f565b52816001541661193985612192565b5281610a68856121a2565b03915afa908115610ae55790610aba918460209592611965575b50506121a2565b61197992503d8091833e610ad68183612135565b848061195e565b508290346104ea5760203660031901126104ea57600354823592906001600160a01b03163303611a095750816005549180519260608452600e60608501526d6d6178536c69707061676542707360901b608085015260208401528201527fc8004015853107e4cb5efa9fdfc530f3530f5f5d8a833a9d67e2efe39717d7f660a03392a260055580f35b90516282b42960e81b8152fd5b508060031936011261043957611a2a612093565b6024359260ff60065416611c57576001600160a01b03948286169283156109ff5734156109f057845196611a5d886120fd565b6002885260209786368a8301378160025416611a788261216f565b528160015416611a8782612192565b5284611ac483825416611a9b8754426121b2565b938a51809581948293637ff36ab560e01b8452878c8501526080602485015260848401906121d5565b903060448401526064830152039134905af1908115611c4d57611b009291611af3918791611c33575b50612192565b5192839160015416612284565b833b156104ea57845190631adfd7bd60e31b825282820152856024820152828160448183885af18015611c1557908391611c1f575b505083516370a0823160e01b81523082820152948686602481875afa958615611c15578396611be6575b50851061032657835163a9059cbb60e01b815233918101918252602082018690529190869083908190604001038184875af1908115611bdb5750611bbe575b50815160008051602061241883398151915233918061031d87348361235b565b611bd490853d87116103cd576103be8183612135565b5038611b9e565b8451903d90823e3d90fd5b9095508681813d8311611c0e575b611bfe8183612135565b8101031261039157519438611b5f565b503d611bf4565b85513d85823e3d90fd5b611c28906120d3565b610439578138611b35565b611c4791503d8089833e610ad68183612135565b38611aed565b87513d87823e3d90fd5b82516313d0ff5960e31b81528590fd5b5082346104ea5782826003193601126103485761194491611c86612093565b90845191611c9383612119565b600383526060366020850137611ca88361216f565b6001600160a01b0391821690526001548116611cc384612192565b5280600254166117f2846121a2565b508290346104ea57611ce3366120a9565b93919460ff60065416611ebb576001600160a01b03958616928315611ead578215611e9f5784516323b872dd60e01b81523382820190815230602082810191909152604082018690529891908990829081906060010381878a5af18015611e6557611e82575b50843b156104ea57855163d79875eb60e01b815284838201528760248201528381604481838a5af18015611e6557611e6f575b5060015416908551966370a0823160e01b885230828901528888602481865afa978815611e65578498611e36575b508710611e2857855163a9059cbb60e01b815233918101918252602082018890529291889184919082908590829060400103925af19081156106ff5750611e0b575b5060008051602061245883398151915283518061031d87339583612258565b611e2190863d88116103cd576103be8183612135565b5085611dec565b8551638199f5f360e01b8152fd5b9097508881813d8311611e5e575b611e4e8183612135565b8101031261039157519689611daa565b503d611e44565b87513d86823e3d90fd5b611e7b909391936120d3565b9188611d7c565b611e9890893d8b116103cd576103be8183612135565b5088611d49565b845163162908e360e11b8152fd5b845163e6c4247b60e01b8152fd5b83516313d0ff5960e31b81528390fd5b508290346104ea57806003193601126104ea5780611ee7612093565b8151634815327960e01b8152602480359582019590955293849182906001600160a01b03165afa91821561178d576020939261176d575051908152f35b509134610439578260031936011261043957611f3e612093565b8351611f49816120fd565b60028152843660208301376002546001600160a01b0391611fae918691908416611f728261216f565b528360015416611f8182612192565b52838254168851808095819463d06ca61f60e01b83526024358b8401528c602484015260448301906121d5565b03915afa90811561203857611fce87939260249288916120245750612192565b518351634815327960e01b8152958601819052949384928391165afa928315611bdb5792612004575b5082519182526020820152f35b61201c919250833d851161136a5761135b8183612135565b509038611ff7565b611c4791503d808a833e610ad68183612135565b86513d87823e3d90fd5b839085346104ea5760203660031901126104ea57803591821515809303610996576003546001600160a01b0316330361208857505060ff80196006541691161760065580f35b6282b42960e81b8152fd5b600435906001600160a01b038216820361039157565b6060906003190112610391576004356001600160a01b038116810361039157906024359060443590565b67ffffffffffffffff81116120e757604052565b634e487b7160e01b600052604160045260246000fd5b6060810190811067ffffffffffffffff8211176120e757604052565b6080810190811067ffffffffffffffff8211176120e757604052565b90601f8019910116810190811067ffffffffffffffff8211176120e757604052565b90816020910312610391575180151581036103915790565b80511561217c5760200190565b634e487b7160e01b600052603260045260246000fd5b80516001101561217c5760400190565b80516002101561217c5760600190565b919082018092116121bf57565b634e487b7160e01b600052601160045260246000fd5b90815180825260208080930193019160005b8281106121f5575050505090565b83516001600160a01b0316855293810193928101926001016121e7565b919260809361223792979695978452602084015260a0604084015260a08301906121d5565b6001600160a01b0390951660608201520152565b919082039182116121bf57565b909160a092825260208201526060604082015260056060820152642420ab22a760d91b60808201520190565b604051636eb1769f60e11b81523060048201526001600160a01b03928316602482018190526020949390921692908481604481875afa9081156123225760009161232e575b50106122d457505050565b60009160448492604051948593849263095ea7b360e01b84526004840152811960248401525af1801561232257612309575050565b8161231f92903d106103cd576103be8183612135565b50565b6040513d6000823e3d90fd5b908582813d8311612354575b6123448183612135565b81010312610348575051386122c9565b503d61233a565b909160a0928252602082015260606040820152600360608201526221272160e91b60808201520190565b90602090818382031261039157825167ffffffffffffffff93848211610391570181601f820112156103915780519384116120e7578360051b90604051946123cf85840187612135565b85528380860192820101928311610391578301905b8282106123f2575050505090565b815181529083019083016123e4565b919082604091031261039157602082519201519056fedbf644d856b00690afba8d4cd3fb1c6afa1f453860c0e83555bcb0cb733adf7244573a89df583c0b1e16e6c22d41b4e39de1ca341d0a234b7117ccc2bf727dc4a995d58d3ff5874a6dddaea0cef425f86801752ff3be4102724cc656769e3724a26469706673582212200e3595e85bf369e8dd5d96e0a7169d7776263bd847a14c2a2c0299df63a4e05f64736f6c63430008140033","opcodes":"PUSH1 0x80 CALLVALUE PUSH3 0xFF JUMPI PUSH1 0x1F PUSH3 0x25DD CODESIZE DUP2 SWAP1 SUB SWAP2 DUP3 ADD PUSH1 0x1F NOT AND DUP4 ADD SWAP3 SWAP2 SWAP1 PUSH1 0x1 PUSH1 0x1 PUSH1 0x40 SHL SUB DUP5 GT DUP4 DUP6 LT OR PUSH3 0x104 JUMPI DUP2 PUSH1 0x60 SWAP3 DUP5 SWAP3 PUSH1 0x40 SWAP7 DUP8 MSTORE DUP4 CODECOPY DUP2 ADD SUB SLT PUSH3 0xFF JUMPI PUSH3 0x51 DUP2 PUSH3 0x11A JUMP JUMPDEST PUSH3 0x6C DUP4 PUSH3 0x64 PUSH1 0x20 DUP6 ADD PUSH3 0x11A JUMP JUMPDEST SWAP4 ADD PUSH3 0x11A JUMP JUMPDEST PUSH2 0x12C PUSH1 0x4 SSTORE PUSH2 0x1388 PUSH1 0x5 SSTORE PUSH1 0x1 PUSH1 0x1 PUSH1 0xA0 SHL SUB SWAP2 DUP3 AND SWAP3 SWAP1 SWAP2 SWAP1 DUP4 ISZERO PUSH3 0xEE JUMPI DUP2 AND SWAP2 DUP3 ISZERO PUSH3 0xEE JUMPI AND SWAP1 DUP2 ISZERO PUSH3 0xDD JUMPI PUSH1 0x1 DUP1 PUSH1 0xA0 SHL SUB NOT SWAP3 DUP4 PUSH1 0x0 SLOAD AND OR PUSH1 0x0 SSTORE DUP3 PUSH1 0x1 SLOAD AND OR PUSH1 0x1 SSTORE DUP2 PUSH1 0x2 SLOAD AND OR PUSH1 0x2 SSTORE CALLER SWAP1 PUSH1 0x3 SLOAD AND OR PUSH1 0x3 SSTORE MLOAD PUSH2 0x24AD SWAP1 DUP2 PUSH3 0x130 DUP3 CODECOPY RETURN JUMPDEST DUP4 MLOAD PUSH4 0xE6C4247B PUSH1 0xE0 SHL DUP2 MSTORE PUSH1 0x4 SWAP1 REVERT JUMPDEST DUP5 MLOAD PUSH4 0xE6C4247B PUSH1 0xE0 SHL DUP2 MSTORE PUSH1 0x4 SWAP1 REVERT JUMPDEST PUSH1 0x0 DUP1 REVERT JUMPDEST PUSH4 0x4E487B71 PUSH1 0xE0 SHL PUSH1 0x0 MSTORE PUSH1 0x41 PUSH1 0x4 MSTORE PUSH1 0x24 PUSH1 0x0 REVERT JUMPDEST MLOAD SWAP1 PUSH1 0x1 PUSH1 0x1 PUSH1 0xA0 SHL SUB DUP3 AND DUP3 SUB PUSH3 0xFF JUMPI JUMP INVALID PUSH1 0x80 PUSH1 0x40 SWAP1 DUP1 DUP3 MSTORE PUSH1 0x4 SWAP2 DUP3 CALLDATASIZE LT ISZERO PUSH2 0x23 JUMPI JUMPDEST POP POP POP CALLDATASIZE ISZERO PUSH2 0x21 JUMPI PUSH1 0x0 DUP1 REVERT JUMPDEST STOP JUMPDEST PUSH1 0x0 SWAP2 DUP3 CALLDATALOAD PUSH1 0xE0 SHR SWAP1 DUP2 PUSH4 0x16C38B3C EQ PUSH2 0x2042 JUMPI POP DUP1 PUSH4 0x17421DB4 EQ PUSH2 0x1F24 JUMPI DUP1 PUSH4 0x22E988A4 EQ PUSH2 0x1ECB JUMPI DUP1 PUSH4 0x29FE7269 EQ PUSH2 0x1CD2 JUMPI DUP1 PUSH4 0x324FC30C EQ PUSH2 0x1C67 JUMPI DUP1 PUSH4 0x3E598CB9 EQ PUSH2 0x1A16 JUMPI DUP1 PUSH4 0x43F68A49 EQ PUSH2 0x1980 JUMPI DUP1 PUSH4 0x584B5A38 EQ PUSH2 0x18DA JUMPI DUP1 PUSH4 0x5AF39811 EQ PUSH2 0x1843 JUMPI DUP1 PUSH4 0x5C975ABB EQ PUSH2 0x1820 JUMPI DUP1 PUSH4 0x6231AF91 EQ PUSH2 0x1797 JUMPI DUP1 PUSH4 0x64F5113D EQ PUSH2 0x1713 JUMPI DUP1 PUSH4 0x653028E8 EQ PUSH2 0x1683 JUMPI DUP1 PUSH4 0x781380C0 EQ PUSH2 0x1399 JUMPI DUP1 PUSH4 0x7BCAFC82 EQ PUSH2 0x1371 JUMPI DUP1 PUSH4 0x8661A02A EQ PUSH2 0x124D JUMPI DUP1 PUSH4 0x8D72647E EQ PUSH2 0x1225 JUMPI DUP1 PUSH4 0x8DA5CB5B EQ PUSH2 0x11FD JUMPI DUP1 PUSH4 0xB1998E10 EQ PUSH2 0xFE7 JUMPI DUP1 PUSH4 0xC21EBD07 EQ PUSH2 0xFC0 JUMPI DUP1 PUSH4 0xC4AA7395 EQ PUSH2 0xFA2 JUMPI DUP1 PUSH4 0xCAB27A64 EQ PUSH2 0xEFF JUMPI DUP1 PUSH4 0xCCB6303E EQ PUSH2 0xCB8 JUMPI DUP1 PUSH4 0xE63EA408 EQ PUSH2 0xB0F JUMPI DUP1 PUSH4 0xE8FECA30 EQ PUSH2 0xAF1 JUMPI DUP1 PUSH4 0xE9EA09B3 EQ PUSH2 0xA0E JUMPI DUP1 PUSH4 0xEEB34627 EQ PUSH2 0x7B4 JUMPI DUP1 PUSH4 0xF018AD9A EQ PUSH2 0x593 JUMPI DUP1 PUSH4 0xF2FDE38B EQ PUSH2 0x4EE JUMPI DUP1 PUSH4 0xF8316C90 EQ PUSH2 0x43D JUMPI PUSH4 0xFA7C313F SUB PUSH2 0x13 JUMPI CALLVALUE PUSH2 0x439 JUMPI PUSH2 0x18F CALLDATASIZE PUSH2 0x20A9 JUMP JUMPDEST SWAP4 SWAP2 SWAP5 PUSH1 0xFF PUSH1 0x6 SLOAD AND PUSH2 0x42B JUMPI PUSH1 0x1 PUSH1 0x1 PUSH1 0xA0 SHL SUB DUP7 DUP2 AND SWAP4 DUP5 ISZERO PUSH2 0x41B JUMPI DUP4 ISZERO PUSH2 0x40B JUMPI DUP6 MLOAD PUSH4 0x70A08231 PUSH1 0xE0 SHL DUP1 DUP3 MSTORE ADDRESS DUP6 DUP4 ADD MSTORE PUSH1 0x20 SWAP10 SWAP2 DUP11 DUP2 PUSH1 0x24 DUP2 DUP12 GAS STATICCALL SWAP1 DUP2 ISZERO PUSH2 0x39D JUMPI DUP5 SWAP2 PUSH2 0x3DE JUMPI JUMPDEST POP DUP9 MLOAD PUSH4 0x23B872DD PUSH1 0xE0 SHL DUP2 MSTORE CALLER DUP8 DUP3 ADD SWAP1 DUP2 MSTORE ADDRESS PUSH1 0x20 DUP3 ADD MSTORE PUSH1 0x40 DUP2 ADD DUP10 SWAP1 MSTORE DUP13 SWAP1 DUP3 SWAP1 DUP2 SWAP1 PUSH1 0x60 ADD SUB DUP2 DUP9 DUP14 GAS CALL DUP1 ISZERO PUSH2 0x3D4 JUMPI PUSH2 0x3A7 JUMPI JUMPDEST POP DUP9 MLOAD SWAP2 DUP3 MSTORE ADDRESS DUP7 DUP4 ADD MSTORE DUP11 DUP3 PUSH1 0x24 DUP2 DUP12 GAS STATICCALL DUP1 ISZERO PUSH2 0x39D JUMPI DUP5 SWAP1 PUSH2 0x369 JUMPI JUMPDEST PUSH2 0x245 SWAP3 POP PUSH2 0x224B JUMP JUMPDEST SWAP1 DUP2 ISZERO PUSH2 0x359 JUMPI DUP2 PUSH2 0x25B SWAP2 DUP6 DUP6 SLOAD AND SWAP1 PUSH2 0x2284 JUMP JUMPDEST DUP7 MLOAD SWAP1 PUSH2 0x267 DUP3 PUSH2 0x2119 JUMP JUMPDEST PUSH1 0x3 DUP3 MSTORE PUSH1 0x60 CALLDATASIZE DUP12 DUP5 ADD CALLDATACOPY DUP7 PUSH2 0x27C DUP4 PUSH2 0x216F JUMP JUMPDEST MSTORE DUP4 PUSH1 0x1 SLOAD AND PUSH2 0x28B DUP4 PUSH2 0x2192 JUMP JUMPDEST MSTORE DUP4 PUSH1 0x2 SLOAD AND PUSH2 0x29A DUP4 PUSH2 0x21A2 JUMP JUMPDEST MSTORE CALLER BALANCE SWAP4 DUP4 SLOAD AND SWAP1 PUSH2 0x2AD DUP7 SLOAD TIMESTAMP PUSH2 0x21B2 JUMP JUMPDEST DUP3 EXTCODESIZE ISZERO PUSH2 0x355 JUMPI SWAP2 DUP11 DUP6 DUP9 SWAP6 SWAP4 PUSH2 0x2DB DUP3 SWAP7 DUP15 MLOAD SWAP9 DUP10 SWAP8 DUP9 SWAP7 DUP8 SWAP6 PUSH4 0x791AC947 PUSH1 0xE0 SHL DUP8 MSTORE CALLER SWAP4 DUP8 ADD PUSH2 0x2212 JUMP JUMPDEST SUB SWAP3 GAS CALL DUP1 ISZERO PUSH2 0x34B JUMPI PUSH2 0x334 JUMPI JUMPDEST POP POP PUSH2 0x2F7 SWAP1 CALLER BALANCE PUSH2 0x224B JUMP JUMPDEST SWAP5 DUP6 LT PUSH2 0x326 JUMPI POP PUSH1 0x0 DUP1 MLOAD PUSH1 0x20 PUSH2 0x2458 DUP4 CODECOPY DUP2 MLOAD SWAP2 MSTORE DUP4 MLOAD DUP1 PUSH2 0x31D DUP8 CALLER SWAP6 DUP4 PUSH2 0x235B JUMP JUMPDEST SUB SWAP1 LOG3 MLOAD SWAP1 DUP2 MSTORE RETURN JUMPDEST DUP4 MLOAD PUSH4 0x8199F5F3 PUSH1 0xE0 SHL DUP2 MSTORE REVERT JUMPDEST PUSH2 0x33E DUP3 SWAP2 PUSH2 0x20D3 JUMP JUMPDEST PUSH2 0x348 JUMPI DUP1 PUSH2 0x2EA JUMP JUMPDEST DUP1 REVERT JUMPDEST DUP8 MLOAD RETURNDATASIZE DUP5 DUP3 RETURNDATACOPY RETURNDATASIZE SWAP1 REVERT JUMPDEST DUP5 DUP1 REVERT JUMPDEST DUP8 MLOAD PUSH4 0x162908E3 PUSH1 0xE1 SHL DUP2 MSTORE DUP6 SWAP1 REVERT JUMPDEST POP DUP11 DUP3 DUP2 RETURNDATASIZE DUP4 GT PUSH2 0x396 JUMPI JUMPDEST PUSH2 0x37F DUP2 DUP4 PUSH2 0x2135 JUMP JUMPDEST DUP2 ADD SUB SLT PUSH2 0x391 JUMPI PUSH2 0x245 SWAP2 MLOAD PUSH2 0x23B JUMP JUMPDEST PUSH1 0x0 DUP1 REVERT JUMPDEST POP RETURNDATASIZE PUSH2 0x375 JUMP JUMPDEST DUP10 MLOAD RETURNDATASIZE DUP7 DUP3 RETURNDATACOPY RETURNDATASIZE SWAP1 REVERT JUMPDEST PUSH2 0x3C6 SWAP1 DUP13 DUP14 RETURNDATASIZE LT PUSH2 0x3CD JUMPI JUMPDEST PUSH2 0x3BE DUP2 DUP4 PUSH2 0x2135 JUMP JUMPDEST DUP2 ADD SWAP1 PUSH2 0x2157 JUMP JUMPDEST POP CODESIZE PUSH2 0x21B JUMP JUMPDEST POP RETURNDATASIZE PUSH2 0x3B4 JUMP JUMPDEST DUP11 MLOAD RETURNDATASIZE DUP8 DUP3 RETURNDATACOPY RETURNDATASIZE SWAP1 REVERT JUMPDEST SWAP1 POP DUP11 DUP2 DUP2 RETURNDATASIZE DUP4 GT PUSH2 0x404 JUMPI JUMPDEST PUSH2 0x3F5 DUP2 DUP4 PUSH2 0x2135 JUMP JUMPDEST DUP2 ADD SUB SLT PUSH2 0x391 JUMPI MLOAD CODESIZE PUSH2 0x1E0 JUMP JUMPDEST POP RETURNDATASIZE PUSH2 0x3EB JUMP JUMPDEST DUP6 MLOAD PUSH4 0x162908E3 PUSH1 0xE1 SHL DUP2 MSTORE DUP4 SWAP1 REVERT JUMPDEST DUP6 MLOAD PUSH4 0xE6C4247B PUSH1 0xE0 SHL DUP2 MSTORE DUP4 SWAP1 REVERT JUMPDEST DUP4 MLOAD PUSH4 0x13D0FF59 PUSH1 0xE3 SHL DUP2 MSTORE REVERT JUMPDEST POP DUP1 REVERT JUMPDEST POP DUP3 SWAP1 CALLVALUE PUSH2 0x4EA JUMPI PUSH1 0x20 CALLDATASIZE PUSH1 0x3 NOT ADD SLT PUSH2 0x4EA JUMPI PUSH2 0x459 PUSH2 0x2093 JUMP JUMPDEST PUSH1 0x3 SLOAD PUSH1 0x1 PUSH1 0x1 PUSH1 0xA0 SHL SUB SWAP2 SWAP1 DUP3 AND CALLER SUB PUSH2 0x4DC JUMPI DUP2 AND SWAP3 DUP4 ISZERO PUSH2 0x4CE JUMPI POP DUP3 DUP5 SLOAD SWAP3 DUP1 MLOAD SWAP3 PUSH1 0x60 DUP5 MSTORE PUSH1 0xD PUSH1 0x60 DUP6 ADD MSTORE PUSH13 0x3830B731B0B5B2A937BABA32B9 PUSH1 0x99 SHL PUSH1 0x80 DUP6 ADD MSTORE DUP5 AND PUSH1 0x20 DUP5 ADD MSTORE DUP3 ADD MSTORE PUSH1 0x0 DUP1 MLOAD PUSH1 0x20 PUSH2 0x2438 DUP4 CODECOPY DUP2 MLOAD SWAP2 MSTORE PUSH1 0xA0 CALLER SWAP3 LOG2 PUSH1 0x1 PUSH1 0x1 PUSH1 0xA0 SHL SUB NOT AND OR DUP2 SSTORE DUP1 RETURN JUMPDEST DUP3 MLOAD PUSH4 0xE6C4247B PUSH1 0xE0 SHL DUP2 MSTORE REVERT JUMPDEST POP POP MLOAD PUSH3 0x82B429 PUSH1 0xE8 SHL DUP2 MSTORE REVERT JUMPDEST DUP3 DUP1 REVERT JUMPDEST POP DUP3 SWAP1 CALLVALUE PUSH2 0x4EA JUMPI PUSH1 0x20 CALLDATASIZE PUSH1 0x3 NOT ADD SLT PUSH2 0x4EA JUMPI PUSH2 0x50A PUSH2 0x2093 JUMP JUMPDEST PUSH1 0x3 SLOAD SWAP2 PUSH1 0x1 PUSH1 0x1 PUSH1 0xA0 SHL SUB DUP1 DUP5 AND SWAP3 CALLER DUP5 SWAP1 SUB PUSH2 0x584 JUMPI AND SWAP4 DUP5 ISZERO PUSH2 0x576 JUMPI POP DUP1 DUP5 SWAP2 MLOAD SWAP3 PUSH1 0x60 DUP5 MSTORE PUSH1 0x5 PUSH1 0x60 DUP6 ADD MSTORE PUSH5 0x37BBB732B9 PUSH1 0xD9 SHL PUSH1 0x80 DUP6 ADD MSTORE PUSH1 0x20 DUP5 ADD MSTORE DUP3 ADD MSTORE PUSH1 0x0 DUP1 MLOAD PUSH1 0x20 PUSH2 0x2438 DUP4 CODECOPY DUP2 MLOAD SWAP2 MSTORE PUSH1 0xA0 CALLER SWAP3 LOG2 PUSH1 0x1 PUSH1 0x1 PUSH1 0xA0 SHL SUB NOT AND OR PUSH1 0x3 SSTORE DUP1 RETURN JUMPDEST SWAP1 MLOAD PUSH4 0xE6C4247B PUSH1 0xE0 SHL DUP2 MSTORE REVERT JUMPDEST DUP3 MLOAD PUSH3 0x82B429 PUSH1 0xE8 SHL DUP2 MSTORE DUP7 SWAP1 REVERT JUMPDEST POP DUP3 SWAP1 CALLVALUE PUSH2 0x4EA JUMPI DUP2 SWAP3 PUSH2 0x5A6 CALLDATASIZE PUSH2 0x20A9 JUMP JUMPDEST PUSH1 0xFF PUSH1 0x6 SWAP5 SWAP3 SWAP4 SWAP5 SLOAD AND PUSH2 0x7A4 JUMPI PUSH1 0x1 PUSH1 0x1 PUSH1 0xA0 SHL SUB DUP5 DUP2 AND SWAP5 SWAP1 DUP6 ISZERO PUSH2 0x794 JUMPI DUP5 ISZERO PUSH2 0x784 JUMPI PUSH1 0x1 SLOAD DUP8 MLOAD PUSH4 0x23B872DD PUSH1 0xE0 SHL DUP2 MSTORE CALLER SWAP11 DUP2 ADD SWAP11 DUP12 MSTORE ADDRESS PUSH1 0x20 DUP13 DUP2 ADD SWAP2 SWAP1 SWAP2 MSTORE PUSH1 0x40 DUP13 ADD DUP9 SWAP1 MSTORE SWAP11 SWAP1 SWAP2 DUP12 SWAP2 DUP4 SWAP2 DUP6 AND SWAP1 DUP3 SWAP1 DUP10 SWAP1 DUP3 SWAP1 PUSH1 0x60 ADD SUB SWAP3 GAS CALL DUP1 ISZERO PUSH2 0x77A JUMPI SWAP2 PUSH2 0x628 SWAP4 SWAP2 DUP8 SWAP4 PUSH2 0x75D JUMPI JUMPDEST POP PUSH1 0x1 SLOAD AND PUSH2 0x2284 JUMP JUMPDEST DUP4 EXTCODESIZE ISZERO PUSH2 0x439 JUMPI DUP5 MLOAD SWAP1 PUSH4 0x1ADFD7BD PUSH1 0xE3 SHL DUP3 MSTORE DUP4 DUP8 DUP4 ADD MSTORE PUSH1 0x24 DUP3 ADD MSTORE DUP2 DUP2 PUSH1 0x44 DUP2 DUP4 DUP9 GAS CALL DUP1 ISZERO PUSH2 0x73F JUMPI SWAP1 DUP3 SWAP2 PUSH2 0x749 JUMPI JUMPDEST POP POP DUP4 MLOAD PUSH4 0x70A08231 PUSH1 0xE0 SHL DUP2 MSTORE ADDRESS DUP7 DUP3 ADD MSTORE SWAP5 DUP7 DUP7 PUSH1 0x24 DUP2 DUP8 GAS STATICCALL SWAP6 DUP7 ISZERO PUSH2 0x73F JUMPI SWAP1 DUP8 SWAP2 DUP4 SWAP8 PUSH2 0x70A JUMPI JUMPDEST POP DUP6 MLOAD PUSH4 0xA9059CBB PUSH1 0xE0 SHL DUP2 MSTORE CALLER SWAP2 DUP2 ADD SWAP2 DUP3 MSTORE PUSH1 0x20 DUP3 ADD DUP9 SWAP1 MSTORE SWAP3 SWAP2 SWAP1 DUP4 SWAP1 DUP2 SWAP1 PUSH1 0x40 ADD JUMPDEST SUB DUP2 DUP5 DUP9 GAS CALL SWAP1 DUP2 ISZERO PUSH2 0x6FF JUMPI POP PUSH2 0x6E2 JUMPI JUMPDEST POP PUSH1 0x0 DUP1 MLOAD PUSH1 0x20 PUSH2 0x2418 DUP4 CODECOPY DUP2 MLOAD SWAP2 MSTORE DUP4 MLOAD DUP1 PUSH2 0x31D DUP8 CALLER SWAP6 DUP4 PUSH2 0x2258 JUMP JUMPDEST PUSH2 0x6F8 SWAP1 DUP7 RETURNDATASIZE DUP9 GT PUSH2 0x3CD JUMPI PUSH2 0x3BE DUP2 DUP4 PUSH2 0x2135 JUMP JUMPDEST POP DUP6 PUSH2 0x6C3 JUMP JUMPDEST DUP6 MLOAD SWAP1 RETURNDATASIZE SWAP1 DUP3 RETURNDATACOPY RETURNDATASIZE SWAP1 REVERT JUMPDEST DUP3 DUP2 SWAP5 SWAP4 SWAP3 SWAP9 POP RETURNDATASIZE DUP4 GT PUSH2 0x738 JUMPI JUMPDEST PUSH2 0x723 DUP2 DUP4 PUSH2 0x2135 JUMP JUMPDEST DUP2 ADD SUB SLT PUSH2 0x391 JUMPI SWAP1 MLOAD SWAP5 DUP7 SWAP1 PUSH2 0x6B0 PUSH2 0x68A JUMP JUMPDEST POP RETURNDATASIZE PUSH2 0x719 JUMP JUMPDEST DUP6 MLOAD RETURNDATASIZE DUP5 DUP3 RETURNDATACOPY RETURNDATASIZE SWAP1 REVERT JUMPDEST PUSH2 0x752 SWAP1 PUSH2 0x20D3 JUMP JUMPDEST PUSH2 0x348 JUMPI DUP1 DUP8 PUSH2 0x65D JUMP JUMPDEST PUSH2 0x773 SWAP1 DUP13 DUP14 RETURNDATASIZE LT PUSH2 0x3CD JUMPI PUSH2 0x3BE DUP2 DUP4 PUSH2 0x2135 JUMP JUMPDEST POP DUP12 PUSH2 0x61E JUMP JUMPDEST DUP9 MLOAD RETURNDATASIZE DUP8 DUP3 RETURNDATACOPY RETURNDATASIZE SWAP1 REVERT JUMPDEST DUP7 MLOAD PUSH4 0x162908E3 PUSH1 0xE1 SHL DUP2 MSTORE DUP9 SWAP1 REVERT JUMPDEST DUP7 MLOAD PUSH4 0xE6C4247B PUSH1 0xE0 SHL DUP2 MSTORE DUP9 SWAP1 REVERT JUMPDEST DUP5 MLOAD PUSH4 0x13D0FF59 PUSH1 0xE3 SHL DUP2 MSTORE DUP7 SWAP1 REVERT JUMPDEST POP DUP3 SWAP1 CALLVALUE PUSH2 0x4EA JUMPI PUSH2 0x7C5 CALLDATASIZE PUSH2 0x20A9 JUMP JUMPDEST SWAP4 PUSH1 0xFF PUSH1 0x6 SLOAD AND PUSH2 0x42B JUMPI PUSH1 0x1 PUSH1 0x1 PUSH1 0xA0 SHL SUB SWAP3 DUP4 AND SWAP3 DUP4 ISZERO PUSH2 0x9FF JUMPI DUP3 ISZERO PUSH2 0x9F0 JUMPI PUSH1 0x1 SLOAD DUP6 MLOAD PUSH4 0x23B872DD PUSH1 0xE0 SHL DUP2 MSTORE CALLER DUP5 DUP3 ADD SWAP1 DUP2 MSTORE ADDRESS PUSH1 0x20 DUP3 DUP2 ADD SWAP2 SWAP1 SWAP2 MSTORE PUSH1 0x40 DUP3 ADD DUP8 SWAP1 MSTORE SWAP10 SWAP3 DUP11 SWAP2 DUP4 SWAP2 DUP7 AND SWAP1 DUP3 SWAP1 DUP7 SWAP1 DUP3 SWAP1 PUSH1 0x60 ADD SUB SWAP3 GAS CALL DUP1 ISZERO PUSH2 0x34B JUMPI PUSH2 0x9D3 JUMPI JUMPDEST POP PUSH2 0x844 DUP5 DUP4 PUSH1 0x1 SLOAD AND DUP5 DUP5 SLOAD AND SWAP1 PUSH2 0x2284 JUMP JUMPDEST DUP6 MLOAD SWAP1 PUSH2 0x850 DUP3 PUSH2 0x20FD JUMP JUMPDEST PUSH1 0x2 DUP3 MSTORE DUP7 CALLDATASIZE DUP11 DUP5 ADD CALLDATACOPY DUP3 PUSH1 0x1 SLOAD AND PUSH2 0x868 DUP4 PUSH2 0x216F JUMP JUMPDEST MSTORE DUP6 PUSH2 0x873 DUP4 PUSH2 0x2192 JUMP JUMPDEST MSTORE DUP7 MLOAD SWAP2 PUSH4 0x70A08231 PUSH1 0xE0 SHL SWAP4 DUP5 DUP5 MSTORE CALLER DUP7 DUP6 ADD MSTORE DUP11 DUP5 PUSH1 0x24 DUP2 DUP12 GAS STATICCALL SWAP4 DUP5 ISZERO PUSH2 0x9C9 JUMPI DUP4 SWAP5 PUSH2 0x99A JUMPI JUMPDEST POP DUP3 SLOAD AND PUSH2 0x8AD DUP7 SLOAD TIMESTAMP PUSH2 0x21B2 JUMP JUMPDEST DUP2 EXTCODESIZE ISZERO PUSH2 0x996 JUMPI SWAP2 DUP4 SWAP2 DUP12 DUP4 DUP11 PUSH2 0x8DB DUP12 SWAP8 DUP16 MLOAD SWAP9 DUP10 SWAP8 DUP9 SWAP7 DUP8 SWAP6 PUSH4 0x5C11D795 PUSH1 0xE0 SHL DUP8 MSTORE CALLER SWAP4 DUP8 ADD PUSH2 0x2212 JUMP JUMPDEST SUB SWAP3 GAS CALL DUP1 ISZERO PUSH2 0x98C JUMPI SWAP1 DUP3 SWAP2 PUSH2 0x978 JUMPI JUMPDEST POP POP DUP7 MLOAD SWAP3 DUP4 MSTORE CALLER DUP5 DUP5 ADD MSTORE DUP9 DUP4 PUSH1 0x24 DUP2 DUP10 GAS STATICCALL SWAP1 DUP2 ISZERO PUSH2 0x96D JUMPI SWAP1 PUSH2 0x93E JUMPI JUMPDEST PUSH2 0x918 SWAP3 POP PUSH2 0x224B JUMP JUMPDEST SWAP5 DUP6 LT PUSH2 0x326 JUMPI POP PUSH1 0x0 DUP1 MLOAD PUSH1 0x20 PUSH2 0x2418 DUP4 CODECOPY DUP2 MLOAD SWAP2 MSTORE DUP4 MLOAD DUP1 PUSH2 0x31D DUP8 CALLER SWAP6 DUP4 PUSH2 0x2258 JUMP JUMPDEST POP DUP8 DUP3 DUP2 RETURNDATASIZE DUP4 GT PUSH2 0x966 JUMPI JUMPDEST PUSH2 0x954 DUP2 DUP4 PUSH2 0x2135 JUMP JUMPDEST DUP2 ADD SUB SLT PUSH2 0x391 JUMPI PUSH2 0x918 SWAP2 MLOAD PUSH2 0x90E JUMP JUMPDEST POP RETURNDATASIZE PUSH2 0x94A JUMP JUMPDEST DUP8 MLOAD SWAP1 RETURNDATASIZE SWAP1 DUP3 RETURNDATACOPY RETURNDATASIZE SWAP1 REVERT JUMPDEST PUSH2 0x981 SWAP1 PUSH2 0x20D3 JUMP JUMPDEST PUSH2 0x348 JUMPI DUP1 DUP11 PUSH2 0x8ED JUMP JUMPDEST DUP9 MLOAD RETURNDATASIZE DUP5 DUP3 RETURNDATACOPY RETURNDATASIZE SWAP1 REVERT JUMPDEST DUP4 DUP1 REVERT JUMPDEST SWAP1 SWAP4 POP DUP11 DUP2 DUP2 RETURNDATASIZE DUP4 GT PUSH2 0x9C2 JUMPI JUMPDEST PUSH2 0x9B2 DUP2 DUP4 PUSH2 0x2135 JUMP JUMPDEST DUP2 ADD SUB SLT PUSH2 0x391 JUMPI MLOAD SWAP3 DUP12 PUSH2 0x89E JUMP JUMPDEST POP RETURNDATASIZE PUSH2 0x9A8 JUMP JUMPDEST DUP10 MLOAD RETURNDATASIZE DUP6 DUP3 RETURNDATACOPY RETURNDATASIZE SWAP1 REVERT JUMPDEST PUSH2 0x9E9 SWAP1 DUP10 RETURNDATASIZE DUP12 GT PUSH2 0x3CD JUMPI PUSH2 0x3BE DUP2 DUP4 PUSH2 0x2135 JUMP JUMPDEST POP DUP9 PUSH2 0x830 JUMP JUMPDEST POP DUP4 MLOAD PUSH4 0x162908E3 PUSH1 0xE1 SHL DUP2 MSTORE REVERT JUMPDEST POP DUP4 MLOAD PUSH4 0xE6C4247B PUSH1 0xE0 SHL DUP2 MSTORE REVERT JUMPDEST POP DUP3 CALLVALUE PUSH2 0x4EA JUMPI DUP3 DUP3 PUSH1 0x3 NOT CALLDATASIZE ADD SLT PUSH2 0x348 JUMPI PUSH2 0xA99 SWAP2 PUSH2 0xA2D PUSH2 0x2093 JUMP JUMPDEST SWAP1 DUP5 MLOAD SWAP2 PUSH2 0xA3A DUP4 PUSH2 0x20FD JUMP JUMPDEST PUSH1 0x2 DUP4 MSTORE DUP6 CALLDATASIZE PUSH1 0x20 DUP6 ADD CALLDATACOPY PUSH1 0x1 SLOAD PUSH1 0x1 PUSH1 0x1 PUSH1 0xA0 SHL SUB SWAP2 SWAP1 DUP3 AND PUSH2 0xA5D DUP6 PUSH2 0x216F JUMP JUMPDEST MSTORE DUP2 PUSH2 0xA68 DUP6 PUSH2 0x2192 JUMP JUMPDEST SWAP2 AND SWAP1 MSTORE DUP4 SLOAD AND SWAP1 DUP6 MLOAD DUP1 SWAP6 DUP2 SWAP5 DUP3 SWAP4 PUSH4 0xD06CA61F PUSH1 0xE0 SHL DUP5 MSTORE PUSH1 0x24 CALLDATALOAD SWAP1 DUP5 ADD MSTORE DUP9 PUSH1 0x24 DUP5 ADD MSTORE PUSH1 0x44 DUP4 ADD SWAP1 PUSH2 0x21D5 JUMP JUMPDEST SUB SWAP2 GAS STATICCALL SWAP1 DUP2 ISZERO PUSH2 0xAE5 JUMPI SWAP1 PUSH2 0xABA SWAP2 DUP5 PUSH1 0x20 SWAP6 SWAP3 PUSH2 0xAC2 JUMPI JUMPDEST POP POP PUSH2 0x2192 JUMP JUMPDEST MLOAD SWAP1 MLOAD SWAP1 DUP2 MSTORE RETURN JUMPDEST PUSH2 0xADE SWAP3 POP RETURNDATASIZE DUP1 SWAP2 DUP4 RETURNDATACOPY PUSH2 0xAD6 DUP2 DUP4 PUSH2 0x2135 JUMP JUMPDEST DUP2 ADD SWAP1 PUSH2 0x2385 JUMP JUMPDEST DUP5 DUP1 PUSH2 0xAB3 JUMP JUMPDEST POP POP MLOAD SWAP1 RETURNDATASIZE SWAP1 DUP3 RETURNDATACOPY RETURNDATASIZE SWAP1 REVERT JUMPDEST POP DUP3 CALLVALUE PUSH2 0x4EA JUMPI DUP3 PUSH1 0x3 NOT CALLDATASIZE ADD SLT PUSH2 0x4EA JUMPI PUSH1 0x20 SWAP3 POP SLOAD SWAP1 MLOAD SWAP1 DUP2 MSTORE RETURN JUMPDEST POP DUP3 SWAP1 CALLVALUE PUSH2 0x4EA JUMPI PUSH1 0x60 CALLDATASIZE PUSH1 0x3 NOT ADD SLT PUSH2 0x4EA JUMPI PUSH2 0xB2B PUSH2 0x2093 JUMP JUMPDEST PUSH1 0x1 PUSH1 0x1 PUSH1 0xA0 SHL SUB PUSH1 0x24 CALLDATALOAD DUP2 DUP2 AND SWAP5 SWAP1 SWAP4 SWAP2 DUP6 DUP6 SUB PUSH2 0x391 JUMPI PUSH1 0x44 CALLDATALOAD SWAP4 DUP2 PUSH1 0x3 SLOAD AND CALLER SUB PUSH2 0xCA9 JUMPI DUP7 ISZERO PUSH2 0xC99 JUMPI AND SWAP4 DUP4 SWAP1 DUP6 PUSH2 0xBFC JUMPI POP DUP7 DUP1 DUP1 DUP1 SWAP4 DUP10 GAS CALL RETURNDATASIZE ISZERO PUSH2 0xBF7 JUMPI RETURNDATASIZE PUSH8 0xFFFFFFFFFFFFFFFF DUP2 GT PUSH2 0xBE4 JUMPI DUP4 MLOAD SWAP1 PUSH2 0xB98 PUSH1 0x1F DUP3 ADD PUSH1 0x1F NOT AND PUSH1 0x20 ADD DUP4 PUSH2 0x2135 JUMP JUMPDEST DUP2 MSTORE DUP8 PUSH1 0x20 RETURNDATASIZE SWAP3 ADD RETURNDATACOPY JUMPDEST ISZERO PUSH2 0xBD6 JUMPI POP PUSH32 0xF24EF89F38EADC1BDE50701AD6E4D6D11A2DC24F7CF834A486991F3883328504 SWAP2 PUSH1 0x20 SWAP2 JUMPDEST MLOAD SWAP1 DUP2 MSTORE LOG3 DUP1 RETURN JUMPDEST SWAP1 MLOAD PUSH4 0x12171D83 PUSH1 0xE3 SHL DUP2 MSTORE REVERT JUMPDEST PUSH4 0x4E487B71 PUSH1 0xE0 SHL DUP9 MSTORE PUSH1 0x41 DUP4 MSTORE PUSH1 0x24 DUP9 REVERT JUMPDEST PUSH2 0xBA2 JUMP JUMPDEST DUP4 MLOAD PUSH4 0xA9059CBB PUSH1 0xE0 SHL DUP2 MSTORE PUSH1 0x1 PUSH1 0x1 PUSH1 0xA0 SHL SUB SWAP1 SWAP2 AND DUP4 DUP3 ADD SWAP1 DUP2 MSTORE PUSH1 0x20 DUP2 DUP2 ADD SWAP4 SWAP1 SWAP4 MSTORE SWAP1 SWAP2 SWAP1 DUP3 SWAP1 DUP2 SWAP1 PUSH1 0x40 ADD SUB DUP2 DUP11 DUP10 GAS CALL SWAP1 DUP2 ISZERO PUSH2 0xC8F JUMPI DUP8 SWAP2 PUSH2 0xC71 JUMPI JUMPDEST POP ISZERO PUSH2 0xBD6 JUMPI POP PUSH32 0xF24EF89F38EADC1BDE50701AD6E4D6D11A2DC24F7CF834A486991F3883328504 SWAP2 PUSH1 0x20 SWAP2 PUSH2 0xBCE JUMP JUMPDEST PUSH2 0xC89 SWAP2 POP PUSH1 0x20 RETURNDATASIZE DUP2 GT PUSH2 0x3CD JUMPI PUSH2 0x3BE DUP2 DUP4 PUSH2 0x2135 JUMP JUMPDEST DUP8 PUSH2 0xC40 JUMP JUMPDEST DUP4 MLOAD RETURNDATASIZE DUP10 DUP3 RETURNDATACOPY RETURNDATASIZE SWAP1 REVERT JUMPDEST DUP4 MLOAD PUSH4 0xE6C4247B PUSH1 0xE0 SHL DUP2 MSTORE DUP4 SWAP1 REVERT JUMPDEST DUP4 MLOAD PUSH3 0x82B429 PUSH1 0xE8 SHL DUP2 MSTORE DUP4 SWAP1 REVERT JUMPDEST POP CALLVALUE PUSH2 0x439 JUMPI PUSH2 0xCC7 CALLDATASIZE PUSH2 0x20A9 JUMP JUMPDEST SWAP4 SWAP2 SWAP5 PUSH1 0xFF PUSH1 0x6 SLOAD AND PUSH2 0x42B JUMPI PUSH1 0x1 PUSH1 0x1 PUSH1 0xA0 SHL SUB SWAP6 DUP7 AND SWAP3 DUP4 ISZERO PUSH2 0x9FF JUMPI DUP3 ISZERO PUSH2 0x9F0 JUMPI DUP5 MLOAD PUSH4 0x23B872DD PUSH1 0xE0 SHL DUP2 MSTORE CALLER DUP4 DUP3 ADD SWAP1 DUP2 MSTORE ADDRESS PUSH1 0x20 DUP3 DUP2 ADD SWAP2 SWAP1 SWAP2 MSTORE PUSH1 0x40 DUP3 ADD DUP7 SWAP1 MSTORE SWAP9 SWAP2 SWAP1 DUP10 SWAP1 DUP3 SWAP1 DUP2 SWAP1 PUSH1 0x60 ADD SUB DUP2 DUP7 DUP11 GAS CALL DUP1 ISZERO PUSH2 0xED8 JUMPI PUSH2 0xEE2 JUMPI JUMPDEST POP DUP5 EXTCODESIZE ISZERO PUSH2 0x439 JUMPI DUP6 MLOAD PUSH4 0xD79875EB PUSH1 0xE0 SHL DUP2 MSTORE DUP5 DUP5 DUP3 ADD MSTORE DUP3 PUSH1 0x24 DUP3 ADD MSTORE DUP3 DUP2 PUSH1 0x44 DUP2 DUP4 DUP11 GAS CALL DUP1 ISZERO PUSH2 0xED8 JUMPI SWAP1 DUP4 SWAP2 PUSH2 0xEC4 JUMPI JUMPDEST POP POP PUSH1 0x1 SLOAD DUP7 MLOAD PUSH4 0x70A08231 PUSH1 0xE0 SHL DUP2 MSTORE ADDRESS DUP6 DUP3 ADD MSTORE SWAP2 SWAP1 DUP2 AND DUP10 DUP4 PUSH1 0x24 DUP2 DUP5 GAS STATICCALL SWAP3 DUP4 ISZERO PUSH2 0xEBA JUMPI DUP5 SWAP4 PUSH2 0xE8B JUMPI JUMPDEST POP DUP3 ISZERO PUSH2 0xE7B JUMPI DUP3 DUP10 DUP6 DUP5 PUSH2 0xDB0 DUP10 SWAP8 DUP16 SWAP7 DUP5 SWAP9 DUP6 SLOAD AND SWAP1 PUSH2 0x2284 JUMP JUMPDEST DUP12 DUP1 MLOAD SWAP6 PUSH2 0xDBD DUP8 PUSH2 0x20FD JUMP JUMPDEST PUSH1 0x2 DUP8 MSTORE CALLDATASIZE SWAP1 DUP8 ADD CALLDATACOPY DUP1 PUSH1 0x1 SLOAD AND PUSH2 0xDD4 DUP7 PUSH2 0x216F JUMP JUMPDEST MSTORE DUP1 PUSH1 0x2 SLOAD AND PUSH2 0xDE3 DUP7 PUSH2 0x2192 JUMP JUMPDEST MSTORE DUP2 SLOAD AND SWAP3 PUSH2 0xE12 PUSH2 0xDF6 DUP9 SLOAD TIMESTAMP PUSH2 0x21B2 JUMP JUMPDEST DUP14 MLOAD PUSH4 0x18CBAFE5 PUSH1 0xE0 SHL DUP2 MSTORE SWAP9 DUP10 SWAP8 DUP9 SWAP7 DUP8 SWAP6 CALLER SWAP4 DUP8 ADD PUSH2 0x2212 JUMP JUMPDEST SUB SWAP3 GAS CALL SWAP2 DUP3 ISZERO PUSH2 0xE70 JUMPI SWAP1 DUP2 PUSH2 0xE2E SWAP4 PUSH2 0xE55 JUMPI POP POP PUSH2 0x2192 JUMP JUMPDEST MLOAD SWAP5 DUP6 LT PUSH2 0x326 JUMPI POP PUSH1 0x0 DUP1 MLOAD PUSH1 0x20 PUSH2 0x2458 DUP4 CODECOPY DUP2 MLOAD SWAP2 MSTORE DUP4 MLOAD DUP1 PUSH2 0x31D DUP8 CALLER SWAP6 DUP4 PUSH2 0x235B JUMP JUMPDEST PUSH2 0xE69 SWAP3 POP RETURNDATASIZE DUP1 SWAP2 DUP4 RETURNDATACOPY PUSH2 0xAD6 DUP2 DUP4 PUSH2 0x2135 JUMP JUMPDEST CODESIZE DUP1 PUSH2 0xAB3 JUMP JUMPDEST DUP7 MLOAD SWAP1 RETURNDATASIZE SWAP1 DUP3 RETURNDATACOPY RETURNDATASIZE SWAP1 REVERT JUMPDEST DUP8 MLOAD PUSH4 0xBB2875C3 PUSH1 0xE0 SHL DUP2 MSTORE DUP6 SWAP1 REVERT JUMPDEST SWAP1 SWAP3 POP DUP10 DUP2 DUP2 RETURNDATASIZE DUP4 GT PUSH2 0xEB3 JUMPI JUMPDEST PUSH2 0xEA3 DUP2 DUP4 PUSH2 0x2135 JUMP JUMPDEST DUP2 ADD SUB SLT PUSH2 0x391 JUMPI MLOAD SWAP2 CODESIZE PUSH2 0xD93 JUMP JUMPDEST POP RETURNDATASIZE PUSH2 0xE99 JUMP JUMPDEST DUP9 MLOAD RETURNDATASIZE DUP7 DUP3 RETURNDATACOPY RETURNDATASIZE SWAP1 REVERT JUMPDEST PUSH2 0xECD SWAP1 PUSH2 0x20D3 JUMP JUMPDEST PUSH2 0x439 JUMPI DUP2 CODESIZE PUSH2 0xD63 JUMP JUMPDEST DUP8 MLOAD RETURNDATASIZE DUP6 DUP3 RETURNDATACOPY RETURNDATASIZE SWAP1 REVERT JUMPDEST PUSH2 0xEF8 SWAP1 DUP10 RETURNDATASIZE DUP12 GT PUSH2 0x3CD JUMPI PUSH2 0x3BE DUP2 DUP4 PUSH2 0x2135 JUMP JUMPDEST POP CODESIZE PUSH2 0xD2D JUMP JUMPDEST POP DUP3 CALLVALUE PUSH2 0x4EA JUMPI PUSH1 0x20 CALLDATASIZE PUSH1 0x3 NOT ADD SLT PUSH2 0x4EA JUMPI PUSH2 0xF1A PUSH2 0x2093 JUMP JUMPDEST PUSH1 0x3 SLOAD PUSH1 0x1 PUSH1 0x1 PUSH1 0xA0 SHL SUB SWAP3 SWAP2 SWAP1 DUP4 AND CALLER SUB PUSH2 0xF94 JUMPI DUP3 AND SWAP3 DUP4 ISZERO PUSH2 0xF87 JUMPI DUP4 SWAP1 PUSH1 0x2 SLOAD SWAP4 DUP2 MLOAD SWAP4 PUSH1 0x60 DUP6 MSTORE PUSH1 0x60 DUP6 ADD MSTORE PUSH4 0x3BB13731 PUSH1 0xE1 SHL PUSH1 0x80 DUP6 ADD MSTORE DUP5 AND PUSH1 0x20 DUP5 ADD MSTORE DUP3 ADD MSTORE PUSH1 0x0 DUP1 MLOAD PUSH1 0x20 PUSH2 0x2438 DUP4 CODECOPY DUP2 MLOAD SWAP2 MSTORE PUSH1 0xA0 CALLER SWAP3 LOG2 PUSH1 0x1 PUSH1 0x1 PUSH1 0xA0 SHL SUB NOT AND OR PUSH1 0x2 SSTORE DUP1 RETURN JUMPDEST MLOAD PUSH4 0xE6C4247B PUSH1 0xE0 SHL DUP2 MSTORE REVERT JUMPDEST POP DUP3 MLOAD PUSH3 0x82B429 PUSH1 0xE8 SHL DUP2 MSTORE REVERT JUMPDEST POP CALLVALUE PUSH2 0x439 JUMPI DUP2 PUSH1 0x3 NOT CALLDATASIZE ADD SLT PUSH2 0x439 JUMPI PUSH1 0x20 SWAP1 PUSH1 0x5 SLOAD SWAP1 MLOAD SWAP1 DUP2 MSTORE RETURN JUMPDEST POP CALLVALUE PUSH2 0x439 JUMPI DUP2 PUSH1 0x3 NOT CALLDATASIZE ADD SLT PUSH2 0x439 JUMPI SWAP1 SLOAD SWAP1 MLOAD PUSH1 0x1 PUSH1 0x1 PUSH1 0xA0 SHL SUB SWAP1 SWAP2 AND DUP2 MSTORE PUSH1 0x20 SWAP1 RETURN JUMPDEST POP DUP1 DUP4 SWAP2 PUSH1 0x3 NOT CALLDATASIZE ADD SLT PUSH2 0x4EA JUMPI PUSH2 0xFFD PUSH2 0x2093 JUMP JUMPDEST PUSH1 0x24 CALLDATALOAD SWAP3 PUSH1 0xFF PUSH1 0x6 SLOAD AND PUSH2 0x11EF JUMPI PUSH1 0x1 PUSH1 0x1 PUSH1 0xA0 SHL SUB SWAP2 DUP3 AND SWAP2 DUP3 ISZERO PUSH2 0x11E0 JUMPI CALLVALUE ISZERO PUSH2 0x11D1 JUMPI DUP4 MLOAD PUSH2 0x102E DUP2 PUSH2 0x2119 JUMP JUMPDEST PUSH1 0x3 DUP2 MSTORE PUSH1 0x20 SWAP7 PUSH1 0x60 CALLDATASIZE DUP10 DUP5 ADD CALLDATACOPY DUP3 PUSH1 0x2 SLOAD AND PUSH2 0x104A DUP4 PUSH2 0x216F JUMP JUMPDEST MSTORE DUP3 PUSH1 0x1 SLOAD AND PUSH2 0x1059 DUP4 PUSH2 0x2192 JUMP JUMPDEST MSTORE DUP5 PUSH2 0x1064 DUP4 PUSH2 0x21A2 JUMP JUMPDEST MSTORE DUP6 MLOAD SWAP2 PUSH4 0x70A08231 PUSH1 0xE0 SHL SWAP4 DUP5 DUP5 MSTORE CALLER DUP7 DUP6 ADD MSTORE DUP10 DUP5 PUSH1 0x24 DUP2 DUP11 GAS STATICCALL SWAP4 DUP5 ISZERO PUSH2 0x11C7 JUMPI DUP4 SWAP5 PUSH2 0x1198 JUMPI JUMPDEST POP DUP3 SLOAD AND PUSH2 0x109E DUP7 SLOAD TIMESTAMP PUSH2 0x21B2 JUMP JUMPDEST SWAP2 DUP2 EXTCODESIZE ISZERO PUSH2 0x996 JUMPI DUP4 SWAP2 PUSH2 0x10D5 SWAP2 DUP12 DUP12 MLOAD SWAP6 DUP7 SWAP5 DUP6 SWAP4 DUP5 SWAP4 PUSH4 0xB6F9DE95 PUSH1 0xE0 SHL DUP6 MSTORE DUP14 DUP6 ADD MSTORE PUSH1 0x80 PUSH1 0x24 DUP6 ADD MSTORE PUSH1 0x84 DUP5 ADD SWAP1 PUSH2 0x21D5 JUMP JUMPDEST SWAP1 CALLER PUSH1 0x44 DUP5 ADD MSTORE PUSH1 0x64 DUP4 ADD MSTORE SUB SWAP2 CALLVALUE SWAP1 GAS CALL DUP1 ISZERO PUSH2 0x34B JUMPI SWAP1 DUP3 SWAP2 PUSH2 0x1184 JUMPI JUMPDEST POP POP DUP6 MLOAD SWAP3 DUP4 MSTORE CALLER DUP5 DUP5 ADD MSTORE DUP8 DUP4 PUSH1 0x24 DUP2 DUP9 GAS STATICCALL SWAP1 DUP2 ISZERO PUSH2 0xE70 JUMPI SWAP1 PUSH2 0x1155 JUMPI JUMPDEST PUSH2 0x1120 SWAP3 POP PUSH2 0x224B JUMP JUMPDEST SWAP4 DUP5 LT PUSH2 0x1147 JUMPI POP DUP2 MLOAD PUSH1 0x0 DUP1 MLOAD PUSH1 0x20 PUSH2 0x2418 DUP4 CODECOPY DUP2 MLOAD SWAP2 MSTORE CALLER SWAP2 DUP1 PUSH2 0x31D DUP8 CALLVALUE DUP4 PUSH2 0x235B JUMP JUMPDEST DUP3 MLOAD PUSH4 0x8199F5F3 PUSH1 0xE0 SHL DUP2 MSTORE REVERT JUMPDEST POP DUP7 DUP3 DUP2 RETURNDATASIZE DUP4 GT PUSH2 0x117D JUMPI JUMPDEST PUSH2 0x116B DUP2 DUP4 PUSH2 0x2135 JUMP JUMPDEST DUP2 ADD SUB SLT PUSH2 0x391 JUMPI PUSH2 0x1120 SWAP2 MLOAD PUSH2 0x1116 JUMP JUMPDEST POP RETURNDATASIZE PUSH2 0x1161 JUMP JUMPDEST PUSH2 0x118D SWAP1 PUSH2 0x20D3 JUMP JUMPDEST PUSH2 0x348 JUMPI DUP1 DUP10 PUSH2 0x10F5 JUMP JUMPDEST SWAP1 SWAP4 POP DUP10 DUP2 DUP2 RETURNDATASIZE DUP4 GT PUSH2 0x11C0 JUMPI JUMPDEST PUSH2 0x11B0 DUP2 DUP4 PUSH2 0x2135 JUMP JUMPDEST DUP2 ADD SUB SLT PUSH2 0x391 JUMPI MLOAD SWAP3 DUP11 PUSH2 0x108F JUMP JUMPDEST POP RETURNDATASIZE PUSH2 0x11A6 JUMP JUMPDEST DUP9 MLOAD RETURNDATASIZE DUP6 DUP3 RETURNDATACOPY RETURNDATASIZE SWAP1 REVERT JUMPDEST POP DUP3 MLOAD PUSH4 0x162908E3 PUSH1 0xE1 SHL DUP2 MSTORE REVERT JUMPDEST POP DUP3 MLOAD PUSH4 0xE6C4247B PUSH1 0xE0 SHL DUP2 MSTORE REVERT JUMPDEST DUP3 MLOAD PUSH4 0x13D0FF59 PUSH1 0xE3 SHL DUP2 MSTORE REVERT JUMPDEST POP CALLVALUE PUSH2 0x439 JUMPI DUP2 PUSH1 0x3 NOT CALLDATASIZE ADD SLT PUSH2 0x439 JUMPI PUSH1 0x3 SLOAD SWAP1 MLOAD PUSH1 0x1 PUSH1 0x1 PUSH1 0xA0 SHL SUB SWAP1 SWAP2 AND DUP2 MSTORE PUSH1 0x20 SWAP1 RETURN JUMPDEST POP CALLVALUE PUSH2 0x439 JUMPI DUP2 PUSH1 0x3 NOT CALLDATASIZE ADD SLT PUSH2 0x439 JUMPI PUSH1 0x2 SLOAD SWAP1 MLOAD PUSH1 0x1 PUSH1 0x1 PUSH1 0xA0 SHL SUB SWAP1 SWAP2 AND DUP2 MSTORE PUSH1 0x20 SWAP1 RETURN JUMPDEST POP DUP3 CALLVALUE PUSH2 0x4EA JUMPI DUP2 PUSH1 0x3 NOT CALLDATASIZE ADD SLT PUSH2 0x4EA JUMPI PUSH2 0x1267 PUSH2 0x2093 JUMP JUMPDEST DUP3 MLOAD PUSH4 0xFB3DD95F PUSH1 0xE0 SHL DUP2 MSTORE PUSH1 0x24 DUP1 CALLDATALOAD DUP5 DUP4 ADD MSTORE SWAP1 SWAP2 DUP6 SWAP2 PUSH1 0x1 PUSH1 0x1 PUSH1 0xA0 SHL SUB SWAP2 DUP7 SWAP2 DUP6 SWAP2 DUP3 SWAP1 DUP6 AND GAS STATICCALL SWAP3 DUP4 ISZERO PUSH2 0x73F JUMPI DUP3 SWAP4 PUSH2 0x133F JUMPI JUMPDEST POP DUP3 SWAP4 PUSH2 0x1306 SWAP4 DUP7 MLOAD SWAP3 PUSH2 0x12B3 DUP5 PUSH2 0x20FD JUMP JUMPDEST PUSH1 0x2 DUP5 MSTORE DUP8 CALLDATASIZE PUSH1 0x20 DUP7 ADD CALLDATACOPY DUP1 PUSH1 0x1 SLOAD AND PUSH2 0x12CC DUP6 PUSH2 0x216F JUMP JUMPDEST MSTORE DUP1 PUSH1 0x2 SLOAD AND PUSH2 0x12DB DUP6 PUSH2 0x2192 JUMP JUMPDEST MSTORE DUP5 SLOAD AND SWAP2 DUP8 MLOAD SWAP6 DUP7 SWAP5 DUP6 SWAP4 DUP5 SWAP4 PUSH4 0xD06CA61F PUSH1 0xE0 SHL DUP6 MSTORE DUP5 ADD MSTORE DUP10 PUSH1 0x24 DUP5 ADD MSTORE PUSH1 0x44 DUP4 ADD SWAP1 PUSH2 0x21D5 JUMP JUMPDEST SUB SWAP2 GAS STATICCALL SWAP1 DUP2 ISZERO PUSH2 0x1332 JUMPI DUP5 PUSH2 0x1324 SWAP4 SWAP5 SWAP6 SWAP3 PUSH2 0xAC2 JUMPI POP POP PUSH2 0x2192 JUMP JUMPDEST MLOAD SWAP1 DUP3 MLOAD SWAP2 DUP3 MSTORE PUSH1 0x20 DUP3 ADD MSTORE RETURN JUMPDEST POP POP POP MLOAD SWAP1 RETURNDATASIZE SWAP1 DUP3 RETURNDATACOPY RETURNDATASIZE SWAP1 REVERT JUMPDEST PUSH2 0x1306 SWAP4 POP PUSH2 0x1363 SWAP1 DUP7 RETURNDATASIZE DUP9 GT PUSH2 0x136A JUMPI JUMPDEST PUSH2 0x135B DUP2 DUP4 PUSH2 0x2135 JUMP JUMPDEST DUP2 ADD SWAP1 PUSH2 0x2401 JUMP JUMPDEST POP SWAP3 PUSH2 0x12A0 JUMP JUMPDEST POP RETURNDATASIZE PUSH2 0x1351 JUMP JUMPDEST POP CALLVALUE PUSH2 0x439 JUMPI DUP2 PUSH1 0x3 NOT CALLDATASIZE ADD SLT PUSH2 0x439 JUMPI PUSH1 0x1 SLOAD SWAP1 MLOAD PUSH1 0x1 PUSH1 0x1 PUSH1 0xA0 SHL SUB SWAP1 SWAP2 AND DUP2 MSTORE PUSH1 0x20 SWAP1 RETURN JUMPDEST POP CALLVALUE PUSH2 0x439 JUMPI PUSH2 0x13A8 CALLDATASIZE PUSH2 0x20A9 JUMP JUMPDEST SWAP4 SWAP2 SWAP5 PUSH1 0xFF PUSH1 0x6 SLOAD AND PUSH2 0x42B JUMPI PUSH1 0x1 PUSH1 0x1 PUSH1 0xA0 SHL SUB SWAP6 DUP1 DUP8 AND SWAP4 DUP5 ISZERO PUSH2 0x41B JUMPI DUP4 ISZERO PUSH2 0x40B JUMPI DUP6 MLOAD SWAP8 PUSH4 0x70A08231 PUSH1 0xE0 SHL SWAP3 DUP4 DUP11 MSTORE ADDRESS DUP6 DUP12 ADD MSTORE PUSH1 0x20 SWAP10 DUP11 DUP2 PUSH1 0x24 DUP2 DUP12 GAS STATICCALL SWAP1 DUP2 ISZERO PUSH2 0x39D JUMPI DUP5 SWAP2 PUSH2 0x1656 JUMPI JUMPDEST POP DUP9 MLOAD PUSH4 0x23B872DD PUSH1 0xE0 SHL DUP2 MSTORE CALLER DUP8 DUP3 ADD SWAP1 DUP2 MSTORE ADDRESS PUSH1 0x20 DUP3 ADD MSTORE PUSH1 0x40 DUP2 ADD DUP10 SWAP1 MSTORE DUP13 SWAP1 DUP3 SWAP1 DUP2 SWAP1 PUSH1 0x60 ADD SUB DUP2 DUP9 DUP14 GAS CALL DUP1 ISZERO PUSH2 0x3D4 JUMPI PUSH2 0x1639 JUMPI JUMPDEST POP DUP9 MLOAD SWAP1 DUP6 DUP3 MSTORE ADDRESS DUP8 DUP4 ADD MSTORE DUP12 DUP3 PUSH1 0x24 DUP2 DUP13 GAS STATICCALL DUP1 ISZERO PUSH2 0x3D4 JUMPI DUP6 SWAP1 PUSH2 0x160A JUMPI JUMPDEST PUSH2 0x1461 SWAP3 POP PUSH2 0x224B JUMP JUMPDEST SWAP1 DUP2 ISZERO PUSH2 0x15FA JUMPI SWAP1 PUSH2 0x147C DUP2 DUP5 SWAP4 DUP7 SWAP6 PUSH1 0x24 SWAP8 SLOAD AND SWAP1 PUSH2 0x2284 JUMP JUMPDEST DUP9 MLOAD SWAP1 PUSH2 0x1488 DUP3 PUSH2 0x20FD JUMP JUMPDEST PUSH1 0x2 DUP3 MSTORE DUP10 CALLDATASIZE DUP14 DUP5 ADD CALLDATACOPY DUP9 PUSH2 0x149C DUP4 PUSH2 0x216F JUMP JUMPDEST MSTORE DUP12 DUP4 PUSH1 0x1 SLOAD AND DUP1 PUSH2 0x14AD DUP6 PUSH2 0x2192 JUMP JUMPDEST MSTORE DUP12 MLOAD SWAP7 DUP8 DUP1 SWAP3 DUP11 DUP3 MSTORE CALLER DUP13 DUP4 ADD MSTORE GAS STATICCALL SWAP5 DUP6 ISZERO PUSH2 0x15F0 JUMPI DUP5 SWAP6 PUSH2 0x15C1 JUMPI JUMPDEST POP DUP3 DUP5 SLOAD AND SWAP1 PUSH2 0x14DD DUP9 SLOAD TIMESTAMP PUSH2 0x21B2 JUMP JUMPDEST DUP3 EXTCODESIZE ISZERO PUSH2 0x15BD JUMPI SWAP2 DUP13 DUP7 DUP11 SWAP6 SWAP4 PUSH2 0x150C DUP16 SWAP7 DUP4 SWAP8 MLOAD SWAP9 DUP10 SWAP8 DUP9 SWAP7 DUP8 SWAP6 PUSH4 0x5C11D795 PUSH1 0xE0 SHL DUP8 MSTORE CALLER SWAP4 DUP8 ADD PUSH2 0x2212 JUMP JUMPDEST SUB SWAP3 GAS CALL DUP1 ISZERO PUSH2 0x9C9 JUMPI DUP12 SWAP3 SWAP2 DUP5 SWAP2 PUSH2 0x15A4 JUMPI JUMPDEST POP POP PUSH1 0x1 SLOAD AND SWAP4 PUSH1 0x24 DUP10 MLOAD DUP1 SWAP7 DUP2 SWAP4 DUP3 MSTORE CALLER DUP10 DUP4 ADD MSTORE GAS STATICCALL SWAP1 DUP2 ISZERO PUSH2 0x96D JUMPI SWAP1 PUSH2 0x1575 JUMPI JUMPDEST PUSH2 0x154F SWAP3 POP PUSH2 0x224B JUMP JUMPDEST SWAP5 DUP6 LT PUSH2 0x326 JUMPI POP PUSH1 0x0 DUP1 MLOAD PUSH1 0x20 PUSH2 0x2458 DUP4 CODECOPY DUP2 MLOAD SWAP2 MSTORE DUP4 MLOAD DUP1 PUSH2 0x31D DUP8 CALLER SWAP6 DUP4 PUSH2 0x2258 JUMP JUMPDEST POP DUP8 DUP3 DUP2 RETURNDATASIZE DUP4 GT PUSH2 0x159D JUMPI JUMPDEST PUSH2 0x158B DUP2 DUP4 PUSH2 0x2135 JUMP JUMPDEST DUP2 ADD SUB SLT PUSH2 0x391 JUMPI PUSH2 0x154F SWAP2 MLOAD PUSH2 0x1545 JUMP JUMPDEST POP RETURNDATASIZE PUSH2 0x1581 JUMP JUMPDEST PUSH2 0x15B0 SWAP2 SWAP3 SWAP4 POP PUSH2 0x20D3 JUMP JUMPDEST PUSH2 0x439 JUMPI DUP10 SWAP1 DUP3 CODESIZE PUSH2 0x1520 JUMP JUMPDEST DUP6 DUP1 REVERT JUMPDEST SWAP1 SWAP5 POP DUP12 DUP2 DUP2 RETURNDATASIZE DUP4 GT PUSH2 0x15E9 JUMPI JUMPDEST PUSH2 0x15D9 DUP2 DUP4 PUSH2 0x2135 JUMP JUMPDEST DUP2 ADD SUB SLT PUSH2 0x391 JUMPI MLOAD SWAP4 CODESIZE PUSH2 0x14CC JUMP JUMPDEST POP RETURNDATASIZE PUSH2 0x15CF JUMP JUMPDEST DUP11 MLOAD RETURNDATASIZE DUP7 DUP3 RETURNDATACOPY RETURNDATASIZE SWAP1 REVERT JUMPDEST DUP9 MLOAD PUSH4 0x162908E3 PUSH1 0xE1 SHL DUP2 MSTORE DUP7 SWAP1 REVERT JUMPDEST POP DUP12 DUP3 DUP2 RETURNDATASIZE DUP4 GT PUSH2 0x1632 JUMPI JUMPDEST PUSH2 0x1620 DUP2 DUP4 PUSH2 0x2135 JUMP JUMPDEST DUP2 ADD SUB SLT PUSH2 0x391 JUMPI PUSH2 0x1461 SWAP2 MLOAD PUSH2 0x1457 JUMP JUMPDEST POP RETURNDATASIZE PUSH2 0x1616 JUMP JUMPDEST PUSH2 0x164F SWAP1 DUP13 DUP14 RETURNDATASIZE LT PUSH2 0x3CD JUMPI PUSH2 0x3BE DUP2 DUP4 PUSH2 0x2135 JUMP JUMPDEST POP CODESIZE PUSH2 0x1436 JUMP JUMPDEST SWAP1 POP DUP11 DUP2 DUP2 RETURNDATASIZE DUP4 GT PUSH2 0x167C JUMPI JUMPDEST PUSH2 0x166D DUP2 DUP4 PUSH2 0x2135 JUMP JUMPDEST DUP2 ADD SUB SLT PUSH2 0x391 JUMPI MLOAD CODESIZE PUSH2 0x13FB JUMP JUMPDEST POP RETURNDATASIZE PUSH2 0x1663 JUMP JUMPDEST POP DUP3 SWAP1 CALLVALUE PUSH2 0x4EA JUMPI PUSH1 0x20 CALLDATASIZE PUSH1 0x3 NOT ADD SLT PUSH2 0x4EA JUMPI PUSH2 0x169F PUSH2 0x2093 JUMP JUMPDEST PUSH1 0x3 SLOAD PUSH1 0x1 PUSH1 0x1 PUSH1 0xA0 SHL SUB SWAP2 SWAP1 DUP3 AND CALLER SUB PUSH2 0x4DC JUMPI DUP2 AND SWAP3 DUP4 ISZERO PUSH2 0x4CE JUMPI POP DUP3 PUSH1 0x1 SLOAD SWAP3 DUP1 MLOAD SWAP3 PUSH1 0x60 DUP5 MSTORE PUSH1 0xA PUSH1 0x60 DUP6 ADD MSTORE PUSH10 0x3430BB32B72A37B5B2B7 PUSH1 0xB1 SHL PUSH1 0x80 DUP6 ADD MSTORE DUP5 AND PUSH1 0x20 DUP5 ADD MSTORE DUP3 ADD MSTORE PUSH1 0x0 DUP1 MLOAD PUSH1 0x20 PUSH2 0x2438 DUP4 CODECOPY DUP2 MLOAD SWAP2 MSTORE PUSH1 0xA0 CALLER SWAP3 LOG2 PUSH1 0x1 PUSH1 0x1 PUSH1 0xA0 SHL SUB NOT AND OR PUSH1 0x1 SSTORE DUP1 RETURN JUMPDEST POP DUP3 SWAP1 CALLVALUE PUSH2 0x4EA JUMPI DUP1 PUSH1 0x3 NOT CALLDATASIZE ADD SLT PUSH2 0x4EA JUMPI DUP1 PUSH2 0x172F PUSH2 0x2093 JUMP JUMPDEST DUP2 MLOAD PUSH4 0xFB3DD95F PUSH1 0xE0 SHL DUP2 MSTORE PUSH1 0x24 DUP1 CALLDATALOAD SWAP6 DUP3 ADD SWAP6 SWAP1 SWAP6 MSTORE SWAP4 DUP5 SWAP2 DUP3 SWAP1 PUSH1 0x1 PUSH1 0x1 PUSH1 0xA0 SHL SUB AND GAS STATICCALL SWAP2 DUP3 ISZERO PUSH2 0x178D JUMPI PUSH1 0x20 SWAP4 SWAP3 PUSH2 0x176D JUMPI JUMPDEST POP MLOAD SWAP1 DUP2 MSTORE RETURN JUMPDEST DUP2 PUSH2 0x1785 SWAP3 SWAP4 POP RETURNDATASIZE DUP5 GT PUSH2 0x136A JUMPI PUSH2 0x135B DUP2 DUP4 PUSH2 0x2135 JUMP JUMPDEST POP SWAP1 DUP4 PUSH2 0x1766 JUMP JUMPDEST DUP2 MLOAD RETURNDATASIZE DUP6 DUP3 RETURNDATACOPY RETURNDATASIZE SWAP1 REVERT JUMPDEST POP DUP3 CALLVALUE PUSH2 0x4EA JUMPI DUP3 DUP3 PUSH1 0x3 NOT CALLDATASIZE ADD SLT PUSH2 0x348 JUMPI PUSH2 0xA99 SWAP2 PUSH2 0x17B6 PUSH2 0x2093 JUMP JUMPDEST SWAP1 DUP5 MLOAD SWAP2 PUSH2 0x17C3 DUP4 PUSH2 0x20FD JUMP JUMPDEST PUSH1 0x2 DUP4 MSTORE DUP6 CALLDATASIZE PUSH1 0x20 DUP6 ADD CALLDATACOPY PUSH2 0x17D7 DUP4 PUSH2 0x216F JUMP JUMPDEST PUSH1 0x1 PUSH1 0x1 PUSH1 0xA0 SHL SUB SWAP2 DUP3 AND SWAP1 MSTORE PUSH1 0x1 SLOAD DUP2 AND PUSH2 0x17F2 DUP5 PUSH2 0x2192 JUMP JUMPDEST MSTORE DUP4 SLOAD AND SWAP1 DUP6 MLOAD DUP1 SWAP6 DUP2 SWAP5 DUP3 SWAP4 PUSH4 0xD06CA61F PUSH1 0xE0 SHL DUP5 MSTORE PUSH1 0x24 CALLDATALOAD SWAP1 DUP5 ADD MSTORE DUP9 PUSH1 0x24 DUP5 ADD MSTORE PUSH1 0x44 DUP4 ADD SWAP1 PUSH2 0x21D5 JUMP JUMPDEST POP CALLVALUE PUSH2 0x439 JUMPI DUP2 PUSH1 0x3 NOT CALLDATASIZE ADD SLT PUSH2 0x439 JUMPI PUSH1 0x20 SWAP1 PUSH1 0xFF PUSH1 0x6 SLOAD AND SWAP1 MLOAD SWAP1 ISZERO ISZERO DUP2 MSTORE RETURN JUMPDEST POP DUP3 CALLVALUE PUSH2 0x4EA JUMPI PUSH1 0x20 CALLDATASIZE PUSH1 0x3 NOT ADD SLT PUSH2 0x4EA JUMPI PUSH1 0x3 SLOAD DUP2 CALLDATALOAD SWAP3 SWAP1 PUSH1 0x1 PUSH1 0x1 PUSH1 0xA0 SHL SUB AND CALLER SUB PUSH2 0x18CE JUMPI DUP3 DUP3 SLOAD SWAP2 DUP1 MLOAD SWAP3 PUSH1 0x60 DUP5 MSTORE PUSH1 0x15 PUSH1 0x60 DUP6 ADD MSTORE PUSH21 0x191959985D5B1D111958591B1A5B9953D9999CD95D PUSH1 0x5A SHL PUSH1 0x80 DUP6 ADD MSTORE PUSH1 0x20 DUP5 ADD MSTORE DUP3 ADD MSTORE PUSH32 0xC8004015853107E4CB5EFA9FDFC530F3530F5F5D8A833A9D67E2EFE39717D7F6 PUSH1 0xA0 CALLER SWAP3 LOG2 SSTORE DUP1 RETURN JUMPDEST MLOAD PUSH3 0x82B429 PUSH1 0xE8 SHL DUP2 MSTORE REVERT JUMPDEST POP DUP3 CALLVALUE PUSH2 0x4EA JUMPI DUP3 DUP3 PUSH1 0x3 NOT CALLDATASIZE ADD SLT PUSH2 0x348 JUMPI PUSH2 0x1944 SWAP2 PUSH2 0x18F9 PUSH2 0x2093 JUMP JUMPDEST SWAP1 DUP5 MLOAD SWAP2 PUSH2 0x1906 DUP4 PUSH2 0x2119 JUMP JUMPDEST PUSH1 0x3 DUP4 MSTORE PUSH1 0x60 CALLDATASIZE PUSH1 0x20 DUP6 ADD CALLDATACOPY PUSH1 0x2 SLOAD PUSH1 0x1 PUSH1 0x1 PUSH1 0xA0 SHL SUB SWAP2 SWAP1 DUP3 AND PUSH2 0x192A DUP6 PUSH2 0x216F JUMP JUMPDEST MSTORE DUP2 PUSH1 0x1 SLOAD AND PUSH2 0x1939 DUP6 PUSH2 0x2192 JUMP JUMPDEST MSTORE DUP2 PUSH2 0xA68 DUP6 PUSH2 0x21A2 JUMP JUMPDEST SUB SWAP2 GAS STATICCALL SWAP1 DUP2 ISZERO PUSH2 0xAE5 JUMPI SWAP1 PUSH2 0xABA SWAP2 DUP5 PUSH1 0x20 SWAP6 SWAP3 PUSH2 0x1965 JUMPI JUMPDEST POP POP PUSH2 0x21A2 JUMP JUMPDEST PUSH2 0x1979 SWAP3 POP RETURNDATASIZE DUP1 SWAP2 DUP4 RETURNDATACOPY PUSH2 0xAD6 DUP2 DUP4 PUSH2 0x2135 JUMP JUMPDEST DUP5 DUP1 PUSH2 0x195E JUMP JUMPDEST POP DUP3 SWAP1 CALLVALUE PUSH2 0x4EA JUMPI PUSH1 0x20 CALLDATASIZE PUSH1 0x3 NOT ADD SLT PUSH2 0x4EA JUMPI PUSH1 0x3 SLOAD DUP3 CALLDATALOAD SWAP3 SWAP1 PUSH1 0x1 PUSH1 0x1 PUSH1 0xA0 SHL SUB AND CALLER SUB PUSH2 0x1A09 JUMPI POP DUP2 PUSH1 0x5 SLOAD SWAP2 DUP1 MLOAD SWAP3 PUSH1 0x60 DUP5 MSTORE PUSH1 0xE PUSH1 0x60 DUP6 ADD MSTORE PUSH14 0x6D6178536C697070616765427073 PUSH1 0x90 SHL PUSH1 0x80 DUP6 ADD MSTORE PUSH1 0x20 DUP5 ADD MSTORE DUP3 ADD MSTORE PUSH32 0xC8004015853107E4CB5EFA9FDFC530F3530F5F5D8A833A9D67E2EFE39717D7F6 PUSH1 0xA0 CALLER SWAP3 LOG2 PUSH1 0x5 SSTORE DUP1 RETURN JUMPDEST SWAP1 MLOAD PUSH3 0x82B429 PUSH1 0xE8 SHL DUP2 MSTORE REVERT JUMPDEST POP DUP1 PUSH1 0x3 NOT CALLDATASIZE ADD SLT PUSH2 0x439 JUMPI PUSH2 0x1A2A PUSH2 0x2093 JUMP JUMPDEST PUSH1 0x24 CALLDATALOAD SWAP3 PUSH1 0xFF PUSH1 0x6 SLOAD AND PUSH2 0x1C57 JUMPI PUSH1 0x1 PUSH1 0x1 PUSH1 0xA0 SHL SUB SWAP5 DUP3 DUP7 AND SWAP3 DUP4 ISZERO PUSH2 0x9FF JUMPI CALLVALUE ISZERO PUSH2 0x9F0 JUMPI DUP5 MLOAD SWAP7 PUSH2 0x1A5D DUP9 PUSH2 0x20FD JUMP JUMPDEST PUSH1 0x2 DUP9 MSTORE PUSH1 0x20 SWAP8 DUP7 CALLDATASIZE DUP11 DUP4 ADD CALLDATACOPY DUP2 PUSH1 0x2 SLOAD AND PUSH2 0x1A78 DUP3 PUSH2 0x216F JUMP JUMPDEST MSTORE DUP2 PUSH1 0x1 SLOAD AND PUSH2 0x1A87 DUP3 PUSH2 0x2192 JUMP JUMPDEST MSTORE DUP5 PUSH2 0x1AC4 DUP4 DUP3 SLOAD AND PUSH2 0x1A9B DUP8 SLOAD TIMESTAMP PUSH2 0x21B2 JUMP JUMPDEST SWAP4 DUP11 MLOAD DUP1 SWAP6 DUP2 SWAP5 DUP3 SWAP4 PUSH4 0x7FF36AB5 PUSH1 0xE0 SHL DUP5 MSTORE DUP8 DUP13 DUP6 ADD MSTORE PUSH1 0x80 PUSH1 0x24 DUP6 ADD MSTORE PUSH1 0x84 DUP5 ADD SWAP1 PUSH2 0x21D5 JUMP JUMPDEST SWAP1 ADDRESS PUSH1 0x44 DUP5 ADD MSTORE PUSH1 0x64 DUP4 ADD MSTORE SUB SWAP2 CALLVALUE SWAP1 GAS CALL SWAP1 DUP2 ISZERO PUSH2 0x1C4D JUMPI PUSH2 0x1B00 SWAP3 SWAP2 PUSH2 0x1AF3 SWAP2 DUP8 SWAP2 PUSH2 0x1C33 JUMPI JUMPDEST POP PUSH2 0x2192 JUMP JUMPDEST MLOAD SWAP3 DUP4 SWAP2 PUSH1 0x1 SLOAD AND PUSH2 0x2284 JUMP JUMPDEST DUP4 EXTCODESIZE ISZERO PUSH2 0x4EA JUMPI DUP5 MLOAD SWAP1 PUSH4 0x1ADFD7BD PUSH1 0xE3 SHL DUP3 MSTORE DUP3 DUP3 ADD MSTORE DUP6 PUSH1 0x24 DUP3 ADD MSTORE DUP3 DUP2 PUSH1 0x44 DUP2 DUP4 DUP9 GAS CALL DUP1 ISZERO PUSH2 0x1C15 JUMPI SWAP1 DUP4 SWAP2 PUSH2 0x1C1F JUMPI JUMPDEST POP POP DUP4 MLOAD PUSH4 0x70A08231 PUSH1 0xE0 SHL DUP2 MSTORE ADDRESS DUP3 DUP3 ADD MSTORE SWAP5 DUP7 DUP7 PUSH1 0x24 DUP2 DUP8 GAS STATICCALL SWAP6 DUP7 ISZERO PUSH2 0x1C15 JUMPI DUP4 SWAP7 PUSH2 0x1BE6 JUMPI JUMPDEST POP DUP6 LT PUSH2 0x326 JUMPI DUP4 MLOAD PUSH4 0xA9059CBB PUSH1 0xE0 SHL DUP2 MSTORE CALLER SWAP2 DUP2 ADD SWAP2 DUP3 MSTORE PUSH1 0x20 DUP3 ADD DUP7 SWAP1 MSTORE SWAP2 SWAP1 DUP7 SWAP1 DUP4 SWAP1 DUP2 SWAP1 PUSH1 0x40 ADD SUB DUP2 DUP5 DUP8 GAS CALL SWAP1 DUP2 ISZERO PUSH2 0x1BDB JUMPI POP PUSH2 0x1BBE JUMPI JUMPDEST POP DUP2 MLOAD PUSH1 0x0 DUP1 MLOAD PUSH1 0x20 PUSH2 0x2418 DUP4 CODECOPY DUP2 MLOAD SWAP2 MSTORE CALLER SWAP2 DUP1 PUSH2 0x31D DUP8 CALLVALUE DUP4 PUSH2 0x235B JUMP JUMPDEST PUSH2 0x1BD4 SWAP1 DUP6 RETURNDATASIZE DUP8 GT PUSH2 0x3CD JUMPI PUSH2 0x3BE DUP2 DUP4 PUSH2 0x2135 JUMP JUMPDEST POP CODESIZE PUSH2 0x1B9E JUMP JUMPDEST DUP5 MLOAD SWAP1 RETURNDATASIZE SWAP1 DUP3 RETURNDATACOPY RETURNDATASIZE SWAP1 REVERT JUMPDEST SWAP1 SWAP6 POP DUP7 DUP2 DUP2 RETURNDATASIZE DUP4 GT PUSH2 0x1C0E JUMPI JUMPDEST PUSH2 0x1BFE DUP2 DUP4 PUSH2 0x2135 JUMP JUMPDEST DUP2 ADD SUB SLT PUSH2 0x391 JUMPI MLOAD SWAP5 CODESIZE PUSH2 0x1B5F JUMP JUMPDEST POP RETURNDATASIZE PUSH2 0x1BF4 JUMP JUMPDEST DUP6 MLOAD RETURNDATASIZE DUP6 DUP3 RETURNDATACOPY RETURNDATASIZE SWAP1 REVERT JUMPDEST PUSH2 0x1C28 SWAP1 PUSH2 0x20D3 JUMP JUMPDEST PUSH2 0x439 JUMPI DUP2 CODESIZE PUSH2 0x1B35 JUMP JUMPDEST PUSH2 0x1C47 SWAP2 POP RETURNDATASIZE DUP1 DUP10 DUP4 RETURNDATACOPY PUSH2 0xAD6 DUP2 DUP4 PUSH2 0x2135 JUMP JUMPDEST CODESIZE PUSH2 0x1AED JUMP JUMPDEST DUP8 MLOAD RETURNDATASIZE DUP8 DUP3 RETURNDATACOPY RETURNDATASIZE SWAP1 REVERT JUMPDEST DUP3 MLOAD PUSH4 0x13D0FF59 PUSH1 0xE3 SHL DUP2 MSTORE DUP6 SWAP1 REVERT JUMPDEST POP DUP3 CALLVALUE PUSH2 0x4EA JUMPI DUP3 DUP3 PUSH1 0x3 NOT CALLDATASIZE ADD SLT PUSH2 0x348 JUMPI PUSH2 0x1944 SWAP2 PUSH2 0x1C86 PUSH2 0x2093 JUMP JUMPDEST SWAP1 DUP5 MLOAD SWAP2 PUSH2 0x1C93 DUP4 PUSH2 0x2119 JUMP JUMPDEST PUSH1 0x3 DUP4 MSTORE PUSH1 0x60 CALLDATASIZE PUSH1 0x20 DUP6 ADD CALLDATACOPY PUSH2 0x1CA8 DUP4 PUSH2 0x216F JUMP JUMPDEST PUSH1 0x1 PUSH1 0x1 PUSH1 0xA0 SHL SUB SWAP2 DUP3 AND SWAP1 MSTORE PUSH1 0x1 SLOAD DUP2 AND PUSH2 0x1CC3 DUP5 PUSH2 0x2192 JUMP JUMPDEST MSTORE DUP1 PUSH1 0x2 SLOAD AND PUSH2 0x17F2 DUP5 PUSH2 0x21A2 JUMP JUMPDEST POP DUP3 SWAP1 CALLVALUE PUSH2 0x4EA JUMPI PUSH2 0x1CE3 CALLDATASIZE PUSH2 0x20A9 JUMP JUMPDEST SWAP4 SWAP2 SWAP5 PUSH1 0xFF PUSH1 0x6 SLOAD AND PUSH2 0x1EBB JUMPI PUSH1 0x1 PUSH1 0x1 PUSH1 0xA0 SHL SUB SWAP6 DUP7 AND SWAP3 DUP4 ISZERO PUSH2 0x1EAD JUMPI DUP3 ISZERO PUSH2 0x1E9F JUMPI DUP5 MLOAD PUSH4 0x23B872DD PUSH1 0xE0 SHL DUP2 MSTORE CALLER DUP3 DUP3 ADD SWAP1 DUP2 MSTORE ADDRESS PUSH1 0x20 DUP3 DUP2 ADD SWAP2 SWAP1 SWAP2 MSTORE PUSH1 0x40 DUP3 ADD DUP7 SWAP1 MSTORE SWAP9 SWAP2 SWAP1 DUP10 SWAP1 DUP3 SWAP1 DUP2 SWAP1 PUSH1 0x60 ADD SUB DUP2 DUP8 DUP11 GAS CALL DUP1 ISZERO PUSH2 0x1E65 JUMPI PUSH2 0x1E82 JUMPI JUMPDEST POP DUP5 EXTCODESIZE ISZERO PUSH2 0x4EA JUMPI DUP6 MLOAD PUSH4 0xD79875EB PUSH1 0xE0 SHL DUP2 MSTORE DUP5 DUP4 DUP3 ADD MSTORE DUP8 PUSH1 0x24 DUP3 ADD MSTORE DUP4 DUP2 PUSH1 0x44 DUP2 DUP4 DUP11 GAS CALL DUP1 ISZERO PUSH2 0x1E65 JUMPI PUSH2 0x1E6F JUMPI JUMPDEST POP PUSH1 0x1 SLOAD AND SWAP1 DUP6 MLOAD SWAP7 PUSH4 0x70A08231 PUSH1 0xE0 SHL DUP9 MSTORE ADDRESS DUP3 DUP10 ADD MSTORE DUP9 DUP9 PUSH1 0x24 DUP2 DUP7 GAS STATICCALL SWAP8 DUP9 ISZERO PUSH2 0x1E65 JUMPI DUP5 SWAP9 PUSH2 0x1E36 JUMPI JUMPDEST POP DUP8 LT PUSH2 0x1E28 JUMPI DUP6 MLOAD PUSH4 0xA9059CBB PUSH1 0xE0 SHL DUP2 MSTORE CALLER SWAP2 DUP2 ADD SWAP2 DUP3 MSTORE PUSH1 0x20 DUP3 ADD DUP9 SWAP1 MSTORE SWAP3 SWAP2 DUP9 SWAP2 DUP5 SWAP2 SWAP1 DUP3 SWAP1 DUP6 SWAP1 DUP3 SWAP1 PUSH1 0x40 ADD SUB SWAP3 GAS CALL SWAP1 DUP2 ISZERO PUSH2 0x6FF JUMPI POP PUSH2 0x1E0B JUMPI JUMPDEST POP PUSH1 0x0 DUP1 MLOAD PUSH1 0x20 PUSH2 0x2458 DUP4 CODECOPY DUP2 MLOAD SWAP2 MSTORE DUP4 MLOAD DUP1 PUSH2 0x31D DUP8 CALLER SWAP6 DUP4 PUSH2 0x2258 JUMP JUMPDEST PUSH2 0x1E21 SWAP1 DUP7 RETURNDATASIZE DUP9 GT PUSH2 0x3CD JUMPI PUSH2 0x3BE DUP2 DUP4 PUSH2 0x2135 JUMP JUMPDEST POP DUP6 PUSH2 0x1DEC JUMP JUMPDEST DUP6 MLOAD PUSH4 0x8199F5F3 PUSH1 0xE0 SHL DUP2 MSTORE REVERT JUMPDEST SWAP1 SWAP8 POP DUP9 DUP2 DUP2 RETURNDATASIZE DUP4 GT PUSH2 0x1E5E JUMPI JUMPDEST PUSH2 0x1E4E DUP2 DUP4 PUSH2 0x2135 JUMP JUMPDEST DUP2 ADD SUB SLT PUSH2 0x391 JUMPI MLOAD SWAP7 DUP10 PUSH2 0x1DAA JUMP JUMPDEST POP RETURNDATASIZE PUSH2 0x1E44 JUMP JUMPDEST DUP8 MLOAD RETURNDATASIZE DUP7 DUP3 RETURNDATACOPY RETURNDATASIZE SWAP1 REVERT JUMPDEST PUSH2 0x1E7B SWAP1 SWAP4 SWAP2 SWAP4 PUSH2 0x20D3 JUMP JUMPDEST SWAP2 DUP9 PUSH2 0x1D7C JUMP JUMPDEST PUSH2 0x1E98 SWAP1 DUP10 RETURNDATASIZE DUP12 GT PUSH2 0x3CD JUMPI PUSH2 0x3BE DUP2 DUP4 PUSH2 0x2135 JUMP JUMPDEST POP DUP9 PUSH2 0x1D49 JUMP JUMPDEST DUP5 MLOAD PUSH4 0x162908E3 PUSH1 0xE1 SHL DUP2 MSTORE REVERT JUMPDEST DUP5 MLOAD PUSH4 0xE6C4247B PUSH1 0xE0 SHL DUP2 MSTORE REVERT JUMPDEST DUP4 MLOAD PUSH4 0x13D0FF59 PUSH1 0xE3 SHL DUP2 MSTORE DUP4 SWAP1 REVERT JUMPDEST POP DUP3 SWAP1 CALLVALUE PUSH2 0x4EA JUMPI DUP1 PUSH1 0x3 NOT CALLDATASIZE ADD SLT PUSH2 0x4EA JUMPI DUP1 PUSH2 0x1EE7 PUSH2 0x2093 JUMP JUMPDEST DUP2 MLOAD PUSH4 0x48153279 PUSH1 0xE0 SHL DUP2 MSTORE PUSH1 0x24 DUP1 CALLDATALOAD SWAP6 DUP3 ADD SWAP6 SWAP1 SWAP6 MSTORE SWAP4 DUP5 SWAP2 DUP3 SWAP1 PUSH1 0x1 PUSH1 0x1 PUSH1 0xA0 SHL SUB AND GAS STATICCALL SWAP2 DUP3 ISZERO PUSH2 0x178D JUMPI PUSH1 0x20 SWAP4 SWAP3 PUSH2 0x176D JUMPI POP MLOAD SWAP1 DUP2 MSTORE RETURN JUMPDEST POP SWAP2 CALLVALUE PUSH2 0x439 JUMPI DUP3 PUSH1 0x3 NOT CALLDATASIZE ADD SLT PUSH2 0x439 JUMPI PUSH2 0x1F3E PUSH2 0x2093 JUMP JUMPDEST DUP4 MLOAD PUSH2 0x1F49 DUP2 PUSH2 0x20FD JUMP JUMPDEST PUSH1 0x2 DUP2 MSTORE DUP5 CALLDATASIZE PUSH1 0x20 DUP4 ADD CALLDATACOPY PUSH1 0x2 SLOAD PUSH1 0x1 PUSH1 0x1 PUSH1 0xA0 SHL SUB SWAP2 PUSH2 0x1FAE SWAP2 DUP7 SWAP2 SWAP1 DUP5 AND PUSH2 0x1F72 DUP3 PUSH2 0x216F JUMP JUMPDEST MSTORE DUP4 PUSH1 0x1 SLOAD AND PUSH2 0x1F81 DUP3 PUSH2 0x2192 JUMP JUMPDEST MSTORE DUP4 DUP3 SLOAD AND DUP9 MLOAD DUP1 DUP1 SWAP6 DUP2 SWAP5 PUSH4 0xD06CA61F PUSH1 0xE0 SHL DUP4 MSTORE PUSH1 0x24 CALLDATALOAD DUP12 DUP5 ADD MSTORE DUP13 PUSH1 0x24 DUP5 ADD MSTORE PUSH1 0x44 DUP4 ADD SWAP1 PUSH2 0x21D5 JUMP JUMPDEST SUB SWAP2 GAS STATICCALL SWAP1 DUP2 ISZERO PUSH2 0x2038 JUMPI PUSH2 0x1FCE DUP8 SWAP4 SWAP3 PUSH1 0x24 SWAP3 DUP9 SWAP2 PUSH2 0x2024 JUMPI POP PUSH2 0x2192 JUMP JUMPDEST MLOAD DUP4 MLOAD PUSH4 0x48153279 PUSH1 0xE0 SHL DUP2 MSTORE SWAP6 DUP7 ADD DUP2 SWAP1 MSTORE SWAP5 SWAP4 DUP5 SWAP3 DUP4 SWAP2 AND GAS STATICCALL SWAP3 DUP4 ISZERO PUSH2 0x1BDB JUMPI SWAP3 PUSH2 0x2004 JUMPI JUMPDEST POP DUP3 MLOAD SWAP2 DUP3 MSTORE PUSH1 0x20 DUP3 ADD MSTORE RETURN JUMPDEST PUSH2 0x201C SWAP2 SWAP3 POP DUP4 RETURNDATASIZE DUP6 GT PUSH2 0x136A JUMPI PUSH2 0x135B DUP2 DUP4 PUSH2 0x2135 JUMP JUMPDEST POP SWAP1 CODESIZE PUSH2 0x1FF7 JUMP JUMPDEST PUSH2 0x1C47 SWAP2 POP RETURNDATASIZE DUP1 DUP11 DUP4 RETURNDATACOPY PUSH2 0xAD6 DUP2 DUP4 PUSH2 0x2135 JUMP JUMPDEST DUP7 MLOAD RETURNDATASIZE DUP8 DUP3 RETURNDATACOPY RETURNDATASIZE SWAP1 REVERT JUMPDEST DUP4 SWAP1 DUP6 CALLVALUE PUSH2 0x4EA JUMPI PUSH1 0x20 CALLDATASIZE PUSH1 0x3 NOT ADD SLT PUSH2 0x4EA JUMPI DUP1 CALLDATALOAD SWAP2 DUP3 ISZERO ISZERO DUP1 SWAP4 SUB PUSH2 0x996 JUMPI PUSH1 0x3 SLOAD PUSH1 0x1 PUSH1 0x1 PUSH1 0xA0 SHL SUB AND CALLER SUB PUSH2 0x2088 JUMPI POP POP PUSH1 0xFF DUP1 NOT PUSH1 0x6 SLOAD AND SWAP2 AND OR PUSH1 0x6 SSTORE DUP1 RETURN JUMPDEST PUSH3 0x82B429 PUSH1 0xE8 SHL DUP2 MSTORE REVERT JUMPDEST PUSH1 0x4 CALLDATALOAD SWAP1 PUSH1 0x1 PUSH1 0x1 PUSH1 0xA0 SHL SUB DUP3 AND DUP3 SUB PUSH2 0x391 JUMPI JUMP JUMPDEST PUSH1 0x60 SWAP1 PUSH1 0x3 NOT ADD SLT PUSH2 0x391 JUMPI PUSH1 0x4 CALLDATALOAD PUSH1 0x1 PUSH1 0x1 PUSH1 0xA0 SHL SUB DUP2 AND DUP2 SUB PUSH2 0x391 JUMPI SWAP1 PUSH1 0x24 CALLDATALOAD SWAP1 PUSH1 0x44 CALLDATALOAD SWAP1 JUMP JUMPDEST PUSH8 0xFFFFFFFFFFFFFFFF DUP2 GT PUSH2 0x20E7 JUMPI PUSH1 0x40 MSTORE JUMP JUMPDEST PUSH4 0x4E487B71 PUSH1 0xE0 SHL PUSH1 0x0 MSTORE PUSH1 0x41 PUSH1 0x4 MSTORE PUSH1 0x24 PUSH1 0x0 REVERT JUMPDEST PUSH1 0x60 DUP2 ADD SWAP1 DUP2 LT PUSH8 0xFFFFFFFFFFFFFFFF DUP3 GT OR PUSH2 0x20E7 JUMPI PUSH1 0x40 MSTORE JUMP JUMPDEST PUSH1 0x80 DUP2 ADD SWAP1 DUP2 LT PUSH8 0xFFFFFFFFFFFFFFFF DUP3 GT OR PUSH2 0x20E7 JUMPI PUSH1 0x40 MSTORE JUMP JUMPDEST SWAP1 PUSH1 0x1F DUP1 NOT SWAP2 ADD AND DUP2 ADD SWAP1 DUP2 LT PUSH8 0xFFFFFFFFFFFFFFFF DUP3 GT OR PUSH2 0x20E7 JUMPI PUSH1 0x40 MSTORE JUMP JUMPDEST SWAP1 DUP2 PUSH1 0x20 SWAP2 SUB SLT PUSH2 0x391 JUMPI MLOAD DUP1 ISZERO ISZERO DUP2 SUB PUSH2 0x391 JUMPI SWAP1 JUMP JUMPDEST DUP1 MLOAD ISZERO PUSH2 0x217C JUMPI PUSH1 0x20 ADD SWAP1 JUMP JUMPDEST PUSH4 0x4E487B71 PUSH1 0xE0 SHL PUSH1 0x0 MSTORE PUSH1 0x32 PUSH1 0x4 MSTORE PUSH1 0x24 PUSH1 0x0 REVERT JUMPDEST DUP1 MLOAD PUSH1 0x1 LT ISZERO PUSH2 0x217C JUMPI PUSH1 0x40 ADD SWAP1 JUMP JUMPDEST DUP1 MLOAD PUSH1 0x2 LT ISZERO PUSH2 0x217C JUMPI PUSH1 0x60 ADD SWAP1 JUMP JUMPDEST SWAP2 SWAP1 DUP3 ADD DUP1 SWAP3 GT PUSH2 0x21BF JUMPI JUMP JUMPDEST PUSH4 0x4E487B71 PUSH1 0xE0 SHL PUSH1 0x0 MSTORE PUSH1 0x11 PUSH1 0x4 MSTORE PUSH1 0x24 PUSH1 0x0 REVERT JUMPDEST SWAP1 DUP2 MLOAD DUP1 DUP3 MSTORE PUSH1 0x20 DUP1 DUP1 SWAP4 ADD SWAP4 ADD SWAP2 PUSH1 0x0 JUMPDEST DUP3 DUP2 LT PUSH2 0x21F5 JUMPI POP POP POP POP SWAP1 JUMP JUMPDEST DUP4 MLOAD PUSH1 0x1 PUSH1 0x1 PUSH1 0xA0 SHL SUB AND DUP6 MSTORE SWAP4 DUP2 ADD SWAP4 SWAP3 DUP2 ADD SWAP3 PUSH1 0x1 ADD PUSH2 0x21E7 JUMP JUMPDEST SWAP2 SWAP3 PUSH1 0x80 SWAP4 PUSH2 0x2237 SWAP3 SWAP8 SWAP7 SWAP6 SWAP8 DUP5 MSTORE PUSH1 0x20 DUP5 ADD MSTORE PUSH1 0xA0 PUSH1 0x40 DUP5 ADD MSTORE PUSH1 0xA0 DUP4 ADD SWAP1 PUSH2 0x21D5 JUMP JUMPDEST PUSH1 0x1 PUSH1 0x1 PUSH1 0xA0 SHL SUB SWAP1 SWAP6 AND PUSH1 0x60 DUP3 ADD MSTORE ADD MSTORE JUMP JUMPDEST SWAP2 SWAP1 DUP3 SUB SWAP2 DUP3 GT PUSH2 0x21BF JUMPI JUMP JUMPDEST SWAP1 SWAP2 PUSH1 0xA0 SWAP3 DUP3 MSTORE PUSH1 0x20 DUP3 ADD MSTORE PUSH1 0x60 PUSH1 0x40 DUP3 ADD MSTORE PUSH1 0x5 PUSH1 0x60 DUP3 ADD MSTORE PUSH5 0x2420AB22A7 PUSH1 0xD9 SHL PUSH1 0x80 DUP3 ADD MSTORE ADD SWAP1 JUMP JUMPDEST PUSH1 0x40 MLOAD PUSH4 0x6EB1769F PUSH1 0xE1 SHL DUP2 MSTORE ADDRESS PUSH1 0x4 DUP3 ADD MSTORE PUSH1 0x1 PUSH1 0x1 PUSH1 0xA0 SHL SUB SWAP3 DUP4 AND PUSH1 0x24 DUP3 ADD DUP2 SWAP1 MSTORE PUSH1 0x20 SWAP5 SWAP4 SWAP1 SWAP3 AND SWAP3 SWAP1 DUP5 DUP2 PUSH1 0x44 DUP2 DUP8 GAS STATICCALL SWAP1 DUP2 ISZERO PUSH2 0x2322 JUMPI PUSH1 0x0 SWAP2 PUSH2 0x232E JUMPI JUMPDEST POP LT PUSH2 0x22D4 JUMPI POP POP POP JUMP JUMPDEST PUSH1 0x0 SWAP2 PUSH1 0x44 DUP5 SWAP3 PUSH1 0x40 MLOAD SWAP5 DUP6 SWAP4 DUP5 SWAP3 PUSH4 0x95EA7B3 PUSH1 0xE0 SHL DUP5 MSTORE PUSH1 0x4 DUP5 ADD MSTORE DUP2 NOT PUSH1 0x24 DUP5 ADD MSTORE GAS CALL DUP1 ISZERO PUSH2 0x2322 JUMPI PUSH2 0x2309 JUMPI POP POP JUMP JUMPDEST DUP2 PUSH2 0x231F SWAP3 SWAP1 RETURNDATASIZE LT PUSH2 0x3CD JUMPI PUSH2 0x3BE DUP2 DUP4 PUSH2 0x2135 JUMP JUMPDEST POP JUMP JUMPDEST PUSH1 0x40 MLOAD RETURNDATASIZE PUSH1 0x0 DUP3 RETURNDATACOPY RETURNDATASIZE SWAP1 REVERT JUMPDEST SWAP1 DUP6 DUP3 DUP2 RETURNDATASIZE DUP4 GT PUSH2 0x2354 JUMPI JUMPDEST PUSH2 0x2344 DUP2 DUP4 PUSH2 0x2135 JUMP JUMPDEST DUP2 ADD SUB SLT PUSH2 0x348 JUMPI POP MLOAD CODESIZE PUSH2 0x22C9 JUMP JUMPDEST POP RETURNDATASIZE PUSH2 0x233A JUMP JUMPDEST SWAP1 SWAP2 PUSH1 0xA0 SWAP3 DUP3 MSTORE PUSH1 0x20 DUP3 ADD MSTORE PUSH1 0x60 PUSH1 0x40 DUP3 ADD MSTORE PUSH1 0x3 PUSH1 0x60 DUP3 ADD MSTORE PUSH3 0x212721 PUSH1 0xE9 SHL PUSH1 0x80 DUP3 ADD MSTORE ADD SWAP1 JUMP JUMPDEST SWAP1 PUSH1 0x20 SWAP1 DUP2 DUP4 DUP3 SUB SLT PUSH2 0x391 JUMPI DUP3 MLOAD PUSH8 0xFFFFFFFFFFFFFFFF SWAP4 DUP5 DUP3 GT PUSH2 0x391 JUMPI ADD DUP2 PUSH1 0x1F DUP3 ADD SLT ISZERO PUSH2 0x391 JUMPI DUP1 MLOAD SWAP4 DUP5 GT PUSH2 0x20E7 JUMPI DUP4 PUSH1 0x5 SHL SWAP1 PUSH1 0x40 MLOAD SWAP5 PUSH2 0x23CF DUP6 DUP5 ADD DUP8 PUSH2 0x2135 JUMP JUMPDEST DUP6 MSTORE DUP4 DUP1 DUP7 ADD SWAP3 DUP3 ADD ADD SWAP3 DUP4 GT PUSH2 0x391 JUMPI DUP4 ADD SWAP1 JUMPDEST DUP3 DUP3 LT PUSH2 0x23F2 JUMPI POP POP POP POP SWAP1 JUMP JUMPDEST DUP2 MLOAD DUP2 MSTORE SWAP1 DUP4 ADD SWAP1 DUP4 ADD PUSH2 0x23E4 JUMP JUMPDEST SWAP2 SWAP1 DUP3 PUSH1 0x40 SWAP2 SUB SLT PUSH2 0x391 JUMPI PUSH1 0x20 DUP3 MLOAD SWAP3 ADD MLOAD SWAP1 JUMP INVALID 0xDB 0xF6 PREVRANDAO 0xD8 JUMP 0xB0 MOD SWAP1 0xAF 0xBA DUP14 0x4C 0xD3 0xFB SHR PUSH11 0xFA1F453860C0E83555BCB0 0xCB PUSH20 0x3ADF7244573A89DF583C0B1E16E6C22D41B4E39D 0xE1 0xCA CALLVALUE SAR EXP 0x23 0x4B PUSH18 0x17CCC2BF727DC4A995D58D3FF5874A6DDDAE LOG0 0xCE DELEGATECALL 0x25 0xF8 PUSH9 0x1752FF3BE4102724C 0xC6 JUMP PUSH23 0x9E3724A26469706673582212200E3595E85BF369E8DD5D SWAP7 0xE0 0xA7 AND SWAP14 PUSH24 0x76263BD847A14C2A2C0299DF63A4E05F64736F6C63430008 EQ STOP CALLER "},"methodIdentifiers":{"batchBuyBondingCurveWithBNB(address,uint256)":"3e598cb9","batchBuyBondingCurveWithHAVEN(address,uint256,uint256)":"f018ad9a","batchBuyGraduatedWithBNB(address,uint256)":"b1998e10","batchBuyGraduatedWithHAVEN(address,uint256,uint256)":"eeb34627","batchSellBondingCurveForBNB(address,uint256,uint256)":"ccb6303e","batchSellBondingCurveForHAVEN(address,uint256,uint256)":"29fe7269","batchSellGraduatedForBNB(address,uint256,uint256)":"fa7c313f","batchSellGraduatedForHAVEN(address,uint256,uint256)":"781380c0","defaultDeadlineOffset()":"e8feca30","emergencyWithdraw(address,address,uint256)":"e63ea408","havenToken()":"7bcafc82","maxSlippageBps()":"c4aa7395","owner()":"8da5cb5b","pancakeRouter()":"c21ebd07","paused()":"5c975abb","previewBuyBondingCurveWithBNB(address,uint256)":"17421db4","previewBuyBondingCurveWithHAVEN(address,uint256)":"22e988a4","previewBuyGraduatedWithBNB(address,uint256)":"584b5a38","previewBuyGraduatedWithHAVEN(address,uint256)":"e9ea09b3","previewSellBondingCurveForBNB(address,uint256)":"8661a02a","previewSellBondingCurveForHAVEN(address,uint256)":"64f5113d","previewSellGraduatedForBNB(address,uint256)":"324fc30c","previewSellGraduatedForHAVEN(address,uint256)":"6231af91","setDefaultDeadlineOffset(uint256)":"5af39811","setHavenToken(address)":"653028e8","setMaxSlippage(uint256)":"43f68a49","setPancakeRouter(address)":"f8316c90","setPaused(bool)":"16c38b3c","setWBNB(address)":"cab27a64","transferOwnership(address)":"f2fde38b","wbnb()":"8d72647e"}}}}}