{"contracts/HavenRouter.sol":{"HavenRouter":{"abi":[{"inputs":[{"internalType":"address","name":"_pancakeRouter","type":"address"},{"internalType":"address","name":"_havenToken","type":"address"},{"internalType":"address","name":"_wbnb","type":"address"}],"stateMutability":"nonpayable","type":"constructor"},{"inputs":[],"name":"InsufficientOutput","type":"error"},{"inputs":[],"name":"InvalidAddress","type":"error"},{"inputs":[],"name":"InvalidAmount","type":"error"},{"inputs":[],"name":"InvalidSlippage","type":"error"},{"inputs":[],"name":"Paused","type":"error"},{"inputs":[],"name":"SlippageExceeded","type":"error"},{"inputs":[],"name":"TransferFailed","type":"error"},{"inputs":[],"name":"Unauthorized","type":"error"},{"anonymous":false,"inputs":[{"indexed":true,"internalType":"address","name":"updater","type":"address"},{"indexed":false,"internalType":"string","name":"parameter","type":"string"},{"indexed":false,"internalType":"address","name":"oldAddress","type":"address"},{"indexed":false,"internalType":"address","name":"newAddress","type":"address"}],"name":"AddressUpdated","type":"event"},{"anonymous":false,"inputs":[{"indexed":true,"internalType":"address","name":"user","type":"address"},{"indexed":true,"internalType":"address","name":"bondingCurveToken","type":"address"},{"indexed":false,"internalType":"uint256","name":"bnbIn","type":"uint256"},{"indexed":false,"internalType":"uint256","name":"havenSwapped","type":"uint256"},{"indexed":false,"internalType":"uint256","name":"tokensOut","type":"uint256"}],"name":"BuyExecuted","type":"event"},{"anonymous":false,"inputs":[{"indexed":true,"internalType":"address","name":"updater","type":"address"},{"indexed":false,"internalType":"string","name":"parameter","type":"string"},{"indexed":false,"internalType":"uint256","name":"oldValue","type":"uint256"},{"indexed":false,"internalType":"uint256","name":"newValue","type":"uint256"}],"name":"ConfigUpdated","type":"event"},{"anonymous":false,"inputs":[{"indexed":true,"internalType":"address","name":"token","type":"address"},{"indexed":true,"internalType":"address","name":"to","type":"address"},{"indexed":false,"internalType":"uint256","name":"amount","type":"uint256"}],"name":"EmergencyWithdraw","type":"event"},{"anonymous":false,"inputs":[{"indexed":true,"internalType":"address","name":"user","type":"address"},{"indexed":true,"internalType":"address","name":"bondingCurveToken","type":"address"},{"indexed":false,"internalType":"uint256","name":"bnbIn","type":"uint256"},{"indexed":false,"internalType":"uint256","name":"bnbRefunded","type":"uint256"},{"indexed":false,"internalType":"uint256","name":"tokensOut","type":"uint256"}],"name":"ExactBuyExecuted","type":"event"},{"inputs":[{"internalType":"address[]","name":"bondingCurveTokens","type":"address[]"},{"internalType":"bool[]","name":"isWBNBArray","type":"bool[]"}],"name":"batchRegisterBondingCurveTypes","outputs":[],"stateMutability":"nonpayable","type":"function"},{"inputs":[{"internalType":"address","name":"bondingCurveToken","type":"address"},{"internalType":"uint256","name":"minTokensOut","type":"uint256"}],"name":"buyBondingCurveTokenWithBNB","outputs":[{"internalType":"uint256","name":"tokensOut","type":"uint256"}],"stateMutability":"payable","type":"function"},{"inputs":[{"internalType":"address","name":"bondingCurveToken","type":"address"},{"internalType":"uint256","name":"havenAmount","type":"uint256"},{"internalType":"uint256","name":"minTokensOut","type":"uint256"}],"name":"buyBondingCurveTokenWithHAVEN","outputs":[{"internalType":"uint256","name":"tokensOut","type":"uint256"}],"stateMutability":"nonpayable","type":"function"},{"inputs":[{"internalType":"address","name":"bondingCurveToken","type":"address"},{"internalType":"uint256","name":"exactTokensOut","type":"uint256"},{"internalType":"uint256","name":"slippageBps","type":"uint256"}],"name":"buyExactTokensWithBNB","outputs":[{"internalType":"uint256","name":"bnbSpent","type":"uint256"},{"internalType":"uint256","name":"bnbRefunded","type":"uint256"}],"stateMutability":"payable","type":"function"},{"inputs":[{"internalType":"address","name":"token","type":"address"},{"internalType":"uint256","name":"minTokensOut","type":"uint256"}],"name":"buyGraduatedTokenWithBNB","outputs":[{"internalType":"uint256","name":"tokensOut","type":"uint256"}],"stateMutability":"payable","type":"function"},{"inputs":[{"internalType":"address","name":"token","type":"address"},{"internalType":"uint256","name":"havenAmount","type":"uint256"},{"internalType":"uint256","name":"minTokensOut","type":"uint256"}],"name":"buyGraduatedTokenWithHAVEN","outputs":[{"internalType":"uint256","name":"tokensOut","type":"uint256"}],"stateMutability":"nonpayable","type":"function"},{"inputs":[],"name":"defaultDeadlineOffset","outputs":[{"internalType":"uint256","name":"","type":"uint256"}],"stateMutability":"view","type":"function"},{"inputs":[{"internalType":"address","name":"token","type":"address"},{"internalType":"address","name":"to","type":"address"},{"internalType":"uint256","name":"amount","type":"uint256"}],"name":"emergencyWithdraw","outputs":[],"stateMutability":"nonpayable","type":"function"},{"inputs":[],"name":"havenToken","outputs":[{"internalType":"address","name":"","type":"address"}],"stateMutability":"view","type":"function"},{"inputs":[{"internalType":"address","name":"","type":"address"}],"name":"isWBNBBondingCurve","outputs":[{"internalType":"bool","name":"","type":"bool"}],"stateMutability":"view","type":"function"},{"inputs":[],"name":"maxSlippageBps","outputs":[{"internalType":"uint256","name":"","type":"uint256"}],"stateMutability":"view","type":"function"},{"inputs":[],"name":"owner","outputs":[{"internalType":"address","name":"","type":"address"}],"stateMutability":"view","type":"function"},{"inputs":[],"name":"pancakeRouter","outputs":[{"internalType":"address","name":"","type":"address"}],"stateMutability":"view","type":"function"},{"inputs":[],"name":"paused","outputs":[{"internalType":"bool","name":"","type":"bool"}],"stateMutability":"view","type":"function"},{"inputs":[{"internalType":"address","name":"bondingCurveToken","type":"address"},{"internalType":"uint256","name":"havenAmount","type":"uint256"}],"name":"previewBuyBondingCurveWithHAVEN","outputs":[{"internalType":"uint256","name":"tokensOut","type":"uint256"}],"stateMutability":"view","type":"function"},{"inputs":[{"internalType":"address","name":"token","type":"address"},{"internalType":"uint256","name":"bnbAmount","type":"uint256"}],"name":"previewBuyGraduatedWithBNB","outputs":[{"internalType":"uint256","name":"tokensOut","type":"uint256"}],"stateMutability":"view","type":"function"},{"inputs":[{"internalType":"address","name":"token","type":"address"},{"internalType":"uint256","name":"havenAmount","type":"uint256"}],"name":"previewBuyGraduatedWithHAVEN","outputs":[{"internalType":"uint256","name":"tokensOut","type":"uint256"}],"stateMutability":"view","type":"function"},{"inputs":[{"internalType":"address","name":"bondingCurveToken","type":"address"},{"internalType":"uint256","name":"bnbAmount","type":"uint256"}],"name":"previewBuyWithBNB","outputs":[{"internalType":"uint256","name":"tokensOut","type":"uint256"},{"internalType":"uint256","name":"havenAmount","type":"uint256"}],"stateMutability":"view","type":"function"},{"inputs":[{"internalType":"address","name":"bondingCurveToken","type":"address"},{"internalType":"uint256","name":"exactTokensOut","type":"uint256"}],"name":"previewExactBuyWithBNB","outputs":[{"internalType":"uint256","name":"bnbRequired","type":"uint256"},{"internalType":"uint256","name":"havenRequired","type":"uint256"}],"stateMutability":"view","type":"function"},{"inputs":[{"internalType":"address","name":"bondingCurveToken","type":"address"},{"internalType":"uint256","name":"tokenAmount","type":"uint256"}],"name":"previewSellBondingCurveForBNB","outputs":[{"internalType":"uint256","name":"bnbOut","type":"uint256"},{"internalType":"uint256","name":"havenAmount","type":"uint256"}],"stateMutability":"view","type":"function"},{"inputs":[{"internalType":"address","name":"token","type":"address"},{"internalType":"uint256","name":"tokenAmount","type":"uint256"}],"name":"previewSellGraduatedForBNB","outputs":[{"internalType":"uint256","name":"bnbOut","type":"uint256"}],"stateMutability":"view","type":"function"},{"inputs":[{"internalType":"address","name":"token","type":"address"},{"internalType":"uint256","name":"tokenAmount","type":"uint256"}],"name":"previewSellGraduatedForHAVEN","outputs":[{"internalType":"uint256","name":"havenOut","type":"uint256"}],"stateMutability":"view","type":"function"},{"inputs":[{"internalType":"address","name":"bondingCurveToken","type":"address"},{"internalType":"bool","name":"isWBNB","type":"bool"}],"name":"registerBondingCurveType","outputs":[],"stateMutability":"nonpayable","type":"function"},{"inputs":[{"internalType":"address","name":"bondingCurveToken","type":"address"},{"internalType":"uint256","name":"tokenAmount","type":"uint256"},{"internalType":"uint256","name":"minBNBOut","type":"uint256"}],"name":"sellBondingCurveTokenForBNB","outputs":[{"internalType":"uint256","name":"bnbOut","type":"uint256"}],"stateMutability":"nonpayable","type":"function"},{"inputs":[{"internalType":"address","name":"token","type":"address"},{"internalType":"uint256","name":"tokenAmount","type":"uint256"},{"internalType":"uint256","name":"minBNBOut","type":"uint256"}],"name":"sellGraduatedTokenForBNB","outputs":[{"internalType":"uint256","name":"bnbOut","type":"uint256"}],"stateMutability":"nonpayable","type":"function"},{"inputs":[{"internalType":"address","name":"token","type":"address"},{"internalType":"uint256","name":"tokenAmount","type":"uint256"},{"internalType":"uint256","name":"minHavenOut","type":"uint256"}],"name":"sellGraduatedTokenForHAVEN","outputs":[{"internalType":"uint256","name":"havenOut","type":"uint256"}],"stateMutability":"nonpayable","type":"function"},{"inputs":[{"internalType":"uint256","name":"_offset","type":"uint256"}],"name":"setDefaultDeadlineOffset","outputs":[],"stateMutability":"nonpayable","type":"function"},{"inputs":[{"internalType":"address","name":"_havenToken","type":"address"}],"name":"setHavenToken","outputs":[],"stateMutability":"nonpayable","type":"function"},{"inputs":[{"internalType":"uint256","name":"_maxSlippageBps","type":"uint256"}],"name":"setMaxSlippage","outputs":[],"stateMutability":"nonpayable","type":"function"},{"inputs":[{"internalType":"address","name":"_pancakeRouter","type":"address"}],"name":"setPancakeRouter","outputs":[],"stateMutability":"nonpayable","type":"function"},{"inputs":[{"internalType":"bool","name":"_paused","type":"bool"}],"name":"setPaused","outputs":[],"stateMutability":"nonpayable","type":"function"},{"inputs":[{"internalType":"address","name":"_wbnb","type":"address"}],"name":"setWBNB","outputs":[],"stateMutability":"nonpayable","type":"function"},{"inputs":[{"internalType":"address","name":"newOwner","type":"address"}],"name":"transferOwnership","outputs":[],"stateMutability":"nonpayable","type":"function"},{"inputs":[],"name":"wbnb","outputs":[{"internalType":"address","name":"","type":"address"}],"stateMutability":"view","type":"function"},{"stateMutability":"payable","type":"receive"}],"evm":{"bytecode":{"linkReferences":{},"object":"608034620000ff57601f6200310638819003918201601f191683019291906001600160401b0384118385101762000104578160609284926040968752833981010312620000ff5762000051816200011a565b6200006c8362000064602085016200011a565b93016200011a565b61012c6004556113886005556001600160a01b03918216929091908315620000ee578116918215620000ee5716908115620000dd5760018060a01b0319928360005416176000558260015416176001558160025416176002553390600354161760035551612fd69081620001308239f35b835163e6c4247b60e01b8152600490fd5b845163e6c4247b60e01b8152600490fd5b600080fd5b634e487b7160e01b600052604160045260246000fd5b51906001600160a01b0382168203620000ff5756fe6080604081815260049081361015610022575b505050361561002057600080fd5b005b600092833560e01c90816316c38b3c1461204b575080631ce0ee5c14611e6f578063216f68b214611e4857806322e988a414611db7578063323f351714611c38578063324fc30c14611b8b5780633dc4340a146119275780633e3b2b39146118e95780634325f299146118aa57806343f68a4914611816578063584b5a38146117705780635af39811146116d95780635c975abb146116b55780636231af91146115da578063653028e81461154c57806376027930146114205780637bcafc82146113f75780638661a02a146113c45780638d72647e1461139b5780638da5cb5b1461137257806392212ef714611345578063a09f99cc14610f6c578063b203c4ce14610e24578063c21ebd0714610dfc578063c4aa739514610ddd578063cab27a6414610d3a578063dd0c433114610a40578063e302b66c14610956578063e63ea408146107f5578063e8feca30146107d7578063e9ea09b3146106f1578063f2fde38b1461064e578063f4c0de8c1461024f5763f8316c9003610012573461024b57602036600319011261024b576101ba6120a0565b6003546001600160a01b0391908216330361023d57811692831561022f57508284549280519260608452600d60608501526c3830b731b0b5b2a937baba32b960991b608085015284166020840152820152600080516020612f8183398151915260a03392a26001600160a01b03191617815580f35b825163e6c4247b60e01b8152fd5b5050516282b42960e81b8152fd5b8280fd5b5082903461064a57610260366120b6565b9390919460ff6006541661063c576001600160a01b03868116801561062c57841561061c578551966370a0823160e01b9586895230858a01526020988981602481875afa9081156105b6578a9088926105ed575b5089516323b872dd60e01b81523388820190815230602082015260408101949094529192829081906060015b03818a885af19081156105b65787916105d0575b50156105c05787519087825230868301528982602481875afa80156105b6578790610587575b6103249250612783565b9889156105775761033490612df0565b9089918061053d575b508554885163095ea7b360e01b81529085166001600160a01b0316868201908152602081019b909b529989908b9081906040015b038189875af1998a156105335760249798999a610506575b508851926103968461213b565b6002845289368c8601376103a9846121b1565b52898460015416806103ba866121d4565b528a51988980928c8252338a8301525afa9687156104fc5786976104cd575b5083865416916103ea8654426121f4565b833b156104c95791878094926104188997958e5198899788968795635c11d79560e01b8752339387016127d0565b03925af180156104bf578893929185916104a4575b5050602490600154169587519687938492835233908301525afa9081156104995790610465575b61045e9250612783565b9051908152f35b508382813d8311610492575b61047b818361218f565b8101031261048d5761045e9151610454565b600080fd5b503d610471565b8451903d90823e3d90fd5b6104b19192939450612111565b61024b57908691838961042d565b87513d86823e3d90fd5b8780fd5b9096508981813d83116104f5575b6104e5818361218f565b8101031261048d5751958a6103d9565b503d6104db565b89513d88823e3d90fd5b610525908b3d8d1161052c575b61051d818361218f565b8101906122d0565b508a610389565b503d610513565b88513d88823e3d90fd5b6127109a92508a038a8111610564576103719a61055b8b928561273d565b04929a5061033d565b634e487b7160e01b875260118652602487fd5b875163162908e360e11b81528590fd5b508982813d83116105af575b61059d818361218f565b8101031261048d57610324915161031a565b503d610593565b89513d89823e3d90fd5b87516312171d8360e31b81528590fd5b6105e791508a3d8c1161052c5761051d818361218f565b8b6102f4565b809250813d8311610615575b610603818361218f565b8101031261048d5751896102e06102b4565b503d6105f9565b855163162908e360e11b81528390fd5b855163e6c4247b60e01b81528390fd5b83516313d0ff5960e31b8152fd5b5080fd5b503461024b57602036600319011261024b576106686120a0565b600354916001600160a01b0380841692338490036106e257169384156106d45750808491519260608452600560608501526437bbb732b960d91b60808501526020840152820152600080516020612f8183398151915260a03392a26001600160a01b0319161760035580f35b905163e6c4247b60e01b8152fd5b82516282b42960e81b81528690fd5b50903461024b5782826003193601126107d45761077c916107106120a0565b9084519161071d8361213b565b60028352853660208501376001546001600160a01b0391908216610740856121b1565b528161074b856121d4565b9116905283541690855180958194829363d06ca61f60e01b8452602435908401528860248401526044830190612293565b03915afa9081156107c8579061079d9184602095926107a5575b50506121d4565b519051908152f35b6107c192503d8091833e6107b9818361218f565b810190612217565b3880610796565b505051903d90823e3d90fd5b80fd5b50903461024b578260031936011261024b5760209250549051908152f35b503461024b57606036600319011261024b5761080f6120a0565b6001600160a01b036024358181169490939185850361048d57604435938160035416330361094757861561093757169383908561089a57508680808093895af1610857612790565b501561088c57507ff24ef89f38eadc1bde50701ad6e4d6d11a2dc24f7cf834a486991f3883328504916020915b51908152a380f35b90516312171d8360e31b8152fd5b835163a9059cbb60e01b81526001600160a01b039091168382019081526020818101939093529091908290819060400103818a895af190811561092d57879161090f575b501561088c57507ff24ef89f38eadc1bde50701ad6e4d6d11a2dc24f7cf834a486991f388332850491602091610884565b610927915060203d811161052c5761051d818361218f565b386108de565b83513d89823e3d90fd5b835163e6c4247b60e01b81528390fd5b83516282b42960e81b81528390fd5b50903461024b578160031936011261024b576109eb836109806109776120a0565b60243590612ec2565b9284519061098d8261213b565b600282528536602084013760025485906001600160a01b039081166109b1856121b1565b5280600154166109c0856121d4565b52845416918751958694859384936307c0329d60e21b85528401528960248401526044830190612293565b03915afa908115610a335784610a0a93949592610a18575b50506121b1565b519082519182526020820152f35b610a2c92503d8091833e6107b9818361218f565b3880610a03565b50505051903d90823e3d90fd5b50903461024b57610a50366120b6565b60ff600696939492965416610d2b576001600160a01b0393808516918215610d1b578715610d0b5786516370a0823160e01b808252308683015260209990918a81602481895afa908115610cd2578b908992610cdc575b508a516323b872dd60e01b81523389820190815230602082015260408101949094529192829081906060015b03818b8a5af1908115610cd2578891610cb5575b5015610ca557885191825230868301528982602481885afa80156105b6578790610c76575b610b169250612783565b91821561057757610b278991612df0565b839080610c4d575b508654895163095ea7b360e01b81529089166001600160a01b031687820190815260208101929092529190829081906040015b038189885af1801561053357610c30575b50865192610b8084612157565b600384526060368a860137610b94846121b1565b528560015416610ba3846121d4565b528560025416610bb2846121e4565b5233319585541691610bc58554426121f4565b833b15610c2c578694939291610bf286928b519889978896879563791ac94760e01b8752339387016127d0565b03925af18015610c2257610c0e575b505061045e903331612783565b610c188291612111565b6107d45780610c01565b84513d84823e3d90fd5b8680fd5b610c4690893d8b1161052c5761051d818361218f565b5038610b73565b9150925061271090810381811161056457610b6291610c6d8b928661273d565b04939091610b2f565b508982813d8311610c9e575b610c8c818361218f565b8101031261048d57610b169151610b0c565b503d610c82565b88516312171d8360e31b81528690fd5b610ccc91508b3d8d1161052c5761051d818361218f565b38610ae7565b8a513d8a823e3d90fd5b809250813d8311610d04575b610cf2818361218f565b8101031261048d57518a610ad3610aa7565b503d610ce8565b865163162908e360e11b81528490fd5b865163e6c4247b60e01b81528490fd5b5083516313d0ff5960e31b8152fd5b50903461024b57602036600319011261024b57610d556120a0565b6003546001600160a01b0392919083163303610dcf578216928315610dc257839060025493815193606085526060850152633bb1373160e11b608085015284166020840152820152600080516020612f8183398151915260a03392a26001600160a01b0319161760025580f35b5163e6c4247b60e01b8152fd5b5082516282b42960e81b8152fd5b83823461064a578160031936011261064a576020906005549051908152f35b83823461064a578160031936011261064a57905490516001600160a01b039091168152602090f35b50903461024b578160031936011261024b57610e3e6120a0565b9060243591821515830361048d576001600160a01b0316908115610f5e575080845260209160078352610e7f818587209060ff801983541691151516179055565b15610f22578251610e8f81612173565b601d81527f57424e4220426f6e64696e672043757276652052656769737465726564000000838201529192905b8151916060835285845195866060860152815b878110610f0b5750600080516020612f81833981519152955081608088870101528401528201526080813394601f80199101168101030190a280f35b808701820151868201608001528892508101610ecf565b8251610f2d81612173565b601e81527f484156454e20426f6e64696e672043757276652052656769737465726564000083820152919290610ebc565b835163e6c4247b60e01b8152fd5b5091610f77366120b6565b919060ff60065416611335576001600160a01b039482861692831561132657341561131757821561131757600554851161130857610fb58382612ec2565b96885195610fc28761213b565b600287526020968a36898301378260025416610fdd826121b1565b528260015416610fec826121d4565b5282895416918b516307c0329d60e21b81528b878201528c60248201528a81806110196044820187612293565b0381875afa9081156112fe5761104a6110426110519493612710938f80926112e35750506121b1565b51928361273d565b04906121f4565b998a34106112d3578b928a928c889361108a61106e8654426121f4565b9751637ff36ab560e01b81529788968795869430928601612750565b03925af1908115610cd257916110ac88926110e5948b916112b9575b506121d4565b5193849160015416908a8d5180968195829463095ea7b360e01b84528b840160209093929193604081019460018060a01b031681520152565b03925af180156105b65761129c575b50833b1561129857875190631adfd7bd60e31b825282820152826024820152858160448183885af1801561053357908691611280575b505086516370a0823160e01b815230828201528481602481875afa90811561053357908391879161124f575b501061124157865163a9059cbb60e01b81523382820190815260208101849052859082908190604001038189885af1908115610533578691611224575b5015611216576111a38634612783565b94856111fb575b50507f1504c5c62e4f504e54290d01e06ac42130fff4d2712e5971c0ee4f42388c6bd58651806111ee33948834846040919493926060820195825260208201520152565b0390a38351928352820152f35b80808088335af161120a612790565b501561121657806111aa565b86516312171d8360e31b8152fd5b61123b9150853d871161052c5761051d818361218f565b38611193565b865163bb2875c360e01b8152fd5b809250868092503d8311611279575b611268818361218f565b8101031261048d5782905138611156565b503d61125e565b61128990612111565b61129457843861112a565b8480fd5b8580fd5b6112b290863d881161052c5761051d818361218f565b50386110f4565b6112cd91503d808d833e6107b9818361218f565b386110a6565b8b5163bb2875c360e01b81528690fd5b6112f792503d8091833e6107b9818361218f565b388f610a03565b8d513d8d823e3d90fd5b50865163334ee9a160e01b8152fd5b50865163162908e360e11b8152fd5b50865163e6c4247b60e01b8152fd5b85516313d0ff5960e31b81528590fd5b5082346107d45750611356366120b6565b9360ff6006939293541661063c57509261045e91602094612809565b83823461064a578160031936011261064a5760035490516001600160a01b039091168152602090f35b83823461064a578160031936011261064a5760025490516001600160a01b039091168152602090f35b5082346107d457816003193601126107d457506113eb6113e26120a0565b60243590612b35565b82519182526020820152f35b83823461064a578160031936011261064a5760015490516001600160a01b039091168152602090f35b503461024b578060031936011261024b5767ffffffffffffffff9180358381116112945761145190369083016120e0565b926024948535908111610c2c5761146b90369085016120e0565b60035491956001600160a01b03929091908316330361153d5780820361152d57885b828110611498578980f35b836114ac6114a783868a612dcc565b612ddc565b161561151d576114bd81838a612dcc565b358015158103611519576114f690856114da6114a785888c612dcc565b168c526007602052868c209060ff801983541691151516179055565b60001981146115075760010161148d565b634e487b7160e01b8a5260118752888afd5b8a80fd5b845163e6c4247b60e01b81528790fd5b835163162908e360e11b81528690fd5b83516282b42960e81b81528690fd5b503461024b57602036600319011261024b576115666120a0565b6003546001600160a01b0391908216330361023d57811692831561022f5750826001549280519260608452600a6060850152693430bb32b72a37b5b2b760b11b608085015284166020840152820152600080516020612f8183398151915260a03392a26001600160a01b0319161760015580f35b50903461024b578160031936011261024b57826115f56120a0565b6024359261160282612df0565b8481611675575b505061077c9385519261161b8461213b565b600284528636602086013761162f846121b1565b6001600160a01b039182169052600154811661164a856121d4565b528454169186519586948593849363d06ca61f60e01b85528401528860248401526044830190612293565b919350919350612710918203908282116116a2579161169a87949261077c969461273d565b049338611609565b634e487b7160e01b875260118452602487fd5b83823461064a578160031936011261064a5760209060ff6006541690519015158152f35b50903461024b57602036600319011261024b57600354813592906001600160a01b031633036117645782825491805192606084526015606085015274191959985d5b1d111958591b1a5b9953d9999cd95d605a1b608085015260208401528201527fc8004015853107e4cb5efa9fdfc530f3530f5f5d8a833a9d67e2efe39717d7f660a03392a25580f35b516282b42960e81b8152fd5b50903461024b5782826003193601126107d4576117da9161178f6120a0565b9084519161179c83612157565b6003835260603660208501376002546001600160a01b03919082166117c0856121b1565b5281600154166117cf856121d4565b528161074b856121e4565b03915afa9081156107c8579061079d9184602095926117fb575b50506121e4565b61180f92503d8091833e6107b9818361218f565b38806117f4565b503461024b57602036600319011261024b57600354823592906001600160a01b0316330361189d5750816005549180519260608452600e60608501526d6d6178536c69707061676542707360901b608085015260208401528201527fc8004015853107e4cb5efa9fdfc530f3530f5f5d8a833a9d67e2efe39717d7f660a03392a260055580f35b90516282b42960e81b8152fd5b5082816003193601126107d457506118c06120a0565b9160ff600654166118db575061045e602092602435906122e8565b90516313d0ff5960e31b8152fd5b83823461064a57602036600319011261064a5760209160ff9082906001600160a01b036119146120a0565b1681526007855220541690519015158152f35b5091903461064a57611938366120b6565b9491939060ff60065416611b7c576001600160a01b0395858716958615611b6c578215611b5c5760015485516323b872dd60e01b81523388820190815230602082810191909152604082018790529a928b91839185169082908a90829060600103925af18015611b5257928a9286926119e795611b35575b506001541690878a8a519687958694859363095ea7b360e01b8552840160209093929193604081019460018060a01b031681520152565b03925af18015611b2b57611b0e575b50853b1561024b57835191631adfd7bd60e31b8352858301526024820152818160448183895af18015611af557611aff575b5081516370a0823160e01b81523084820152928584602481885afa938415611af5579086918395611ac0575b50835163a9059cbb60e01b81523391810191825260208201869052949593949384918290859082906040015b03925af1908115611ab55750611a98575b5051908152f35b611aae90843d861161052c5761051d818361218f565b5038611a91565b8351903d90823e3d90fd5b828193929596503d8311611aee575b611ad9818361218f565b8101031261048d575192918590611a80611a54565b503d611acf565b83513d84823e3d90fd5b611b0890612111565b38611a28565b611b2490883d8a1161052c5761051d818361218f565b50386119f6565b85513d86823e3d90fd5b611b4b90853d871161052c5761051d818361218f565b50386119b0565b87513d88823e3d90fd5b845163162908e360e11b81528690fd5b845163e6c4247b60e01b81528690fd5b5050516313d0ff5960e31b8152fd5b50903461024b578160031936011261024b5782611ba66120a0565b60243592611bb382612df0565b8481611c0b575b50506117da93855192611bcc84612157565b600384526060366020860137611be1846121b1565b6001600160a01b0391821690526001548116611bfc856121d4565b52806002541661164a856121e4565b919350919350612710918203908282116116a25791611c308794926117da969461273d565b049338611bba565b5080839160031936011261064a57611c4e6120a0565b60ff60065416611da7576001600160a01b03908116908115611d97573415611d875792611ce8938195845191611c8383612157565b6003835260603660208501378060025416611c9d846121b1565b528060015416611cac846121d4565b5284611cb7846121e4565b5283541690611cc78154426121f4565b8651637ff36ab560e01b815297889485938493913391602435908601612750565b039134905af1928315611d7d578460209594611d60575b5050611d14611d0d846121e4565b51936121d4565b517f77eb323217a4770c84b5f7f4076d557a6d1166bf8c746483d2a981d9c678e54d835180611d5787339534846040919493926060820195825260208201520152565b0390a351908152f35b611d759294503d8091833e6107b9818361218f565b918480611cff565b82513d86823e3d90fd5b825163162908e360e11b81528590fd5b825163e6c4247b60e01b81528590fd5b81516313d0ff5960e31b81528490fd5b503461024b578060031936011261024b5780611dd16120a0565b8151634815327960e01b8152602480359582019590955293849182906001600160a01b03165afa918215611e3e5760209392611e0e575051908152f35b81611e2f9293503d8411611e37575b611e27818361218f565b810190612b1f565b509038611a91565b503d611e1d565b81513d85823e3d90fd5b5082346107d457816003193601126107d457506113eb611e666120a0565b60243590612c9f565b5082346107d457611e7f366120b6565b9060ff6006969396541661203b576001600160a01b0395861691821561202b57811561201b5760015486516323b872dd60e01b815233868201908152306020828101919091526040820186905299928a91839185169082908b90829060600103925af18015611ff457611ffe575b506001548654885163095ea7b360e01b81529083166001600160a01b03168782019081526020810186905290918a91839185169082908b90829060400103925af18015611ff457918795949392918692611fd7575b50885194611f4f8661213b565b6002865289368c8801378160015416611f67876121b1565b52611f71866121d4565b5281541692611fa0611f848854426121f4565b8a516338ed173960e01b815298899788968795339387016127d0565b03925af1918215611ab557908161079d93611fbc5750506121d4565b611fd092503d8091833e6107b9818361218f565b8480610796565b611fed908b3d8d1161052c5761051d818361218f565b508a611f42565b88513d89823e3d90fd5b61201490893d8b1161052c5761051d818361218f565b5088611eed565b855163162908e360e11b81528490fd5b855163e6c4247b60e01b81528490fd5b84516313d0ff5960e31b81528390fd5b8490843461024b57602036600319011261024b5780359182151580930361209c576003546001600160a01b0316330361209157505060ff80196006541691161760065580f35b6282b42960e81b8152fd5b8380fd5b600435906001600160a01b038216820361048d57565b606090600319011261048d576004356001600160a01b038116810361048d57906024359060443590565b9181601f8401121561048d5782359167ffffffffffffffff831161048d576020808501948460051b01011161048d57565b67ffffffffffffffff811161212557604052565b634e487b7160e01b600052604160045260246000fd5b6060810190811067ffffffffffffffff82111761212557604052565b6080810190811067ffffffffffffffff82111761212557604052565b6040810190811067ffffffffffffffff82111761212557604052565b90601f8019910116810190811067ffffffffffffffff82111761212557604052565b8051156121be5760200190565b634e487b7160e01b600052603260045260246000fd5b8051600110156121be5760400190565b8051600210156121be5760600190565b9190820180921161220157565b634e487b7160e01b600052601160045260246000fd5b90602090818382031261048d57825167ffffffffffffffff9384821161048d570181601f8201121561048d578051938411612125578360051b90604051946122618584018761218f565b8552838086019282010192831161048d578301905b828210612284575050505090565b81518152908301908301612276565b90815180825260208080930193019160005b8281106122b3575050505090565b83516001600160a01b0316855293810193928101926001016122a5565b9081602091031261048d5751801515810361048d5790565b6001600160a01b03808216916000831561272b573415612719578381526020926007845260409260ff8484205416600014612472575050833b156107d4578151636cb504a560e11b815260048101869052818160248134895af18015611af55790829161245e575b505081516370a0823160e01b8152306004820152948386602481885afa958615611af557829661242f575b50851061241e57815163a9059cbb60e01b815233600482015260248101869052838160448185895af1908115611af5578291612401575b50156123f0579084918151933485528401528201527f77eb323217a4770c84b5f7f4076d557a6d1166bf8c746483d2a981d9c678e54d60603392a390565b81516312171d8360e31b8152600490fd5b6124189150843d861161052c5761051d818361218f565b386123b2565b8151638199f5f360e01b8152600490fd5b9095508381813d8311612457575b612447818361218f565b8101031261048d5751943861237b565b503d61243d565b61246790612111565b6107d4578038612350565b918394919451926124828461213b565b60028452843684860137856002541661249a856121b1565b5285600154166124a9856121d4565b528582541693826124ea6004966124c18854426121f4565b938951809581948293637ff36ab560e01b8452878d850152608060248501526084840190612293565b903060448401526064830152039134905af190811561270f57906125149184916126fb57506121d4565b519586156126eb57600154865163095ea7b360e01b81526001600160a01b039093168684019081526020810189905285928492169082908690829060400103925af180156126c4576126ce575b50853b156107d4578351631adfd7bd60e31b815285848201528760248201528181604481838b5af180156126c4576126b5575b50908351966370a0823160e01b8852308489015281886024818a5afa9788156126ab57839861267c575b50871061266c57835163a9059cbb60e01b815233848201908152602081018990529091908190839081906040010381868b5af19283156126615792612644575b50501561088c57505134815260208101919091526040810183905233907f77eb323217a4770c84b5f7f4076d557a6d1166bf8c746483d2a981d9c678e54d90606090a390565b61265a9250803d1061052c5761051d818361218f565b38806125fe565b8551903d90823e3d90fd5b8351638199f5f360e01b81528390fd5b9097508181813d83116126a4575b612694818361218f565b8101031261048d575196386125be565b503d61268a565b85513d85823e3d90fd5b6126be90612111565b38612594565b85513d84823e3d90fd5b6126e490833d851161052c5761051d818361218f565b5038612561565b855163bb2875c360e01b81528590fd5b6112cd91503d8086833e6107b9818361218f565b86513d85823e3d90fd5b60405163162908e360e11b8152600490fd5b60405163e6c4247b60e01b8152600490fd5b8181029291811591840414171561220157565b9060609261276f91969594968352608060208401526080830190612293565b6001600160a01b0390951660408201520152565b9190820391821161220157565b3d156127cb573d9067ffffffffffffffff821161212557604051916127bf601f8201601f19166020018461218f565b82523d6000602084013e565b606090565b91926080936127f592979695978452602084015260a0604084015260a0830190612293565b6001600160a01b0390951660608201520152565b6001600160a01b039190821690600090821561272b57801561271957604080516323b872dd60e01b8152336004808301919091523060248301526044820184905295919491602091828160648189885af1908115611b52578691612b02575b5015612af257828552600782528585205460ff16156129235750504791813b1561209c578391604483928751948593849263d79875eb60e01b84528b8401528b60248401525af1801561291957908391612905575b50506128c99047612783565b9384106128f75780808086335af16128df612790565b50156128ea57505090565b516312171d8360e31b8152fd5b5051638199f5f360e01b8152fd5b61290e90612111565b61064a5781386128bd565b84513d85823e3d90fd5b919092813b15611294578491604483928851948593849263d79875eb60e01b84528c8401528160248401525af18015611b2b57612adf575b5060015484516370a0823160e01b81523087820152919081168383602481845afa928315612a96578593612ab0575b508215612aa0578454865163095ea7b360e01b81529083166001600160a01b0316888201908152602081018590529091859183919082908990829060400103925af18015612a9657858895938195938b93612a79575b50888051956129ee8761213b565b6002875236908701378060015416612a05866121b1565b528060025416612a14866121d4565b5281541692612a43612a278854426121f4565b8a516318cbafe560e01b815298899788968795339387016127d0565b03925af1918215611ab5579081612a5f936107a55750506121d4565b51928310612a6c57505090565b51638199f5f360e01b8152fd5b612a8f90863d881161052c5761051d818361218f565b50386129e0565b86513d87823e3d90fd5b855163bb2875c360e01b81528790fd5b9092508381813d8311612ad8575b612ac8818361218f565b8101031261048d5751913861298a565b503d612abe565b612aeb90939193612111565b913861295b565b85516312171d8360e31b81528790fd5b612b199150833d851161052c5761051d818361218f565b38612868565b919082604091031261048d576020825192015190565b6001600160a01b03908116600081815260076020526040808220549195949093909186919060ff1615612bba5750508290602482518094819363fb3dd95f60e01b835260048301525afa918215612bb1578492612b93575b50509190565b612ba99250803d10611e3757611e27818361218f565b503880612b8d565b513d85823e3d90fd5b90919380939594602482518098819363fb3dd95f60e01b835260048301525afa948515611af5578295612c79575b508251612c4c9291612bf98261213b565b60028252843660208401378060015416612c12836121b1565b528060025416612c21836121d4565b528254168451808095819463d06ca61f60e01b83528a60048401528860248401526044830190612293565b03915afa918215612c70575084612c6b939495926107a55750506121d4565b519190565b513d86823e3d90fd5b612c4c92919550612c9690843d8611611e3757611e27818361218f565b50949091612be8565b6001600160a01b03908116600081815260076020526040808220549195949093909160ff1615612cf8575082906024825180948193634815327960e01b835260048301525afa918215612bb1578492612b935750509190565b94839295612d619282955191612d0d8361213b565b60028352853660208501378060025416612d26846121b1565b528060015416612d35846121d4565b5283541690855180958194829363d06ca61f60e01b845260048401528860248401526044830190612293565b03915afa9081156107c85791612d8181926024948691612db857506121d4565b5195815193848092634815327960e01b82528960048301525afa928315612dad5792612b935750509190565b9051903d90823e3d90fd5b6112cd91503d8088833e6107b9818361218f565b91908110156121be5760051b0190565b356001600160a01b038116810361048d5790565b60405163a8a6246160e01b8152906001600160a01b031660208083600481855afa60009381612e93575b50612e2757505050600090565b8060049260405193848092632c8ee53160e01b82525afa918291600093612e62575b5050612e56575050600090565b612e5f916121f4565b90565b8181949293943d8311612e8c575b612e7a818361218f565b810103126107d4575051903880612e49565b503d612e70565b90938282813d8311612ebb575b612eaa818361218f565b810103126107d45750519238612e1a565b503d612ea0565b60408051634815327960e01b81526004810184905291839190839060249082906001600160a01b03165afa918215612f7457600092612f53575b50808210612f0957505090565b612f159192508061273d565b8115612f3d570460c881029080820460c8148115171561220157612710612e5f9204906121f4565b634e487b7160e01b600052601260045260246000fd5b612f6c91925060403d8111611e3757611e27818361218f565b509038612efc565b6040513d6000823e3d90fdfe44573a89df583c0b1e16e6c22d41b4e39de1ca341d0a234b7117ccc2bf727dc4a26469706673582212204c8ad49e9783c9e43329fc805af7918b9d414ba7fb879e357bbd9c66d5ab7ca564736f6c63430008140033","opcodes":"PUSH1 0x80 CALLVALUE PUSH3 0xFF JUMPI PUSH1 0x1F PUSH3 0x3106 CODESIZE DUP2 SWAP1 SUB SWAP2 DUP3 ADD PUSH1 0x1F NOT AND DUP4 ADD SWAP3 SWAP2 SWAP1 PUSH1 0x1 PUSH1 0x1 PUSH1 0x40 SHL SUB DUP5 GT DUP4 DUP6 LT OR PUSH3 0x104 JUMPI DUP2 PUSH1 0x60 SWAP3 DUP5 SWAP3 PUSH1 0x40 SWAP7 DUP8 MSTORE DUP4 CODECOPY DUP2 ADD SUB SLT PUSH3 0xFF JUMPI PUSH3 0x51 DUP2 PUSH3 0x11A JUMP JUMPDEST PUSH3 0x6C DUP4 PUSH3 0x64 PUSH1 0x20 DUP6 ADD PUSH3 0x11A JUMP JUMPDEST SWAP4 ADD PUSH3 0x11A JUMP JUMPDEST PUSH2 0x12C PUSH1 0x4 SSTORE PUSH2 0x1388 PUSH1 0x5 SSTORE PUSH1 0x1 PUSH1 0x1 PUSH1 0xA0 SHL SUB SWAP2 DUP3 AND SWAP3 SWAP1 SWAP2 SWAP1 DUP4 ISZERO PUSH3 0xEE JUMPI DUP2 AND SWAP2 DUP3 ISZERO PUSH3 0xEE JUMPI AND SWAP1 DUP2 ISZERO PUSH3 0xDD JUMPI PUSH1 0x1 DUP1 PUSH1 0xA0 SHL SUB NOT SWAP3 DUP4 PUSH1 0x0 SLOAD AND OR PUSH1 0x0 SSTORE DUP3 PUSH1 0x1 SLOAD AND OR PUSH1 0x1 SSTORE DUP2 PUSH1 0x2 SLOAD AND OR PUSH1 0x2 SSTORE CALLER SWAP1 PUSH1 0x3 SLOAD AND OR PUSH1 0x3 SSTORE MLOAD PUSH2 0x2FD6 SWAP1 DUP2 PUSH3 0x130 DUP3 CODECOPY RETURN JUMPDEST DUP4 MLOAD PUSH4 0xE6C4247B PUSH1 0xE0 SHL DUP2 MSTORE PUSH1 0x4 SWAP1 REVERT JUMPDEST DUP5 MLOAD PUSH4 0xE6C4247B PUSH1 0xE0 SHL DUP2 MSTORE PUSH1 0x4 SWAP1 REVERT JUMPDEST PUSH1 0x0 DUP1 REVERT JUMPDEST PUSH4 0x4E487B71 PUSH1 0xE0 SHL PUSH1 0x0 MSTORE PUSH1 0x41 PUSH1 0x4 MSTORE PUSH1 0x24 PUSH1 0x0 REVERT JUMPDEST MLOAD SWAP1 PUSH1 0x1 PUSH1 0x1 PUSH1 0xA0 SHL SUB DUP3 AND DUP3 SUB PUSH3 0xFF JUMPI JUMP INVALID PUSH1 0x80 PUSH1 0x40 DUP2 DUP2 MSTORE PUSH1 0x4 SWAP1 DUP2 CALLDATASIZE LT ISZERO PUSH2 0x22 JUMPI JUMPDEST POP POP POP CALLDATASIZE ISZERO PUSH2 0x20 JUMPI PUSH1 0x0 DUP1 REVERT JUMPDEST STOP JUMPDEST PUSH1 0x0 SWAP3 DUP4 CALLDATALOAD PUSH1 0xE0 SHR SWAP1 DUP2 PUSH4 0x16C38B3C EQ PUSH2 0x204B JUMPI POP DUP1 PUSH4 0x1CE0EE5C EQ PUSH2 0x1E6F JUMPI DUP1 PUSH4 0x216F68B2 EQ PUSH2 0x1E48 JUMPI DUP1 PUSH4 0x22E988A4 EQ PUSH2 0x1DB7 JUMPI DUP1 PUSH4 0x323F3517 EQ PUSH2 0x1C38 JUMPI DUP1 PUSH4 0x324FC30C EQ PUSH2 0x1B8B JUMPI DUP1 PUSH4 0x3DC4340A EQ PUSH2 0x1927 JUMPI DUP1 PUSH4 0x3E3B2B39 EQ PUSH2 0x18E9 JUMPI DUP1 PUSH4 0x4325F299 EQ PUSH2 0x18AA JUMPI DUP1 PUSH4 0x43F68A49 EQ PUSH2 0x1816 JUMPI DUP1 PUSH4 0x584B5A38 EQ PUSH2 0x1770 JUMPI DUP1 PUSH4 0x5AF39811 EQ PUSH2 0x16D9 JUMPI DUP1 PUSH4 0x5C975ABB EQ PUSH2 0x16B5 JUMPI DUP1 PUSH4 0x6231AF91 EQ PUSH2 0x15DA JUMPI DUP1 PUSH4 0x653028E8 EQ PUSH2 0x154C JUMPI DUP1 PUSH4 0x76027930 EQ PUSH2 0x1420 JUMPI DUP1 PUSH4 0x7BCAFC82 EQ PUSH2 0x13F7 JUMPI DUP1 PUSH4 0x8661A02A EQ PUSH2 0x13C4 JUMPI DUP1 PUSH4 0x8D72647E EQ PUSH2 0x139B JUMPI DUP1 PUSH4 0x8DA5CB5B EQ PUSH2 0x1372 JUMPI DUP1 PUSH4 0x92212EF7 EQ PUSH2 0x1345 JUMPI DUP1 PUSH4 0xA09F99CC EQ PUSH2 0xF6C JUMPI DUP1 PUSH4 0xB203C4CE EQ PUSH2 0xE24 JUMPI DUP1 PUSH4 0xC21EBD07 EQ PUSH2 0xDFC JUMPI DUP1 PUSH4 0xC4AA7395 EQ PUSH2 0xDDD JUMPI DUP1 PUSH4 0xCAB27A64 EQ PUSH2 0xD3A JUMPI DUP1 PUSH4 0xDD0C4331 EQ PUSH2 0xA40 JUMPI DUP1 PUSH4 0xE302B66C EQ PUSH2 0x956 JUMPI DUP1 PUSH4 0xE63EA408 EQ PUSH2 0x7F5 JUMPI DUP1 PUSH4 0xE8FECA30 EQ PUSH2 0x7D7 JUMPI DUP1 PUSH4 0xE9EA09B3 EQ PUSH2 0x6F1 JUMPI DUP1 PUSH4 0xF2FDE38B EQ PUSH2 0x64E JUMPI DUP1 PUSH4 0xF4C0DE8C EQ PUSH2 0x24F JUMPI PUSH4 0xF8316C90 SUB PUSH2 0x12 JUMPI CALLVALUE PUSH2 0x24B JUMPI PUSH1 0x20 CALLDATASIZE PUSH1 0x3 NOT ADD SLT PUSH2 0x24B JUMPI PUSH2 0x1BA PUSH2 0x20A0 JUMP JUMPDEST PUSH1 0x3 SLOAD PUSH1 0x1 PUSH1 0x1 PUSH1 0xA0 SHL SUB SWAP2 SWAP1 DUP3 AND CALLER SUB PUSH2 0x23D JUMPI DUP2 AND SWAP3 DUP4 ISZERO PUSH2 0x22F JUMPI POP DUP3 DUP5 SLOAD SWAP3 DUP1 MLOAD SWAP3 PUSH1 0x60 DUP5 MSTORE PUSH1 0xD PUSH1 0x60 DUP6 ADD MSTORE PUSH13 0x3830B731B0B5B2A937BABA32B9 PUSH1 0x99 SHL PUSH1 0x80 DUP6 ADD MSTORE DUP5 AND PUSH1 0x20 DUP5 ADD MSTORE DUP3 ADD MSTORE PUSH1 0x0 DUP1 MLOAD PUSH1 0x20 PUSH2 0x2F81 DUP4 CODECOPY DUP2 MLOAD SWAP2 MSTORE PUSH1 0xA0 CALLER SWAP3 LOG2 PUSH1 0x1 PUSH1 0x1 PUSH1 0xA0 SHL SUB NOT AND OR DUP2 SSTORE DUP1 RETURN JUMPDEST DUP3 MLOAD PUSH4 0xE6C4247B PUSH1 0xE0 SHL DUP2 MSTORE REVERT JUMPDEST POP POP MLOAD PUSH3 0x82B429 PUSH1 0xE8 SHL DUP2 MSTORE REVERT JUMPDEST DUP3 DUP1 REVERT JUMPDEST POP DUP3 SWAP1 CALLVALUE PUSH2 0x64A JUMPI PUSH2 0x260 CALLDATASIZE PUSH2 0x20B6 JUMP JUMPDEST SWAP4 SWAP1 SWAP2 SWAP5 PUSH1 0xFF PUSH1 0x6 SLOAD AND PUSH2 0x63C JUMPI PUSH1 0x1 PUSH1 0x1 PUSH1 0xA0 SHL SUB DUP7 DUP2 AND DUP1 ISZERO PUSH2 0x62C JUMPI DUP5 ISZERO PUSH2 0x61C JUMPI DUP6 MLOAD SWAP7 PUSH4 0x70A08231 PUSH1 0xE0 SHL SWAP6 DUP7 DUP10 MSTORE ADDRESS DUP6 DUP11 ADD MSTORE PUSH1 0x20 SWAP9 DUP10 DUP2 PUSH1 0x24 DUP2 DUP8 GAS STATICCALL SWAP1 DUP2 ISZERO PUSH2 0x5B6 JUMPI DUP11 SWAP1 DUP9 SWAP3 PUSH2 0x5ED JUMPI JUMPDEST POP DUP10 MLOAD PUSH4 0x23B872DD PUSH1 0xE0 SHL DUP2 MSTORE CALLER DUP9 DUP3 ADD SWAP1 DUP2 MSTORE ADDRESS PUSH1 0x20 DUP3 ADD MSTORE PUSH1 0x40 DUP2 ADD SWAP5 SWAP1 SWAP5 MSTORE SWAP2 SWAP3 DUP3 SWAP1 DUP2 SWAP1 PUSH1 0x60 ADD JUMPDEST SUB DUP2 DUP11 DUP9 GAS CALL SWAP1 DUP2 ISZERO PUSH2 0x5B6 JUMPI DUP8 SWAP2 PUSH2 0x5D0 JUMPI JUMPDEST POP ISZERO PUSH2 0x5C0 JUMPI DUP8 MLOAD SWAP1 DUP8 DUP3 MSTORE ADDRESS DUP7 DUP4 ADD MSTORE DUP10 DUP3 PUSH1 0x24 DUP2 DUP8 GAS STATICCALL DUP1 ISZERO PUSH2 0x5B6 JUMPI DUP8 SWAP1 PUSH2 0x587 JUMPI JUMPDEST PUSH2 0x324 SWAP3 POP PUSH2 0x2783 JUMP JUMPDEST SWAP9 DUP10 ISZERO PUSH2 0x577 JUMPI PUSH2 0x334 SWAP1 PUSH2 0x2DF0 JUMP JUMPDEST SWAP1 DUP10 SWAP2 DUP1 PUSH2 0x53D JUMPI JUMPDEST POP DUP6 SLOAD DUP9 MLOAD PUSH4 0x95EA7B3 PUSH1 0xE0 SHL DUP2 MSTORE SWAP1 DUP6 AND PUSH1 0x1 PUSH1 0x1 PUSH1 0xA0 SHL SUB AND DUP7 DUP3 ADD SWAP1 DUP2 MSTORE PUSH1 0x20 DUP2 ADD SWAP12 SWAP1 SWAP12 MSTORE SWAP10 DUP10 SWAP1 DUP12 SWAP1 DUP2 SWAP1 PUSH1 0x40 ADD JUMPDEST SUB DUP2 DUP10 DUP8 GAS CALL SWAP10 DUP11 ISZERO PUSH2 0x533 JUMPI PUSH1 0x24 SWAP8 SWAP9 SWAP10 SWAP11 PUSH2 0x506 JUMPI JUMPDEST POP DUP9 MLOAD SWAP3 PUSH2 0x396 DUP5 PUSH2 0x213B JUMP JUMPDEST PUSH1 0x2 DUP5 MSTORE DUP10 CALLDATASIZE DUP13 DUP7 ADD CALLDATACOPY PUSH2 0x3A9 DUP5 PUSH2 0x21B1 JUMP JUMPDEST MSTORE DUP10 DUP5 PUSH1 0x1 SLOAD AND DUP1 PUSH2 0x3BA DUP7 PUSH2 0x21D4 JUMP JUMPDEST MSTORE DUP11 MLOAD SWAP9 DUP10 DUP1 SWAP3 DUP13 DUP3 MSTORE CALLER DUP11 DUP4 ADD MSTORE GAS STATICCALL SWAP7 DUP8 ISZERO PUSH2 0x4FC JUMPI DUP7 SWAP8 PUSH2 0x4CD JUMPI JUMPDEST POP DUP4 DUP7 SLOAD AND SWAP2 PUSH2 0x3EA DUP7 SLOAD TIMESTAMP PUSH2 0x21F4 JUMP JUMPDEST DUP4 EXTCODESIZE ISZERO PUSH2 0x4C9 JUMPI SWAP2 DUP8 DUP1 SWAP5 SWAP3 PUSH2 0x418 DUP10 SWAP8 SWAP6 DUP15 MLOAD SWAP9 DUP10 SWAP8 DUP9 SWAP7 DUP8 SWAP6 PUSH4 0x5C11D795 PUSH1 0xE0 SHL DUP8 MSTORE CALLER SWAP4 DUP8 ADD PUSH2 0x27D0 JUMP JUMPDEST SUB SWAP3 GAS CALL DUP1 ISZERO PUSH2 0x4BF JUMPI DUP9 SWAP4 SWAP3 SWAP2 DUP6 SWAP2 PUSH2 0x4A4 JUMPI JUMPDEST POP POP PUSH1 0x24 SWAP1 PUSH1 0x1 SLOAD AND SWAP6 DUP8 MLOAD SWAP7 DUP8 SWAP4 DUP5 SWAP3 DUP4 MSTORE CALLER SWAP1 DUP4 ADD MSTORE GAS STATICCALL SWAP1 DUP2 ISZERO PUSH2 0x499 JUMPI SWAP1 PUSH2 0x465 JUMPI JUMPDEST PUSH2 0x45E SWAP3 POP PUSH2 0x2783 JUMP JUMPDEST SWAP1 MLOAD SWAP1 DUP2 MSTORE RETURN JUMPDEST POP DUP4 DUP3 DUP2 RETURNDATASIZE DUP4 GT PUSH2 0x492 JUMPI JUMPDEST PUSH2 0x47B DUP2 DUP4 PUSH2 0x218F JUMP JUMPDEST DUP2 ADD SUB SLT PUSH2 0x48D JUMPI PUSH2 0x45E SWAP2 MLOAD PUSH2 0x454 JUMP JUMPDEST PUSH1 0x0 DUP1 REVERT JUMPDEST POP RETURNDATASIZE PUSH2 0x471 JUMP JUMPDEST DUP5 MLOAD SWAP1 RETURNDATASIZE SWAP1 DUP3 RETURNDATACOPY RETURNDATASIZE SWAP1 REVERT JUMPDEST PUSH2 0x4B1 SWAP2 SWAP3 SWAP4 SWAP5 POP PUSH2 0x2111 JUMP JUMPDEST PUSH2 0x24B JUMPI SWAP1 DUP7 SWAP2 DUP4 DUP10 PUSH2 0x42D JUMP JUMPDEST DUP8 MLOAD RETURNDATASIZE DUP7 DUP3 RETURNDATACOPY RETURNDATASIZE SWAP1 REVERT JUMPDEST DUP8 DUP1 REVERT JUMPDEST SWAP1 SWAP7 POP DUP10 DUP2 DUP2 RETURNDATASIZE DUP4 GT PUSH2 0x4F5 JUMPI JUMPDEST PUSH2 0x4E5 DUP2 DUP4 PUSH2 0x218F JUMP JUMPDEST DUP2 ADD SUB SLT PUSH2 0x48D JUMPI MLOAD SWAP6 DUP11 PUSH2 0x3D9 JUMP JUMPDEST POP RETURNDATASIZE PUSH2 0x4DB JUMP JUMPDEST DUP10 MLOAD RETURNDATASIZE DUP9 DUP3 RETURNDATACOPY RETURNDATASIZE SWAP1 REVERT JUMPDEST PUSH2 0x525 SWAP1 DUP12 RETURNDATASIZE DUP14 GT PUSH2 0x52C JUMPI JUMPDEST PUSH2 0x51D DUP2 DUP4 PUSH2 0x218F JUMP JUMPDEST DUP2 ADD SWAP1 PUSH2 0x22D0 JUMP JUMPDEST POP DUP11 PUSH2 0x389 JUMP JUMPDEST POP RETURNDATASIZE PUSH2 0x513 JUMP JUMPDEST DUP9 MLOAD RETURNDATASIZE DUP9 DUP3 RETURNDATACOPY RETURNDATASIZE SWAP1 REVERT JUMPDEST PUSH2 0x2710 SWAP11 SWAP3 POP DUP11 SUB DUP11 DUP2 GT PUSH2 0x564 JUMPI PUSH2 0x371 SWAP11 PUSH2 0x55B DUP12 SWAP3 DUP6 PUSH2 0x273D JUMP JUMPDEST DIV SWAP3 SWAP11 POP PUSH2 0x33D JUMP JUMPDEST PUSH4 0x4E487B71 PUSH1 0xE0 SHL DUP8 MSTORE PUSH1 0x11 DUP7 MSTORE PUSH1 0x24 DUP8 REVERT JUMPDEST DUP8 MLOAD PUSH4 0x162908E3 PUSH1 0xE1 SHL DUP2 MSTORE DUP6 SWAP1 REVERT JUMPDEST POP DUP10 DUP3 DUP2 RETURNDATASIZE DUP4 GT PUSH2 0x5AF JUMPI JUMPDEST PUSH2 0x59D DUP2 DUP4 PUSH2 0x218F JUMP JUMPDEST DUP2 ADD SUB SLT PUSH2 0x48D JUMPI PUSH2 0x324 SWAP2 MLOAD PUSH2 0x31A JUMP JUMPDEST POP RETURNDATASIZE PUSH2 0x593 JUMP JUMPDEST DUP10 MLOAD RETURNDATASIZE DUP10 DUP3 RETURNDATACOPY RETURNDATASIZE SWAP1 REVERT JUMPDEST DUP8 MLOAD PUSH4 0x12171D83 PUSH1 0xE3 SHL DUP2 MSTORE DUP6 SWAP1 REVERT JUMPDEST PUSH2 0x5E7 SWAP2 POP DUP11 RETURNDATASIZE DUP13 GT PUSH2 0x52C JUMPI PUSH2 0x51D DUP2 DUP4 PUSH2 0x218F JUMP JUMPDEST DUP12 PUSH2 0x2F4 JUMP JUMPDEST DUP1 SWAP3 POP DUP2 RETURNDATASIZE DUP4 GT PUSH2 0x615 JUMPI JUMPDEST PUSH2 0x603 DUP2 DUP4 PUSH2 0x218F JUMP JUMPDEST DUP2 ADD SUB SLT PUSH2 0x48D JUMPI MLOAD DUP10 PUSH2 0x2E0 PUSH2 0x2B4 JUMP JUMPDEST POP RETURNDATASIZE PUSH2 0x5F9 JUMP JUMPDEST DUP6 MLOAD PUSH4 0x162908E3 PUSH1 0xE1 SHL DUP2 MSTORE DUP4 SWAP1 REVERT JUMPDEST DUP6 MLOAD PUSH4 0xE6C4247B PUSH1 0xE0 SHL DUP2 MSTORE DUP4 SWAP1 REVERT JUMPDEST DUP4 MLOAD PUSH4 0x13D0FF59 PUSH1 0xE3 SHL DUP2 MSTORE REVERT JUMPDEST POP DUP1 REVERT JUMPDEST POP CALLVALUE PUSH2 0x24B JUMPI PUSH1 0x20 CALLDATASIZE PUSH1 0x3 NOT ADD SLT PUSH2 0x24B JUMPI PUSH2 0x668 PUSH2 0x20A0 JUMP JUMPDEST PUSH1 0x3 SLOAD SWAP2 PUSH1 0x1 PUSH1 0x1 PUSH1 0xA0 SHL SUB DUP1 DUP5 AND SWAP3 CALLER DUP5 SWAP1 SUB PUSH2 0x6E2 JUMPI AND SWAP4 DUP5 ISZERO PUSH2 0x6D4 JUMPI POP DUP1 DUP5 SWAP2 MLOAD SWAP3 PUSH1 0x60 DUP5 MSTORE PUSH1 0x5 PUSH1 0x60 DUP6 ADD MSTORE PUSH5 0x37BBB732B9 PUSH1 0xD9 SHL PUSH1 0x80 DUP6 ADD MSTORE PUSH1 0x20 DUP5 ADD MSTORE DUP3 ADD MSTORE PUSH1 0x0 DUP1 MLOAD PUSH1 0x20 PUSH2 0x2F81 DUP4 CODECOPY DUP2 MLOAD SWAP2 MSTORE PUSH1 0xA0 CALLER SWAP3 LOG2 PUSH1 0x1 PUSH1 0x1 PUSH1 0xA0 SHL SUB NOT AND OR PUSH1 0x3 SSTORE DUP1 RETURN JUMPDEST SWAP1 MLOAD PUSH4 0xE6C4247B PUSH1 0xE0 SHL DUP2 MSTORE REVERT JUMPDEST DUP3 MLOAD PUSH3 0x82B429 PUSH1 0xE8 SHL DUP2 MSTORE DUP7 SWAP1 REVERT JUMPDEST POP SWAP1 CALLVALUE PUSH2 0x24B JUMPI DUP3 DUP3 PUSH1 0x3 NOT CALLDATASIZE ADD SLT PUSH2 0x7D4 JUMPI PUSH2 0x77C SWAP2 PUSH2 0x710 PUSH2 0x20A0 JUMP JUMPDEST SWAP1 DUP5 MLOAD SWAP2 PUSH2 0x71D DUP4 PUSH2 0x213B JUMP JUMPDEST PUSH1 0x2 DUP4 MSTORE DUP6 CALLDATASIZE PUSH1 0x20 DUP6 ADD CALLDATACOPY PUSH1 0x1 SLOAD PUSH1 0x1 PUSH1 0x1 PUSH1 0xA0 SHL SUB SWAP2 SWAP1 DUP3 AND PUSH2 0x740 DUP6 PUSH2 0x21B1 JUMP JUMPDEST MSTORE DUP2 PUSH2 0x74B DUP6 PUSH2 0x21D4 JUMP JUMPDEST SWAP2 AND SWAP1 MSTORE DUP4 SLOAD AND SWAP1 DUP6 MLOAD DUP1 SWAP6 DUP2 SWAP5 DUP3 SWAP4 PUSH4 0xD06CA61F PUSH1 0xE0 SHL DUP5 MSTORE PUSH1 0x24 CALLDATALOAD SWAP1 DUP5 ADD MSTORE DUP9 PUSH1 0x24 DUP5 ADD MSTORE PUSH1 0x44 DUP4 ADD SWAP1 PUSH2 0x2293 JUMP JUMPDEST SUB SWAP2 GAS STATICCALL SWAP1 DUP2 ISZERO PUSH2 0x7C8 JUMPI SWAP1 PUSH2 0x79D SWAP2 DUP5 PUSH1 0x20 SWAP6 SWAP3 PUSH2 0x7A5 JUMPI JUMPDEST POP POP PUSH2 0x21D4 JUMP JUMPDEST MLOAD SWAP1 MLOAD SWAP1 DUP2 MSTORE RETURN JUMPDEST PUSH2 0x7C1 SWAP3 POP RETURNDATASIZE DUP1 SWAP2 DUP4 RETURNDATACOPY PUSH2 0x7B9 DUP2 DUP4 PUSH2 0x218F JUMP JUMPDEST DUP2 ADD SWAP1 PUSH2 0x2217 JUMP JUMPDEST CODESIZE DUP1 PUSH2 0x796 JUMP JUMPDEST POP POP MLOAD SWAP1 RETURNDATASIZE SWAP1 DUP3 RETURNDATACOPY RETURNDATASIZE SWAP1 REVERT JUMPDEST DUP1 REVERT JUMPDEST POP SWAP1 CALLVALUE PUSH2 0x24B JUMPI DUP3 PUSH1 0x3 NOT CALLDATASIZE ADD SLT PUSH2 0x24B JUMPI PUSH1 0x20 SWAP3 POP SLOAD SWAP1 MLOAD SWAP1 DUP2 MSTORE RETURN JUMPDEST POP CALLVALUE PUSH2 0x24B JUMPI PUSH1 0x60 CALLDATASIZE PUSH1 0x3 NOT ADD SLT PUSH2 0x24B JUMPI PUSH2 0x80F PUSH2 0x20A0 JUMP JUMPDEST PUSH1 0x1 PUSH1 0x1 PUSH1 0xA0 SHL SUB PUSH1 0x24 CALLDATALOAD DUP2 DUP2 AND SWAP5 SWAP1 SWAP4 SWAP2 DUP6 DUP6 SUB PUSH2 0x48D JUMPI PUSH1 0x44 CALLDATALOAD SWAP4 DUP2 PUSH1 0x3 SLOAD AND CALLER SUB PUSH2 0x947 JUMPI DUP7 ISZERO PUSH2 0x937 JUMPI AND SWAP4 DUP4 SWAP1 DUP6 PUSH2 0x89A JUMPI POP DUP7 DUP1 DUP1 DUP1 SWAP4 DUP10 GAS CALL PUSH2 0x857 PUSH2 0x2790 JUMP JUMPDEST POP ISZERO PUSH2 0x88C JUMPI POP PUSH32 0xF24EF89F38EADC1BDE50701AD6E4D6D11A2DC24F7CF834A486991F3883328504 SWAP2 PUSH1 0x20 SWAP2 JUMPDEST MLOAD SWAP1 DUP2 MSTORE LOG3 DUP1 RETURN JUMPDEST SWAP1 MLOAD PUSH4 0x12171D83 PUSH1 0xE3 SHL DUP2 MSTORE REVERT JUMPDEST DUP4 MLOAD PUSH4 0xA9059CBB PUSH1 0xE0 SHL DUP2 MSTORE PUSH1 0x1 PUSH1 0x1 PUSH1 0xA0 SHL SUB SWAP1 SWAP2 AND DUP4 DUP3 ADD SWAP1 DUP2 MSTORE PUSH1 0x20 DUP2 DUP2 ADD SWAP4 SWAP1 SWAP4 MSTORE SWAP1 SWAP2 SWAP1 DUP3 SWAP1 DUP2 SWAP1 PUSH1 0x40 ADD SUB DUP2 DUP11 DUP10 GAS CALL SWAP1 DUP2 ISZERO PUSH2 0x92D JUMPI DUP8 SWAP2 PUSH2 0x90F JUMPI JUMPDEST POP ISZERO PUSH2 0x88C JUMPI POP PUSH32 0xF24EF89F38EADC1BDE50701AD6E4D6D11A2DC24F7CF834A486991F3883328504 SWAP2 PUSH1 0x20 SWAP2 PUSH2 0x884 JUMP JUMPDEST PUSH2 0x927 SWAP2 POP PUSH1 0x20 RETURNDATASIZE DUP2 GT PUSH2 0x52C JUMPI PUSH2 0x51D DUP2 DUP4 PUSH2 0x218F JUMP JUMPDEST CODESIZE PUSH2 0x8DE JUMP JUMPDEST DUP4 MLOAD RETURNDATASIZE DUP10 DUP3 RETURNDATACOPY RETURNDATASIZE SWAP1 REVERT JUMPDEST DUP4 MLOAD PUSH4 0xE6C4247B PUSH1 0xE0 SHL DUP2 MSTORE DUP4 SWAP1 REVERT JUMPDEST DUP4 MLOAD PUSH3 0x82B429 PUSH1 0xE8 SHL DUP2 MSTORE DUP4 SWAP1 REVERT JUMPDEST POP SWAP1 CALLVALUE PUSH2 0x24B JUMPI DUP2 PUSH1 0x3 NOT CALLDATASIZE ADD SLT PUSH2 0x24B JUMPI PUSH2 0x9EB DUP4 PUSH2 0x980 PUSH2 0x977 PUSH2 0x20A0 JUMP JUMPDEST PUSH1 0x24 CALLDATALOAD SWAP1 PUSH2 0x2EC2 JUMP JUMPDEST SWAP3 DUP5 MLOAD SWAP1 PUSH2 0x98D DUP3 PUSH2 0x213B JUMP JUMPDEST PUSH1 0x2 DUP3 MSTORE DUP6 CALLDATASIZE PUSH1 0x20 DUP5 ADD CALLDATACOPY PUSH1 0x2 SLOAD DUP6 SWAP1 PUSH1 0x1 PUSH1 0x1 PUSH1 0xA0 SHL SUB SWAP1 DUP2 AND PUSH2 0x9B1 DUP6 PUSH2 0x21B1 JUMP JUMPDEST MSTORE DUP1 PUSH1 0x1 SLOAD AND PUSH2 0x9C0 DUP6 PUSH2 0x21D4 JUMP JUMPDEST MSTORE DUP5 SLOAD AND SWAP2 DUP8 MLOAD SWAP6 DUP7 SWAP5 DUP6 SWAP4 DUP5 SWAP4 PUSH4 0x7C0329D PUSH1 0xE2 SHL DUP6 MSTORE DUP5 ADD MSTORE DUP10 PUSH1 0x24 DUP5 ADD MSTORE PUSH1 0x44 DUP4 ADD SWAP1 PUSH2 0x2293 JUMP JUMPDEST SUB SWAP2 GAS STATICCALL SWAP1 DUP2 ISZERO PUSH2 0xA33 JUMPI DUP5 PUSH2 0xA0A SWAP4 SWAP5 SWAP6 SWAP3 PUSH2 0xA18 JUMPI JUMPDEST POP POP PUSH2 0x21B1 JUMP JUMPDEST MLOAD SWAP1 DUP3 MLOAD SWAP2 DUP3 MSTORE PUSH1 0x20 DUP3 ADD MSTORE RETURN JUMPDEST PUSH2 0xA2C SWAP3 POP RETURNDATASIZE DUP1 SWAP2 DUP4 RETURNDATACOPY PUSH2 0x7B9 DUP2 DUP4 PUSH2 0x218F JUMP JUMPDEST CODESIZE DUP1 PUSH2 0xA03 JUMP JUMPDEST POP POP POP MLOAD SWAP1 RETURNDATASIZE SWAP1 DUP3 RETURNDATACOPY RETURNDATASIZE SWAP1 REVERT JUMPDEST POP SWAP1 CALLVALUE PUSH2 0x24B JUMPI PUSH2 0xA50 CALLDATASIZE PUSH2 0x20B6 JUMP JUMPDEST PUSH1 0xFF PUSH1 0x6 SWAP7 SWAP4 SWAP5 SWAP3 SWAP7 SLOAD AND PUSH2 0xD2B JUMPI PUSH1 0x1 PUSH1 0x1 PUSH1 0xA0 SHL SUB SWAP4 DUP1 DUP6 AND SWAP2 DUP3 ISZERO PUSH2 0xD1B JUMPI DUP8 ISZERO PUSH2 0xD0B JUMPI DUP7 MLOAD PUSH4 0x70A08231 PUSH1 0xE0 SHL DUP1 DUP3 MSTORE ADDRESS DUP7 DUP4 ADD MSTORE PUSH1 0x20 SWAP10 SWAP1 SWAP2 DUP11 DUP2 PUSH1 0x24 DUP2 DUP10 GAS STATICCALL SWAP1 DUP2 ISZERO PUSH2 0xCD2 JUMPI DUP12 SWAP1 DUP10 SWAP3 PUSH2 0xCDC JUMPI JUMPDEST POP DUP11 MLOAD PUSH4 0x23B872DD PUSH1 0xE0 SHL DUP2 MSTORE CALLER DUP10 DUP3 ADD SWAP1 DUP2 MSTORE ADDRESS PUSH1 0x20 DUP3 ADD MSTORE PUSH1 0x40 DUP2 ADD SWAP5 SWAP1 SWAP5 MSTORE SWAP2 SWAP3 DUP3 SWAP1 DUP2 SWAP1 PUSH1 0x60 ADD JUMPDEST SUB DUP2 DUP12 DUP11 GAS CALL SWAP1 DUP2 ISZERO PUSH2 0xCD2 JUMPI DUP9 SWAP2 PUSH2 0xCB5 JUMPI JUMPDEST POP ISZERO PUSH2 0xCA5 JUMPI DUP9 MLOAD SWAP2 DUP3 MSTORE ADDRESS DUP7 DUP4 ADD MSTORE DUP10 DUP3 PUSH1 0x24 DUP2 DUP9 GAS STATICCALL DUP1 ISZERO PUSH2 0x5B6 JUMPI DUP8 SWAP1 PUSH2 0xC76 JUMPI JUMPDEST PUSH2 0xB16 SWAP3 POP PUSH2 0x2783 JUMP JUMPDEST SWAP2 DUP3 ISZERO PUSH2 0x577 JUMPI PUSH2 0xB27 DUP10 SWAP2 PUSH2 0x2DF0 JUMP JUMPDEST DUP4 SWAP1 DUP1 PUSH2 0xC4D JUMPI JUMPDEST POP DUP7 SLOAD DUP10 MLOAD PUSH4 0x95EA7B3 PUSH1 0xE0 SHL DUP2 MSTORE SWAP1 DUP10 AND PUSH1 0x1 PUSH1 0x1 PUSH1 0xA0 SHL SUB AND DUP8 DUP3 ADD SWAP1 DUP2 MSTORE PUSH1 0x20 DUP2 ADD SWAP3 SWAP1 SWAP3 MSTORE SWAP2 SWAP1 DUP3 SWAP1 DUP2 SWAP1 PUSH1 0x40 ADD JUMPDEST SUB DUP2 DUP10 DUP9 GAS CALL DUP1 ISZERO PUSH2 0x533 JUMPI PUSH2 0xC30 JUMPI JUMPDEST POP DUP7 MLOAD SWAP3 PUSH2 0xB80 DUP5 PUSH2 0x2157 JUMP JUMPDEST PUSH1 0x3 DUP5 MSTORE PUSH1 0x60 CALLDATASIZE DUP11 DUP7 ADD CALLDATACOPY PUSH2 0xB94 DUP5 PUSH2 0x21B1 JUMP JUMPDEST MSTORE DUP6 PUSH1 0x1 SLOAD AND PUSH2 0xBA3 DUP5 PUSH2 0x21D4 JUMP JUMPDEST MSTORE DUP6 PUSH1 0x2 SLOAD AND PUSH2 0xBB2 DUP5 PUSH2 0x21E4 JUMP JUMPDEST MSTORE CALLER BALANCE SWAP6 DUP6 SLOAD AND SWAP2 PUSH2 0xBC5 DUP6 SLOAD TIMESTAMP PUSH2 0x21F4 JUMP JUMPDEST DUP4 EXTCODESIZE ISZERO PUSH2 0xC2C JUMPI DUP7 SWAP5 SWAP4 SWAP3 SWAP2 PUSH2 0xBF2 DUP7 SWAP3 DUP12 MLOAD SWAP9 DUP10 SWAP8 DUP9 SWAP7 DUP8 SWAP6 PUSH4 0x791AC947 PUSH1 0xE0 SHL DUP8 MSTORE CALLER SWAP4 DUP8 ADD PUSH2 0x27D0 JUMP JUMPDEST SUB SWAP3 GAS CALL DUP1 ISZERO PUSH2 0xC22 JUMPI PUSH2 0xC0E JUMPI JUMPDEST POP POP PUSH2 0x45E SWAP1 CALLER BALANCE PUSH2 0x2783 JUMP JUMPDEST PUSH2 0xC18 DUP3 SWAP2 PUSH2 0x2111 JUMP JUMPDEST PUSH2 0x7D4 JUMPI DUP1 PUSH2 0xC01 JUMP JUMPDEST DUP5 MLOAD RETURNDATASIZE DUP5 DUP3 RETURNDATACOPY RETURNDATASIZE SWAP1 REVERT JUMPDEST DUP7 DUP1 REVERT JUMPDEST PUSH2 0xC46 SWAP1 DUP10 RETURNDATASIZE DUP12 GT PUSH2 0x52C JUMPI PUSH2 0x51D DUP2 DUP4 PUSH2 0x218F JUMP JUMPDEST POP CODESIZE PUSH2 0xB73 JUMP JUMPDEST SWAP2 POP SWAP3 POP PUSH2 0x2710 SWAP1 DUP2 SUB DUP2 DUP2 GT PUSH2 0x564 JUMPI PUSH2 0xB62 SWAP2 PUSH2 0xC6D DUP12 SWAP3 DUP7 PUSH2 0x273D JUMP JUMPDEST DIV SWAP4 SWAP1 SWAP2 PUSH2 0xB2F JUMP JUMPDEST POP DUP10 DUP3 DUP2 RETURNDATASIZE DUP4 GT PUSH2 0xC9E JUMPI JUMPDEST PUSH2 0xC8C DUP2 DUP4 PUSH2 0x218F JUMP JUMPDEST DUP2 ADD SUB SLT PUSH2 0x48D JUMPI PUSH2 0xB16 SWAP2 MLOAD PUSH2 0xB0C JUMP JUMPDEST POP RETURNDATASIZE PUSH2 0xC82 JUMP JUMPDEST DUP9 MLOAD PUSH4 0x12171D83 PUSH1 0xE3 SHL DUP2 MSTORE DUP7 SWAP1 REVERT JUMPDEST PUSH2 0xCCC SWAP2 POP DUP12 RETURNDATASIZE DUP14 GT PUSH2 0x52C JUMPI PUSH2 0x51D DUP2 DUP4 PUSH2 0x218F JUMP JUMPDEST CODESIZE PUSH2 0xAE7 JUMP JUMPDEST DUP11 MLOAD RETURNDATASIZE DUP11 DUP3 RETURNDATACOPY RETURNDATASIZE SWAP1 REVERT JUMPDEST DUP1 SWAP3 POP DUP2 RETURNDATASIZE DUP4 GT PUSH2 0xD04 JUMPI JUMPDEST PUSH2 0xCF2 DUP2 DUP4 PUSH2 0x218F JUMP JUMPDEST DUP2 ADD SUB SLT PUSH2 0x48D JUMPI MLOAD DUP11 PUSH2 0xAD3 PUSH2 0xAA7 JUMP JUMPDEST POP RETURNDATASIZE PUSH2 0xCE8 JUMP JUMPDEST DUP7 MLOAD PUSH4 0x162908E3 PUSH1 0xE1 SHL DUP2 MSTORE DUP5 SWAP1 REVERT JUMPDEST DUP7 MLOAD PUSH4 0xE6C4247B PUSH1 0xE0 SHL DUP2 MSTORE DUP5 SWAP1 REVERT JUMPDEST POP DUP4 MLOAD PUSH4 0x13D0FF59 PUSH1 0xE3 SHL DUP2 MSTORE REVERT JUMPDEST POP SWAP1 CALLVALUE PUSH2 0x24B JUMPI PUSH1 0x20 CALLDATASIZE PUSH1 0x3 NOT ADD SLT PUSH2 0x24B JUMPI PUSH2 0xD55 PUSH2 0x20A0 JUMP JUMPDEST PUSH1 0x3 SLOAD PUSH1 0x1 PUSH1 0x1 PUSH1 0xA0 SHL SUB SWAP3 SWAP2 SWAP1 DUP4 AND CALLER SUB PUSH2 0xDCF JUMPI DUP3 AND SWAP3 DUP4 ISZERO PUSH2 0xDC2 JUMPI DUP4 SWAP1 PUSH1 0x2 SLOAD SWAP4 DUP2 MLOAD SWAP4 PUSH1 0x60 DUP6 MSTORE PUSH1 0x60 DUP6 ADD MSTORE PUSH4 0x3BB13731 PUSH1 0xE1 SHL PUSH1 0x80 DUP6 ADD MSTORE DUP5 AND PUSH1 0x20 DUP5 ADD MSTORE DUP3 ADD MSTORE PUSH1 0x0 DUP1 MLOAD PUSH1 0x20 PUSH2 0x2F81 DUP4 CODECOPY DUP2 MLOAD SWAP2 MSTORE PUSH1 0xA0 CALLER SWAP3 LOG2 PUSH1 0x1 PUSH1 0x1 PUSH1 0xA0 SHL SUB NOT AND OR PUSH1 0x2 SSTORE DUP1 RETURN JUMPDEST MLOAD PUSH4 0xE6C4247B PUSH1 0xE0 SHL DUP2 MSTORE REVERT JUMPDEST POP DUP3 MLOAD PUSH3 0x82B429 PUSH1 0xE8 SHL DUP2 MSTORE REVERT JUMPDEST DUP4 DUP3 CALLVALUE PUSH2 0x64A JUMPI DUP2 PUSH1 0x3 NOT CALLDATASIZE ADD SLT PUSH2 0x64A JUMPI PUSH1 0x20 SWAP1 PUSH1 0x5 SLOAD SWAP1 MLOAD SWAP1 DUP2 MSTORE RETURN JUMPDEST DUP4 DUP3 CALLVALUE PUSH2 0x64A JUMPI DUP2 PUSH1 0x3 NOT CALLDATASIZE ADD SLT PUSH2 0x64A JUMPI SWAP1 SLOAD SWAP1 MLOAD PUSH1 0x1 PUSH1 0x1 PUSH1 0xA0 SHL SUB SWAP1 SWAP2 AND DUP2 MSTORE PUSH1 0x20 SWAP1 RETURN JUMPDEST POP SWAP1 CALLVALUE PUSH2 0x24B JUMPI DUP2 PUSH1 0x3 NOT CALLDATASIZE ADD SLT PUSH2 0x24B JUMPI PUSH2 0xE3E PUSH2 0x20A0 JUMP JUMPDEST SWAP1 PUSH1 0x24 CALLDATALOAD SWAP2 DUP3 ISZERO ISZERO DUP4 SUB PUSH2 0x48D JUMPI PUSH1 0x1 PUSH1 0x1 PUSH1 0xA0 SHL SUB AND SWAP1 DUP2 ISZERO PUSH2 0xF5E JUMPI POP DUP1 DUP5 MSTORE PUSH1 0x20 SWAP2 PUSH1 0x7 DUP4 MSTORE PUSH2 0xE7F DUP2 DUP6 DUP8 KECCAK256 SWAP1 PUSH1 0xFF DUP1 NOT DUP4 SLOAD AND SWAP2 ISZERO ISZERO AND OR SWAP1 SSTORE JUMP JUMPDEST ISZERO PUSH2 0xF22 JUMPI DUP3 MLOAD PUSH2 0xE8F DUP2 PUSH2 0x2173 JUMP JUMPDEST PUSH1 0x1D DUP2 MSTORE PUSH32 0x57424E4220426F6E64696E672043757276652052656769737465726564000000 DUP4 DUP3 ADD MSTORE SWAP2 SWAP3 SWAP1 JUMPDEST DUP2 MLOAD SWAP2 PUSH1 0x60 DUP4 MSTORE DUP6 DUP5 MLOAD SWAP6 DUP7 PUSH1 0x60 DUP7 ADD MSTORE DUP2 JUMPDEST DUP8 DUP2 LT PUSH2 0xF0B JUMPI POP PUSH1 0x0 DUP1 MLOAD PUSH1 0x20 PUSH2 0x2F81 DUP4 CODECOPY DUP2 MLOAD SWAP2 MSTORE SWAP6 POP DUP2 PUSH1 0x80 DUP9 DUP8 ADD ADD MSTORE DUP5 ADD MSTORE DUP3 ADD MSTORE PUSH1 0x80 DUP2 CALLER SWAP5 PUSH1 0x1F DUP1 NOT SWAP2 ADD AND DUP2 ADD SUB ADD SWAP1 LOG2 DUP1 RETURN JUMPDEST DUP1 DUP8 ADD DUP3 ADD MLOAD DUP7 DUP3 ADD PUSH1 0x80 ADD MSTORE DUP9 SWAP3 POP DUP2 ADD PUSH2 0xECF JUMP JUMPDEST DUP3 MLOAD PUSH2 0xF2D DUP2 PUSH2 0x2173 JUMP JUMPDEST PUSH1 0x1E DUP2 MSTORE PUSH32 0x484156454E20426F6E64696E6720437572766520526567697374657265640000 DUP4 DUP3 ADD MSTORE SWAP2 SWAP3 SWAP1 PUSH2 0xEBC JUMP JUMPDEST DUP4 MLOAD PUSH4 0xE6C4247B PUSH1 0xE0 SHL DUP2 MSTORE REVERT JUMPDEST POP SWAP2 PUSH2 0xF77 CALLDATASIZE PUSH2 0x20B6 JUMP JUMPDEST SWAP2 SWAP1 PUSH1 0xFF PUSH1 0x6 SLOAD AND PUSH2 0x1335 JUMPI PUSH1 0x1 PUSH1 0x1 PUSH1 0xA0 SHL SUB SWAP5 DUP3 DUP7 AND SWAP3 DUP4 ISZERO PUSH2 0x1326 JUMPI CALLVALUE ISZERO PUSH2 0x1317 JUMPI DUP3 ISZERO PUSH2 0x1317 JUMPI PUSH1 0x5 SLOAD DUP6 GT PUSH2 0x1308 JUMPI PUSH2 0xFB5 DUP4 DUP3 PUSH2 0x2EC2 JUMP JUMPDEST SWAP7 DUP9 MLOAD SWAP6 PUSH2 0xFC2 DUP8 PUSH2 0x213B JUMP JUMPDEST PUSH1 0x2 DUP8 MSTORE PUSH1 0x20 SWAP7 DUP11 CALLDATASIZE DUP10 DUP4 ADD CALLDATACOPY DUP3 PUSH1 0x2 SLOAD AND PUSH2 0xFDD DUP3 PUSH2 0x21B1 JUMP JUMPDEST MSTORE DUP3 PUSH1 0x1 SLOAD AND PUSH2 0xFEC DUP3 PUSH2 0x21D4 JUMP JUMPDEST MSTORE DUP3 DUP10 SLOAD AND SWAP2 DUP12 MLOAD PUSH4 0x7C0329D PUSH1 0xE2 SHL DUP2 MSTORE DUP12 DUP8 DUP3 ADD MSTORE DUP13 PUSH1 0x24 DUP3 ADD MSTORE DUP11 DUP2 DUP1 PUSH2 0x1019 PUSH1 0x44 DUP3 ADD DUP8 PUSH2 0x2293 JUMP JUMPDEST SUB DUP2 DUP8 GAS STATICCALL SWAP1 DUP2 ISZERO PUSH2 0x12FE JUMPI PUSH2 0x104A PUSH2 0x1042 PUSH2 0x1051 SWAP5 SWAP4 PUSH2 0x2710 SWAP4 DUP16 DUP1 SWAP3 PUSH2 0x12E3 JUMPI POP POP PUSH2 0x21B1 JUMP JUMPDEST MLOAD SWAP3 DUP4 PUSH2 0x273D JUMP JUMPDEST DIV SWAP1 PUSH2 0x21F4 JUMP JUMPDEST SWAP10 DUP11 CALLVALUE LT PUSH2 0x12D3 JUMPI DUP12 SWAP3 DUP11 SWAP3 DUP13 DUP9 SWAP4 PUSH2 0x108A PUSH2 0x106E DUP7 SLOAD TIMESTAMP PUSH2 0x21F4 JUMP JUMPDEST SWAP8 MLOAD PUSH4 0x7FF36AB5 PUSH1 0xE0 SHL DUP2 MSTORE SWAP8 DUP9 SWAP7 DUP8 SWAP6 DUP7 SWAP5 ADDRESS SWAP3 DUP7 ADD PUSH2 0x2750 JUMP JUMPDEST SUB SWAP3 GAS CALL SWAP1 DUP2 ISZERO PUSH2 0xCD2 JUMPI SWAP2 PUSH2 0x10AC DUP9 SWAP3 PUSH2 0x10E5 SWAP5 DUP12 SWAP2 PUSH2 0x12B9 JUMPI JUMPDEST POP PUSH2 0x21D4 JUMP JUMPDEST MLOAD SWAP4 DUP5 SWAP2 PUSH1 0x1 SLOAD AND SWAP1 DUP11 DUP14 MLOAD DUP1 SWAP7 DUP2 SWAP6 DUP3 SWAP5 PUSH4 0x95EA7B3 PUSH1 0xE0 SHL DUP5 MSTORE DUP12 DUP5 ADD PUSH1 0x20 SWAP1 SWAP4 SWAP3 SWAP2 SWAP4 PUSH1 0x40 DUP2 ADD SWAP5 PUSH1 0x1 DUP1 PUSH1 0xA0 SHL SUB AND DUP2 MSTORE ADD MSTORE JUMP JUMPDEST SUB SWAP3 GAS CALL DUP1 ISZERO PUSH2 0x5B6 JUMPI PUSH2 0x129C JUMPI JUMPDEST POP DUP4 EXTCODESIZE ISZERO PUSH2 0x1298 JUMPI DUP8 MLOAD SWAP1 PUSH4 0x1ADFD7BD PUSH1 0xE3 SHL DUP3 MSTORE DUP3 DUP3 ADD MSTORE DUP3 PUSH1 0x24 DUP3 ADD MSTORE DUP6 DUP2 PUSH1 0x44 DUP2 DUP4 DUP9 GAS CALL DUP1 ISZERO PUSH2 0x533 JUMPI SWAP1 DUP7 SWAP2 PUSH2 0x1280 JUMPI JUMPDEST POP POP DUP7 MLOAD PUSH4 0x70A08231 PUSH1 0xE0 SHL DUP2 MSTORE ADDRESS DUP3 DUP3 ADD MSTORE DUP5 DUP2 PUSH1 0x24 DUP2 DUP8 GAS STATICCALL SWAP1 DUP2 ISZERO PUSH2 0x533 JUMPI SWAP1 DUP4 SWAP2 DUP8 SWAP2 PUSH2 0x124F JUMPI JUMPDEST POP LT PUSH2 0x1241 JUMPI DUP7 MLOAD PUSH4 0xA9059CBB PUSH1 0xE0 SHL DUP2 MSTORE CALLER DUP3 DUP3 ADD SWAP1 DUP2 MSTORE PUSH1 0x20 DUP2 ADD DUP5 SWAP1 MSTORE DUP6 SWAP1 DUP3 SWAP1 DUP2 SWAP1 PUSH1 0x40 ADD SUB DUP2 DUP10 DUP9 GAS CALL SWAP1 DUP2 ISZERO PUSH2 0x533 JUMPI DUP7 SWAP2 PUSH2 0x1224 JUMPI JUMPDEST POP ISZERO PUSH2 0x1216 JUMPI PUSH2 0x11A3 DUP7 CALLVALUE PUSH2 0x2783 JUMP JUMPDEST SWAP5 DUP6 PUSH2 0x11FB JUMPI JUMPDEST POP POP PUSH32 0x1504C5C62E4F504E54290D01E06AC42130FFF4D2712E5971C0EE4F42388C6BD5 DUP7 MLOAD DUP1 PUSH2 0x11EE CALLER SWAP5 DUP9 CALLVALUE DUP5 PUSH1 0x40 SWAP2 SWAP5 SWAP4 SWAP3 PUSH1 0x60 DUP3 ADD SWAP6 DUP3 MSTORE PUSH1 0x20 DUP3 ADD MSTORE ADD MSTORE JUMP JUMPDEST SUB SWAP1 LOG3 DUP4 MLOAD SWAP3 DUP4 MSTORE DUP3 ADD MSTORE RETURN JUMPDEST DUP1 DUP1 DUP1 DUP9 CALLER GAS CALL PUSH2 0x120A PUSH2 0x2790 JUMP JUMPDEST POP ISZERO PUSH2 0x1216 JUMPI DUP1 PUSH2 0x11AA JUMP JUMPDEST DUP7 MLOAD PUSH4 0x12171D83 PUSH1 0xE3 SHL DUP2 MSTORE REVERT JUMPDEST PUSH2 0x123B SWAP2 POP DUP6 RETURNDATASIZE DUP8 GT PUSH2 0x52C JUMPI PUSH2 0x51D DUP2 DUP4 PUSH2 0x218F JUMP JUMPDEST CODESIZE PUSH2 0x1193 JUMP JUMPDEST DUP7 MLOAD PUSH4 0xBB2875C3 PUSH1 0xE0 SHL DUP2 MSTORE REVERT JUMPDEST DUP1 SWAP3 POP DUP7 DUP1 SWAP3 POP RETURNDATASIZE DUP4 GT PUSH2 0x1279 JUMPI JUMPDEST PUSH2 0x1268 DUP2 DUP4 PUSH2 0x218F JUMP JUMPDEST DUP2 ADD SUB SLT PUSH2 0x48D JUMPI DUP3 SWAP1 MLOAD CODESIZE PUSH2 0x1156 JUMP JUMPDEST POP RETURNDATASIZE PUSH2 0x125E JUMP JUMPDEST PUSH2 0x1289 SWAP1 PUSH2 0x2111 JUMP JUMPDEST PUSH2 0x1294 JUMPI DUP5 CODESIZE PUSH2 0x112A JUMP JUMPDEST DUP5 DUP1 REVERT JUMPDEST DUP6 DUP1 REVERT JUMPDEST PUSH2 0x12B2 SWAP1 DUP7 RETURNDATASIZE DUP9 GT PUSH2 0x52C JUMPI PUSH2 0x51D DUP2 DUP4 PUSH2 0x218F JUMP JUMPDEST POP CODESIZE PUSH2 0x10F4 JUMP JUMPDEST PUSH2 0x12CD SWAP2 POP RETURNDATASIZE DUP1 DUP14 DUP4 RETURNDATACOPY PUSH2 0x7B9 DUP2 DUP4 PUSH2 0x218F JUMP JUMPDEST CODESIZE PUSH2 0x10A6 JUMP JUMPDEST DUP12 MLOAD PUSH4 0xBB2875C3 PUSH1 0xE0 SHL DUP2 MSTORE DUP7 SWAP1 REVERT JUMPDEST PUSH2 0x12F7 SWAP3 POP RETURNDATASIZE DUP1 SWAP2 DUP4 RETURNDATACOPY PUSH2 0x7B9 DUP2 DUP4 PUSH2 0x218F JUMP JUMPDEST CODESIZE DUP16 PUSH2 0xA03 JUMP JUMPDEST DUP14 MLOAD RETURNDATASIZE DUP14 DUP3 RETURNDATACOPY RETURNDATASIZE SWAP1 REVERT JUMPDEST POP DUP7 MLOAD PUSH4 0x334EE9A1 PUSH1 0xE0 SHL DUP2 MSTORE REVERT JUMPDEST POP DUP7 MLOAD PUSH4 0x162908E3 PUSH1 0xE1 SHL DUP2 MSTORE REVERT JUMPDEST POP DUP7 MLOAD PUSH4 0xE6C4247B PUSH1 0xE0 SHL DUP2 MSTORE REVERT JUMPDEST DUP6 MLOAD PUSH4 0x13D0FF59 PUSH1 0xE3 SHL DUP2 MSTORE DUP6 SWAP1 REVERT JUMPDEST POP DUP3 CALLVALUE PUSH2 0x7D4 JUMPI POP PUSH2 0x1356 CALLDATASIZE PUSH2 0x20B6 JUMP JUMPDEST SWAP4 PUSH1 0xFF PUSH1 0x6 SWAP4 SWAP3 SWAP4 SLOAD AND PUSH2 0x63C JUMPI POP SWAP3 PUSH2 0x45E SWAP2 PUSH1 0x20 SWAP5 PUSH2 0x2809 JUMP JUMPDEST DUP4 DUP3 CALLVALUE PUSH2 0x64A JUMPI DUP2 PUSH1 0x3 NOT CALLDATASIZE ADD SLT PUSH2 0x64A JUMPI PUSH1 0x3 SLOAD SWAP1 MLOAD PUSH1 0x1 PUSH1 0x1 PUSH1 0xA0 SHL SUB SWAP1 SWAP2 AND DUP2 MSTORE PUSH1 0x20 SWAP1 RETURN JUMPDEST DUP4 DUP3 CALLVALUE PUSH2 0x64A JUMPI DUP2 PUSH1 0x3 NOT CALLDATASIZE ADD SLT PUSH2 0x64A JUMPI PUSH1 0x2 SLOAD SWAP1 MLOAD PUSH1 0x1 PUSH1 0x1 PUSH1 0xA0 SHL SUB SWAP1 SWAP2 AND DUP2 MSTORE PUSH1 0x20 SWAP1 RETURN JUMPDEST POP DUP3 CALLVALUE PUSH2 0x7D4 JUMPI DUP2 PUSH1 0x3 NOT CALLDATASIZE ADD SLT PUSH2 0x7D4 JUMPI POP PUSH2 0x13EB PUSH2 0x13E2 PUSH2 0x20A0 JUMP JUMPDEST PUSH1 0x24 CALLDATALOAD SWAP1 PUSH2 0x2B35 JUMP JUMPDEST DUP3 MLOAD SWAP2 DUP3 MSTORE PUSH1 0x20 DUP3 ADD MSTORE RETURN JUMPDEST DUP4 DUP3 CALLVALUE PUSH2 0x64A JUMPI DUP2 PUSH1 0x3 NOT CALLDATASIZE ADD SLT PUSH2 0x64A JUMPI PUSH1 0x1 SLOAD SWAP1 MLOAD PUSH1 0x1 PUSH1 0x1 PUSH1 0xA0 SHL SUB SWAP1 SWAP2 AND DUP2 MSTORE PUSH1 0x20 SWAP1 RETURN JUMPDEST POP CALLVALUE PUSH2 0x24B JUMPI DUP1 PUSH1 0x3 NOT CALLDATASIZE ADD SLT PUSH2 0x24B JUMPI PUSH8 0xFFFFFFFFFFFFFFFF SWAP2 DUP1 CALLDATALOAD DUP4 DUP2 GT PUSH2 0x1294 JUMPI PUSH2 0x1451 SWAP1 CALLDATASIZE SWAP1 DUP4 ADD PUSH2 0x20E0 JUMP JUMPDEST SWAP3 PUSH1 0x24 SWAP5 DUP6 CALLDATALOAD SWAP1 DUP2 GT PUSH2 0xC2C JUMPI PUSH2 0x146B SWAP1 CALLDATASIZE SWAP1 DUP6 ADD PUSH2 0x20E0 JUMP JUMPDEST PUSH1 0x3 SLOAD SWAP2 SWAP6 PUSH1 0x1 PUSH1 0x1 PUSH1 0xA0 SHL SUB SWAP3 SWAP1 SWAP2 SWAP1 DUP4 AND CALLER SUB PUSH2 0x153D JUMPI DUP1 DUP3 SUB PUSH2 0x152D JUMPI DUP9 JUMPDEST DUP3 DUP2 LT PUSH2 0x1498 JUMPI DUP10 DUP1 RETURN JUMPDEST DUP4 PUSH2 0x14AC PUSH2 0x14A7 DUP4 DUP7 DUP11 PUSH2 0x2DCC JUMP JUMPDEST PUSH2 0x2DDC JUMP JUMPDEST AND ISZERO PUSH2 0x151D JUMPI PUSH2 0x14BD DUP2 DUP4 DUP11 PUSH2 0x2DCC JUMP JUMPDEST CALLDATALOAD DUP1 ISZERO ISZERO DUP2 SUB PUSH2 0x1519 JUMPI PUSH2 0x14F6 SWAP1 DUP6 PUSH2 0x14DA PUSH2 0x14A7 DUP6 DUP9 DUP13 PUSH2 0x2DCC JUMP JUMPDEST AND DUP13 MSTORE PUSH1 0x7 PUSH1 0x20 MSTORE DUP7 DUP13 KECCAK256 SWAP1 PUSH1 0xFF DUP1 NOT DUP4 SLOAD AND SWAP2 ISZERO ISZERO AND OR SWAP1 SSTORE JUMP JUMPDEST PUSH1 0x0 NOT DUP2 EQ PUSH2 0x1507 JUMPI PUSH1 0x1 ADD PUSH2 0x148D JUMP JUMPDEST PUSH4 0x4E487B71 PUSH1 0xE0 SHL DUP11 MSTORE PUSH1 0x11 DUP8 MSTORE DUP9 DUP11 REVERT JUMPDEST DUP11 DUP1 REVERT JUMPDEST DUP5 MLOAD PUSH4 0xE6C4247B PUSH1 0xE0 SHL DUP2 MSTORE DUP8 SWAP1 REVERT JUMPDEST DUP4 MLOAD PUSH4 0x162908E3 PUSH1 0xE1 SHL DUP2 MSTORE DUP7 SWAP1 REVERT JUMPDEST DUP4 MLOAD PUSH3 0x82B429 PUSH1 0xE8 SHL DUP2 MSTORE DUP7 SWAP1 REVERT JUMPDEST POP CALLVALUE PUSH2 0x24B JUMPI PUSH1 0x20 CALLDATASIZE PUSH1 0x3 NOT ADD SLT PUSH2 0x24B JUMPI PUSH2 0x1566 PUSH2 0x20A0 JUMP JUMPDEST PUSH1 0x3 SLOAD PUSH1 0x1 PUSH1 0x1 PUSH1 0xA0 SHL SUB SWAP2 SWAP1 DUP3 AND CALLER SUB PUSH2 0x23D JUMPI DUP2 AND SWAP3 DUP4 ISZERO PUSH2 0x22F JUMPI POP DUP3 PUSH1 0x1 SLOAD SWAP3 DUP1 MLOAD SWAP3 PUSH1 0x60 DUP5 MSTORE PUSH1 0xA PUSH1 0x60 DUP6 ADD MSTORE PUSH10 0x3430BB32B72A37B5B2B7 PUSH1 0xB1 SHL PUSH1 0x80 DUP6 ADD MSTORE DUP5 AND PUSH1 0x20 DUP5 ADD MSTORE DUP3 ADD MSTORE PUSH1 0x0 DUP1 MLOAD PUSH1 0x20 PUSH2 0x2F81 DUP4 CODECOPY DUP2 MLOAD SWAP2 MSTORE PUSH1 0xA0 CALLER SWAP3 LOG2 PUSH1 0x1 PUSH1 0x1 PUSH1 0xA0 SHL SUB NOT AND OR PUSH1 0x1 SSTORE DUP1 RETURN JUMPDEST POP SWAP1 CALLVALUE PUSH2 0x24B JUMPI DUP2 PUSH1 0x3 NOT CALLDATASIZE ADD SLT PUSH2 0x24B JUMPI DUP3 PUSH2 0x15F5 PUSH2 0x20A0 JUMP JUMPDEST PUSH1 0x24 CALLDATALOAD SWAP3 PUSH2 0x1602 DUP3 PUSH2 0x2DF0 JUMP JUMPDEST DUP5 DUP2 PUSH2 0x1675 JUMPI JUMPDEST POP POP PUSH2 0x77C SWAP4 DUP6 MLOAD SWAP3 PUSH2 0x161B DUP5 PUSH2 0x213B JUMP JUMPDEST PUSH1 0x2 DUP5 MSTORE DUP7 CALLDATASIZE PUSH1 0x20 DUP7 ADD CALLDATACOPY PUSH2 0x162F DUP5 PUSH2 0x21B1 JUMP JUMPDEST PUSH1 0x1 PUSH1 0x1 PUSH1 0xA0 SHL SUB SWAP2 DUP3 AND SWAP1 MSTORE PUSH1 0x1 SLOAD DUP2 AND PUSH2 0x164A DUP6 PUSH2 0x21D4 JUMP JUMPDEST MSTORE DUP5 SLOAD AND SWAP2 DUP7 MLOAD SWAP6 DUP7 SWAP5 DUP6 SWAP4 DUP5 SWAP4 PUSH4 0xD06CA61F PUSH1 0xE0 SHL DUP6 MSTORE DUP5 ADD MSTORE DUP9 PUSH1 0x24 DUP5 ADD MSTORE PUSH1 0x44 DUP4 ADD SWAP1 PUSH2 0x2293 JUMP JUMPDEST SWAP2 SWAP4 POP SWAP2 SWAP4 POP PUSH2 0x2710 SWAP2 DUP3 SUB SWAP1 DUP3 DUP3 GT PUSH2 0x16A2 JUMPI SWAP2 PUSH2 0x169A DUP8 SWAP5 SWAP3 PUSH2 0x77C SWAP7 SWAP5 PUSH2 0x273D JUMP JUMPDEST DIV SWAP4 CODESIZE PUSH2 0x1609 JUMP JUMPDEST PUSH4 0x4E487B71 PUSH1 0xE0 SHL DUP8 MSTORE PUSH1 0x11 DUP5 MSTORE PUSH1 0x24 DUP8 REVERT JUMPDEST DUP4 DUP3 CALLVALUE PUSH2 0x64A JUMPI DUP2 PUSH1 0x3 NOT CALLDATASIZE ADD SLT PUSH2 0x64A JUMPI PUSH1 0x20 SWAP1 PUSH1 0xFF PUSH1 0x6 SLOAD AND SWAP1 MLOAD SWAP1 ISZERO ISZERO DUP2 MSTORE RETURN JUMPDEST POP SWAP1 CALLVALUE PUSH2 0x24B JUMPI PUSH1 0x20 CALLDATASIZE PUSH1 0x3 NOT ADD SLT PUSH2 0x24B JUMPI PUSH1 0x3 SLOAD DUP2 CALLDATALOAD SWAP3 SWAP1 PUSH1 0x1 PUSH1 0x1 PUSH1 0xA0 SHL SUB AND CALLER SUB PUSH2 0x1764 JUMPI DUP3 DUP3 SLOAD SWAP2 DUP1 MLOAD SWAP3 PUSH1 0x60 DUP5 MSTORE PUSH1 0x15 PUSH1 0x60 DUP6 ADD MSTORE PUSH21 0x191959985D5B1D111958591B1A5B9953D9999CD95D PUSH1 0x5A SHL PUSH1 0x80 DUP6 ADD MSTORE PUSH1 0x20 DUP5 ADD MSTORE DUP3 ADD MSTORE PUSH32 0xC8004015853107E4CB5EFA9FDFC530F3530F5F5D8A833A9D67E2EFE39717D7F6 PUSH1 0xA0 CALLER SWAP3 LOG2 SSTORE DUP1 RETURN JUMPDEST MLOAD PUSH3 0x82B429 PUSH1 0xE8 SHL DUP2 MSTORE REVERT JUMPDEST POP SWAP1 CALLVALUE PUSH2 0x24B JUMPI DUP3 DUP3 PUSH1 0x3 NOT CALLDATASIZE ADD SLT PUSH2 0x7D4 JUMPI PUSH2 0x17DA SWAP2 PUSH2 0x178F PUSH2 0x20A0 JUMP JUMPDEST SWAP1 DUP5 MLOAD SWAP2 PUSH2 0x179C DUP4 PUSH2 0x2157 JUMP JUMPDEST PUSH1 0x3 DUP4 MSTORE PUSH1 0x60 CALLDATASIZE PUSH1 0x20 DUP6 ADD CALLDATACOPY PUSH1 0x2 SLOAD PUSH1 0x1 PUSH1 0x1 PUSH1 0xA0 SHL SUB SWAP2 SWAP1 DUP3 AND PUSH2 0x17C0 DUP6 PUSH2 0x21B1 JUMP JUMPDEST MSTORE DUP2 PUSH1 0x1 SLOAD AND PUSH2 0x17CF DUP6 PUSH2 0x21D4 JUMP JUMPDEST MSTORE DUP2 PUSH2 0x74B DUP6 PUSH2 0x21E4 JUMP JUMPDEST SUB SWAP2 GAS STATICCALL SWAP1 DUP2 ISZERO PUSH2 0x7C8 JUMPI SWAP1 PUSH2 0x79D SWAP2 DUP5 PUSH1 0x20 SWAP6 SWAP3 PUSH2 0x17FB JUMPI JUMPDEST POP POP PUSH2 0x21E4 JUMP JUMPDEST PUSH2 0x180F SWAP3 POP RETURNDATASIZE DUP1 SWAP2 DUP4 RETURNDATACOPY PUSH2 0x7B9 DUP2 DUP4 PUSH2 0x218F JUMP JUMPDEST CODESIZE DUP1 PUSH2 0x17F4 JUMP JUMPDEST POP CALLVALUE PUSH2 0x24B JUMPI PUSH1 0x20 CALLDATASIZE PUSH1 0x3 NOT ADD SLT PUSH2 0x24B JUMPI PUSH1 0x3 SLOAD DUP3 CALLDATALOAD SWAP3 SWAP1 PUSH1 0x1 PUSH1 0x1 PUSH1 0xA0 SHL SUB AND CALLER SUB PUSH2 0x189D JUMPI POP DUP2 PUSH1 0x5 SLOAD SWAP2 DUP1 MLOAD SWAP3 PUSH1 0x60 DUP5 MSTORE PUSH1 0xE PUSH1 0x60 DUP6 ADD MSTORE PUSH14 0x6D6178536C697070616765427073 PUSH1 0x90 SHL PUSH1 0x80 DUP6 ADD MSTORE PUSH1 0x20 DUP5 ADD MSTORE DUP3 ADD MSTORE PUSH32 0xC8004015853107E4CB5EFA9FDFC530F3530F5F5D8A833A9D67E2EFE39717D7F6 PUSH1 0xA0 CALLER SWAP3 LOG2 PUSH1 0x5 SSTORE DUP1 RETURN JUMPDEST SWAP1 MLOAD PUSH3 0x82B429 PUSH1 0xE8 SHL DUP2 MSTORE REVERT JUMPDEST POP DUP3 DUP2 PUSH1 0x3 NOT CALLDATASIZE ADD SLT PUSH2 0x7D4 JUMPI POP PUSH2 0x18C0 PUSH2 0x20A0 JUMP JUMPDEST SWAP2 PUSH1 0xFF PUSH1 0x6 SLOAD AND PUSH2 0x18DB JUMPI POP PUSH2 0x45E PUSH1 0x20 SWAP3 PUSH1 0x24 CALLDATALOAD SWAP1 PUSH2 0x22E8 JUMP JUMPDEST SWAP1 MLOAD PUSH4 0x13D0FF59 PUSH1 0xE3 SHL DUP2 MSTORE REVERT JUMPDEST DUP4 DUP3 CALLVALUE PUSH2 0x64A JUMPI PUSH1 0x20 CALLDATASIZE PUSH1 0x3 NOT ADD SLT PUSH2 0x64A JUMPI PUSH1 0x20 SWAP2 PUSH1 0xFF SWAP1 DUP3 SWAP1 PUSH1 0x1 PUSH1 0x1 PUSH1 0xA0 SHL SUB PUSH2 0x1914 PUSH2 0x20A0 JUMP JUMPDEST AND DUP2 MSTORE PUSH1 0x7 DUP6 MSTORE KECCAK256 SLOAD AND SWAP1 MLOAD SWAP1 ISZERO ISZERO DUP2 MSTORE RETURN JUMPDEST POP SWAP2 SWAP1 CALLVALUE PUSH2 0x64A JUMPI PUSH2 0x1938 CALLDATASIZE PUSH2 0x20B6 JUMP JUMPDEST SWAP5 SWAP2 SWAP4 SWAP1 PUSH1 0xFF PUSH1 0x6 SLOAD AND PUSH2 0x1B7C JUMPI PUSH1 0x1 PUSH1 0x1 PUSH1 0xA0 SHL SUB SWAP6 DUP6 DUP8 AND SWAP6 DUP7 ISZERO PUSH2 0x1B6C JUMPI DUP3 ISZERO PUSH2 0x1B5C JUMPI PUSH1 0x1 SLOAD DUP6 MLOAD PUSH4 0x23B872DD PUSH1 0xE0 SHL DUP2 MSTORE CALLER DUP9 DUP3 ADD SWAP1 DUP2 MSTORE ADDRESS PUSH1 0x20 DUP3 DUP2 ADD SWAP2 SWAP1 SWAP2 MSTORE PUSH1 0x40 DUP3 ADD DUP8 SWAP1 MSTORE SWAP11 SWAP3 DUP12 SWAP2 DUP4 SWAP2 DUP6 AND SWAP1 DUP3 SWAP1 DUP11 SWAP1 DUP3 SWAP1 PUSH1 0x60 ADD SUB SWAP3 GAS CALL DUP1 ISZERO PUSH2 0x1B52 JUMPI SWAP3 DUP11 SWAP3 DUP7 SWAP3 PUSH2 0x19E7 SWAP6 PUSH2 0x1B35 JUMPI JUMPDEST POP PUSH1 0x1 SLOAD AND SWAP1 DUP8 DUP11 DUP11 MLOAD SWAP7 DUP8 SWAP6 DUP7 SWAP5 DUP6 SWAP4 PUSH4 0x95EA7B3 PUSH1 0xE0 SHL DUP6 MSTORE DUP5 ADD PUSH1 0x20 SWAP1 SWAP4 SWAP3 SWAP2 SWAP4 PUSH1 0x40 DUP2 ADD SWAP5 PUSH1 0x1 DUP1 PUSH1 0xA0 SHL SUB AND DUP2 MSTORE ADD MSTORE JUMP JUMPDEST SUB SWAP3 GAS CALL DUP1 ISZERO PUSH2 0x1B2B JUMPI PUSH2 0x1B0E JUMPI JUMPDEST POP DUP6 EXTCODESIZE ISZERO PUSH2 0x24B JUMPI DUP4 MLOAD SWAP2 PUSH4 0x1ADFD7BD PUSH1 0xE3 SHL DUP4 MSTORE DUP6 DUP4 ADD MSTORE PUSH1 0x24 DUP3 ADD MSTORE DUP2 DUP2 PUSH1 0x44 DUP2 DUP4 DUP10 GAS CALL DUP1 ISZERO PUSH2 0x1AF5 JUMPI PUSH2 0x1AFF JUMPI JUMPDEST POP DUP2 MLOAD PUSH4 0x70A08231 PUSH1 0xE0 SHL DUP2 MSTORE ADDRESS DUP5 DUP3 ADD MSTORE SWAP3 DUP6 DUP5 PUSH1 0x24 DUP2 DUP9 GAS STATICCALL SWAP4 DUP5 ISZERO PUSH2 0x1AF5 JUMPI SWAP1 DUP7 SWAP2 DUP4 SWAP6 PUSH2 0x1AC0 JUMPI JUMPDEST POP DUP4 MLOAD PUSH4 0xA9059CBB PUSH1 0xE0 SHL DUP2 MSTORE CALLER SWAP2 DUP2 ADD SWAP2 DUP3 MSTORE PUSH1 0x20 DUP3 ADD DUP7 SWAP1 MSTORE SWAP5 SWAP6 SWAP4 SWAP5 SWAP4 DUP5 SWAP2 DUP3 SWAP1 DUP6 SWAP1 DUP3 SWAP1 PUSH1 0x40 ADD JUMPDEST SUB SWAP3 GAS CALL SWAP1 DUP2 ISZERO PUSH2 0x1AB5 JUMPI POP PUSH2 0x1A98 JUMPI JUMPDEST POP MLOAD SWAP1 DUP2 MSTORE RETURN JUMPDEST PUSH2 0x1AAE SWAP1 DUP5 RETURNDATASIZE DUP7 GT PUSH2 0x52C JUMPI PUSH2 0x51D DUP2 DUP4 PUSH2 0x218F JUMP JUMPDEST POP CODESIZE PUSH2 0x1A91 JUMP JUMPDEST DUP4 MLOAD SWAP1 RETURNDATASIZE SWAP1 DUP3 RETURNDATACOPY RETURNDATASIZE SWAP1 REVERT JUMPDEST DUP3 DUP2 SWAP4 SWAP3 SWAP6 SWAP7 POP RETURNDATASIZE DUP4 GT PUSH2 0x1AEE JUMPI JUMPDEST PUSH2 0x1AD9 DUP2 DUP4 PUSH2 0x218F JUMP JUMPDEST DUP2 ADD SUB SLT PUSH2 0x48D JUMPI MLOAD SWAP3 SWAP2 DUP6 SWAP1 PUSH2 0x1A80 PUSH2 0x1A54 JUMP JUMPDEST POP RETURNDATASIZE PUSH2 0x1ACF JUMP JUMPDEST DUP4 MLOAD RETURNDATASIZE DUP5 DUP3 RETURNDATACOPY RETURNDATASIZE SWAP1 REVERT JUMPDEST PUSH2 0x1B08 SWAP1 PUSH2 0x2111 JUMP JUMPDEST CODESIZE PUSH2 0x1A28 JUMP JUMPDEST PUSH2 0x1B24 SWAP1 DUP9 RETURNDATASIZE DUP11 GT PUSH2 0x52C JUMPI PUSH2 0x51D DUP2 DUP4 PUSH2 0x218F JUMP JUMPDEST POP CODESIZE PUSH2 0x19F6 JUMP JUMPDEST DUP6 MLOAD RETURNDATASIZE DUP7 DUP3 RETURNDATACOPY RETURNDATASIZE SWAP1 REVERT JUMPDEST PUSH2 0x1B4B SWAP1 DUP6 RETURNDATASIZE DUP8 GT PUSH2 0x52C JUMPI PUSH2 0x51D DUP2 DUP4 PUSH2 0x218F JUMP JUMPDEST POP CODESIZE PUSH2 0x19B0 JUMP JUMPDEST DUP8 MLOAD RETURNDATASIZE DUP9 DUP3 RETURNDATACOPY RETURNDATASIZE SWAP1 REVERT JUMPDEST DUP5 MLOAD PUSH4 0x162908E3 PUSH1 0xE1 SHL DUP2 MSTORE DUP7 SWAP1 REVERT JUMPDEST DUP5 MLOAD PUSH4 0xE6C4247B PUSH1 0xE0 SHL DUP2 MSTORE DUP7 SWAP1 REVERT JUMPDEST POP POP MLOAD PUSH4 0x13D0FF59 PUSH1 0xE3 SHL DUP2 MSTORE REVERT JUMPDEST POP SWAP1 CALLVALUE PUSH2 0x24B JUMPI DUP2 PUSH1 0x3 NOT CALLDATASIZE ADD SLT PUSH2 0x24B JUMPI DUP3 PUSH2 0x1BA6 PUSH2 0x20A0 JUMP JUMPDEST PUSH1 0x24 CALLDATALOAD SWAP3 PUSH2 0x1BB3 DUP3 PUSH2 0x2DF0 JUMP JUMPDEST DUP5 DUP2 PUSH2 0x1C0B JUMPI JUMPDEST POP POP PUSH2 0x17DA SWAP4 DUP6 MLOAD SWAP3 PUSH2 0x1BCC DUP5 PUSH2 0x2157 JUMP JUMPDEST PUSH1 0x3 DUP5 MSTORE PUSH1 0x60 CALLDATASIZE PUSH1 0x20 DUP7 ADD CALLDATACOPY PUSH2 0x1BE1 DUP5 PUSH2 0x21B1 JUMP JUMPDEST PUSH1 0x1 PUSH1 0x1 PUSH1 0xA0 SHL SUB SWAP2 DUP3 AND SWAP1 MSTORE PUSH1 0x1 SLOAD DUP2 AND PUSH2 0x1BFC DUP6 PUSH2 0x21D4 JUMP JUMPDEST MSTORE DUP1 PUSH1 0x2 SLOAD AND PUSH2 0x164A DUP6 PUSH2 0x21E4 JUMP JUMPDEST SWAP2 SWAP4 POP SWAP2 SWAP4 POP PUSH2 0x2710 SWAP2 DUP3 SUB SWAP1 DUP3 DUP3 GT PUSH2 0x16A2 JUMPI SWAP2 PUSH2 0x1C30 DUP8 SWAP5 SWAP3 PUSH2 0x17DA SWAP7 SWAP5 PUSH2 0x273D JUMP JUMPDEST DIV SWAP4 CODESIZE PUSH2 0x1BBA JUMP JUMPDEST POP DUP1 DUP4 SWAP2 PUSH1 0x3 NOT CALLDATASIZE ADD SLT PUSH2 0x64A JUMPI PUSH2 0x1C4E PUSH2 0x20A0 JUMP JUMPDEST PUSH1 0xFF PUSH1 0x6 SLOAD AND PUSH2 0x1DA7 JUMPI PUSH1 0x1 PUSH1 0x1 PUSH1 0xA0 SHL SUB SWAP1 DUP2 AND SWAP1 DUP2 ISZERO PUSH2 0x1D97 JUMPI CALLVALUE ISZERO PUSH2 0x1D87 JUMPI SWAP3 PUSH2 0x1CE8 SWAP4 DUP2 SWAP6 DUP5 MLOAD SWAP2 PUSH2 0x1C83 DUP4 PUSH2 0x2157 JUMP JUMPDEST PUSH1 0x3 DUP4 MSTORE PUSH1 0x60 CALLDATASIZE PUSH1 0x20 DUP6 ADD CALLDATACOPY DUP1 PUSH1 0x2 SLOAD AND PUSH2 0x1C9D DUP5 PUSH2 0x21B1 JUMP JUMPDEST MSTORE DUP1 PUSH1 0x1 SLOAD AND PUSH2 0x1CAC DUP5 PUSH2 0x21D4 JUMP JUMPDEST MSTORE DUP5 PUSH2 0x1CB7 DUP5 PUSH2 0x21E4 JUMP JUMPDEST MSTORE DUP4 SLOAD AND SWAP1 PUSH2 0x1CC7 DUP2 SLOAD TIMESTAMP PUSH2 0x21F4 JUMP JUMPDEST DUP7 MLOAD PUSH4 0x7FF36AB5 PUSH1 0xE0 SHL DUP2 MSTORE SWAP8 DUP9 SWAP5 DUP6 SWAP4 DUP5 SWAP4 SWAP2 CALLER SWAP2 PUSH1 0x24 CALLDATALOAD SWAP1 DUP7 ADD PUSH2 0x2750 JUMP JUMPDEST SUB SWAP2 CALLVALUE SWAP1 GAS CALL SWAP3 DUP4 ISZERO PUSH2 0x1D7D JUMPI DUP5 PUSH1 0x20 SWAP6 SWAP5 PUSH2 0x1D60 JUMPI JUMPDEST POP POP PUSH2 0x1D14 PUSH2 0x1D0D DUP5 PUSH2 0x21E4 JUMP JUMPDEST MLOAD SWAP4 PUSH2 0x21D4 JUMP JUMPDEST MLOAD PUSH32 0x77EB323217A4770C84B5F7F4076D557A6D1166BF8C746483D2A981D9C678E54D DUP4 MLOAD DUP1 PUSH2 0x1D57 DUP8 CALLER SWAP6 CALLVALUE DUP5 PUSH1 0x40 SWAP2 SWAP5 SWAP4 SWAP3 PUSH1 0x60 DUP3 ADD SWAP6 DUP3 MSTORE PUSH1 0x20 DUP3 ADD MSTORE ADD MSTORE JUMP JUMPDEST SUB SWAP1 LOG3 MLOAD SWAP1 DUP2 MSTORE RETURN JUMPDEST PUSH2 0x1D75 SWAP3 SWAP5 POP RETURNDATASIZE DUP1 SWAP2 DUP4 RETURNDATACOPY PUSH2 0x7B9 DUP2 DUP4 PUSH2 0x218F JUMP JUMPDEST SWAP2 DUP5 DUP1 PUSH2 0x1CFF JUMP JUMPDEST DUP3 MLOAD RETURNDATASIZE DUP7 DUP3 RETURNDATACOPY RETURNDATASIZE SWAP1 REVERT JUMPDEST DUP3 MLOAD PUSH4 0x162908E3 PUSH1 0xE1 SHL DUP2 MSTORE DUP6 SWAP1 REVERT JUMPDEST DUP3 MLOAD PUSH4 0xE6C4247B PUSH1 0xE0 SHL DUP2 MSTORE DUP6 SWAP1 REVERT JUMPDEST DUP2 MLOAD PUSH4 0x13D0FF59 PUSH1 0xE3 SHL DUP2 MSTORE DUP5 SWAP1 REVERT JUMPDEST POP CALLVALUE PUSH2 0x24B JUMPI DUP1 PUSH1 0x3 NOT CALLDATASIZE ADD SLT PUSH2 0x24B JUMPI DUP1 PUSH2 0x1DD1 PUSH2 0x20A0 JUMP JUMPDEST DUP2 MLOAD PUSH4 0x48153279 PUSH1 0xE0 SHL DUP2 MSTORE PUSH1 0x24 DUP1 CALLDATALOAD SWAP6 DUP3 ADD SWAP6 SWAP1 SWAP6 MSTORE SWAP4 DUP5 SWAP2 DUP3 SWAP1 PUSH1 0x1 PUSH1 0x1 PUSH1 0xA0 SHL SUB AND GAS STATICCALL SWAP2 DUP3 ISZERO PUSH2 0x1E3E JUMPI PUSH1 0x20 SWAP4 SWAP3 PUSH2 0x1E0E JUMPI POP MLOAD SWAP1 DUP2 MSTORE RETURN JUMPDEST DUP2 PUSH2 0x1E2F SWAP3 SWAP4 POP RETURNDATASIZE DUP5 GT PUSH2 0x1E37 JUMPI JUMPDEST PUSH2 0x1E27 DUP2 DUP4 PUSH2 0x218F JUMP JUMPDEST DUP2 ADD SWAP1 PUSH2 0x2B1F JUMP JUMPDEST POP SWAP1 CODESIZE PUSH2 0x1A91 JUMP JUMPDEST POP RETURNDATASIZE PUSH2 0x1E1D JUMP JUMPDEST DUP2 MLOAD RETURNDATASIZE DUP6 DUP3 RETURNDATACOPY RETURNDATASIZE SWAP1 REVERT JUMPDEST POP DUP3 CALLVALUE PUSH2 0x7D4 JUMPI DUP2 PUSH1 0x3 NOT CALLDATASIZE ADD SLT PUSH2 0x7D4 JUMPI POP PUSH2 0x13EB PUSH2 0x1E66 PUSH2 0x20A0 JUMP JUMPDEST PUSH1 0x24 CALLDATALOAD SWAP1 PUSH2 0x2C9F JUMP JUMPDEST POP DUP3 CALLVALUE PUSH2 0x7D4 JUMPI PUSH2 0x1E7F CALLDATASIZE PUSH2 0x20B6 JUMP JUMPDEST SWAP1 PUSH1 0xFF PUSH1 0x6 SWAP7 SWAP4 SWAP7 SLOAD AND PUSH2 0x203B JUMPI PUSH1 0x1 PUSH1 0x1 PUSH1 0xA0 SHL SUB SWAP6 DUP7 AND SWAP2 DUP3 ISZERO PUSH2 0x202B JUMPI DUP2 ISZERO PUSH2 0x201B JUMPI PUSH1 0x1 SLOAD DUP7 MLOAD PUSH4 0x23B872DD PUSH1 0xE0 SHL DUP2 MSTORE CALLER DUP7 DUP3 ADD SWAP1 DUP2 MSTORE ADDRESS PUSH1 0x20 DUP3 DUP2 ADD SWAP2 SWAP1 SWAP2 MSTORE PUSH1 0x40 DUP3 ADD DUP7 SWAP1 MSTORE SWAP10 SWAP3 DUP11 SWAP2 DUP4 SWAP2 DUP6 AND SWAP1 DUP3 SWAP1 DUP12 SWAP1 DUP3 SWAP1 PUSH1 0x60 ADD SUB SWAP3 GAS CALL DUP1 ISZERO PUSH2 0x1FF4 JUMPI PUSH2 0x1FFE JUMPI JUMPDEST POP PUSH1 0x1 SLOAD DUP7 SLOAD DUP9 MLOAD PUSH4 0x95EA7B3 PUSH1 0xE0 SHL DUP2 MSTORE SWAP1 DUP4 AND PUSH1 0x1 PUSH1 0x1 PUSH1 0xA0 SHL SUB AND DUP8 DUP3 ADD SWAP1 DUP2 MSTORE PUSH1 0x20 DUP2 ADD DUP7 SWAP1 MSTORE SWAP1 SWAP2 DUP11 SWAP2 DUP4 SWAP2 DUP6 AND SWAP1 DUP3 SWAP1 DUP12 SWAP1 DUP3 SWAP1 PUSH1 0x40 ADD SUB SWAP3 GAS CALL DUP1 ISZERO PUSH2 0x1FF4 JUMPI SWAP2 DUP8 SWAP6 SWAP5 SWAP4 SWAP3 SWAP2 DUP7 SWAP3 PUSH2 0x1FD7 JUMPI JUMPDEST POP DUP9 MLOAD SWAP5 PUSH2 0x1F4F DUP7 PUSH2 0x213B JUMP JUMPDEST PUSH1 0x2 DUP7 MSTORE DUP10 CALLDATASIZE DUP13 DUP9 ADD CALLDATACOPY DUP2 PUSH1 0x1 SLOAD AND PUSH2 0x1F67 DUP8 PUSH2 0x21B1 JUMP JUMPDEST MSTORE PUSH2 0x1F71 DUP7 PUSH2 0x21D4 JUMP JUMPDEST MSTORE DUP2 SLOAD AND SWAP3 PUSH2 0x1FA0 PUSH2 0x1F84 DUP9 SLOAD TIMESTAMP PUSH2 0x21F4 JUMP JUMPDEST DUP11 MLOAD PUSH4 0x38ED1739 PUSH1 0xE0 SHL DUP2 MSTORE SWAP9 DUP10 SWAP8 DUP9 SWAP7 DUP8 SWAP6 CALLER SWAP4 DUP8 ADD PUSH2 0x27D0 JUMP JUMPDEST SUB SWAP3 GAS CALL SWAP2 DUP3 ISZERO PUSH2 0x1AB5 JUMPI SWAP1 DUP2 PUSH2 0x79D SWAP4 PUSH2 0x1FBC JUMPI POP POP PUSH2 0x21D4 JUMP JUMPDEST PUSH2 0x1FD0 SWAP3 POP RETURNDATASIZE DUP1 SWAP2 DUP4 RETURNDATACOPY PUSH2 0x7B9 DUP2 DUP4 PUSH2 0x218F JUMP JUMPDEST DUP5 DUP1 PUSH2 0x796 JUMP JUMPDEST PUSH2 0x1FED SWAP1 DUP12 RETURNDATASIZE DUP14 GT PUSH2 0x52C JUMPI PUSH2 0x51D DUP2 DUP4 PUSH2 0x218F JUMP JUMPDEST POP DUP11 PUSH2 0x1F42 JUMP JUMPDEST DUP9 MLOAD RETURNDATASIZE DUP10 DUP3 RETURNDATACOPY RETURNDATASIZE SWAP1 REVERT JUMPDEST PUSH2 0x2014 SWAP1 DUP10 RETURNDATASIZE DUP12 GT PUSH2 0x52C JUMPI PUSH2 0x51D DUP2 DUP4 PUSH2 0x218F JUMP JUMPDEST POP DUP9 PUSH2 0x1EED JUMP JUMPDEST DUP6 MLOAD PUSH4 0x162908E3 PUSH1 0xE1 SHL DUP2 MSTORE DUP5 SWAP1 REVERT JUMPDEST DUP6 MLOAD PUSH4 0xE6C4247B PUSH1 0xE0 SHL DUP2 MSTORE DUP5 SWAP1 REVERT JUMPDEST DUP5 MLOAD PUSH4 0x13D0FF59 PUSH1 0xE3 SHL DUP2 MSTORE DUP4 SWAP1 REVERT JUMPDEST DUP5 SWAP1 DUP5 CALLVALUE PUSH2 0x24B JUMPI PUSH1 0x20 CALLDATASIZE PUSH1 0x3 NOT ADD SLT PUSH2 0x24B JUMPI DUP1 CALLDATALOAD SWAP2 DUP3 ISZERO ISZERO DUP1 SWAP4 SUB PUSH2 0x209C JUMPI PUSH1 0x3 SLOAD PUSH1 0x1 PUSH1 0x1 PUSH1 0xA0 SHL SUB AND CALLER SUB PUSH2 0x2091 JUMPI POP POP PUSH1 0xFF DUP1 NOT PUSH1 0x6 SLOAD AND SWAP2 AND OR PUSH1 0x6 SSTORE DUP1 RETURN JUMPDEST PUSH3 0x82B429 PUSH1 0xE8 SHL DUP2 MSTORE REVERT JUMPDEST DUP4 DUP1 REVERT JUMPDEST PUSH1 0x4 CALLDATALOAD SWAP1 PUSH1 0x1 PUSH1 0x1 PUSH1 0xA0 SHL SUB DUP3 AND DUP3 SUB PUSH2 0x48D JUMPI JUMP JUMPDEST PUSH1 0x60 SWAP1 PUSH1 0x3 NOT ADD SLT PUSH2 0x48D JUMPI PUSH1 0x4 CALLDATALOAD PUSH1 0x1 PUSH1 0x1 PUSH1 0xA0 SHL SUB DUP2 AND DUP2 SUB PUSH2 0x48D JUMPI SWAP1 PUSH1 0x24 CALLDATALOAD SWAP1 PUSH1 0x44 CALLDATALOAD SWAP1 JUMP JUMPDEST SWAP2 DUP2 PUSH1 0x1F DUP5 ADD SLT ISZERO PUSH2 0x48D JUMPI DUP3 CALLDATALOAD SWAP2 PUSH8 0xFFFFFFFFFFFFFFFF DUP4 GT PUSH2 0x48D JUMPI PUSH1 0x20 DUP1 DUP6 ADD SWAP5 DUP5 PUSH1 0x5 SHL ADD ADD GT PUSH2 0x48D JUMPI JUMP JUMPDEST PUSH8 0xFFFFFFFFFFFFFFFF DUP2 GT PUSH2 0x2125 JUMPI PUSH1 0x40 MSTORE JUMP JUMPDEST PUSH4 0x4E487B71 PUSH1 0xE0 SHL PUSH1 0x0 MSTORE PUSH1 0x41 PUSH1 0x4 MSTORE PUSH1 0x24 PUSH1 0x0 REVERT JUMPDEST PUSH1 0x60 DUP2 ADD SWAP1 DUP2 LT PUSH8 0xFFFFFFFFFFFFFFFF DUP3 GT OR PUSH2 0x2125 JUMPI PUSH1 0x40 MSTORE JUMP JUMPDEST PUSH1 0x80 DUP2 ADD SWAP1 DUP2 LT PUSH8 0xFFFFFFFFFFFFFFFF DUP3 GT OR PUSH2 0x2125 JUMPI PUSH1 0x40 MSTORE JUMP JUMPDEST PUSH1 0x40 DUP2 ADD SWAP1 DUP2 LT PUSH8 0xFFFFFFFFFFFFFFFF DUP3 GT OR PUSH2 0x2125 JUMPI PUSH1 0x40 MSTORE JUMP JUMPDEST SWAP1 PUSH1 0x1F DUP1 NOT SWAP2 ADD AND DUP2 ADD SWAP1 DUP2 LT PUSH8 0xFFFFFFFFFFFFFFFF DUP3 GT OR PUSH2 0x2125 JUMPI PUSH1 0x40 MSTORE JUMP JUMPDEST DUP1 MLOAD ISZERO PUSH2 0x21BE JUMPI PUSH1 0x20 ADD SWAP1 JUMP JUMPDEST PUSH4 0x4E487B71 PUSH1 0xE0 SHL PUSH1 0x0 MSTORE PUSH1 0x32 PUSH1 0x4 MSTORE PUSH1 0x24 PUSH1 0x0 REVERT JUMPDEST DUP1 MLOAD PUSH1 0x1 LT ISZERO PUSH2 0x21BE JUMPI PUSH1 0x40 ADD SWAP1 JUMP JUMPDEST DUP1 MLOAD PUSH1 0x2 LT ISZERO PUSH2 0x21BE JUMPI PUSH1 0x60 ADD SWAP1 JUMP JUMPDEST SWAP2 SWAP1 DUP3 ADD DUP1 SWAP3 GT PUSH2 0x2201 JUMPI JUMP JUMPDEST PUSH4 0x4E487B71 PUSH1 0xE0 SHL PUSH1 0x0 MSTORE PUSH1 0x11 PUSH1 0x4 MSTORE PUSH1 0x24 PUSH1 0x0 REVERT JUMPDEST SWAP1 PUSH1 0x20 SWAP1 DUP2 DUP4 DUP3 SUB SLT PUSH2 0x48D JUMPI DUP3 MLOAD PUSH8 0xFFFFFFFFFFFFFFFF SWAP4 DUP5 DUP3 GT PUSH2 0x48D JUMPI ADD DUP2 PUSH1 0x1F DUP3 ADD SLT ISZERO PUSH2 0x48D JUMPI DUP1 MLOAD SWAP4 DUP5 GT PUSH2 0x2125 JUMPI DUP4 PUSH1 0x5 SHL SWAP1 PUSH1 0x40 MLOAD SWAP5 PUSH2 0x2261 DUP6 DUP5 ADD DUP8 PUSH2 0x218F JUMP JUMPDEST DUP6 MSTORE DUP4 DUP1 DUP7 ADD SWAP3 DUP3 ADD ADD SWAP3 DUP4 GT PUSH2 0x48D JUMPI DUP4 ADD SWAP1 JUMPDEST DUP3 DUP3 LT PUSH2 0x2284 JUMPI POP POP POP POP SWAP1 JUMP JUMPDEST DUP2 MLOAD DUP2 MSTORE SWAP1 DUP4 ADD SWAP1 DUP4 ADD PUSH2 0x2276 JUMP JUMPDEST SWAP1 DUP2 MLOAD DUP1 DUP3 MSTORE PUSH1 0x20 DUP1 DUP1 SWAP4 ADD SWAP4 ADD SWAP2 PUSH1 0x0 JUMPDEST DUP3 DUP2 LT PUSH2 0x22B3 JUMPI POP POP POP POP SWAP1 JUMP JUMPDEST DUP4 MLOAD PUSH1 0x1 PUSH1 0x1 PUSH1 0xA0 SHL SUB AND DUP6 MSTORE SWAP4 DUP2 ADD SWAP4 SWAP3 DUP2 ADD SWAP3 PUSH1 0x1 ADD PUSH2 0x22A5 JUMP JUMPDEST SWAP1 DUP2 PUSH1 0x20 SWAP2 SUB SLT PUSH2 0x48D JUMPI MLOAD DUP1 ISZERO ISZERO DUP2 SUB PUSH2 0x48D JUMPI SWAP1 JUMP JUMPDEST PUSH1 0x1 PUSH1 0x1 PUSH1 0xA0 SHL SUB DUP1 DUP3 AND SWAP2 PUSH1 0x0 DUP4 ISZERO PUSH2 0x272B JUMPI CALLVALUE ISZERO PUSH2 0x2719 JUMPI DUP4 DUP2 MSTORE PUSH1 0x20 SWAP3 PUSH1 0x7 DUP5 MSTORE PUSH1 0x40 SWAP3 PUSH1 0xFF DUP5 DUP5 KECCAK256 SLOAD AND PUSH1 0x0 EQ PUSH2 0x2472 JUMPI POP POP DUP4 EXTCODESIZE ISZERO PUSH2 0x7D4 JUMPI DUP2 MLOAD PUSH4 0x6CB504A5 PUSH1 0xE1 SHL DUP2 MSTORE PUSH1 0x4 DUP2 ADD DUP7 SWAP1 MSTORE DUP2 DUP2 PUSH1 0x24 DUP2 CALLVALUE DUP10 GAS CALL DUP1 ISZERO PUSH2 0x1AF5 JUMPI SWAP1 DUP3 SWAP2 PUSH2 0x245E JUMPI JUMPDEST POP POP DUP2 MLOAD PUSH4 0x70A08231 PUSH1 0xE0 SHL DUP2 MSTORE ADDRESS PUSH1 0x4 DUP3 ADD MSTORE SWAP5 DUP4 DUP7 PUSH1 0x24 DUP2 DUP9 GAS STATICCALL SWAP6 DUP7 ISZERO PUSH2 0x1AF5 JUMPI DUP3 SWAP7 PUSH2 0x242F JUMPI JUMPDEST POP DUP6 LT PUSH2 0x241E JUMPI DUP2 MLOAD PUSH4 0xA9059CBB PUSH1 0xE0 SHL DUP2 MSTORE CALLER PUSH1 0x4 DUP3 ADD MSTORE PUSH1 0x24 DUP2 ADD DUP7 SWAP1 MSTORE DUP4 DUP2 PUSH1 0x44 DUP2 DUP6 DUP10 GAS CALL SWAP1 DUP2 ISZERO PUSH2 0x1AF5 JUMPI DUP3 SWAP2 PUSH2 0x2401 JUMPI JUMPDEST POP ISZERO PUSH2 0x23F0 JUMPI SWAP1 DUP5 SWAP2 DUP2 MLOAD SWAP4 CALLVALUE DUP6 MSTORE DUP5 ADD MSTORE DUP3 ADD MSTORE PUSH32 0x77EB323217A4770C84B5F7F4076D557A6D1166BF8C746483D2A981D9C678E54D PUSH1 0x60 CALLER SWAP3 LOG3 SWAP1 JUMP JUMPDEST DUP2 MLOAD PUSH4 0x12171D83 PUSH1 0xE3 SHL DUP2 MSTORE PUSH1 0x4 SWAP1 REVERT JUMPDEST PUSH2 0x2418 SWAP2 POP DUP5 RETURNDATASIZE DUP7 GT PUSH2 0x52C JUMPI PUSH2 0x51D DUP2 DUP4 PUSH2 0x218F JUMP JUMPDEST CODESIZE PUSH2 0x23B2 JUMP JUMPDEST DUP2 MLOAD PUSH4 0x8199F5F3 PUSH1 0xE0 SHL DUP2 MSTORE PUSH1 0x4 SWAP1 REVERT JUMPDEST SWAP1 SWAP6 POP DUP4 DUP2 DUP2 RETURNDATASIZE DUP4 GT PUSH2 0x2457 JUMPI JUMPDEST PUSH2 0x2447 DUP2 DUP4 PUSH2 0x218F JUMP JUMPDEST DUP2 ADD SUB SLT PUSH2 0x48D JUMPI MLOAD SWAP5 CODESIZE PUSH2 0x237B JUMP JUMPDEST POP RETURNDATASIZE PUSH2 0x243D JUMP JUMPDEST PUSH2 0x2467 SWAP1 PUSH2 0x2111 JUMP JUMPDEST PUSH2 0x7D4 JUMPI DUP1 CODESIZE PUSH2 0x2350 JUMP JUMPDEST SWAP2 DUP4 SWAP5 SWAP2 SWAP5 MLOAD SWAP3 PUSH2 0x2482 DUP5 PUSH2 0x213B JUMP JUMPDEST PUSH1 0x2 DUP5 MSTORE DUP5 CALLDATASIZE DUP5 DUP7 ADD CALLDATACOPY DUP6 PUSH1 0x2 SLOAD AND PUSH2 0x249A DUP6 PUSH2 0x21B1 JUMP JUMPDEST MSTORE DUP6 PUSH1 0x1 SLOAD AND PUSH2 0x24A9 DUP6 PUSH2 0x21D4 JUMP JUMPDEST MSTORE DUP6 DUP3 SLOAD AND SWAP4 DUP3 PUSH2 0x24EA PUSH1 0x4 SWAP7 PUSH2 0x24C1 DUP9 SLOAD TIMESTAMP PUSH2 0x21F4 JUMP JUMPDEST SWAP4 DUP10 MLOAD DUP1 SWAP6 DUP2 SWAP5 DUP3 SWAP4 PUSH4 0x7FF36AB5 PUSH1 0xE0 SHL DUP5 MSTORE DUP8 DUP14 DUP6 ADD MSTORE PUSH1 0x80 PUSH1 0x24 DUP6 ADD MSTORE PUSH1 0x84 DUP5 ADD SWAP1 PUSH2 0x2293 JUMP JUMPDEST SWAP1 ADDRESS PUSH1 0x44 DUP5 ADD MSTORE PUSH1 0x64 DUP4 ADD MSTORE SUB SWAP2 CALLVALUE SWAP1 GAS CALL SWAP1 DUP2 ISZERO PUSH2 0x270F JUMPI SWAP1 PUSH2 0x2514 SWAP2 DUP5 SWAP2 PUSH2 0x26FB JUMPI POP PUSH2 0x21D4 JUMP JUMPDEST MLOAD SWAP6 DUP7 ISZERO PUSH2 0x26EB JUMPI PUSH1 0x1 SLOAD DUP7 MLOAD PUSH4 0x95EA7B3 PUSH1 0xE0 SHL DUP2 MSTORE PUSH1 0x1 PUSH1 0x1 PUSH1 0xA0 SHL SUB SWAP1 SWAP4 AND DUP7 DUP5 ADD SWAP1 DUP2 MSTORE PUSH1 0x20 DUP2 ADD DUP10 SWAP1 MSTORE DUP6 SWAP3 DUP5 SWAP3 AND SWAP1 DUP3 SWAP1 DUP7 SWAP1 DUP3 SWAP1 PUSH1 0x40 ADD SUB SWAP3 GAS CALL DUP1 ISZERO PUSH2 0x26C4 JUMPI PUSH2 0x26CE JUMPI JUMPDEST POP DUP6 EXTCODESIZE ISZERO PUSH2 0x7D4 JUMPI DUP4 MLOAD PUSH4 0x1ADFD7BD PUSH1 0xE3 SHL DUP2 MSTORE DUP6 DUP5 DUP3 ADD MSTORE DUP8 PUSH1 0x24 DUP3 ADD MSTORE DUP2 DUP2 PUSH1 0x44 DUP2 DUP4 DUP12 GAS CALL DUP1 ISZERO PUSH2 0x26C4 JUMPI PUSH2 0x26B5 JUMPI JUMPDEST POP SWAP1 DUP4 MLOAD SWAP7 PUSH4 0x70A08231 PUSH1 0xE0 SHL DUP9 MSTORE ADDRESS DUP5 DUP10 ADD MSTORE DUP2 DUP9 PUSH1 0x24 DUP2 DUP11 GAS STATICCALL SWAP8 DUP9 ISZERO PUSH2 0x26AB JUMPI DUP4 SWAP9 PUSH2 0x267C JUMPI JUMPDEST POP DUP8 LT PUSH2 0x266C JUMPI DUP4 MLOAD PUSH4 0xA9059CBB PUSH1 0xE0 SHL DUP2 MSTORE CALLER DUP5 DUP3 ADD SWAP1 DUP2 MSTORE PUSH1 0x20 DUP2 ADD DUP10 SWAP1 MSTORE SWAP1 SWAP2 SWAP1 DUP2 SWAP1 DUP4 SWAP1 DUP2 SWAP1 PUSH1 0x40 ADD SUB DUP2 DUP7 DUP12 GAS CALL SWAP3 DUP4 ISZERO PUSH2 0x2661 JUMPI SWAP3 PUSH2 0x2644 JUMPI JUMPDEST POP POP ISZERO PUSH2 0x88C JUMPI POP MLOAD CALLVALUE DUP2 MSTORE PUSH1 0x20 DUP2 ADD SWAP2 SWAP1 SWAP2 MSTORE PUSH1 0x40 DUP2 ADD DUP4 SWAP1 MSTORE CALLER SWAP1 PUSH32 0x77EB323217A4770C84B5F7F4076D557A6D1166BF8C746483D2A981D9C678E54D SWAP1 PUSH1 0x60 SWAP1 LOG3 SWAP1 JUMP JUMPDEST PUSH2 0x265A SWAP3 POP DUP1 RETURNDATASIZE LT PUSH2 0x52C JUMPI PUSH2 0x51D DUP2 DUP4 PUSH2 0x218F JUMP JUMPDEST CODESIZE DUP1 PUSH2 0x25FE JUMP JUMPDEST DUP6 MLOAD SWAP1 RETURNDATASIZE SWAP1 DUP3 RETURNDATACOPY RETURNDATASIZE SWAP1 REVERT JUMPDEST DUP4 MLOAD PUSH4 0x8199F5F3 PUSH1 0xE0 SHL DUP2 MSTORE DUP4 SWAP1 REVERT JUMPDEST SWAP1 SWAP8 POP DUP2 DUP2 DUP2 RETURNDATASIZE DUP4 GT PUSH2 0x26A4 JUMPI JUMPDEST PUSH2 0x2694 DUP2 DUP4 PUSH2 0x218F JUMP JUMPDEST DUP2 ADD SUB SLT PUSH2 0x48D JUMPI MLOAD SWAP7 CODESIZE PUSH2 0x25BE JUMP JUMPDEST POP RETURNDATASIZE PUSH2 0x268A JUMP JUMPDEST DUP6 MLOAD RETURNDATASIZE DUP6 DUP3 RETURNDATACOPY RETURNDATASIZE SWAP1 REVERT JUMPDEST PUSH2 0x26BE SWAP1 PUSH2 0x2111 JUMP JUMPDEST CODESIZE PUSH2 0x2594 JUMP JUMPDEST DUP6 MLOAD RETURNDATASIZE DUP5 DUP3 RETURNDATACOPY RETURNDATASIZE SWAP1 REVERT JUMPDEST PUSH2 0x26E4 SWAP1 DUP4 RETURNDATASIZE DUP6 GT PUSH2 0x52C JUMPI PUSH2 0x51D DUP2 DUP4 PUSH2 0x218F JUMP JUMPDEST POP CODESIZE PUSH2 0x2561 JUMP JUMPDEST DUP6 MLOAD PUSH4 0xBB2875C3 PUSH1 0xE0 SHL DUP2 MSTORE DUP6 SWAP1 REVERT JUMPDEST PUSH2 0x12CD SWAP2 POP RETURNDATASIZE DUP1 DUP7 DUP4 RETURNDATACOPY PUSH2 0x7B9 DUP2 DUP4 PUSH2 0x218F JUMP JUMPDEST DUP7 MLOAD RETURNDATASIZE DUP6 DUP3 RETURNDATACOPY RETURNDATASIZE SWAP1 REVERT JUMPDEST PUSH1 0x40 MLOAD PUSH4 0x162908E3 PUSH1 0xE1 SHL DUP2 MSTORE PUSH1 0x4 SWAP1 REVERT JUMPDEST PUSH1 0x40 MLOAD PUSH4 0xE6C4247B PUSH1 0xE0 SHL DUP2 MSTORE PUSH1 0x4 SWAP1 REVERT JUMPDEST DUP2 DUP2 MUL SWAP3 SWAP2 DUP2 ISZERO SWAP2 DUP5 DIV EQ OR ISZERO PUSH2 0x2201 JUMPI JUMP JUMPDEST SWAP1 PUSH1 0x60 SWAP3 PUSH2 0x276F SWAP2 SWAP7 SWAP6 SWAP5 SWAP7 DUP4 MSTORE PUSH1 0x80 PUSH1 0x20 DUP5 ADD MSTORE PUSH1 0x80 DUP4 ADD SWAP1 PUSH2 0x2293 JUMP JUMPDEST PUSH1 0x1 PUSH1 0x1 PUSH1 0xA0 SHL SUB SWAP1 SWAP6 AND PUSH1 0x40 DUP3 ADD MSTORE ADD MSTORE JUMP JUMPDEST SWAP2 SWAP1 DUP3 SUB SWAP2 DUP3 GT PUSH2 0x2201 JUMPI JUMP JUMPDEST RETURNDATASIZE ISZERO PUSH2 0x27CB JUMPI RETURNDATASIZE SWAP1 PUSH8 0xFFFFFFFFFFFFFFFF DUP3 GT PUSH2 0x2125 JUMPI PUSH1 0x40 MLOAD SWAP2 PUSH2 0x27BF PUSH1 0x1F DUP3 ADD PUSH1 0x1F NOT AND PUSH1 0x20 ADD DUP5 PUSH2 0x218F JUMP JUMPDEST DUP3 MSTORE RETURNDATASIZE PUSH1 0x0 PUSH1 0x20 DUP5 ADD RETURNDATACOPY JUMP JUMPDEST PUSH1 0x60 SWAP1 JUMP JUMPDEST SWAP2 SWAP3 PUSH1 0x80 SWAP4 PUSH2 0x27F5 SWAP3 SWAP8 SWAP7 SWAP6 SWAP8 DUP5 MSTORE PUSH1 0x20 DUP5 ADD MSTORE PUSH1 0xA0 PUSH1 0x40 DUP5 ADD MSTORE PUSH1 0xA0 DUP4 ADD SWAP1 PUSH2 0x2293 JUMP JUMPDEST PUSH1 0x1 PUSH1 0x1 PUSH1 0xA0 SHL SUB SWAP1 SWAP6 AND PUSH1 0x60 DUP3 ADD MSTORE ADD MSTORE JUMP JUMPDEST PUSH1 0x1 PUSH1 0x1 PUSH1 0xA0 SHL SUB SWAP2 SWAP1 DUP3 AND SWAP1 PUSH1 0x0 SWAP1 DUP3 ISZERO PUSH2 0x272B JUMPI DUP1 ISZERO PUSH2 0x2719 JUMPI PUSH1 0x40 DUP1 MLOAD PUSH4 0x23B872DD PUSH1 0xE0 SHL DUP2 MSTORE CALLER PUSH1 0x4 DUP1 DUP4 ADD SWAP2 SWAP1 SWAP2 MSTORE ADDRESS PUSH1 0x24 DUP4 ADD MSTORE PUSH1 0x44 DUP3 ADD DUP5 SWAP1 MSTORE SWAP6 SWAP2 SWAP5 SWAP2 PUSH1 0x20 SWAP2 DUP3 DUP2 PUSH1 0x64 DUP2 DUP10 DUP9 GAS CALL SWAP1 DUP2 ISZERO PUSH2 0x1B52 JUMPI DUP7 SWAP2 PUSH2 0x2B02 JUMPI JUMPDEST POP ISZERO PUSH2 0x2AF2 JUMPI DUP3 DUP6 MSTORE PUSH1 0x7 DUP3 MSTORE DUP6 DUP6 KECCAK256 SLOAD PUSH1 0xFF AND ISZERO PUSH2 0x2923 JUMPI POP POP SELFBALANCE SWAP2 DUP2 EXTCODESIZE ISZERO PUSH2 0x209C JUMPI DUP4 SWAP2 PUSH1 0x44 DUP4 SWAP3 DUP8 MLOAD SWAP5 DUP6 SWAP4 DUP5 SWAP3 PUSH4 0xD79875EB PUSH1 0xE0 SHL DUP5 MSTORE DUP12 DUP5 ADD MSTORE DUP12 PUSH1 0x24 DUP5 ADD MSTORE GAS CALL DUP1 ISZERO PUSH2 0x2919 JUMPI SWAP1 DUP4 SWAP2 PUSH2 0x2905 JUMPI JUMPDEST POP POP PUSH2 0x28C9 SWAP1 SELFBALANCE PUSH2 0x2783 JUMP JUMPDEST SWAP4 DUP5 LT PUSH2 0x28F7 JUMPI DUP1 DUP1 DUP1 DUP7 CALLER GAS CALL PUSH2 0x28DF PUSH2 0x2790 JUMP JUMPDEST POP ISZERO PUSH2 0x28EA JUMPI POP POP SWAP1 JUMP JUMPDEST MLOAD PUSH4 0x12171D83 PUSH1 0xE3 SHL DUP2 MSTORE REVERT JUMPDEST POP MLOAD PUSH4 0x8199F5F3 PUSH1 0xE0 SHL DUP2 MSTORE REVERT JUMPDEST PUSH2 0x290E SWAP1 PUSH2 0x2111 JUMP JUMPDEST PUSH2 0x64A JUMPI DUP2 CODESIZE PUSH2 0x28BD JUMP JUMPDEST DUP5 MLOAD RETURNDATASIZE DUP6 DUP3 RETURNDATACOPY RETURNDATASIZE SWAP1 REVERT JUMPDEST SWAP2 SWAP1 SWAP3 DUP2 EXTCODESIZE ISZERO PUSH2 0x1294 JUMPI DUP5 SWAP2 PUSH1 0x44 DUP4 SWAP3 DUP9 MLOAD SWAP5 DUP6 SWAP4 DUP5 SWAP3 PUSH4 0xD79875EB PUSH1 0xE0 SHL DUP5 MSTORE DUP13 DUP5 ADD MSTORE DUP2 PUSH1 0x24 DUP5 ADD MSTORE GAS CALL DUP1 ISZERO PUSH2 0x1B2B JUMPI PUSH2 0x2ADF JUMPI JUMPDEST POP PUSH1 0x1 SLOAD DUP5 MLOAD PUSH4 0x70A08231 PUSH1 0xE0 SHL DUP2 MSTORE ADDRESS DUP8 DUP3 ADD MSTORE SWAP2 SWAP1 DUP2 AND DUP4 DUP4 PUSH1 0x24 DUP2 DUP5 GAS STATICCALL SWAP3 DUP4 ISZERO PUSH2 0x2A96 JUMPI DUP6 SWAP4 PUSH2 0x2AB0 JUMPI JUMPDEST POP DUP3 ISZERO PUSH2 0x2AA0 JUMPI DUP5 SLOAD DUP7 MLOAD PUSH4 0x95EA7B3 PUSH1 0xE0 SHL DUP2 MSTORE SWAP1 DUP4 AND PUSH1 0x1 PUSH1 0x1 PUSH1 0xA0 SHL SUB AND DUP9 DUP3 ADD SWAP1 DUP2 MSTORE PUSH1 0x20 DUP2 ADD DUP6 SWAP1 MSTORE SWAP1 SWAP2 DUP6 SWAP2 DUP4 SWAP2 SWAP1 DUP3 SWAP1 DUP10 SWAP1 DUP3 SWAP1 PUSH1 0x40 ADD SUB SWAP3 GAS CALL DUP1 ISZERO PUSH2 0x2A96 JUMPI DUP6 DUP9 SWAP6 SWAP4 DUP2 SWAP6 SWAP4 DUP12 SWAP4 PUSH2 0x2A79 JUMPI JUMPDEST POP DUP9 DUP1 MLOAD SWAP6 PUSH2 0x29EE DUP8 PUSH2 0x213B JUMP JUMPDEST PUSH1 0x2 DUP8 MSTORE CALLDATASIZE SWAP1 DUP8 ADD CALLDATACOPY DUP1 PUSH1 0x1 SLOAD AND PUSH2 0x2A05 DUP7 PUSH2 0x21B1 JUMP JUMPDEST MSTORE DUP1 PUSH1 0x2 SLOAD AND PUSH2 0x2A14 DUP7 PUSH2 0x21D4 JUMP JUMPDEST MSTORE DUP2 SLOAD AND SWAP3 PUSH2 0x2A43 PUSH2 0x2A27 DUP9 SLOAD TIMESTAMP PUSH2 0x21F4 JUMP JUMPDEST DUP11 MLOAD PUSH4 0x18CBAFE5 PUSH1 0xE0 SHL DUP2 MSTORE SWAP9 DUP10 SWAP8 DUP9 SWAP7 DUP8 SWAP6 CALLER SWAP4 DUP8 ADD PUSH2 0x27D0 JUMP JUMPDEST SUB SWAP3 GAS CALL SWAP2 DUP3 ISZERO PUSH2 0x1AB5 JUMPI SWAP1 DUP2 PUSH2 0x2A5F SWAP4 PUSH2 0x7A5 JUMPI POP POP PUSH2 0x21D4 JUMP JUMPDEST MLOAD SWAP3 DUP4 LT PUSH2 0x2A6C JUMPI POP POP SWAP1 JUMP JUMPDEST MLOAD PUSH4 0x8199F5F3 PUSH1 0xE0 SHL DUP2 MSTORE REVERT JUMPDEST PUSH2 0x2A8F SWAP1 DUP7 RETURNDATASIZE DUP9 GT PUSH2 0x52C JUMPI PUSH2 0x51D DUP2 DUP4 PUSH2 0x218F JUMP JUMPDEST POP CODESIZE PUSH2 0x29E0 JUMP JUMPDEST DUP7 MLOAD RETURNDATASIZE DUP8 DUP3 RETURNDATACOPY RETURNDATASIZE SWAP1 REVERT JUMPDEST DUP6 MLOAD PUSH4 0xBB2875C3 PUSH1 0xE0 SHL DUP2 MSTORE DUP8 SWAP1 REVERT JUMPDEST SWAP1 SWAP3 POP DUP4 DUP2 DUP2 RETURNDATASIZE DUP4 GT PUSH2 0x2AD8 JUMPI JUMPDEST PUSH2 0x2AC8 DUP2 DUP4 PUSH2 0x218F JUMP JUMPDEST DUP2 ADD SUB SLT PUSH2 0x48D JUMPI MLOAD SWAP2 CODESIZE PUSH2 0x298A JUMP JUMPDEST POP RETURNDATASIZE PUSH2 0x2ABE JUMP JUMPDEST PUSH2 0x2AEB SWAP1 SWAP4 SWAP2 SWAP4 PUSH2 0x2111 JUMP JUMPDEST SWAP2 CODESIZE PUSH2 0x295B JUMP JUMPDEST DUP6 MLOAD PUSH4 0x12171D83 PUSH1 0xE3 SHL DUP2 MSTORE DUP8 SWAP1 REVERT JUMPDEST PUSH2 0x2B19 SWAP2 POP DUP4 RETURNDATASIZE DUP6 GT PUSH2 0x52C JUMPI PUSH2 0x51D DUP2 DUP4 PUSH2 0x218F JUMP JUMPDEST CODESIZE PUSH2 0x2868 JUMP JUMPDEST SWAP2 SWAP1 DUP3 PUSH1 0x40 SWAP2 SUB SLT PUSH2 0x48D JUMPI PUSH1 0x20 DUP3 MLOAD SWAP3 ADD MLOAD SWAP1 JUMP JUMPDEST PUSH1 0x1 PUSH1 0x1 PUSH1 0xA0 SHL SUB SWAP1 DUP2 AND PUSH1 0x0 DUP2 DUP2 MSTORE PUSH1 0x7 PUSH1 0x20 MSTORE PUSH1 0x40 DUP1 DUP3 KECCAK256 SLOAD SWAP2 SWAP6 SWAP5 SWAP1 SWAP4 SWAP1 SWAP2 DUP7 SWAP2 SWAP1 PUSH1 0xFF AND ISZERO PUSH2 0x2BBA JUMPI POP POP DUP3 SWAP1 PUSH1 0x24 DUP3 MLOAD DUP1 SWAP5 DUP2 SWAP4 PUSH4 0xFB3DD95F PUSH1 0xE0 SHL DUP4 MSTORE PUSH1 0x4 DUP4 ADD MSTORE GAS STATICCALL SWAP2 DUP3 ISZERO PUSH2 0x2BB1 JUMPI DUP5 SWAP3 PUSH2 0x2B93 JUMPI JUMPDEST POP POP SWAP2 SWAP1 JUMP JUMPDEST PUSH2 0x2BA9 SWAP3 POP DUP1 RETURNDATASIZE LT PUSH2 0x1E37 JUMPI PUSH2 0x1E27 DUP2 DUP4 PUSH2 0x218F JUMP JUMPDEST POP CODESIZE DUP1 PUSH2 0x2B8D JUMP JUMPDEST MLOAD RETURNDATASIZE DUP6 DUP3 RETURNDATACOPY RETURNDATASIZE SWAP1 REVERT JUMPDEST SWAP1 SWAP2 SWAP4 DUP1 SWAP4 SWAP6 SWAP5 PUSH1 0x24 DUP3 MLOAD DUP1 SWAP9 DUP2 SWAP4 PUSH4 0xFB3DD95F PUSH1 0xE0 SHL DUP4 MSTORE PUSH1 0x4 DUP4 ADD MSTORE GAS STATICCALL SWAP5 DUP6 ISZERO PUSH2 0x1AF5 JUMPI DUP3 SWAP6 PUSH2 0x2C79 JUMPI JUMPDEST POP DUP3 MLOAD PUSH2 0x2C4C SWAP3 SWAP2 PUSH2 0x2BF9 DUP3 PUSH2 0x213B JUMP JUMPDEST PUSH1 0x2 DUP3 MSTORE DUP5 CALLDATASIZE PUSH1 0x20 DUP5 ADD CALLDATACOPY DUP1 PUSH1 0x1 SLOAD AND PUSH2 0x2C12 DUP4 PUSH2 0x21B1 JUMP JUMPDEST MSTORE DUP1 PUSH1 0x2 SLOAD AND PUSH2 0x2C21 DUP4 PUSH2 0x21D4 JUMP JUMPDEST MSTORE DUP3 SLOAD AND DUP5 MLOAD DUP1 DUP1 SWAP6 DUP2 SWAP5 PUSH4 0xD06CA61F PUSH1 0xE0 SHL DUP4 MSTORE DUP11 PUSH1 0x4 DUP5 ADD MSTORE DUP9 PUSH1 0x24 DUP5 ADD MSTORE PUSH1 0x44 DUP4 ADD SWAP1 PUSH2 0x2293 JUMP JUMPDEST SUB SWAP2 GAS STATICCALL SWAP2 DUP3 ISZERO PUSH2 0x2C70 JUMPI POP DUP5 PUSH2 0x2C6B SWAP4 SWAP5 SWAP6 SWAP3 PUSH2 0x7A5 JUMPI POP POP PUSH2 0x21D4 JUMP JUMPDEST MLOAD SWAP2 SWAP1 JUMP JUMPDEST MLOAD RETURNDATASIZE DUP7 DUP3 RETURNDATACOPY RETURNDATASIZE SWAP1 REVERT JUMPDEST PUSH2 0x2C4C SWAP3 SWAP2 SWAP6 POP PUSH2 0x2C96 SWAP1 DUP5 RETURNDATASIZE DUP7 GT PUSH2 0x1E37 JUMPI PUSH2 0x1E27 DUP2 DUP4 PUSH2 0x218F JUMP JUMPDEST POP SWAP5 SWAP1 SWAP2 PUSH2 0x2BE8 JUMP JUMPDEST PUSH1 0x1 PUSH1 0x1 PUSH1 0xA0 SHL SUB SWAP1 DUP2 AND PUSH1 0x0 DUP2 DUP2 MSTORE PUSH1 0x7 PUSH1 0x20 MSTORE PUSH1 0x40 DUP1 DUP3 KECCAK256 SLOAD SWAP2 SWAP6 SWAP5 SWAP1 SWAP4 SWAP1 SWAP2 PUSH1 0xFF AND ISZERO PUSH2 0x2CF8 JUMPI POP DUP3 SWAP1 PUSH1 0x24 DUP3 MLOAD DUP1 SWAP5 DUP2 SWAP4 PUSH4 0x48153279 PUSH1 0xE0 SHL DUP4 MSTORE PUSH1 0x4 DUP4 ADD MSTORE GAS STATICCALL SWAP2 DUP3 ISZERO PUSH2 0x2BB1 JUMPI DUP5 SWAP3 PUSH2 0x2B93 JUMPI POP POP SWAP2 SWAP1 JUMP JUMPDEST SWAP5 DUP4 SWAP3 SWAP6 PUSH2 0x2D61 SWAP3 DUP3 SWAP6 MLOAD SWAP2 PUSH2 0x2D0D DUP4 PUSH2 0x213B JUMP JUMPDEST PUSH1 0x2 DUP4 MSTORE DUP6 CALLDATASIZE PUSH1 0x20 DUP6 ADD CALLDATACOPY DUP1 PUSH1 0x2 SLOAD AND PUSH2 0x2D26 DUP5 PUSH2 0x21B1 JUMP JUMPDEST MSTORE DUP1 PUSH1 0x1 SLOAD AND PUSH2 0x2D35 DUP5 PUSH2 0x21D4 JUMP JUMPDEST MSTORE DUP4 SLOAD AND SWAP1 DUP6 MLOAD DUP1 SWAP6 DUP2 SWAP5 DUP3 SWAP4 PUSH4 0xD06CA61F PUSH1 0xE0 SHL DUP5 MSTORE PUSH1 0x4 DUP5 ADD MSTORE DUP9 PUSH1 0x24 DUP5 ADD MSTORE PUSH1 0x44 DUP4 ADD SWAP1 PUSH2 0x2293 JUMP JUMPDEST SUB SWAP2 GAS STATICCALL SWAP1 DUP2 ISZERO PUSH2 0x7C8 JUMPI SWAP2 PUSH2 0x2D81 DUP2 SWAP3 PUSH1 0x24 SWAP5 DUP7 SWAP2 PUSH2 0x2DB8 JUMPI POP PUSH2 0x21D4 JUMP JUMPDEST MLOAD SWAP6 DUP2 MLOAD SWAP4 DUP5 DUP1 SWAP3 PUSH4 0x48153279 PUSH1 0xE0 SHL DUP3 MSTORE DUP10 PUSH1 0x4 DUP4 ADD MSTORE GAS STATICCALL SWAP3 DUP4 ISZERO PUSH2 0x2DAD JUMPI SWAP3 PUSH2 0x2B93 JUMPI POP POP SWAP2 SWAP1 JUMP JUMPDEST SWAP1 MLOAD SWAP1 RETURNDATASIZE SWAP1 DUP3 RETURNDATACOPY RETURNDATASIZE SWAP1 REVERT JUMPDEST PUSH2 0x12CD SWAP2 POP RETURNDATASIZE DUP1 DUP9 DUP4 RETURNDATACOPY PUSH2 0x7B9 DUP2 DUP4 PUSH2 0x218F JUMP JUMPDEST SWAP2 SWAP1 DUP2 LT ISZERO PUSH2 0x21BE JUMPI PUSH1 0x5 SHL ADD SWAP1 JUMP JUMPDEST CALLDATALOAD PUSH1 0x1 PUSH1 0x1 PUSH1 0xA0 SHL SUB DUP2 AND DUP2 SUB PUSH2 0x48D JUMPI SWAP1 JUMP JUMPDEST PUSH1 0x40 MLOAD PUSH4 0xA8A62461 PUSH1 0xE0 SHL DUP2 MSTORE SWAP1 PUSH1 0x1 PUSH1 0x1 PUSH1 0xA0 SHL SUB AND PUSH1 0x20 DUP1 DUP4 PUSH1 0x4 DUP2 DUP6 GAS STATICCALL PUSH1 0x0 SWAP4 DUP2 PUSH2 0x2E93 JUMPI JUMPDEST POP PUSH2 0x2E27 JUMPI POP POP POP PUSH1 0x0 SWAP1 JUMP JUMPDEST DUP1 PUSH1 0x4 SWAP3 PUSH1 0x40 MLOAD SWAP4 DUP5 DUP1 SWAP3 PUSH4 0x2C8EE531 PUSH1 0xE0 SHL DUP3 MSTORE GAS STATICCALL SWAP2 DUP3 SWAP2 PUSH1 0x0 SWAP4 PUSH2 0x2E62 JUMPI JUMPDEST POP POP PUSH2 0x2E56 JUMPI POP POP PUSH1 0x0 SWAP1 JUMP JUMPDEST PUSH2 0x2E5F SWAP2 PUSH2 0x21F4 JUMP JUMPDEST SWAP1 JUMP JUMPDEST DUP2 DUP2 SWAP5 SWAP3 SWAP4 SWAP5 RETURNDATASIZE DUP4 GT PUSH2 0x2E8C JUMPI JUMPDEST PUSH2 0x2E7A DUP2 DUP4 PUSH2 0x218F JUMP JUMPDEST DUP2 ADD SUB SLT PUSH2 0x7D4 JUMPI POP MLOAD SWAP1 CODESIZE DUP1 PUSH2 0x2E49 JUMP JUMPDEST POP RETURNDATASIZE PUSH2 0x2E70 JUMP JUMPDEST SWAP1 SWAP4 DUP3 DUP3 DUP2 RETURNDATASIZE DUP4 GT PUSH2 0x2EBB JUMPI JUMPDEST PUSH2 0x2EAA DUP2 DUP4 PUSH2 0x218F JUMP JUMPDEST DUP2 ADD SUB SLT PUSH2 0x7D4 JUMPI POP MLOAD SWAP3 CODESIZE PUSH2 0x2E1A JUMP JUMPDEST POP RETURNDATASIZE PUSH2 0x2EA0 JUMP JUMPDEST PUSH1 0x40 DUP1 MLOAD PUSH4 0x48153279 PUSH1 0xE0 SHL DUP2 MSTORE PUSH1 0x4 DUP2 ADD DUP5 SWAP1 MSTORE SWAP2 DUP4 SWAP2 SWAP1 DUP4 SWAP1 PUSH1 0x24 SWAP1 DUP3 SWAP1 PUSH1 0x1 PUSH1 0x1 PUSH1 0xA0 SHL SUB AND GAS STATICCALL SWAP2 DUP3 ISZERO PUSH2 0x2F74 JUMPI PUSH1 0x0 SWAP3 PUSH2 0x2F53 JUMPI JUMPDEST POP DUP1 DUP3 LT PUSH2 0x2F09 JUMPI POP POP SWAP1 JUMP JUMPDEST PUSH2 0x2F15 SWAP2 SWAP3 POP DUP1 PUSH2 0x273D JUMP JUMPDEST DUP2 ISZERO PUSH2 0x2F3D JUMPI DIV PUSH1 0xC8 DUP2 MUL SWAP1 DUP1 DUP3 DIV PUSH1 0xC8 EQ DUP2 ISZERO OR ISZERO PUSH2 0x2201 JUMPI PUSH2 0x2710 PUSH2 0x2E5F SWAP3 DIV SWAP1 PUSH2 0x21F4 JUMP JUMPDEST PUSH4 0x4E487B71 PUSH1 0xE0 SHL PUSH1 0x0 MSTORE PUSH1 0x12 PUSH1 0x4 MSTORE PUSH1 0x24 PUSH1 0x0 REVERT JUMPDEST PUSH2 0x2F6C SWAP2 SWAP3 POP PUSH1 0x40 RETURNDATASIZE DUP2 GT PUSH2 0x1E37 JUMPI PUSH2 0x1E27 DUP2 DUP4 PUSH2 0x218F JUMP JUMPDEST POP SWAP1 CODESIZE PUSH2 0x2EFC JUMP JUMPDEST PUSH1 0x40 MLOAD RETURNDATASIZE PUSH1 0x0 DUP3 RETURNDATACOPY RETURNDATASIZE SWAP1 REVERT INVALID PREVRANDAO JUMPI GASPRICE DUP10 0xDF PC EXTCODECOPY SIGNEXTEND 0x1E AND 0xE6 0xC2 0x2D COINBASE 0xB4 0xE3 SWAP14 0xE1 0xCA CALLVALUE SAR EXP 0x23 0x4B PUSH18 0x17CCC2BF727DC4A26469706673582212204C DUP11 0xD4 SWAP15 SWAP8 DUP4 0xC9 0xE4 CALLER 0x29 0xFC DUP1 GAS 0xF7 SWAP2 DUP12 SWAP14 COINBASE 0x4B 0xA7 0xFB DUP8 SWAP15 CALLDATALOAD PUSH28 0xBD9C66D5AB7CA564736F6C6343000814003300000000000000000000 "},"methodIdentifiers":{"batchRegisterBondingCurveTypes(address[],bool[])":"76027930","buyBondingCurveTokenWithBNB(address,uint256)":"4325f299","buyBondingCurveTokenWithHAVEN(address,uint256,uint256)":"3dc4340a","buyExactTokensWithBNB(address,uint256,uint256)":"a09f99cc","buyGraduatedTokenWithBNB(address,uint256)":"323f3517","buyGraduatedTokenWithHAVEN(address,uint256,uint256)":"1ce0ee5c","defaultDeadlineOffset()":"e8feca30","emergencyWithdraw(address,address,uint256)":"e63ea408","havenToken()":"7bcafc82","isWBNBBondingCurve(address)":"3e3b2b39","maxSlippageBps()":"c4aa7395","owner()":"8da5cb5b","pancakeRouter()":"c21ebd07","paused()":"5c975abb","previewBuyBondingCurveWithHAVEN(address,uint256)":"22e988a4","previewBuyGraduatedWithBNB(address,uint256)":"584b5a38","previewBuyGraduatedWithHAVEN(address,uint256)":"e9ea09b3","previewBuyWithBNB(address,uint256)":"216f68b2","previewExactBuyWithBNB(address,uint256)":"e302b66c","previewSellBondingCurveForBNB(address,uint256)":"8661a02a","previewSellGraduatedForBNB(address,uint256)":"324fc30c","previewSellGraduatedForHAVEN(address,uint256)":"6231af91","registerBondingCurveType(address,bool)":"b203c4ce","sellBondingCurveTokenForBNB(address,uint256,uint256)":"92212ef7","sellGraduatedTokenForBNB(address,uint256,uint256)":"dd0c4331","sellGraduatedTokenForHAVEN(address,uint256,uint256)":"f4c0de8c","setDefaultDeadlineOffset(uint256)":"5af39811","setHavenToken(address)":"653028e8","setMaxSlippage(uint256)":"43f68a49","setPancakeRouter(address)":"f8316c90","setPaused(bool)":"16c38b3c","setWBNB(address)":"cab27a64","transferOwnership(address)":"f2fde38b","wbnb()":"8d72647e"}}}}}