{
  "_format": "hh-sol-artifact-1",
  "contractName": "HavenRouter",
  "sourceName": "contracts/HavenRouter.sol",
  "abi": [
    {
      "inputs": [
        {
          "internalType": "address",
          "name": "_pancakeRouter",
          "type": "address"
        },
        {
          "internalType": "address",
          "name": "_havenToken",
          "type": "address"
        },
        {
          "internalType": "address",
          "name": "_wbnb",
          "type": "address"
        }
      ],
      "stateMutability": "nonpayable",
      "type": "constructor"
    },
    {
      "inputs": [],
      "name": "InsufficientOutput",
      "type": "error"
    },
    {
      "inputs": [],
      "name": "InvalidAddress",
      "type": "error"
    },
    {
      "inputs": [],
      "name": "InvalidAmount",
      "type": "error"
    },
    {
      "inputs": [],
      "name": "InvalidSlippage",
      "type": "error"
    },
    {
      "inputs": [],
      "name": "Paused",
      "type": "error"
    },
    {
      "inputs": [],
      "name": "SlippageExceeded",
      "type": "error"
    },
    {
      "inputs": [],
      "name": "TransferFailed",
      "type": "error"
    },
    {
      "inputs": [],
      "name": "Unauthorized",
      "type": "error"
    },
    {
      "anonymous": false,
      "inputs": [
        {
          "indexed": true,
          "internalType": "address",
          "name": "updater",
          "type": "address"
        },
        {
          "indexed": false,
          "internalType": "string",
          "name": "parameter",
          "type": "string"
        },
        {
          "indexed": false,
          "internalType": "address",
          "name": "oldAddress",
          "type": "address"
        },
        {
          "indexed": false,
          "internalType": "address",
          "name": "newAddress",
          "type": "address"
        }
      ],
      "name": "AddressUpdated",
      "type": "event"
    },
    {
      "anonymous": false,
      "inputs": [
        {
          "indexed": true,
          "internalType": "address",
          "name": "user",
          "type": "address"
        },
        {
          "indexed": true,
          "internalType": "address",
          "name": "bondingCurveToken",
          "type": "address"
        },
        {
          "indexed": false,
          "internalType": "uint256",
          "name": "bnbIn",
          "type": "uint256"
        },
        {
          "indexed": false,
          "internalType": "uint256",
          "name": "havenSwapped",
          "type": "uint256"
        },
        {
          "indexed": false,
          "internalType": "uint256",
          "name": "tokensOut",
          "type": "uint256"
        }
      ],
      "name": "BuyExecuted",
      "type": "event"
    },
    {
      "anonymous": false,
      "inputs": [
        {
          "indexed": true,
          "internalType": "address",
          "name": "updater",
          "type": "address"
        },
        {
          "indexed": false,
          "internalType": "string",
          "name": "parameter",
          "type": "string"
        },
        {
          "indexed": false,
          "internalType": "uint256",
          "name": "oldValue",
          "type": "uint256"
        },
        {
          "indexed": false,
          "internalType": "uint256",
          "name": "newValue",
          "type": "uint256"
        }
      ],
      "name": "ConfigUpdated",
      "type": "event"
    },
    {
      "anonymous": false,
      "inputs": [
        {
          "indexed": true,
          "internalType": "address",
          "name": "token",
          "type": "address"
        },
        {
          "indexed": true,
          "internalType": "address",
          "name": "to",
          "type": "address"
        },
        {
          "indexed": false,
          "internalType": "uint256",
          "name": "amount",
          "type": "uint256"
        }
      ],
      "name": "EmergencyWithdraw",
      "type": "event"
    },
    {
      "anonymous": false,
      "inputs": [
        {
          "indexed": true,
          "internalType": "address",
          "name": "user",
          "type": "address"
        },
        {
          "indexed": true,
          "internalType": "address",
          "name": "bondingCurveToken",
          "type": "address"
        },
        {
          "indexed": false,
          "internalType": "uint256",
          "name": "bnbIn",
          "type": "uint256"
        },
        {
          "indexed": false,
          "internalType": "uint256",
          "name": "bnbRefunded",
          "type": "uint256"
        },
        {
          "indexed": false,
          "internalType": "uint256",
          "name": "tokensOut",
          "type": "uint256"
        }
      ],
      "name": "ExactBuyExecuted",
      "type": "event"
    },
    {
      "inputs": [
        {
          "internalType": "address",
          "name": "bondingCurveToken",
          "type": "address"
        },
        {
          "internalType": "uint256",
          "name": "minTokensOut",
          "type": "uint256"
        }
      ],
      "name": "buyBondingCurveTokenWithBNB",
      "outputs": [
        {
          "internalType": "uint256",
          "name": "tokensOut",
          "type": "uint256"
        }
      ],
      "stateMutability": "payable",
      "type": "function"
    },
    {
      "inputs": [
        {
          "internalType": "address",
          "name": "bondingCurveToken",
          "type": "address"
        },
        {
          "internalType": "uint256",
          "name": "havenAmount",
          "type": "uint256"
        },
        {
          "internalType": "uint256",
          "name": "minTokensOut",
          "type": "uint256"
        }
      ],
      "name": "buyBondingCurveTokenWithHAVEN",
      "outputs": [
        {
          "internalType": "uint256",
          "name": "tokensOut",
          "type": "uint256"
        }
      ],
      "stateMutability": "nonpayable",
      "type": "function"
    },
    {
      "inputs": [
        {
          "internalType": "address",
          "name": "bondingCurveToken",
          "type": "address"
        },
        {
          "internalType": "uint256",
          "name": "exactTokensOut",
          "type": "uint256"
        },
        {
          "internalType": "uint256",
          "name": "maxSlippageBps",
          "type": "uint256"
        }
      ],
      "name": "buyExactTokensWithBNB",
      "outputs": [
        {
          "internalType": "uint256",
          "name": "bnbSpent",
          "type": "uint256"
        },
        {
          "internalType": "uint256",
          "name": "bnbRefunded",
          "type": "uint256"
        }
      ],
      "stateMutability": "payable",
      "type": "function"
    },
    {
      "inputs": [
        {
          "internalType": "address",
          "name": "token",
          "type": "address"
        },
        {
          "internalType": "uint256",
          "name": "minTokensOut",
          "type": "uint256"
        }
      ],
      "name": "buyGraduatedTokenWithBNB",
      "outputs": [
        {
          "internalType": "uint256",
          "name": "tokensOut",
          "type": "uint256"
        }
      ],
      "stateMutability": "payable",
      "type": "function"
    },
    {
      "inputs": [
        {
          "internalType": "address",
          "name": "token",
          "type": "address"
        },
        {
          "internalType": "uint256",
          "name": "havenAmount",
          "type": "uint256"
        },
        {
          "internalType": "uint256",
          "name": "minTokensOut",
          "type": "uint256"
        }
      ],
      "name": "buyGraduatedTokenWithHAVEN",
      "outputs": [
        {
          "internalType": "uint256",
          "name": "tokensOut",
          "type": "uint256"
        }
      ],
      "stateMutability": "nonpayable",
      "type": "function"
    },
    {
      "inputs": [],
      "name": "defaultDeadlineOffset",
      "outputs": [
        {
          "internalType": "uint256",
          "name": "",
          "type": "uint256"
        }
      ],
      "stateMutability": "view",
      "type": "function"
    },
    {
      "inputs": [
        {
          "internalType": "address",
          "name": "token",
          "type": "address"
        },
        {
          "internalType": "address",
          "name": "to",
          "type": "address"
        },
        {
          "internalType": "uint256",
          "name": "amount",
          "type": "uint256"
        }
      ],
      "name": "emergencyWithdraw",
      "outputs": [],
      "stateMutability": "nonpayable",
      "type": "function"
    },
    {
      "inputs": [],
      "name": "havenToken",
      "outputs": [
        {
          "internalType": "address",
          "name": "",
          "type": "address"
        }
      ],
      "stateMutability": "view",
      "type": "function"
    },
    {
      "inputs": [],
      "name": "maxSlippageBps",
      "outputs": [
        {
          "internalType": "uint256",
          "name": "",
          "type": "uint256"
        }
      ],
      "stateMutability": "view",
      "type": "function"
    },
    {
      "inputs": [],
      "name": "owner",
      "outputs": [
        {
          "internalType": "address",
          "name": "",
          "type": "address"
        }
      ],
      "stateMutability": "view",
      "type": "function"
    },
    {
      "inputs": [],
      "name": "pancakeRouter",
      "outputs": [
        {
          "internalType": "address",
          "name": "",
          "type": "address"
        }
      ],
      "stateMutability": "view",
      "type": "function"
    },
    {
      "inputs": [],
      "name": "paused",
      "outputs": [
        {
          "internalType": "bool",
          "name": "",
          "type": "bool"
        }
      ],
      "stateMutability": "view",
      "type": "function"
    },
    {
      "inputs": [
        {
          "internalType": "address",
          "name": "bondingCurveToken",
          "type": "address"
        },
        {
          "internalType": "uint256",
          "name": "havenAmount",
          "type": "uint256"
        }
      ],
      "name": "previewBuyBondingCurveWithHAVEN",
      "outputs": [
        {
          "internalType": "uint256",
          "name": "tokensOut",
          "type": "uint256"
        }
      ],
      "stateMutability": "view",
      "type": "function"
    },
    {
      "inputs": [
        {
          "internalType": "address",
          "name": "token",
          "type": "address"
        },
        {
          "internalType": "uint256",
          "name": "bnbAmount",
          "type": "uint256"
        }
      ],
      "name": "previewBuyGraduatedWithBNB",
      "outputs": [
        {
          "internalType": "uint256",
          "name": "tokensOut",
          "type": "uint256"
        }
      ],
      "stateMutability": "view",
      "type": "function"
    },
    {
      "inputs": [
        {
          "internalType": "address",
          "name": "token",
          "type": "address"
        },
        {
          "internalType": "uint256",
          "name": "havenAmount",
          "type": "uint256"
        }
      ],
      "name": "previewBuyGraduatedWithHAVEN",
      "outputs": [
        {
          "internalType": "uint256",
          "name": "tokensOut",
          "type": "uint256"
        }
      ],
      "stateMutability": "view",
      "type": "function"
    },
    {
      "inputs": [
        {
          "internalType": "address",
          "name": "bondingCurveToken",
          "type": "address"
        },
        {
          "internalType": "uint256",
          "name": "bnbAmount",
          "type": "uint256"
        }
      ],
      "name": "previewBuyWithBNB",
      "outputs": [
        {
          "internalType": "uint256",
          "name": "tokensOut",
          "type": "uint256"
        },
        {
          "internalType": "uint256",
          "name": "havenAmount",
          "type": "uint256"
        }
      ],
      "stateMutability": "view",
      "type": "function"
    },
    {
      "inputs": [
        {
          "internalType": "address",
          "name": "bondingCurveToken",
          "type": "address"
        },
        {
          "internalType": "uint256",
          "name": "exactTokensOut",
          "type": "uint256"
        }
      ],
      "name": "previewExactBuyWithBNB",
      "outputs": [
        {
          "internalType": "uint256",
          "name": "bnbRequired",
          "type": "uint256"
        },
        {
          "internalType": "uint256",
          "name": "havenRequired",
          "type": "uint256"
        }
      ],
      "stateMutability": "view",
      "type": "function"
    },
    {
      "inputs": [
        {
          "internalType": "address",
          "name": "bondingCurveToken",
          "type": "address"
        },
        {
          "internalType": "uint256",
          "name": "tokenAmount",
          "type": "uint256"
        }
      ],
      "name": "previewSellBondingCurveForBNB",
      "outputs": [
        {
          "internalType": "uint256",
          "name": "bnbOut",
          "type": "uint256"
        },
        {
          "internalType": "uint256",
          "name": "havenAmount",
          "type": "uint256"
        }
      ],
      "stateMutability": "view",
      "type": "function"
    },
    {
      "inputs": [
        {
          "internalType": "address",
          "name": "token",
          "type": "address"
        },
        {
          "internalType": "uint256",
          "name": "tokenAmount",
          "type": "uint256"
        }
      ],
      "name": "previewSellGraduatedForBNB",
      "outputs": [
        {
          "internalType": "uint256",
          "name": "bnbOut",
          "type": "uint256"
        }
      ],
      "stateMutability": "view",
      "type": "function"
    },
    {
      "inputs": [
        {
          "internalType": "address",
          "name": "token",
          "type": "address"
        },
        {
          "internalType": "uint256",
          "name": "tokenAmount",
          "type": "uint256"
        }
      ],
      "name": "previewSellGraduatedForHAVEN",
      "outputs": [
        {
          "internalType": "uint256",
          "name": "havenOut",
          "type": "uint256"
        }
      ],
      "stateMutability": "view",
      "type": "function"
    },
    {
      "inputs": [
        {
          "internalType": "address",
          "name": "bondingCurveToken",
          "type": "address"
        },
        {
          "internalType": "uint256",
          "name": "tokenAmount",
          "type": "uint256"
        },
        {
          "internalType": "uint256",
          "name": "minBNBOut",
          "type": "uint256"
        }
      ],
      "name": "sellBondingCurveTokenForBNB",
      "outputs": [
        {
          "internalType": "uint256",
          "name": "bnbOut",
          "type": "uint256"
        }
      ],
      "stateMutability": "nonpayable",
      "type": "function"
    },
    {
      "inputs": [
        {
          "internalType": "address",
          "name": "token",
          "type": "address"
        },
        {
          "internalType": "uint256",
          "name": "tokenAmount",
          "type": "uint256"
        },
        {
          "internalType": "uint256",
          "name": "minBNBOut",
          "type": "uint256"
        }
      ],
      "name": "sellGraduatedTokenForBNB",
      "outputs": [
        {
          "internalType": "uint256",
          "name": "bnbOut",
          "type": "uint256"
        }
      ],
      "stateMutability": "nonpayable",
      "type": "function"
    },
    {
      "inputs": [
        {
          "internalType": "address",
          "name": "token",
          "type": "address"
        },
        {
          "internalType": "uint256",
          "name": "tokenAmount",
          "type": "uint256"
        },
        {
          "internalType": "uint256",
          "name": "minHavenOut",
          "type": "uint256"
        }
      ],
      "name": "sellGraduatedTokenForHAVEN",
      "outputs": [
        {
          "internalType": "uint256",
          "name": "havenOut",
          "type": "uint256"
        }
      ],
      "stateMutability": "nonpayable",
      "type": "function"
    },
    {
      "inputs": [
        {
          "internalType": "uint256",
          "name": "_offset",
          "type": "uint256"
        }
      ],
      "name": "setDefaultDeadlineOffset",
      "outputs": [],
      "stateMutability": "nonpayable",
      "type": "function"
    },
    {
      "inputs": [
        {
          "internalType": "address",
          "name": "_havenToken",
          "type": "address"
        }
      ],
      "name": "setHavenToken",
      "outputs": [],
      "stateMutability": "nonpayable",
      "type": "function"
    },
    {
      "inputs": [
        {
          "internalType": "uint256",
          "name": "_maxSlippageBps",
          "type": "uint256"
        }
      ],
      "name": "setMaxSlippage",
      "outputs": [],
      "stateMutability": "nonpayable",
      "type": "function"
    },
    {
      "inputs": [
        {
          "internalType": "address",
          "name": "_pancakeRouter",
          "type": "address"
        }
      ],
      "name": "setPancakeRouter",
      "outputs": [],
      "stateMutability": "nonpayable",
      "type": "function"
    },
    {
      "inputs": [
        {
          "internalType": "bool",
          "name": "_paused",
          "type": "bool"
        }
      ],
      "name": "setPaused",
      "outputs": [],
      "stateMutability": "nonpayable",
      "type": "function"
    },
    {
      "inputs": [
        {
          "internalType": "address",
          "name": "_wbnb",
          "type": "address"
        }
      ],
      "name": "setWBNB",
      "outputs": [],
      "stateMutability": "nonpayable",
      "type": "function"
    },
    {
      "inputs": [
        {
          "internalType": "address",
          "name": "newOwner",
          "type": "address"
        }
      ],
      "name": "transferOwnership",
      "outputs": [],
      "stateMutability": "nonpayable",
      "type": "function"
    },
    {
      "inputs": [],
      "name": "wbnb",
      "outputs": [
        {
          "internalType": "address",
          "name": "",
          "type": "address"
        }
      ],
      "stateMutability": "view",
      "type": "function"
    },
    {
      "stateMutability": "payable",
      "type": "receive"
    }
  ],
  "bytecode": "0x608034620000ff57601f6200269138819003918201601f191683019291906001600160401b0384118385101762000104578160609284926040968752833981010312620000ff5762000051816200011a565b6200006c8362000064602085016200011a565b93016200011a565b61012c6004556113886005556001600160a01b03918216929091908315620000ee578116918215620000ee5716908115620000dd5760018060a01b03199283600054161760005582600154161760015581600254161760025533906003541617600355516125619081620001308239f35b835163e6c4247b60e01b8152600490fd5b845163e6c4247b60e01b8152600490fd5b600080fd5b634e487b7160e01b600052604160045260246000fd5b51906001600160a01b0382168203620000ff5756fe6080604081815260049081361015610022575b505050361561002057600080fd5b005b600092833560e01c90816316c38b3c1461211c575080631ce0ee5c14611fe0578063216f68b214611ec157806322e988a414611e40578063323f351714611cca578063324fc30c14611c5f5780633dc4340a14611a065780634325f299146116e657806343f68a4914611652578063584b5a38146115ad5780635af39811146115165780635c975abb146114f25780636231af9114611469578063653028e8146113db5780637bcafc82146113b25780638661a02a1461129f5780638d72647e146112765780638da5cb5b1461124d57806392212ef714610f7c578063a09f99cc14610b9d578063c21ebd0714610b75578063c4aa739514610b52578063cab27a6414610aaf578063dd0c4331146108f5578063e302b66c1461080b578063e63ea408146106aa578063e8feca301461068c578063e9ea09b3146105ba578063f2fde38b14610517578063f4c0de8c1461022e5763f8316c9003610012573461022a57602036600319011261022a5761019961216d565b6003546001600160a01b0391908216330361021c57811692831561020e57508284549280519260608452600d60608501526c3830b731b0b5b2a937baba32b960991b60808501528416602084015282015260008051602061250c83398151915260a03392a26001600160a01b03191617815580f35b825163e6c4247b60e01b8152fd5b5050516282b42960e81b8152fd5b8280fd5b5082346105145761023e36612183565b90949160ff60065416610504576001600160a01b039081169182156104f45786156104e45785516370a0823160e01b808252308683015260209890918981602481895afa9081156104ab578a9089926104b5575b5089516323b872dd60e01b81523389820190815230602082015260408101949094529192829081906060015b03818b8a5af19081156104ab57889161048e575b501561047e57875191825230868301528882602481885afa801561043057879061044a575b61030192506123ae565b91821561043a578554875163095ea7b360e01b81529082166001600160a01b03168682019081526020810185905289908290819060400103818a895af1801561043057918795949392918692610403575b5088519461035f866121d7565b6002865289368c88013761037286612231565b52806001541661038186612254565b52815416926103b0610394885442612274565b8a516338ed173960e01b815298899788968795339387016123fb565b03925af19182156103f85790816103cd936103d5575b5050612254565b519051908152f35b6103f192503d8091833e6103e9818361220f565b810190612297565b84806103c6565b8351903d90823e3d90fd5b610422908b3d8d11610429575b61041a818361220f565b810190612350565b508a610352565b503d610410565b88513d89823e3d90fd5b865163162908e360e11b81528590fd5b508882813d8311610477575b610460818361220f565b810103126104725761030191516102f7565b600080fd5b503d610456565b87516312171d8360e31b81528690fd5b6104a591508a3d8c116104295761041a818361220f565b8a6102d2565b89513d8a823e3d90fd5b809250813d83116104dd575b6104cb818361220f565b810103126104725751896102be610292565b503d6104c1565b855163162908e360e11b81528490fd5b855163e6c4247b60e01b81528490fd5b84516313d0ff5960e31b81528390fd5b80fd5b503461022a57602036600319011261022a5761053161216d565b600354916001600160a01b0380841692338490036105ab571693841561059d5750808491519260608452600560608501526437bbb732b960d91b6080850152602084015282015260008051602061250c83398151915260a03392a26001600160a01b0319161760035580f35b905163e6c4247b60e01b8152fd5b82516282b42960e81b81528690fd5b50903461022a57828260031936011261051457610645916105d961216d565b908451916105e6836121d7565b60028352853660208501376001546001600160a01b039190821661060985612231565b528161061485612254565b9116905283541690855180958194829363d06ca61f60e01b8452602435908401528860248401526044830190612313565b03915afa90811561068057906103cd918460209592610665575050612254565b61067992503d8091833e6103e9818361220f565b38806103c6565b505051903d90823e3d90fd5b50903461022a578260031936011261022a5760209250549051908152f35b503461022a57606036600319011261022a576106c461216d565b6001600160a01b03602435818116949093918585036104725760443593816003541633036107fc5786156107ec57169383908561074f57508680808093895af161070c6123bb565b501561074157507ff24ef89f38eadc1bde50701ad6e4d6d11a2dc24f7cf834a486991f3883328504916020915b51908152a380f35b90516312171d8360e31b8152fd5b835163a9059cbb60e01b81526001600160a01b039091168382019081526020818101939093529091908290819060400103818a895af19081156107e25787916107c4575b501561074157507ff24ef89f38eadc1bde50701ad6e4d6d11a2dc24f7cf834a486991f388332850491602091610739565b6107dc915060203d81116104295761041a818361220f565b38610793565b83513d89823e3d90fd5b835163e6c4247b60e01b81528390fd5b83516282b42960e81b81528390fd5b50903461022a578160031936011261022a576108a08361083561082c61216d565b6024359061244a565b92845190610842826121d7565b600282528536602084013760025485906001600160a01b0390811661086685612231565b52806001541661087585612254565b52845416918751958694859384936307c0329d60e21b85528401528960248401526044830190612313565b03915afa9081156108e857846108bf939495926108cd575b5050612231565b519082519182526020820152f35b6108e192503d8091833e6103e9818361220f565b38806108b8565b50505051903d90823e3d90fd5b5082346105145761090536612183565b9060ff60069693965416610504576001600160a01b039586169182156104f45781156104e45785516323b872dd60e01b815233858201908152306020828101919091526040820185905298919089908290819060600103818a895af1908115610430578791610a92575b5015610a82578554875163095ea7b360e01b81529082166001600160a01b03168682019081526020810185905289908290819060400103818a895af1801561043057918795949392918692610a65575b508851946109cc866121f3565b600386526060368c8801376109e086612231565b5280600154166109ef86612254565b5280600254166109fe86612264565b5281541692610a2d610a11885442612274565b8a516318cbafe560e01b815298899788968795339387016123fb565b03925af19182156103f85790816103cd93610a4a575b5050612264565b610a5e92503d8091833e6103e9818361220f565b8480610a43565b610a7b908b3d8d116104295761041a818361220f565b508a6109bf565b86516312171d8360e31b81528590fd5b610aa99150893d8b116104295761041a818361220f565b8961096f565b50903461022a57602036600319011261022a57610aca61216d565b6003546001600160a01b0392919083163303610b44578216928315610b3757839060025493815193606085526060850152633bb1373160e11b60808501528416602084015282015260008051602061250c83398151915260a03392a26001600160a01b0319161760025580f35b5163e6c4247b60e01b8152fd5b5082516282b42960e81b8152fd5b838234610b715781600319360112610b71576020906005549051908152f35b5080fd5b838234610b715781600319360112610b7157905490516001600160a01b039091168152602090f35b5091610ba836612183565b919060ff60065416610f6c576001600160a01b0394828616928315610f5d573415610f4e578215610f4e57610bdd838261244a565b96885195610bea876121d7565b600287526020968a36898301378260025416610c0582612231565b528260015416610c1482612254565b5282895416918b516307c0329d60e21b81528b878201528c60248201528a8180610c416044820187612313565b0381875afa908115610f4457610c72610c6a610c799493612710938f8092610f29575050612231565b519283612368565b0490612274565b998a3410610f19578b928a928c8893610cb2610c96865442612274565b9751637ff36ab560e01b8152978896879586943092860161237b565b03925af1908115610f0f5791610cd48892610d0d948b91610ef5575b50612254565b5193849160015416908a8d5180968195829463095ea7b360e01b84528b840160209093929193604081019460018060a01b031681520152565b03925af18015610eeb57610ece575b50833b15610eca57875190631adfd7bd60e31b825282820152826024820152858160448183885af18015610e6957908691610eb2575b505086516370a0823160e01b815230828201528481602481875afa908115610e69579083918791610e81575b5010610e7357865163a9059cbb60e01b81523382820190815260208101849052859082908190604001038189885af1908115610e69578691610e4c575b5015610e3e57610dcb86346123ae565b9485610e23575b50507f1504c5c62e4f504e54290d01e06ac42130fff4d2712e5971c0ee4f42388c6bd5865180610e1633948834846040919493926060820195825260208201520152565b0390a38351928352820152f35b80808088335af1610e326123bb565b5015610e3e5780610dd2565b86516312171d8360e31b8152fd5b610e639150853d87116104295761041a818361220f565b38610dbb565b88513d88823e3d90fd5b865163bb2875c360e01b8152fd5b809250868092503d8311610eab575b610e9a818361220f565b810103126104725782905138610d7e565b503d610e90565b610ebb906121ad565b610ec6578438610d52565b8480fd5b8580fd5b610ee490863d88116104295761041a818361220f565b5038610d1c565b89513d89823e3d90fd5b610f0991503d808d833e6103e9818361220f565b38610cce565b8a513d8a823e3d90fd5b8b5163bb2875c360e01b81528690fd5b610f3d92503d8091833e6103e9818361220f565b388f6108b8565b8d513d8d823e3d90fd5b50865163162908e360e11b8152fd5b50865163e6c4247b60e01b8152fd5b85516313d0ff5960e31b81528590fd5b503461022a57610f8b36612183565b939160ff6006969296541661123d576001600160a01b03908116801561122d57861561121d5784516323b872dd60e01b81523385820190815230602082810191909152604082018a9052989190899082908190606001038188875af19081156112135785916111f6575b50156111e657813b156111e2578391604483928851948593849263d79875eb60e01b84528a8401528160248401525af180156111d8579083916111c4575b505060015484516370a0823160e01b815230858201529082168782602481845afa91821561117b578492611195575b508115611185578354865163095ea7b360e01b81529084166001600160a01b0316868201908152602081018490529091899183919082908890829060400103925af1801561117b5791859391859361115e575b5087838851936110c4856121d7565b6002855289368d87013780600154166110dc86612231565b5280600254166110eb86612254565b528154169261111a6110fe885442612274565b8b516318cbafe560e01b815298899788968795339387016123fb565b03925af191821561115357908161113693610665575050612254565b51928310611145575051908152f35b9051638199f5f360e01b8152fd5b8451903d90823e3d90fd5b611174908a3d8c116104295761041a818361220f565b50386110b5565b86513d86823e3d90fd5b855163bb2875c360e01b81528590fd5b9091508781813d83116111bd575b6111ad818361220f565b8101031261047257519038611062565b503d6111a3565b6111cd906121ad565b610b71578138611033565b85513d85823e3d90fd5b8380fd5b85516312171d8360e31b81528590fd5b61120d9150893d8b116104295761041a818361220f565b38610ff5565b87513d87823e3d90fd5b845163162908e360e11b81528490fd5b845163e6c4247b60e01b81528490fd5b83516313d0ff5960e31b81528390fd5b838234610b715781600319360112610b715760035490516001600160a01b039091168152602090f35b838234610b715781600319360112610b715760025490516001600160a01b039091168152602090f35b50903461022a578160031936011261022a576112b961216d565b825163fb3dd95f60e01b81526024803584830152909185916001600160a01b039186918591829085165afa9283156113a8578293611376575b50829361135893865192611305846121d7565b6002845287366020860137806001541661131e85612231565b52806002541661132d85612254565b528454169187519586948593849363d06ca61f60e01b85528401528960248401526044830190612313565b03915afa9081156108e857846108bf93949592610665575050612254565b611358935061139a90863d88116113a1575b611392818361220f565b810190612434565b50926112f2565b503d611388565b85513d84823e3d90fd5b838234610b715781600319360112610b715760015490516001600160a01b039091168152602090f35b503461022a57602036600319011261022a576113f561216d565b6003546001600160a01b0391908216330361021c57811692831561020e5750826001549280519260608452600a6060850152693430bb32b72a37b5b2b760b11b60808501528416602084015282015260008051602061250c83398151915260a03392a26001600160a01b0319161760015580f35b50903461022a578282600319360112610514576106459161148861216d565b90845191611495836121d7565b60028352853660208501376114a983612231565b6001600160a01b03918216905260015481166114c484612254565b5283541690855180958194829363d06ca61f60e01b8452602435908401528860248401526044830190612313565b838234610b715781600319360112610b715760209060ff6006541690519015158152f35b50903461022a57602036600319011261022a57600354813592906001600160a01b031633036115a15782825491805192606084526015606085015274191959985d5b1d111958591b1a5b9953d9999cd95d605a1b608085015260208401528201527fc8004015853107e4cb5efa9fdfc530f3530f5f5d8a833a9d67e2efe39717d7f660a03392a25580f35b516282b42960e81b8152fd5b50903461022a57828260031936011261051457611617916115cc61216d565b908451916115d9836121f3565b6003835260603660208501376002546001600160a01b03919082166115fd85612231565b52816001541661160c85612254565b528161061485612264565b03915afa90811561068057906103cd918460209592611637575050612264565b61164b92503d8091833e6103e9818361220f565b3880610a43565b503461022a57602036600319011261022a57600354823592906001600160a01b031633036116d95750816005549180519260608452600e60608501526d6d6178536c69707061676542707360901b608085015260208401528201527fc8004015853107e4cb5efa9fdfc530f3530f5f5d8a833a9d67e2efe39717d7f660a03392a260055580f35b90516282b42960e81b8152fd5b508060031936011261022a576116fa61216d565b926024359260ff600654166119f8576001600160a01b038581169290919083156119e95734156119da57845196611730886121d7565b6002885260209786368a830137846002541661174b82612231565b52846001541661175a82612254565b52826117978682541661176e875442612274565b938a51809581948293637ff36ab560e01b8452878c850152608060248501526084840190612313565b903060448401526064830152039134905af19081156119d057906117c19184916119bc5750612254565b519384156119ac57600154875163095ea7b360e01b81526001600160a01b03909316858401908152602081018790528a928492169082908690829060400103925af180156119715761198f575b50833b15610514578451631adfd7bd60e31b81528383820152866024820152818160448183895af180156119715790829161197b575b505084516370a0823160e01b81523083820152958787602481885afa968715611971578297611942575b50861061193357845163a9059cbb60e01b81523383820190815260208101889052889082908190604001038185895af1918215611928579161190b575b50156118fd57507f77eb323217a4770c84b5f7f4076d557a6d1166bf8c746483d2a981d9c678e54d8351806118f487339534846040919493926060820195825260208201520152565b0390a351908152f35b83516312171d8360e31b8152fd5b6119229150873d89116104295761041a818361220f565b386118ab565b8651903d90823e3d90fd5b508351638199f5f360e01b8152fd5b9096508781813d831161196a575b61195a818361220f565b810103126104725751953861186e565b503d611950565b86513d84823e3d90fd5b611984906121ad565b610514578038611844565b6119a590883d8a116104295761041a818361220f565b503861180e565b865163bb2875c360e01b81528490fd5b610f0991503d8086833e6103e9818361220f565b87513d85823e3d90fd5b50835163162908e360e11b8152fd5b50835163e6c4247b60e01b8152fd5b82516313d0ff5960e31b8152fd5b50919034610b7157611a1736612183565b9491939060ff60065416611c50576001600160a01b0395858716958615611c40578215611c305760015485516323b872dd60e01b81523388820190815230602082810191909152604082018790529a928b91839185169082908a90829060600103925af18015611c2657928a928692611ac695611c09575b506001541690878a8a519687958694859363095ea7b360e01b8552840160209093929193604081019460018060a01b031681520152565b03925af18015611bff57611be2575b50853b1561022a57835191631adfd7bd60e31b8352858301526024820152818160448183895af18015611bc957611bd3575b5081516370a0823160e01b81523084820152928584602481885afa938415611bc9579086918395611b94575b50835163a9059cbb60e01b81523391810191825260208201869052949593949384918290859082906040015b03925af19081156103f85750611b77575b5051908152f35b611b8d90843d86116104295761041a818361220f565b5038611b70565b828193929596503d8311611bc2575b611bad818361220f565b81010312610472575192918590611b5f611b33565b503d611ba3565b83513d84823e3d90fd5b611bdc906121ad565b38611b07565b611bf890883d8a116104295761041a818361220f565b5038611ad5565b85513d86823e3d90fd5b611c1f90853d87116104295761041a818361220f565b5038611a8f565b87513d88823e3d90fd5b845163162908e360e11b81528690fd5b845163e6c4247b60e01b81528690fd5b5050516313d0ff5960e31b8152fd5b50903461022a5782826003193601126105145761161791611c7e61216d565b90845191611c8b836121f3565b600383526060366020850137611ca083612231565b6001600160a01b0391821690526001548116611cbb84612254565b5280600254166114c484612264565b50808391600319360112610b7157611ce061216d565b60ff60065416611e30576001600160a01b03908116908115611e20573415611e105792611d7a938195845191611d15836121f3565b6003835260603660208501378060025416611d2f84612231565b528060015416611d3e84612254565b5284611d4984612264565b5283541690611d59815442612274565b8651637ff36ab560e01b81529788948593849391339160243590860161237b565b039134905af1928315611e06578460209594611de9575b5050611da6611d9f84612264565b5193612254565b517f77eb323217a4770c84b5f7f4076d557a6d1166bf8c746483d2a981d9c678e54d8351806118f487339534846040919493926060820195825260208201520152565b611dfe9294503d8091833e6103e9818361220f565b918480611d91565b82513d86823e3d90fd5b825163162908e360e11b81528590fd5b825163e6c4247b60e01b81528590fd5b81516313d0ff5960e31b81528490fd5b503461022a578060031936011261022a5780611e5a61216d565b8151634815327960e01b8152602480359582019590955293849182906001600160a01b03165afa918215611eb75760209392611e97575051908152f35b81611eaf9293503d84116113a157611392818361220f565b509038611b70565b81513d85823e3d90fd5b50919034610b715782600319360112610b7157611edc61216d565b8351611ee7816121d7565b60028152843660208301376002546001600160a01b0391611f4c918691908416611f1082612231565b528360015416611f1f82612254565b52838254168851808095819463d06ca61f60e01b83526024358b8401528c60248401526044830190612313565b03915afa908115611fd657611f6c8793926024928891611fc25750612254565b518351634815327960e01b8152958601819052949384928391165afa9283156111535792611fa2575b5082519182526020820152f35b611fba919250833d85116113a157611392818361220f565b509038611f95565b610f0991503d808a833e6103e9818361220f565b86513d87823e3d90fd5b50823461051457611ff036612183565b9060ff60069693965416610504576001600160a01b039586169182156104f45781156104e45760015486516323b872dd60e01b815233868201908152306020828101919091526040820186905299928a91839185169082908b90829060600103925af18015610430576120ff575b506001548654885163095ea7b360e01b81529083166001600160a01b03168782019081526020810186905290918a91839185169082908b90829060400103925af18015610430579187959493929186926120e2575b508851946120c0866121d7565b6002865289368c88013781600154166120d887612231565b5261038186612254565b6120f8908b3d8d116104295761041a818361220f565b508a6120b3565b61211590893d8b116104295761041a818361220f565b508861205e565b8490843461022a57602036600319011261022a578035918215158093036111e2576003546001600160a01b0316330361216257505060ff80196006541691161760065580f35b6282b42960e81b8152fd5b600435906001600160a01b038216820361047257565b6060906003190112610472576004356001600160a01b038116810361047257906024359060443590565b67ffffffffffffffff81116121c157604052565b634e487b7160e01b600052604160045260246000fd5b6060810190811067ffffffffffffffff8211176121c157604052565b6080810190811067ffffffffffffffff8211176121c157604052565b90601f8019910116810190811067ffffffffffffffff8211176121c157604052565b80511561223e5760200190565b634e487b7160e01b600052603260045260246000fd5b80516001101561223e5760400190565b80516002101561223e5760600190565b9190820180921161228157565b634e487b7160e01b600052601160045260246000fd5b90602090818382031261047257825167ffffffffffffffff93848211610472570181601f820112156104725780519384116121c1578360051b90604051946122e18584018761220f565b85528380860192820101928311610472578301905b828210612304575050505090565b815181529083019083016122f6565b90815180825260208080930193019160005b828110612333575050505090565b83516001600160a01b031685529381019392810192600101612325565b90816020910312610472575180151581036104725790565b8181029291811591840414171561228157565b9060609261239a91969594968352608060208401526080830190612313565b6001600160a01b0390951660408201520152565b9190820391821161228157565b3d156123f6573d9067ffffffffffffffff82116121c157604051916123ea601f8201601f19166020018461220f565b82523d6000602084013e565b606090565b919260809361242092979695978452602084015260a0604084015260a0830190612313565b6001600160a01b0390951660608201520152565b9190826040910312610472576020825192015190565b60408051634815327960e01b81526004810184905291839190839060249082906001600160a01b03165afa9182156124ff576000926124de575b5080821061249157505090565b61249d91925080612368565b81156124c8570460c881029080820460c81481151715612281576127106124c5920490612274565b90565b634e487b7160e01b600052601260045260246000fd5b6124f791925060403d81116113a157611392818361220f565b509038612484565b6040513d6000823e3d90fdfe44573a89df583c0b1e16e6c22d41b4e39de1ca341d0a234b7117ccc2bf727dc4a264697066735822122096aa5cc43f4ae62980f0c5c1a5a3a31ef4a616c4172702692a35bbf83f6f0f1364736f6c63430008140033",
  "linkReferences": {},
  "deployedLinkReferences": {}
}