{
  "_format": "hh-sol-artifact-1",
  "contractName": "HavenRouterV2",
  "sourceName": "contracts/HavenRouterV2.sol",
  "abi": [
    {
      "inputs": [
        {
          "internalType": "address",
          "name": "_pancakeRouter",
          "type": "address"
        },
        {
          "internalType": "address",
          "name": "_havenToken",
          "type": "address"
        },
        {
          "internalType": "address",
          "name": "_wbnb",
          "type": "address"
        }
      ],
      "stateMutability": "nonpayable",
      "type": "constructor"
    },
    {
      "inputs": [],
      "name": "ApproveFailed",
      "type": "error"
    },
    {
      "inputs": [],
      "name": "InsufficientOutput",
      "type": "error"
    },
    {
      "inputs": [],
      "name": "InvalidAddress",
      "type": "error"
    },
    {
      "inputs": [],
      "name": "InvalidAmount",
      "type": "error"
    },
    {
      "inputs": [],
      "name": "InvalidSlippage",
      "type": "error"
    },
    {
      "inputs": [],
      "name": "Paused",
      "type": "error"
    },
    {
      "inputs": [],
      "name": "SlippageExceeded",
      "type": "error"
    },
    {
      "inputs": [],
      "name": "TransferFailed",
      "type": "error"
    },
    {
      "inputs": [],
      "name": "Unauthorized",
      "type": "error"
    },
    {
      "anonymous": false,
      "inputs": [
        {
          "indexed": true,
          "internalType": "address",
          "name": "updater",
          "type": "address"
        },
        {
          "indexed": false,
          "internalType": "string",
          "name": "parameter",
          "type": "string"
        },
        {
          "indexed": false,
          "internalType": "address",
          "name": "oldAddress",
          "type": "address"
        },
        {
          "indexed": false,
          "internalType": "address",
          "name": "newAddress",
          "type": "address"
        }
      ],
      "name": "AddressUpdated",
      "type": "event"
    },
    {
      "anonymous": false,
      "inputs": [
        {
          "indexed": true,
          "internalType": "address",
          "name": "user",
          "type": "address"
        },
        {
          "indexed": false,
          "internalType": "uint256",
          "name": "tradesCount",
          "type": "uint256"
        }
      ],
      "name": "BatchTradeExecuted",
      "type": "event"
    },
    {
      "anonymous": false,
      "inputs": [
        {
          "indexed": true,
          "internalType": "address",
          "name": "user",
          "type": "address"
        },
        {
          "indexed": true,
          "internalType": "address",
          "name": "token",
          "type": "address"
        },
        {
          "indexed": false,
          "internalType": "uint256",
          "name": "inputAmount",
          "type": "uint256"
        },
        {
          "indexed": false,
          "internalType": "uint256",
          "name": "tokensOut",
          "type": "uint256"
        },
        {
          "indexed": false,
          "internalType": "string",
          "name": "inputCurrency",
          "type": "string"
        }
      ],
      "name": "BuyExecuted",
      "type": "event"
    },
    {
      "anonymous": false,
      "inputs": [
        {
          "indexed": true,
          "internalType": "address",
          "name": "updater",
          "type": "address"
        },
        {
          "indexed": false,
          "internalType": "string",
          "name": "parameter",
          "type": "string"
        },
        {
          "indexed": false,
          "internalType": "uint256",
          "name": "oldValue",
          "type": "uint256"
        },
        {
          "indexed": false,
          "internalType": "uint256",
          "name": "newValue",
          "type": "uint256"
        }
      ],
      "name": "ConfigUpdated",
      "type": "event"
    },
    {
      "anonymous": false,
      "inputs": [
        {
          "indexed": true,
          "internalType": "address",
          "name": "token",
          "type": "address"
        },
        {
          "indexed": true,
          "internalType": "address",
          "name": "to",
          "type": "address"
        },
        {
          "indexed": false,
          "internalType": "uint256",
          "name": "amount",
          "type": "uint256"
        }
      ],
      "name": "EmergencyWithdraw",
      "type": "event"
    },
    {
      "anonymous": false,
      "inputs": [
        {
          "indexed": true,
          "internalType": "address",
          "name": "user",
          "type": "address"
        },
        {
          "indexed": true,
          "internalType": "address",
          "name": "token",
          "type": "address"
        },
        {
          "indexed": false,
          "internalType": "uint256",
          "name": "tokensIn",
          "type": "uint256"
        },
        {
          "indexed": false,
          "internalType": "uint256",
          "name": "outputAmount",
          "type": "uint256"
        },
        {
          "indexed": false,
          "internalType": "string",
          "name": "outputCurrency",
          "type": "string"
        }
      ],
      "name": "SellExecuted",
      "type": "event"
    },
    {
      "inputs": [
        {
          "internalType": "address",
          "name": "bondingCurveToken",
          "type": "address"
        },
        {
          "internalType": "uint256",
          "name": "minTokensOut",
          "type": "uint256"
        }
      ],
      "name": "batchBuyBondingCurveWithBNB",
      "outputs": [
        {
          "internalType": "uint256",
          "name": "tokensOut",
          "type": "uint256"
        }
      ],
      "stateMutability": "payable",
      "type": "function"
    },
    {
      "inputs": [
        {
          "internalType": "address",
          "name": "bondingCurveToken",
          "type": "address"
        },
        {
          "internalType": "uint256",
          "name": "havenAmount",
          "type": "uint256"
        },
        {
          "internalType": "uint256",
          "name": "minTokensOut",
          "type": "uint256"
        }
      ],
      "name": "batchBuyBondingCurveWithHAVEN",
      "outputs": [
        {
          "internalType": "uint256",
          "name": "tokensOut",
          "type": "uint256"
        }
      ],
      "stateMutability": "nonpayable",
      "type": "function"
    },
    {
      "inputs": [
        {
          "internalType": "address",
          "name": "token",
          "type": "address"
        },
        {
          "internalType": "uint256",
          "name": "minTokensOut",
          "type": "uint256"
        }
      ],
      "name": "batchBuyGraduatedWithBNB",
      "outputs": [
        {
          "internalType": "uint256",
          "name": "tokensOut",
          "type": "uint256"
        }
      ],
      "stateMutability": "payable",
      "type": "function"
    },
    {
      "inputs": [
        {
          "internalType": "address",
          "name": "token",
          "type": "address"
        },
        {
          "internalType": "uint256",
          "name": "havenAmount",
          "type": "uint256"
        },
        {
          "internalType": "uint256",
          "name": "minTokensOut",
          "type": "uint256"
        }
      ],
      "name": "batchBuyGraduatedWithHAVEN",
      "outputs": [
        {
          "internalType": "uint256",
          "name": "tokensOut",
          "type": "uint256"
        }
      ],
      "stateMutability": "nonpayable",
      "type": "function"
    },
    {
      "inputs": [
        {
          "internalType": "address",
          "name": "bondingCurveToken",
          "type": "address"
        },
        {
          "internalType": "uint256",
          "name": "tokenAmount",
          "type": "uint256"
        },
        {
          "internalType": "uint256",
          "name": "minBNBOut",
          "type": "uint256"
        }
      ],
      "name": "batchSellBondingCurveForBNB",
      "outputs": [
        {
          "internalType": "uint256",
          "name": "bnbOut",
          "type": "uint256"
        }
      ],
      "stateMutability": "nonpayable",
      "type": "function"
    },
    {
      "inputs": [
        {
          "internalType": "address",
          "name": "bondingCurveToken",
          "type": "address"
        },
        {
          "internalType": "uint256",
          "name": "tokenAmount",
          "type": "uint256"
        },
        {
          "internalType": "uint256",
          "name": "minHavenOut",
          "type": "uint256"
        }
      ],
      "name": "batchSellBondingCurveForHAVEN",
      "outputs": [
        {
          "internalType": "uint256",
          "name": "havenOut",
          "type": "uint256"
        }
      ],
      "stateMutability": "nonpayable",
      "type": "function"
    },
    {
      "inputs": [
        {
          "internalType": "address",
          "name": "token",
          "type": "address"
        },
        {
          "internalType": "uint256",
          "name": "tokenAmount",
          "type": "uint256"
        },
        {
          "internalType": "uint256",
          "name": "minBNBOut",
          "type": "uint256"
        }
      ],
      "name": "batchSellGraduatedForBNB",
      "outputs": [
        {
          "internalType": "uint256",
          "name": "bnbOut",
          "type": "uint256"
        }
      ],
      "stateMutability": "nonpayable",
      "type": "function"
    },
    {
      "inputs": [
        {
          "internalType": "address",
          "name": "token",
          "type": "address"
        },
        {
          "internalType": "uint256",
          "name": "tokenAmount",
          "type": "uint256"
        },
        {
          "internalType": "uint256",
          "name": "minHavenOut",
          "type": "uint256"
        }
      ],
      "name": "batchSellGraduatedForHAVEN",
      "outputs": [
        {
          "internalType": "uint256",
          "name": "havenOut",
          "type": "uint256"
        }
      ],
      "stateMutability": "nonpayable",
      "type": "function"
    },
    {
      "inputs": [],
      "name": "defaultDeadlineOffset",
      "outputs": [
        {
          "internalType": "uint256",
          "name": "",
          "type": "uint256"
        }
      ],
      "stateMutability": "view",
      "type": "function"
    },
    {
      "inputs": [
        {
          "internalType": "address",
          "name": "token",
          "type": "address"
        },
        {
          "internalType": "address",
          "name": "to",
          "type": "address"
        },
        {
          "internalType": "uint256",
          "name": "amount",
          "type": "uint256"
        }
      ],
      "name": "emergencyWithdraw",
      "outputs": [],
      "stateMutability": "nonpayable",
      "type": "function"
    },
    {
      "inputs": [],
      "name": "havenToken",
      "outputs": [
        {
          "internalType": "address",
          "name": "",
          "type": "address"
        }
      ],
      "stateMutability": "view",
      "type": "function"
    },
    {
      "inputs": [],
      "name": "maxSlippageBps",
      "outputs": [
        {
          "internalType": "uint256",
          "name": "",
          "type": "uint256"
        }
      ],
      "stateMutability": "view",
      "type": "function"
    },
    {
      "inputs": [],
      "name": "owner",
      "outputs": [
        {
          "internalType": "address",
          "name": "",
          "type": "address"
        }
      ],
      "stateMutability": "view",
      "type": "function"
    },
    {
      "inputs": [],
      "name": "pancakeRouter",
      "outputs": [
        {
          "internalType": "address",
          "name": "",
          "type": "address"
        }
      ],
      "stateMutability": "view",
      "type": "function"
    },
    {
      "inputs": [],
      "name": "paused",
      "outputs": [
        {
          "internalType": "bool",
          "name": "",
          "type": "bool"
        }
      ],
      "stateMutability": "view",
      "type": "function"
    },
    {
      "inputs": [
        {
          "internalType": "address",
          "name": "bondingCurveToken",
          "type": "address"
        },
        {
          "internalType": "uint256",
          "name": "bnbAmount",
          "type": "uint256"
        }
      ],
      "name": "previewBuyBondingCurveWithBNB",
      "outputs": [
        {
          "internalType": "uint256",
          "name": "tokensOut",
          "type": "uint256"
        },
        {
          "internalType": "uint256",
          "name": "havenAmount",
          "type": "uint256"
        }
      ],
      "stateMutability": "view",
      "type": "function"
    },
    {
      "inputs": [
        {
          "internalType": "address",
          "name": "bondingCurveToken",
          "type": "address"
        },
        {
          "internalType": "uint256",
          "name": "havenAmount",
          "type": "uint256"
        }
      ],
      "name": "previewBuyBondingCurveWithHAVEN",
      "outputs": [
        {
          "internalType": "uint256",
          "name": "tokensOut",
          "type": "uint256"
        }
      ],
      "stateMutability": "view",
      "type": "function"
    },
    {
      "inputs": [
        {
          "internalType": "address",
          "name": "token",
          "type": "address"
        },
        {
          "internalType": "uint256",
          "name": "bnbAmount",
          "type": "uint256"
        }
      ],
      "name": "previewBuyGraduatedWithBNB",
      "outputs": [
        {
          "internalType": "uint256",
          "name": "tokensOut",
          "type": "uint256"
        }
      ],
      "stateMutability": "view",
      "type": "function"
    },
    {
      "inputs": [
        {
          "internalType": "address",
          "name": "token",
          "type": "address"
        },
        {
          "internalType": "uint256",
          "name": "havenAmount",
          "type": "uint256"
        }
      ],
      "name": "previewBuyGraduatedWithHAVEN",
      "outputs": [
        {
          "internalType": "uint256",
          "name": "tokensOut",
          "type": "uint256"
        }
      ],
      "stateMutability": "view",
      "type": "function"
    },
    {
      "inputs": [
        {
          "internalType": "address",
          "name": "bondingCurveToken",
          "type": "address"
        },
        {
          "internalType": "uint256",
          "name": "tokenAmount",
          "type": "uint256"
        }
      ],
      "name": "previewSellBondingCurveForBNB",
      "outputs": [
        {
          "internalType": "uint256",
          "name": "bnbOut",
          "type": "uint256"
        },
        {
          "internalType": "uint256",
          "name": "havenAmount",
          "type": "uint256"
        }
      ],
      "stateMutability": "view",
      "type": "function"
    },
    {
      "inputs": [
        {
          "internalType": "address",
          "name": "bondingCurveToken",
          "type": "address"
        },
        {
          "internalType": "uint256",
          "name": "tokenAmount",
          "type": "uint256"
        }
      ],
      "name": "previewSellBondingCurveForHAVEN",
      "outputs": [
        {
          "internalType": "uint256",
          "name": "havenOut",
          "type": "uint256"
        }
      ],
      "stateMutability": "view",
      "type": "function"
    },
    {
      "inputs": [
        {
          "internalType": "address",
          "name": "token",
          "type": "address"
        },
        {
          "internalType": "uint256",
          "name": "tokenAmount",
          "type": "uint256"
        }
      ],
      "name": "previewSellGraduatedForBNB",
      "outputs": [
        {
          "internalType": "uint256",
          "name": "bnbOut",
          "type": "uint256"
        }
      ],
      "stateMutability": "view",
      "type": "function"
    },
    {
      "inputs": [
        {
          "internalType": "address",
          "name": "token",
          "type": "address"
        },
        {
          "internalType": "uint256",
          "name": "tokenAmount",
          "type": "uint256"
        }
      ],
      "name": "previewSellGraduatedForHAVEN",
      "outputs": [
        {
          "internalType": "uint256",
          "name": "havenOut",
          "type": "uint256"
        }
      ],
      "stateMutability": "view",
      "type": "function"
    },
    {
      "inputs": [
        {
          "internalType": "uint256",
          "name": "_offset",
          "type": "uint256"
        }
      ],
      "name": "setDefaultDeadlineOffset",
      "outputs": [],
      "stateMutability": "nonpayable",
      "type": "function"
    },
    {
      "inputs": [
        {
          "internalType": "address",
          "name": "_havenToken",
          "type": "address"
        }
      ],
      "name": "setHavenToken",
      "outputs": [],
      "stateMutability": "nonpayable",
      "type": "function"
    },
    {
      "inputs": [
        {
          "internalType": "uint256",
          "name": "_maxSlippageBps",
          "type": "uint256"
        }
      ],
      "name": "setMaxSlippage",
      "outputs": [],
      "stateMutability": "nonpayable",
      "type": "function"
    },
    {
      "inputs": [
        {
          "internalType": "address",
          "name": "_pancakeRouter",
          "type": "address"
        }
      ],
      "name": "setPancakeRouter",
      "outputs": [],
      "stateMutability": "nonpayable",
      "type": "function"
    },
    {
      "inputs": [
        {
          "internalType": "bool",
          "name": "_paused",
          "type": "bool"
        }
      ],
      "name": "setPaused",
      "outputs": [],
      "stateMutability": "nonpayable",
      "type": "function"
    },
    {
      "inputs": [
        {
          "internalType": "address",
          "name": "_wbnb",
          "type": "address"
        }
      ],
      "name": "setWBNB",
      "outputs": [],
      "stateMutability": "nonpayable",
      "type": "function"
    },
    {
      "inputs": [
        {
          "internalType": "address",
          "name": "newOwner",
          "type": "address"
        }
      ],
      "name": "transferOwnership",
      "outputs": [],
      "stateMutability": "nonpayable",
      "type": "function"
    },
    {
      "inputs": [],
      "name": "wbnb",
      "outputs": [
        {
          "internalType": "address",
          "name": "",
          "type": "address"
        }
      ],
      "stateMutability": "view",
      "type": "function"
    },
    {
      "stateMutability": "payable",
      "type": "receive"
    }
  ],
  "bytecode": "0x608034620000ff57601f620025dd38819003918201601f191683019291906001600160401b0384118385101762000104578160609284926040968752833981010312620000ff5762000051816200011a565b6200006c8362000064602085016200011a565b93016200011a565b61012c6004556113886005556001600160a01b03918216929091908315620000ee578116918215620000ee5716908115620000dd5760018060a01b03199283600054161760005582600154161760015581600254161760025533906003541617600355516124ad9081620001308239f35b835163e6c4247b60e01b8152600490fd5b845163e6c4247b60e01b8152600490fd5b600080fd5b634e487b7160e01b600052604160045260246000fd5b51906001600160a01b0382168203620000ff5756fe608060409080825260049182361015610023575b505050361561002157600080fd5b005b600091823560e01c90816316c38b3c146120425750806317421db414611f2457806322e988a414611ecb57806329fe726914611cd2578063324fc30c14611c675780633e598cb914611a1657806343f68a4914611980578063584b5a38146118da5780635af39811146118435780635c975abb146118205780636231af911461179757806364f5113d14611713578063653028e814611683578063781380c0146113995780637bcafc82146113715780638661a02a1461124d5780638d72647e146112255780638da5cb5b146111fd578063b1998e1014610fe7578063c21ebd0714610fc0578063c4aa739514610fa2578063cab27a6414610eff578063ccb6303e14610cb8578063e63ea40814610b0f578063e8feca3014610af1578063e9ea09b314610a0e578063eeb34627146107b4578063f018ad9a14610593578063f2fde38b146104ee578063f8316c901461043d5763fa7c313f0361001357346104395761018f366120a9565b93919460ff6006541661042b576001600160a01b0386811693841561041b57831561040b5785516370a0823160e01b8082523085830152602099918a816024818b5afa90811561039d5784916103de575b5088516323b872dd60e01b815233878201908152306020820152604081018990528c90829081906060010381888d5af180156103d4576103a7575b50885191825230868301528a826024818b5afa801561039d578490610369575b610245925061224b565b908115610359578161025b918585541690612284565b86519061026782612119565b600382526060368b8401378661027c8361216f565b52836001541661028b83612192565b52836002541661029a836121a2565b52333193835416906102ad8654426121b2565b823b1561035557918a858895936102db82968e519889978896879563791ac94760e01b875233938701612212565b03925af1801561034b57610334575b50506102f790333161224b565b948510610326575060008051602061245883398151915283518061031d8733958361235b565b0390a351908152f35b8351638199f5f360e01b8152fd5b61033e82916120d3565b61034857806102ea565b80fd5b87513d84823e3d90fd5b8480fd5b875163162908e360e11b81528590fd5b508a82813d8311610396575b61037f8183612135565b8101031261039157610245915161023b565b600080fd5b503d610375565b89513d86823e3d90fd5b6103c6908c8d3d106103cd575b6103be8183612135565b810190612157565b503861021b565b503d6103b4565b8a513d87823e3d90fd5b90508a81813d8311610404575b6103f58183612135565b810103126103915751386101e0565b503d6103eb565b855163162908e360e11b81528390fd5b855163e6c4247b60e01b81528390fd5b83516313d0ff5960e31b8152fd5b5080fd5b508290346104ea5760203660031901126104ea57610459612093565b6003546001600160a01b039190821633036104dc5781169283156104ce57508284549280519260608452600d60608501526c3830b731b0b5b2a937baba32b960991b60808501528416602084015282015260008051602061243883398151915260a03392a26001600160a01b03191617815580f35b825163e6c4247b60e01b8152fd5b5050516282b42960e81b8152fd5b8280fd5b508290346104ea5760203660031901126104ea5761050a612093565b600354916001600160a01b03808416923384900361058457169384156105765750808491519260608452600560608501526437bbb732b960d91b6080850152602084015282015260008051602061243883398151915260a03392a26001600160a01b0319161760035580f35b905163e6c4247b60e01b8152fd5b82516282b42960e81b81528690fd5b508290346104ea5781926105a6366120a9565b60ff60069492939454166107a4576001600160a01b03848116949085156107945784156107845760015487516323b872dd60e01b8152339a81019a8b523060208c81019190915260408c018890529a90918b91839185169082908990829060600103925af1801561077a57916106289391879361075d575b5060015416612284565b833b1561043957845190631adfd7bd60e31b825283878301526024820152818160448183885af1801561073f57908291610749575b505083516370a0823160e01b81523086820152948686602481875afa95861561073f57908791839761070a575b50855163a9059cbb60e01b81523391810191825260208201889052929190839081906040015b038184885af19081156106ff57506106e2575b5060008051602061241883398151915283518061031d87339583612258565b6106f890863d88116103cd576103be8183612135565b50856106c3565b8551903d90823e3d90fd5b828194939298503d8311610738575b6107238183612135565b810103126103915790519486906106b061068a565b503d610719565b85513d84823e3d90fd5b610752906120d3565b61034857808761065d565b610773908c8d3d106103cd576103be8183612135565b508b61061e565b88513d87823e3d90fd5b865163162908e360e11b81528890fd5b865163e6c4247b60e01b81528890fd5b84516313d0ff5960e31b81528690fd5b508290346104ea576107c5366120a9565b9360ff6006541661042b576001600160a01b039283169283156109ff5782156109f05760015485516323b872dd60e01b815233848201908152306020828101919091526040820187905299928a91839186169082908690829060600103925af1801561034b576109d3575b506108448483600154168484541690612284565b855190610850826120fd565b6002825286368a84013782600154166108688361216f565b528561087383612192565b528651916370a0823160e01b9384845233868501528a846024818b5afa9384156109c957839461099a575b508254166108ad8654426121b2565b813b15610996579183918b838a6108db8b978f5198899788968795635c11d79560e01b875233938701612212565b03925af1801561098c57908291610978575b5050865192835233848401528883602481895afa90811561096d579061093e575b610918925061224b565b948510610326575060008051602061241883398151915283518061031d87339583612258565b508782813d8311610966575b6109548183612135565b8101031261039157610918915161090e565b503d61094a565b8751903d90823e3d90fd5b610981906120d3565b61034857808a6108ed565b88513d84823e3d90fd5b8380fd5b9093508a81813d83116109c2575b6109b28183612135565b810103126103915751928b61089e565b503d6109a8565b89513d85823e3d90fd5b6109e990893d8b116103cd576103be8183612135565b5088610830565b50835163162908e360e11b8152fd5b50835163e6c4247b60e01b8152fd5b5082346104ea57828260031936011261034857610a9991610a2d612093565b90845191610a3a836120fd565b60028352853660208501376001546001600160a01b0391908216610a5d8561216f565b5281610a6885612192565b9116905283541690855180958194829363d06ca61f60e01b84526024359084015288602484015260448301906121d5565b03915afa908115610ae55790610aba918460209592610ac2575b5050612192565b519051908152f35b610ade92503d8091833e610ad68183612135565b810190612385565b8480610ab3565b505051903d90823e3d90fd5b5082346104ea57826003193601126104ea5760209250549051908152f35b508290346104ea5760603660031901126104ea57610b2b612093565b6001600160a01b0360243581811694909391858503610391576044359381600354163303610ca9578615610c99571693839085610bfc57508680808093895af13d15610bf7573d67ffffffffffffffff8111610be457835190610b98601f8201601f191660200183612135565b81528760203d92013e5b15610bd657507ff24ef89f38eadc1bde50701ad6e4d6d11a2dc24f7cf834a486991f3883328504916020915b51908152a380f35b90516312171d8360e31b8152fd5b634e487b7160e01b885260418352602488fd5b610ba2565b835163a9059cbb60e01b81526001600160a01b039091168382019081526020818101939093529091908290819060400103818a895af1908115610c8f578791610c71575b5015610bd657507ff24ef89f38eadc1bde50701ad6e4d6d11a2dc24f7cf834a486991f388332850491602091610bce565b610c89915060203d81116103cd576103be8183612135565b87610c40565b83513d89823e3d90fd5b835163e6c4247b60e01b81528390fd5b83516282b42960e81b81528390fd5b503461043957610cc7366120a9565b93919460ff6006541661042b576001600160a01b039586169283156109ff5782156109f05784516323b872dd60e01b81523383820190815230602082810191909152604082018690529891908990829081906060010381868a5af18015610ed857610ee2575b50843b1561043957855163d79875eb60e01b815284848201528260248201528281604481838a5af18015610ed857908391610ec4575b505060015486516370a0823160e01b81523085820152919081168983602481845afa928315610eba578493610e8b575b508215610e7b5782898584610db089978f96849885541690612284565b8b805195610dbd876120fd565b6002875236908701378060015416610dd48661216f565b528060025416610de386612192565b5281541692610e12610df68854426121b2565b8d516318cbafe560e01b81529889978896879533938701612212565b03925af1918215610e70579081610e2e93610e55575050612192565b51948510610326575060008051602061245883398151915283518061031d8733958361235b565b610e6992503d8091833e610ad68183612135565b3880610ab3565b8651903d90823e3d90fd5b875163bb2875c360e01b81528590fd5b9092508981813d8311610eb3575b610ea38183612135565b8101031261039157519138610d93565b503d610e99565b88513d86823e3d90fd5b610ecd906120d3565b610439578138610d63565b87513d85823e3d90fd5b610ef890893d8b116103cd576103be8183612135565b5038610d2d565b5082346104ea5760203660031901126104ea57610f1a612093565b6003546001600160a01b0392919083163303610f94578216928315610f8757839060025493815193606085526060850152633bb1373160e11b60808501528416602084015282015260008051602061243883398151915260a03392a26001600160a01b0319161760025580f35b5163e6c4247b60e01b8152fd5b5082516282b42960e81b8152fd5b50346104395781600319360112610439576020906005549051908152f35b5034610439578160031936011261043957905490516001600160a01b039091168152602090f35b508083916003193601126104ea57610ffd612093565b6024359260ff600654166111ef576001600160a01b039182169182156111e05734156111d157835161102e81612119565b6003815260209660603689840137826002541661104a8361216f565b52826001541661105983612192565b5284611064836121a2565b528551916370a0823160e01b93848452338685015289846024818a5afa9384156111c7578394611198575b5082541661109e8654426121b2565b91813b156109965783916110d5918b8b519586948593849363b6f9de9560e01b85528d8501526080602485015260848401906121d5565b903360448401526064830152039134905af1801561034b57908291611184575b5050855192835233848401528783602481885afa908115610e705790611155575b611120925061224b565b9384106111475750815160008051602061241883398151915233918061031d87348361235b565b8251638199f5f360e01b8152fd5b508682813d831161117d575b61116b8183612135565b81010312610391576111209151611116565b503d611161565b61118d906120d3565b6103485780896110f5565b9093508981813d83116111c0575b6111b08183612135565b810103126103915751928a61108f565b503d6111a6565b88513d85823e3d90fd5b50825163162908e360e11b8152fd5b50825163e6c4247b60e01b8152fd5b82516313d0ff5960e31b8152fd5b503461043957816003193601126104395760035490516001600160a01b039091168152602090f35b503461043957816003193601126104395760025490516001600160a01b039091168152602090f35b5082346104ea57816003193601126104ea57611267612093565b825163fb3dd95f60e01b81526024803584830152909185916001600160a01b039186918591829085165afa92831561073f57829361133f575b508293611306938651926112b3846120fd565b600284528736602086013780600154166112cc8561216f565b5280600254166112db85612192565b528454169187519586948593849363d06ca61f60e01b855284015289602484015260448301906121d5565b03915afa908115611332578461132493949592610ac2575050612192565b519082519182526020820152f35b50505051903d90823e3d90fd5b611306935061136390863d881161136a575b61135b8183612135565b810190612401565b50926112a0565b503d611351565b503461043957816003193601126104395760015490516001600160a01b039091168152602090f35b5034610439576113a8366120a9565b93919460ff6006541661042b576001600160a01b039580871693841561041b57831561040b578551976370a0823160e01b92838a5230858b01526020998a816024818b5afa90811561039d578491611656575b5088516323b872dd60e01b815233878201908152306020820152604081018990528c90829081906060010381888d5af180156103d457611639575b5088519085825230878301528b826024818c5afa80156103d457859061160a575b611461925061224b565b9081156115fa579061147c8184938695602497541690612284565b885190611488826120fd565b6002825289368d8401378861149c8361216f565b528b8360015416806114ad85612192565b528b51968780928a8252338c8301525afa9485156115f05784956115c1575b5082845416906114dd8854426121b2565b823b156115bd57918c868a959361150c8f9683975198899788968795635c11d79560e01b875233938701612212565b03925af180156109c9578b929184916115a4575b505060015416936024895180968193825233898301525afa90811561096d5790611575575b61154f925061224b565b948510610326575060008051602061245883398151915283518061031d87339583612258565b508782813d831161159d575b61158b8183612135565b810103126103915761154f9151611545565b503d611581565b6115b0919293506120d3565b6104395789908238611520565b8580fd5b9094508b81813d83116115e9575b6115d98183612135565b81010312610391575193386114cc565b503d6115cf565b8a513d86823e3d90fd5b885163162908e360e11b81528690fd5b508b82813d8311611632575b6116208183612135565b81010312610391576114619151611457565b503d611616565b61164f908c8d3d106103cd576103be8183612135565b5038611436565b90508a81813d831161167c575b61166d8183612135565b810103126103915751386113fb565b503d611663565b508290346104ea5760203660031901126104ea5761169f612093565b6003546001600160a01b039190821633036104dc5781169283156104ce5750826001549280519260608452600a6060850152693430bb32b72a37b5b2b760b11b60808501528416602084015282015260008051602061243883398151915260a03392a26001600160a01b0319161760015580f35b508290346104ea57806003193601126104ea578061172f612093565b815163fb3dd95f60e01b8152602480359582019590955293849182906001600160a01b03165afa91821561178d576020939261176d575b5051908152f35b816117859293503d841161136a5761135b8183612135565b509083611766565b81513d85823e3d90fd5b5082346104ea57828260031936011261034857610a99916117b6612093565b908451916117c3836120fd565b60028352853660208501376117d78361216f565b6001600160a01b03918216905260015481166117f284612192565b5283541690855180958194829363d06ca61f60e01b84526024359084015288602484015260448301906121d5565b503461043957816003193601126104395760209060ff6006541690519015158152f35b5082346104ea5760203660031901126104ea57600354813592906001600160a01b031633036118ce5782825491805192606084526015606085015274191959985d5b1d111958591b1a5b9953d9999cd95d605a1b608085015260208401528201527fc8004015853107e4cb5efa9fdfc530f3530f5f5d8a833a9d67e2efe39717d7f660a03392a25580f35b516282b42960e81b8152fd5b5082346104ea57828260031936011261034857611944916118f9612093565b9084519161190683612119565b6003835260603660208501376002546001600160a01b039190821661192a8561216f565b52816001541661193985612192565b5281610a68856121a2565b03915afa908115610ae55790610aba918460209592611965575b50506121a2565b61197992503d8091833e610ad68183612135565b848061195e565b508290346104ea5760203660031901126104ea57600354823592906001600160a01b03163303611a095750816005549180519260608452600e60608501526d6d6178536c69707061676542707360901b608085015260208401528201527fc8004015853107e4cb5efa9fdfc530f3530f5f5d8a833a9d67e2efe39717d7f660a03392a260055580f35b90516282b42960e81b8152fd5b508060031936011261043957611a2a612093565b6024359260ff60065416611c57576001600160a01b03948286169283156109ff5734156109f057845196611a5d886120fd565b6002885260209786368a8301378160025416611a788261216f565b528160015416611a8782612192565b5284611ac483825416611a9b8754426121b2565b938a51809581948293637ff36ab560e01b8452878c8501526080602485015260848401906121d5565b903060448401526064830152039134905af1908115611c4d57611b009291611af3918791611c33575b50612192565b5192839160015416612284565b833b156104ea57845190631adfd7bd60e31b825282820152856024820152828160448183885af18015611c1557908391611c1f575b505083516370a0823160e01b81523082820152948686602481875afa958615611c15578396611be6575b50851061032657835163a9059cbb60e01b815233918101918252602082018690529190869083908190604001038184875af1908115611bdb5750611bbe575b50815160008051602061241883398151915233918061031d87348361235b565b611bd490853d87116103cd576103be8183612135565b5038611b9e565b8451903d90823e3d90fd5b9095508681813d8311611c0e575b611bfe8183612135565b8101031261039157519438611b5f565b503d611bf4565b85513d85823e3d90fd5b611c28906120d3565b610439578138611b35565b611c4791503d8089833e610ad68183612135565b38611aed565b87513d87823e3d90fd5b82516313d0ff5960e31b81528590fd5b5082346104ea5782826003193601126103485761194491611c86612093565b90845191611c9383612119565b600383526060366020850137611ca88361216f565b6001600160a01b0391821690526001548116611cc384612192565b5280600254166117f2846121a2565b508290346104ea57611ce3366120a9565b93919460ff60065416611ebb576001600160a01b03958616928315611ead578215611e9f5784516323b872dd60e01b81523382820190815230602082810191909152604082018690529891908990829081906060010381878a5af18015611e6557611e82575b50843b156104ea57855163d79875eb60e01b815284838201528760248201528381604481838a5af18015611e6557611e6f575b5060015416908551966370a0823160e01b885230828901528888602481865afa978815611e65578498611e36575b508710611e2857855163a9059cbb60e01b815233918101918252602082018890529291889184919082908590829060400103925af19081156106ff5750611e0b575b5060008051602061245883398151915283518061031d87339583612258565b611e2190863d88116103cd576103be8183612135565b5085611dec565b8551638199f5f360e01b8152fd5b9097508881813d8311611e5e575b611e4e8183612135565b8101031261039157519689611daa565b503d611e44565b87513d86823e3d90fd5b611e7b909391936120d3565b9188611d7c565b611e9890893d8b116103cd576103be8183612135565b5088611d49565b845163162908e360e11b8152fd5b845163e6c4247b60e01b8152fd5b83516313d0ff5960e31b81528390fd5b508290346104ea57806003193601126104ea5780611ee7612093565b8151634815327960e01b8152602480359582019590955293849182906001600160a01b03165afa91821561178d576020939261176d575051908152f35b509134610439578260031936011261043957611f3e612093565b8351611f49816120fd565b60028152843660208301376002546001600160a01b0391611fae918691908416611f728261216f565b528360015416611f8182612192565b52838254168851808095819463d06ca61f60e01b83526024358b8401528c602484015260448301906121d5565b03915afa90811561203857611fce87939260249288916120245750612192565b518351634815327960e01b8152958601819052949384928391165afa928315611bdb5792612004575b5082519182526020820152f35b61201c919250833d851161136a5761135b8183612135565b509038611ff7565b611c4791503d808a833e610ad68183612135565b86513d87823e3d90fd5b839085346104ea5760203660031901126104ea57803591821515809303610996576003546001600160a01b0316330361208857505060ff80196006541691161760065580f35b6282b42960e81b8152fd5b600435906001600160a01b038216820361039157565b6060906003190112610391576004356001600160a01b038116810361039157906024359060443590565b67ffffffffffffffff81116120e757604052565b634e487b7160e01b600052604160045260246000fd5b6060810190811067ffffffffffffffff8211176120e757604052565b6080810190811067ffffffffffffffff8211176120e757604052565b90601f8019910116810190811067ffffffffffffffff8211176120e757604052565b90816020910312610391575180151581036103915790565b80511561217c5760200190565b634e487b7160e01b600052603260045260246000fd5b80516001101561217c5760400190565b80516002101561217c5760600190565b919082018092116121bf57565b634e487b7160e01b600052601160045260246000fd5b90815180825260208080930193019160005b8281106121f5575050505090565b83516001600160a01b0316855293810193928101926001016121e7565b919260809361223792979695978452602084015260a0604084015260a08301906121d5565b6001600160a01b0390951660608201520152565b919082039182116121bf57565b909160a092825260208201526060604082015260056060820152642420ab22a760d91b60808201520190565b604051636eb1769f60e11b81523060048201526001600160a01b03928316602482018190526020949390921692908481604481875afa9081156123225760009161232e575b50106122d457505050565b60009160448492604051948593849263095ea7b360e01b84526004840152811960248401525af1801561232257612309575050565b8161231f92903d106103cd576103be8183612135565b50565b6040513d6000823e3d90fd5b908582813d8311612354575b6123448183612135565b81010312610348575051386122c9565b503d61233a565b909160a0928252602082015260606040820152600360608201526221272160e91b60808201520190565b90602090818382031261039157825167ffffffffffffffff93848211610391570181601f820112156103915780519384116120e7578360051b90604051946123cf85840187612135565b85528380860192820101928311610391578301905b8282106123f2575050505090565b815181529083019083016123e4565b919082604091031261039157602082519201519056fedbf644d856b00690afba8d4cd3fb1c6afa1f453860c0e83555bcb0cb733adf7244573a89df583c0b1e16e6c22d41b4e39de1ca341d0a234b7117ccc2bf727dc4a995d58d3ff5874a6dddaea0cef425f86801752ff3be4102724cc656769e3724a26469706673582212200e3595e85bf369e8dd5d96e0a7169d7776263bd847a14c2a2c0299df63a4e05f64736f6c63430008140033",
  "linkReferences": {},
  "deployedLinkReferences": {}
}